:020000022000DC
:1060000000000420B5620200DD620200DF620200CF
:10601000E1620200E3620200E562020000000000AB
:10602000000000000000000000000000E762020025
:10603000E962020000000000EB620200ED62020073
:1060400085940200EF62020095A40200EF62020054
:10605000A1770200EF620200B57F0200EF6202004A
:10606000EF620200EF620200EF620200EF620200E4
:10607000EF620200EF620200EF620200EF620200D4
:10608000EF62020049C30200EF620200EF62020009
:10609000E9C30200EF62020089890200EF62020098
:1060A000EF620200EF620200EF620200EF620200A4
:1060B000EF620200EF62020000000000000000003A
:1060C000EF620200EF620200EF620200EF62020084
:1060D000EF620200EF620200EF620200EF62020074
:1060E000EF620200EF620200BD100300000000003A
:1060F00000000000EF62020000000000EF620200FA
:10610000000000000000000000000000000000008F
:10611000000000000000000000000000000000007F
:10612000000000000000000000000000000000006F
:10613000000000000000000000000000000000005F
:10614000000000000000000000000000000000004F
:10615000000000000000000000000000000000003F
:10616000000000000000000000000000000000002F
:10617000000000000000000000000000000000001F
:10618000000000000000000000000000000000000F
:1061900000000000000000000000000000000000FF
:1061A00000000000000000000000000000000000EF
:1061B00000000000000000000000000000000000DF
:1061C00000000000000000000000000000000000CF
:1061D00000000000000000000000000000000000BF
:1061E00000000000000000000000000000000000AF
:1061F000000000000000000000000000000000009F
:1062000010B5054C237833B9044B13B10448AFF3F0
:1062100000800123237010BDA8360020000000007C
:106220003C38030008B5034B1BB103490348AFF3E7
:10623000008008BD00000000AC3600203C380300A0
:10624000154B002B08BF134B9D46A3F5803A002148
:106250008B460F461348144A121A0BF053FB0F4B90
:10626000002B00D098470E4B002B00D09847002001
:10627000002104000D000D48002802D00C48AFF3A7
:1062800000800BF0FFFA2000290009F081FF0BF0DD
:10629000E5FA00BF00000800000004200000000034
:1062A00000000000A836002010630020000000005D
:1062B000000000000649074A074B9B1A03DD043B18
:1062C000C858D050FBDC02F061F9FFF7B9FF0000BD
:1062D0006C39030050320020A8360020FEE7FEE7AC
:1062E000FEE7FEE7FEE7FEE7FEE7FEE7FEE7FEE786
:1062F00008B504F073FC0421034808F0D7F8034BF9
:1063000001225A7108BD00BF5439030050320020E9
:10631000064A13680133012B136006D10449054A6C
:10632000C1F800354FF4806353607047C4360020D5
:1063300000A0025000E100E0064A1368013B136030
:106340003BB90549054AC1F800354FF48063C2F8EE
:1063500084307047C436002000A0025000E100E005
:10636000F0B595B0002415460F4608461E4603F0CA
:1063700005FC384623460895082205A91A9D09966A
:106380000D950A948DF82C400C9403F05BFC9DF85D
:1063900014308DF81140DDE9061003F00302012AE4
:1063A000CDE9020127D0022A04D0384603F0EAFBE7
:1063B00015B0F0BDBDF81650C3F3C2038DF8103010
:1063C000AD090826082D2C4628BF0824334622464E
:1063D0000EA9384603F036FC2D1B214608AB02AA55
:1063E0000EA8264405F002FF002DEBD1384603F03D
:1063F000C9FB15B0F0BDBDF81460059DC6F383164A
:10640000C3F3C204B2000EA9384608238DF8104029
:10641000C5F3952503F016FC08AB324628460EA9B5
:10642000009302AB05F06CFE384603F0ABFB15B0F1
:10643000F0BD00BF9BDF70479DDF70479EDF704758
:10644000F0B5324B90F89E431E6804EBC40303EB97
:1064500003132344A9B0C518EEB12D4CAD78A7782D
:10646000AF4240D0012E16D9A779AF4241D0022EBB
:1064700011D0A77AAF4242D0032E0CD0A77BAF42F7
:106480000BD0042E07D0A77CAF4220D0052E02D01F
:10649000A67DAE4221D029B0F0BDB4F80CC0C75AD9
:1064A000BC45EED11B4B1E68002EF4D015460C46A1
:1064B000A022002168460BF025FA01236846ADF8BA
:1064C000025001948DF80030B04729B0F0BDB4F807
:1064D00010C0C75ABC45D9D1E4E7A48AC35A9C422C
:1064E000E0D029B0F0BD30F803C02788BC45B9D151
:1064F000D8E7B4F804C0C75ABC45B8D1D2E7B4F85D
:1065000008C0C75ABC45B7D1CCE700BFD036002081
:10651000B03A0020C83600202DE9F04F90F89EC315
:106520004C4F0FFA8CF404EBC40303EB03133D68E8
:10653000234483B0C6181DB3474CB67894F8028044
:10654000B04572D0012D1BD994F806E0B64573D042
:10655000022D15D094F80AE0B64574D0032D0FD063
:1065600094F80EE0B6450ED0042D09D094F812E050
:10657000B6454CD0052D03D094F816E0B6454DD065
:1065800003B0BDE8F08FB4F80C8030F803E0F045BC
:10659000EAD1324BD3F800B0BBF1000FF0D0DFF8F6
:1065A000C490D9F80060052EEAD82D4C4FF0A40A0B
:1065B0000AFB06FA04EB0A0396469A228846A3F8D9
:1065C00002E002FB0C01181D01930BF08DF901365E
:1065D000B8F1000F019BC9F8006014BF002202222D
:1065E000AE42C3F8A0B004F80A20C9D10025D4F8FF
:1065F000A030204698473B6801359D4204F1A40431
:10660000F5D30023C9F8003003B0BDE8F08FB4F82B
:10661000108030F803E0F045ACD1BAE7A48AC35A41
:106620009C42B6D003B0BDE8F08FB4F8008030F8DB
:1066300003E0F04586D1ACE730F80380B4F804E01D
:10664000F04585D1A5E7B4F8088030F803E0F045BF
:1066500084D19EE7D0360020B03A0020C836002012
:10666000D4360020AC3A00202DE9F04390F89E5338
:1066700090F89D3305EBC50808EB0818454400EB7E
:10668000050E03EBC3049EF8047005EB440403F10C
:10669000010C04F10A06BC4583B006443DD0BB4260
:1066A00033D200F11C080444A84407F1FF3C3589AB
:1066B0009C4505F1010610D0658CAE4217D0013D16
:1066C000ADF80650ADF8046000230B70104601A928
:1066D000FFF7B4FE03B0BDE8F083BEF80860AE4239
:1066E00019D00135ADF80450ADF80660ECE703EBC6
:1066F000C30608EB46065D1C5FFA85F94F452B463D
:1067000080F89D5304F11204D1D8012300200B70AE
:1067100003B0BDE8F0830026EDE73389BEF808003A
:106720008342F2D00133ADF80430ADF80600CBE778
:1067300090B389B36E4B1B7873B32DE9F04F038888
:10674000113BADB004460D46222B00F29680DFE8E7
:1067500013F0360294009400940094009400940086
:106760009400940094009400940094009400940089
:106770009400940094009400940094009400940079
:106780009400940094009400940094009400940069
:1067900024009400D700A40070478688B1F8A23383
:1067A0009E4240F01C82C388002B40F0858291F805
:1067B0009E63016932B202EBC20303EB031313447D
:1067C0002B44C3F8061095F89D238088002A00F01A
:1067D0009E82013AD2B29A2102EBC20201FB06F17B
:1067E00001EB42022A44528A013292B21B89ADF86F
:1067F000123004A9ADF81020FFF71EFE064600284F
:106800003BD095F89E333B4803EBC302002102EBDB
:106810000212006885F89F131A44A918A78840B38C
:10682000354B897893F802C08C4500F03D840128EF
:106830001FD993F806C08C4500F05484022818D064
:1068400093F80AC08C4500F05D84032811D093F8BA
:106850000EC08C4500F05E8404280AD093F812C064
:106860008C4500F05F84052803D0987D884200F0B5
:106870006184224B03225F801A7095F8A0334BB1DC
:106880002388303B1F2B05D8A688B5F8A2339E423B
:1068900000F0ED812DB0BDE8F08F8288B1F8A23311
:1068A0009A42EAD1C18895F89EC395F89D63002964
:1068B00040F0AC814389002B00F0A8819A2000FBB6
:1068C0000CF006EBC60300EB430028442246D389B4
:1068D000A3F52453082B00F2C881DFE813F0C401AC
:1068E000C001BD01C601C601C601C601C6018601BF
:1068F000CC360020D0360020B03A0020D43600201C
:106900008688B1F8A2339E4240F06981C388002B8B
:1069100040F02B8191F89E93877A0FFA89F303EB6D
:10692000C30606EB06161E4401EB060898F804A001
:106930005744082F00F31882FFB288F80470CDF88E
:106940000490BA45514680F08983A646CA009A2031
:1069500000FB09F002EB0A0C5EF80C3F98F804709B
:10696000DEF8049000EB4C0CAC440AF10108CCF8C2
:106970000A30CCF80E90BEF808E0ACF812E0002324
:10698000B845ACF81430ACF81630ACF81830ACF8A8
:106990001A3080F0DC80A6464FEAC80202EB080CF1
:1069A0005EF816BF00EB4C0CAC44DEF804A0CCF84B
:1069B0000EA0CCF80AB001F10209BEF808E0ACF86C
:1069C00012E04F45ACF81430ACF81630ACF8183083
:1069D000ACF81A3040F2B882A6464FEAC90202EB80
:1069E000090C5EF820BF00EB4C0CAC44DEF804A0B0
:1069F000CCF80EA0CCF80AB001F10308BEF808E00C
:106A0000ACF812E04745ACF81430ACF81630ACF8EE
:106A10001830ACF81A3040F29982A6464FEAC80204
:106A200002EB080C5EF82ABF00EB4C0CAC44DEF81D
:106A300004A0CCF80EA0CCF80AB001F10409BEF80D
:106A400008E0ACF812E04F45ACF81430ACF8163062
:106A5000ACF81830ACF81A3040F27682A6464FEA0D
:106A6000C90202EB090C5EF834BF00EB4C0CAC44DD
:106A7000DEF804A0CCF80EA0CCF80AB001F10508AD
:106A8000BEF808E0ACF812E04745ACF81430ACF8BA
:106A90001630ACF81830ACF81A3040F25782A646DF
:106AA0004FEAC80202EB080C5EF83EBF00EB4C0C4C
:106AB000AC44DEF804A0CCF80EA0CCF80AB001F18A
:106AC0000609BEF808E0ACF812E04F45ACF8143007
:106AD000ACF81630ACF81830ACF81A3040F234820A
:106AE000A6464FEAC90202EB090C5EF848BF00EB6C
:106AF0004C0CAC44DEF804A0CCF80EA0CCF80AB0E4
:106B00000731BEF808E0ACF812E08F42ACF8143060
:106B1000ACF81630ACF81830ACF81A3040F21682E7
:106B2000A446CA0002EB010E5CF8529F00EB4E0037
:106B30002844DCF80480C0F80E80C0F80A90BCF845
:106B400008C0A0F812C08382C38203834383019BE1
:106B50000A449A2105EB420201FB03F116446B182B
:106B6000728A1E89B242C0F0D480002785F89D73D6
:106B7000A2880DF10F012846FFF776FD0646002892
:106B800040F00B819DF80F30002B3FF476AEA288C9
:106B900001212846FFF7C0FC95F8A133AB4AA7882E
:106BA00012680133DBB2934285F8A133C0F02E8224
:106BB000A74B85F89F6303225F801A705DE6828889
:106BC000B1F8A2339A427FF465AE00234FF6FF720C
:106BD00081F89F3381F8A033A1F8A2235AE695F8F3
:106BE000A023002A7FF453AE54E69789838A478313
:106BF0002BB1C38A1BB1038B0BB1438B33B96389B0
:106C00000131994202F10602FFF461AE9A2303FBBF
:106C10000C5301361B7900279E428DF80F7064D10A
:106C200001238DF80F30A28801212846FFF774FC5C
:106C300095F8A133854AA68812680133DBB29342E6
:106C400085F8A133C0F0B381814B032100225E801F
:106C5000197085F89F2310E693898382C8E793898A
:106C60000383838AC4E79389C382838AC0E74FF48E
:106C70006972002128460AF045FE764B764C18686A
:106C800028600023A5F8A26385F8A133304685F873
:106C90009E3385F89D332A4601212360FFF7CAFB06
:106CA000112800F0AD8100287FF4F4AD012385F8B0
:106CB000A00385F89F33EDE5324600212846FFF713
:106CC0002BFC95F8A133614AA78816680133DBB223
:106CD000B34285F8A133C0F0CB805D4B0321002285
:106CE0005F80197085F89F23C7E585F89D63A288AA
:106CF0000DF10F012846FFF7B7FC0646002840F0CB
:106D000027819DF80F30002B3FF4B7AD8BE7DA8871
:106D10006CE5082F3FF429AF85F89D73A088002FFC
:106D200000F0B8817B1EDBB203EBC30301EB43032E
:106D30002B445B8A01339BB204A9ADF81030ADF847
:106D40001260FFF779FB00283FF497AD002385F828
:106D50009F330146A2882846FFF772FB3C4BA2886E
:106D60005A8003221A7088E53C4B3D4F3D49FF1A7B
:106D7000FF0808233F0488F8043047F0020738462C
:106D8000AA5B06F0DFFE3846374906F003FE95F8A9
:106D90009E3398F804700193D3E595F89E332B4900
:106DA00085F89F7303EBC30202EB02120868A78801
:106DB0001A44A91800283FF45CAD264B897893F853
:106DC00002C08C4500F05E8101287FF652AD93F839
:106DD00006C08C4500F0608102283FF44AAD93F86C
:106DE0000AC08C4500F0868103283FF442AD93F839
:106DF0000EC08C4500F0368104283FF43AAD93F87C
:106E000012C08C4500F0368105283FF432AD987DE4
:106E100088427FF42EAD998AAB5A99427FF429AD0E
:106E2000124BD3F80080B8F1000F3FF422ADA0223E
:106E3000002104A80AF066FD0123ADF8127004A831
:106E400005968DF81030C047A78812E5D03600208F
:106E5000D4360020B03A0020AC3A0020CC380300F1
:106E600004390300581C0300A01C0300C83600208E
:106E700095F89E13CC4B0131C9B208B200EBC002A9
:106E800002EB0212024405EB020C53F8210085F8D4
:106E90009E134FF0000885F89D830121A85062469B
:106EA0008CF804803846FFF7C5FA814600283FF485
:106EB000E4AC95F89E1385F89F8301EBC10202EBC9
:106EC00002120A44A91898788978884200F04F8104
:106ED000012E3FF4CEAC9879884200F04181022E19
:106EE0003FF4C7AC987A884200F05681032E3FF4F5
:106EF000C0AC987B884200F04881042E3FF4B9ACC6
:106F0000987C884200F03A81052E3FF4B2AC987D1F
:106F100088427FF4AEAC998AAB5A99427FF4A9AC0F
:106F2000A24B1E68002E3FF4A4AC04A8A0220021AE
:106F30000AF0E8FC012304A8ADF81270CDF8149013
:106F40008DF81030B04794E4414600E64946FEE52E
:106F500095F89E33964985F89F7303EBC30202EBC5
:106F600002120868A7881A44A91800283FF481ACC7
:106F70008D4B897893F802C08C4500F0E1800128A0
:106F80007FF677AC93F806C08C4500F0E1800228CC
:106F90003FF46FAC93F80AC08C457FF425AFB3F88B
:106FA00008E035F802C0E6457FF41EAF38E795F8F3
:106FB0009E237D480132D2B211B201EBC10303EB33
:106FC00003130B44E91850F8220085F89E2300278C
:106FD00085F89D730A46E8500F7130460121FFF78E
:106FE00029FA00283FF449AC0146324685F89F73E0
:106FF0002846FFF725FA6F4B03225E801A703CE4A7
:10700000012385F89F3385F8A03343E495F89E2348
:10701000654885F89D630132D2B211B201EBC1031C
:1070200003EB03130B44E91850F8220085F89E2364
:10703000E8500A460E7138460121FFF7FBF9002897
:107040003FF41BAC01463A4685F89F632846FFF79C
:10705000F7F9584B03225F801A700EE40AF1FF31F2
:10706000CA0074E5B3F80CE035F802C0E6457FF4D9
:10707000C3AED5E6B3F810E035F802C0E6457FF4BC
:10708000C3AECDE635F802E0B3F800C0E6457FF4C4
:107090009BAEC5E6DB884FE6B3F804E035F802C0E6
:1070A000E6457FF499AEBBE635F802E0B3F800C0E0
:1070B000E6457FF4BCAB3D4BD3F80080B8F1000F40
:1070C0003FF4D7ABA022002104A80AF01BFC012347
:1070D000ADF81270059604A88DF81030C047A78847
:1070E000FFF7C7BB35F802E0B3F804C0E6457FF40C
:1070F000A5ABE0E735F802E0B3F808C0E6457FF459
:1071000073AE8DE635F802E0B3F808C0E6457FF4CB
:107110009CABD0E735F802E0B3F80CC0E6457FF44D
:107120009BABC8E735F802E0B3F810C0E6457FF442
:107130009AABC0E7998AAB5A99427FF49AABBAE707
:10714000B3F800E035F802C0E6457FF418AF67E613
:10715000B3F804E035F802C0E6457FF418AF5FE607
:1071600035F802C0988884457FF4B9AED8E635F882
:1071700002C0188884457FF4ABAED1E635F802C072
:10718000188A84457FF4C0AECAE635F802C09889F3
:1071900084457FF4B2AEC3E635F802C01889844551
:1071A0007FF4A4AEBCE600BFB03A0020C836002091
:1071B000D0360020D43600202DE9F0410388112B71
:1071C00082B0044675D00BD9122B49D0502B04D174
:1071D000714EC288F3899A427ED002B0BDE8F08138
:1071E000102BFAD1C37B012BF7D16C4D29884FF6B8
:1071F000FF72914240F0B280694F8288664E2A80C9
:1072000003CFC5F80A00C5F80E10618A6F89F089AE
:107210004FF0000C8F4285F808C000F29280AF89D1
:107220008F42C0F08E80E989A78A40F2F314A14210
:1072300094BF4C1A0C1BBC4200F2838001F2F31184
:10724000B9427ED36B720028C7D17369002BC4D0BA
:107250000121ADF806208DF8041001A89847BCE77D
:107260004E4D82882B889342B7D1418968898842E4
:1072700058D8A889884255D3E989A48940F2F310E7
:10728000814294BF481A081AA0424BD801F2F31168
:10729000A14247D3404A52694FF480712981002AA4
:1072A0009BD00121ADF806308DF8041001A890475D
:1072B00093E73A4D82882B889A428ED1686805F010
:1072C00041FB18B1344B9B6903B198474FF6FF73EC
:1072D0002B8002B0BDE8F081038A022B7FF47DAFE2
:1072E0002E4DB0F804802F8847457FF476AF1230DA
:1072F00007F09EFE002839D06B7A002B3DD1D6E9ED
:1073000001132C7A68683A46002C18BF194605F01C
:10731000C3FA00283FF461AFB369002B3FF45DAFBF
:1073200098475AE71C4E2C7A6868D6E90113002C5E
:1073300018BF194600236B7205F0AEFA0028EBD196
:107340004BE700236B7200287FF447AF68687168D1
:1073500005F0A2FA00283FF440AFDDE70E4B9B6931
:10736000002B3FF43AAF0420984736E7686805F0F1
:10737000E9FA00283FF431AFCEE7736900222A72A0
:10738000002B3FF42AAF0122ADF806808DF80420CF
:1073900001A8984721E700BFC83A0020E43A00203E
:1073A000F83A00202DE9F0438FB0774C0094002488
:1073B000C1F80441D1F804510495049DC1F8244159
:1073C000D1F824510395039DC1F81C41D1F81C51FB
:1073D0000295029DC1F80841D1F808510195012B91
:1073E000446380F82E400CBF02240124019DC1F8A3
:1073F000004201240C620C6005684DB140F2862306
:1074000083608368C1F8043300200FB0BDE8F083C7
:10741000009E002E3DDD264603F1FF394FF0020CA1
:1074200016E0D1F82471D0F83480002F59D0C1F87B
:107430002441D1F824410A940A9C4E6180F82E60C0
:1074400043451BD0009C013C0094009C002C20DD97
:1074500090F82E40002CE4D0C1F82451D1F82441FA
:107460000B940B9CC1F81C51D1F81C410C940C9C42
:10747000C1F80851D1F808410D940D9CD1F8044190
:10748000002CDFD00023C1F80431D1F8043105937A
:10749000059B90F82E30C3B1D1F8C434C1F8C43480
:1074A0009BB113F0010F18BF4FF4024048F20122C4
:1074B00008BF032013F0020F18BF104648F2022243
:1074C00013F0040F18BF104600E00020009B002BB3
:1074D0009BDC00220523C1F800250320C1F80035FC
:1074E00093E7D1F81C4194B1C1F81C71D1F81C414B
:1074F0000994099CD1F824412CBB446BA3423ED98A
:10750000145DC1F81C45446B0134446398E7D1F81D
:1075100008E1BEF1000F93D0C1F80841D1F808E1AD
:10752000CDF81CE0DDF81CE0D1F824E1BEF1000F3D
:1075300013D0C1F82441D1F824410694069C4E6131
:1075400080F82E607CE7C1F82471D1F824410894BA
:10755000089C4E6180F82E6072E7446BA3427FF670
:107560006FAFD1F818E502F804E0446B01344C45E4
:10757000446306D0A3423FF463AF0E6260E74E61FE
:107580005EE7C1F800C2F8E7A08601002DE9F043EC
:107590008FB0824C00940024C1F80441D1F804510A
:1075A0000495049DC1F82441D1F824510395039D0D
:1075B000C1F81C41D1F81C510295029DC1F8084147
:1075C000D1F8085101950125019EC1F8004244639C
:1075D00080F82E400D628D60446B9DF85870A34278
:1075E00011D9145DC1F81C45446B2C4444630568F3
:1075F00085B140F2862383608368C1F8043300209C
:107600000FB0BDE8F083002F40F0A0804D61056809
:10761000002DEED1009C002C3EDD03F1FF3C012645
:107620004FF0020E17E0D1F82481D0F83490B8F171
:10763000000F59D0C1F82441D1F824410A940A9C82
:107640004E6180F82E604B451BD0009C013C00949D
:10765000009C002C20DD90F82E40002CE3D0C1F8D7
:107660002451D1F824410B940B9CC1F81C51D1F842
:107670001C410C940C9CC1F80851D1F808410D94A0
:107680000D9CD1F80441002CDFD00023C1F8043157
:10769000D1F804310593059B90F82E30C3B1D1F891
:1076A000C434C1F8C4349BB113F0010F18BF4FF4B8
:1076B000024048F2012208BF032013F0020F18BF56
:1076C000104648F2022213F0040F18BF104600E0E3
:1076D0000020009B002B93DC00220523C1F800252D
:1076E0000320C1F800358BE7D1F81C4194B1C1F8F3
:1076F0001C81D1F81C410994099CD1F824413CBB60
:10770000446BA34240D9145DC1F81C45446B01345D
:10771000446398E7D1F80881B8F1000F93D0C1F81D
:107720000841D1F80881CDF81C80DDF81C80D1F823
:107730002481B8F1000F15D0C1F82441D1F82441BB
:107740000694069C4E6180F82E607CE7CD614EE782
:10775000C1F82481D1F824410894089C4E6180F836
:107760002E6070E7446BA3427FF66DAFD1F81885A9
:1077700002F80480446B0134644544630AD0A34298
:107780003FF461AF0E625EE70FB94E615BE7012324
:10779000CB6181E7C1F800E2F4E700BFA0860100F9
:1077A000F0B5714C94F82E2093B04FF040239AB965
:1077B000D3F82411A56A606B00294AD0C3F82421AC
:1077C000D3F8242108920122089984F82E205A61C6
:1077D000854214D013B0F0BD0022C3F82421D3F8A1
:1077E000241109910999C3F81C21D3F81C110A919D
:1077F0000A99C3F80821D3F808310B930B9B4FF07B
:107800004023D3F80421002AE4D00022C3F8042145
:10781000D3F804310393039B94F82E30276A002B8E
:1078200052D1217B8B1E012B66D9504E0FCE0DAD50
:107830000FC533682B6000238DF8303000237907A3
:1078400084F82F30C6D4D4E900310CA8984713B07F
:10785000F0BDD3F81C21666AB2B1C3F81C11D3F88D
:107860001C210792079AD3F8242194F82C70002A3F
:1078700056D0C3F82411D3F8242106920122069988
:1078800084F82E205A61A3E7D3F8081100299FD06D
:10789000C3F80821D3F8081105910599D3F82411EC
:1078A000002943D1854293D9D3F818253254626B0D
:1078B000691E01328A42626351D095428AD04FF0EC
:1078C000402301221A6285E7284E0FCE0DAD0FC569
:1078D00033682B604FF04022D2F8C434C2F8C4346D
:1078E0009A0703D501238DF83030A7E7580744BF26
:1078F00002238DF83030A1E7626AA3699A4294D1DD
:10790000E2696369C7F34017032984F82C70C4E95E
:1079100009231BD04FF040211348FFF743FD59E7DF
:1079200085420DD80122C7B95A6151E7C3F8242115
:10793000D3F8242104920122049984F82E20F3E73D
:10794000325CC3F81C250130606343E700974FF0B9
:1079500040210548FFF71AFE3CE7DA615CE70222A6
:10796000C3F80022ABE700BF003B00200C3B002027
:107970002DE9F04F90F804A0DFF80C814FEA0A19C6
:10798000A9EB0A07BF0008EB070683B096F82D5055
:10799000002D62D10C460546374900680193934695
:1079A00002F07EFD002862D148F807B0019BB0606C
:1079B000736086F82F0086F83000637B86F83830D5
:1079C00023681F2B86BF03F01F032C494FF0A041F3
:1079D00003F5E07340F20C6641F8236063681F2BE7
:1079E00086BF03F01F0325494FF0A04103F5E07364
:1079F00040F20C6641F82360D4E900362968C1F8EA
:107A00000835C1F80C65A368C1F82435BBF1000F37
:107A100019D02A68237B120B51B25B010029DBB21B
:107A20001FDB01F1604101F5614181F800332B68F2
:107A3000134C1B0B5AB2520903F01F03012101FA28
:107A400003F344F82230A9EB0A0908EB8908012363
:107A500088F82D3003B0BDE8F08F082003B0BDE8F2
:107A6000F08F084902F00F0211440B76DFE7112076
:107A700003B0BDE8F08F00BFA17702000003005003
:107A800000E100E0FCEC00E0003B00200379064A46
:107A90000168C3EB031302EB83030220052283F882
:107AA0002D00C1F800257047003B00202DE9F04F64
:107AB0000479DFF8B090D0F800A02948CAF808038C
:107AC0008DB0C4EB04184FEA880809EB08059DF84F
:107AD00058B095F82F6004950020BBF1000F2C469C
:107AE00014BF202404460394CDE90700CDE9090022
:107AF0000B906EBB8DF81D1008930A9207AC9C4644
:107B000017468E460FCC05F10C060FC62468059467
:107B10000123039C85F82F30CAF888E5CDF800B022
:107B20002C62059C049885F82CB063463A46514671
:107B3000C5E9097C3460FFF729FD59F8083013B115
:107B40000DB0BDE8F08F85F82F300DB0BDE8F08F97
:107B5000AB68CAF8043311200DB0BDE8F08F00BF48
:107B600086420400003B00202DE9F04F0579DFF844
:107B7000AC90D0F800E02848CEF80803C5EB051813
:107B80004FEA880809EB080489B094F82F60009444
:107B90000020CDF81200CDF80E00CDF81600CDF87B
:107BA0001A00ADF81E0086BB9C464FF0010B06F094
:107BB000FF0A8DF80D10CDF810C006928DF80CB0AC
:107BC00003AE174601910FCE04F10C050FC53668C0
:107BD000019B84F82FB03A46CEF88835714663464B
:107BE0000098C4F820A0C4E9097C84F82CA02E6079
:107BF000FFF7D8FB59F8083013B109B0BDE8F08F92
:107C000084F82F3009B0BDE8F08FA368CEF80433B4
:107C1000112009B0BDE8F08F86420400003B00202F
:107C2000F0B5224C94F86A5083B0002D3AD14FF051
:107C3000FF334FF0FF364FF0FF372946062204F19D
:107C40006400C4E90033C4E90233C4E90433C4E97D
:107C50000633C4E90833C4E90A332366C4E90C6770
:107C6000C4E90E67C4E91067C4E91267C4E9146780
:107C7000C4E9166709F046FE0D4A0E4B0E491D6019
:107C8000C02082F80603402010601B680193019811
:107C90004FF000430122284684F86A20C1F80433DB
:107CA00003B0F0BD082003B0F0BD00BF403B002092
:107CB00000E100E07C61004000600040034B93F86D
:107CC0006A00003018BF0120704700BF403B002011
:107CD000F0B5704B1C1894F93050002D63DA8E7893
:107CE000C6F340069646002E57D01D68013500F0B9
:107CF000C3800124082553F82470013756D004F1BD
:107D0000010C53F82C7001374FD0A71CAF4242D260
:107D100053F82720013200F0AD8004F1030CAC458C
:107D200039D253F82C7001373FD004F1040CAC4524
:107D300031D253F82C70013737D004F1050CAC4523
:107D400029D253F82C7001372FD004F1060CAC4522
:107D500021D253F82C70013727D004F1070CAC4521
:107D600019D253F82C7001371FD004F1080CAC4520
:107D700011D253F82C70013717D004F1090CAC451F
:107D800009D253F82C7001370FD00A34AC4202D21A
:107D9000DC6A01346CD00420F0BD1D6A013571D05D
:107DA00009240C25A7E70820F0BD64461F1865B21A
:107DB00043F824E087F8305016B91C4484F8580082
:107DC0008A7854071AD4D60741D41F284C7887BF25
:107DD000314E00F01F0202464FF0A04602F5E0725D
:107DE000A40046F822402D4EC40800F0070C375D71
:107DF000012202FA0CF23A4332558A78097812F0DD
:107E000002021AD0AB0003F1804303F5C043020223
:107E1000D3F8100520F44F3020F44070C3F810055B
:107E20000904D3F8100501F4403102F47C520A43EE
:107E30000243C3F810250020F0BD083D2B44104636
:107E400093F8602042EA811183F86010F0BD1F288A
:107E500087BF114A00F01F0404464FF0A04202EB16
:107E60008402D2F8004724F00204C2F80047BAE7BF
:107E70000B249BE73C4699E70025C3F800E084F813
:107E800030509DE7082684F830601A623546344643
:107E900093E700BF403B002000030050A43B0020BC
:107EA00070B4394C251883B095F93030072B10DDAC
:107EB000234493F858309B09032B34D0012B0CBF7B
:107EC0004FF400314FF440311F284CD84FF0A043FD
:107ED00039E0DAB2072A23D8980000F1804000F593
:107EE000C04003F140029200D0F8106592B202F156
:107EF000804202F5C04246F00106C0F8106500203D
:107F0000106012680192019A51B195F9302054F82D
:107F100022202AB101221D4902FA03F3C1F80433D9
:107F200003B070BC70471F2820D9194BD3F8103507
:107F300000F01F00C34013F0010F14BF4FF4403195
:107F40004FF40031124B03EB8000D0F8002722F4ED
:107F50004032C0F80027D0F800370B43C0F8003794
:107F600003B070BC704700F01F00EBE74FF0A04279
:107F70001346D2F81025C24012F0010F0CBF4FF487
:107F800000314FF44031DEE7403B0020006000400C
:107F9000000300501F288ABF054B4FF0A04300F09C
:107FA0001F00D3F8103523FA00F000F001007047ED
:107FB000000300502DE9F047002388B0CDE90233DB
:107FC000C84A1668012E00F047821E46C64B1A6842
:107FD000012A00F03382C54B1A68012A00F0208282
:107FE000C34B1A68012A00F00D82C24B1A68012A9D
:107FF00000F0FA81C04B1A68012A00F0E781BF4BFC
:108000001A68012A00F0D481BD4B1A68012A08D0F1
:10801000BC4B1A68012A00F02A820EBB08B0BDE8EA
:10802000F087B94AD2F804231706F1D500221A6066
:1080300019680091603319680098012946F080069C
:108040000ED11A601B6801934FF0A042019BD2F839
:108050001025AE4B0292D3F81035039346F000463C
:10806000AB4F00240125A30003F180432E4203F50A
:10807000C0434FEA45050BD0D3F8100557F824202C
:10808000D3F81015C0F30520C1F3014102B19047A8
:108090000134082CE7D1002EC0DA0DF110089C4CF9
:1080A0009A4F0023C8F80430049394F960304FF0DD
:1080B000FF304FF0FF315D1CCDE906014FF00106A6
:1080C00000F0F5805FFA83FC2CF0C00008AB4FEAAB
:1080D000D00903EB090E0CF007031EF8082C06FA72
:1080E00003F312EA030521D022184FEA9C1192F9FA
:1080F000302054F82220002A00F03481032900F0B7
:1081000033811F2800F2E98005464FF0A04C0CEBAC
:10811000850C1EF8185CDCF800E71D40CEF3014E1C
:1081200040F0CF80BEF1030F00F0B38194F96130CD
:10813000581C32D0DBB223F0C00008AA4FEAD00EA0
:1081400002EB0E0C03F007011CF8082C06FA01F9EB
:1081500012EA090F21D02218990992F9302054F817
:108160002220002A00F01081032900F010811F282E
:1081700000F2F48003464FF0A04E0EEB83031CF890
:1081800018ECD3F800C71EEA090FCCF3014C40F0FD
:10819000D980BCF1030F00F08E8194F96230591C34
:1081A00032D0DBB223F0C00008AA4FEAD00E02EBB7
:1081B0000E0C03F007011CF8082C06FA01F912EA6C
:1081C000090F21D02218990992F9302054F8222061
:1081D000002A00F0CF80032900F0CF801F2800F292
:1081E000A58003464FF0A04E0EEB83031CF818EC5D
:1081F000D3F800C71EEA090FCCF3014C40F08A8087
:10820000BCF1030F00F06B8194F963305A1C33D03A
:10821000DBB223F0C00008AA4FEAD00E02EB0E0C2E
:1082200003F007021CF8081C06FA02F2114223D0E0
:1082300004EB0009990999F9309054F82990B9F1A3
:10824000000F00F0AB80032900F0AB801F288BBF2C
:10825000BE464FF0A04E03F01F0303460EEB830310
:108260001CF818ECD3F800C71EEA020FCCF3014C3F
:1082700060D1BCF1030F1CD0002D3FF4CFAE4FF006
:10828000A042029BD2F81015D7F810058B4203D1FB
:10829000039B83423FF4C2AEDDE90423CDE906230C
:1082A00094F960305D1CCDE902107FF40BAF00251E
:1082B0003CE7032900F02981B9F1000FDCD0C84761
:1082C000DAE7BEF1020FF2D1032900F0398100256F
:1082D000002A3FF42BAF904728E70CF01F05BC465F
:1082E00015E700BF006100400461004008610040E4
:1082F0000C610040106100401461004018610040B2
:108300001C6100407C6100400060004000030050A0
:10831000403B0020BCF1020F7FF476AF032900F050
:108320000C81002A3FF470AF90476DE703F01F0304
:10833000BE4659E7BCF1020F9ED10329BCD14FF4D0
:10834000403CE4E0BCF1020F7FF427AF032900F0CA
:10835000F180002A3FF421AF90471EE703F01F038E
:10836000BE460AE70329A2D118F809501D4308F8B0
:108370000950C6E603297FF447AF18F80EA04AEA71
:10838000090A08F80EA029E703297FF406AF18F8B8
:108390000EA04AEA090A08F80EA0E8E603297FF4CD
:1083A0006BAF18F80EA04AEA020A08F80EA04DE7D3
:1083B000654AD2F8042352067FF526AE00221A60E1
:1083C0001B680093009B46F040061DE65E4AD2F80B
:1083D000042391067FF513AE00221A601B680093F8
:1083E000009B46F020060AE6574AD2F80423D0063E
:1083F0007FF500AE00221A601B680093009B46F0D8
:108400001006F7E5504AD2F8042314077FF5EDADC6
:1084100000221A601B680093009B46F00806E4E502
:10842000494AD2F8042355077FF5DAAD00221A60D5
:108430001B680093009B46F00406D1E5424AD2F83F
:10844000042397077FF5C7AD00221A601B680093CD
:10845000009B46F00206BEE53B49D1F8041311F03B
:10846000010150D0136013680093009BAEE5002219
:108470001A601B6801934FF0A042019BD2F81025AF
:10848000324B0292D3F810350393002E3FF405AE21
:10849000E4E503297FF41CAF4FF40035DCF8003726
:1084A00023F44033CCF80037DCF800372B43CCF80A
:1084B000003701250CE703297FF44BAF4FF4003E52
:1084C000D3F800C72CF4403CC3F800C7D3F800C76A
:1084D00001354EEA0C0CEDB2C3F800C739E70329A9
:1084E0007FF41FAF4FF4003ED3F800C72CF4403C9C
:1084F000C3F800C7D3F800C701354EEA0C0CEDB243
:10850000C3F800C70DE70E4660E54FF4003CD3F812
:10851000002722F44032C3F80027D3F800270135A2
:1085200042EA0C02EDB2C3F80027B9F1000F7FF464
:10853000C6AEA4E64FF4403EC2E74FF4403ED3E758
:108540004FF44035AAE700BF006000400003005030
:1085500001F01F024B09012100EB8300914004F060
:1085600083BC00BF01F01F0201234909934000EBC7
:108570008100D94304F084BC4B0901F01F0150F87D
:108580002300C84000F00100704700BF10B44FF056
:1085900080414FF080520020C1F80C015E4BC1F8C1
:1085A0001001C1F83805D2F80414C3F82015D2F828
:1085B0000814C3F82415D2F80C14C3F82815D2F8FF
:1085C0001014C3F82C15D2F81414C3F83015D2F8CF
:1085D0001814C3F83415D2F81C14C3F84015D2F897
:1085E0002014C3F84415D2F82414C3F84815D2F85F
:1085F0002814C3F84C15D2F82C14C3F85015D2F82F
:108600003014C3F85415D2F83414C3F86015D2F8F6
:108610003814C3F86415D2F83C04C3F86805D2F8DE
:1086200040043E49C3F86C050968D2F84424C3F8F5
:108630007025082924D04FF08043D3F80024D207B6
:1086400044BF6FF00102C3F80024354AD2F88830E5
:1086500043F47003C2F88830BFF34F8FBFF36F8FBE
:108660004FF01023D3F80022002A23DBD3F8043282
:10867000002B1FDB2B4B2C4A1A605DF8044B704714
:108680002A4B1B68002BD6D129482A4A2A4C046061
:108690002A492B4BFB20C2F818050A681B68294899
:1086A00022F00F0203F00F0313434FF400720B602C
:1086B0000260C0E7244A0123C2F80435D2F800342E
:1086C000002BFBD04FF0102312211F4AC3F80012D9
:1086D000D2F80034002BFBD04FF0102312211A4A9D
:1086E000C3F80412D2F80034002BFBD00023164943
:1086F000C2F80435D1F80034002BFBD0BFF34F8F04
:108700000749124BCA6802F4E0621343CB60BFF31F
:108710004F8F00BFFDE700BF00C0004030010010D8
:1087200000ED00E0583200200090D003340100102A
:108730008C56004000F0004048810300E40E0040E9
:10874000580200104096024000E001400400FA0583
:1087500010DF704711DF704770B53D4D2B7884B046
:10876000002B66D13B4E3C49012302A8337000F038
:10877000BBFE039B2BB90EE002A800F0BFFE039BDB
:108780004BB1D3E90021002090470028F4D10446E2
:10879000204604B070BD314902A800F0A5FE039B3D
:1087A0004BB1D3E900210020904702A800F0A6FEBB
:1087B000039B002BF5D12A4A002312688DF808305C
:1087C00002A8019206F0C6FA264901A8FFF7C0FFE9
:1087D000B0FA80F304465B099DF808002B7006F0A0
:1087E000DFFA002CD4D1204B20491C70347091F852
:1087F0001623EC2352091341DB071ED51C4B9A6844
:1088000012B31A6842F480021A60144902A800F0F8
:108810006BFE039B002BBBD0D3E9002101209047C6
:1088200002A800F06BFE039B002BF5D1204604B09C
:1088300070BD0824204604B070BD0E4AA12142F24A
:10884000020002F0F5F9E0E74FF480030B60DCE78B
:10885000AD3B0020AC3B0020781D0300901D0300C1
:10886000241D030035F30200AE3B002000E100E0D0
:1088700088610020281D0300F0B5324D2B7883B0AD
:10888000002B55D0304E314901236846337000F03B
:108890002BFE019B2BB90EE0684600F02FFE019BDA
:1088A0004BB1D3E90021012090470028F4D10446C0
:1088B000204603B0F0BD2649684600F015FE019B36
:1088C0004BB1D3E9002102209047684600F016FE24
:1088D000019B002BF5D1002768468DF8007006F04B
:1088E00039FAFFF737FF04469DF800002F7006F0B5
:1088F00057FA002CDCD1174B34709A68E2B9164B4A
:108900004FF48002C3F880201149684600F0ECFD66
:10891000019B002BCCD0D3E900210320904768466F
:1089200000F0ECFD019B002BF5D1204603B0F0BD1B
:108930000824204603B0F0BD1A6822F480021A60B1
:10894000E2E700BFAD3B0020AC3B0020781D0300F8
:10895000901D03008861002000E100E0054B1B78BA
:1089600033B1054B1B780BB1FFF786BFFFF7F4BEA1
:1089700008207047AC3B0020AD3B0020014B18782D
:10898000704700BFAD3B002000B583B06846084982
:1089900000F0AAFD019B43B1D3E90020904768464F
:1089A00000F0ACFD019B002BF6D103B05DF804FB99
:1089B000841D0300F0B5374C374D67886268BE00F0
:1089C000F31905EB830383B0596801F58050002A41
:1089D0005CD05388033302EB8302904228D913689A
:1089E000013325D05388033302EB830398421FD30E
:1089F0004FF6FF7EB2F804C0F44517D0B2F800C0BD
:108A0000BCF1000F12D062605388244D2448AE8818
:108A10002968033300259BB200959B0001EB86017A
:108A20000325257001F07EFD03B0F0BD98420DD8FE
:108A30003E4405EB8605EB68D3B9194804250122AD
:108A4000257003B0BDE8F04001F00ABE1A6801329B
:108A50001A46EDD0B3F802C00CF1030C03EB8C0303
:108A60009842C7D23E4405EB8605EB68002BE4D064
:108A70000A4B0B48196802229A800525002301221F
:108A8000257003B0BDE8F04001F0EABD01F1080235
:108A9000A3E700BFD43B0020EC3B0020283C002093
:108AA00090360020F0B443681BB1374AD468A34223
:108AB00046D20023354F0B807A684FF0010C02F547
:108AC00080544FF6FF76083294420ED8BCF1020F64
:108AD000A1F800C007F1140754D07A6802F5805459
:108AE000083294424FF0020CF0D913680133EDD0F4
:108AF0005388033302EB83039C42E7D39588B54246
:108B00000AD0158845B1956803689D4211D05388F5
:108B1000033302EB8302D7E79C42D7D91A680132AC
:108B20001A46D3D05D88033503EB85039C42E5D21A
:108B3000CCE7174B42601B8903810120F0BC7047D2
:108B400012699342B5D813F00305B2D1104A0489D3
:108B500012899442ADD104689A689442A9D10B4815
:108B60004268934203D902F58052934207D3826947
:108B7000934207D902F58052934203D201250D801A
:108B80000120DBE70020D9E790360020EC3B0020F5
:108B9000D43B00202DE9F04FAE4E89B004464FF68D
:108BA000FF773568002D00F0C0802A78531E052B12
:108BB00000F2F180DFE803F03D4A4A1E1E03002C5C
:108BC00040F0BA80DFF8B0C29CF80C209CF800306E
:108BD000002A00F07081013B8CF80C40062B00F25B
:108BE000DA80DFE813F0E6030C032002F801D80076
:108BF0001E030F03002C40F09F802B79012B00F007
:108C00008081002B00F064810DF10C08022B03948D
:108C1000C8E90244C8F8104040F0C58020460490DE
:108C20002B78023B042B36D8DFE803F06F5B4F2F25
:108C30007B00002C40F08A802B79032B00F2E68029
:108C4000DFE813F0FB002001F000C100B5F814903C
:108C5000A97D002C40F086804FEA8904DFF820824D
:108C600004EB090308EB8303B3F808A05B6803EB8C
:108C70008A0A062900F2C583DFE811F06A02790248
:108C80004202550201022602E90104238DF80C304C
:108C9000EB88ADF81830704C04F1100554F8043B23
:108CA000404603B19847A542F8D16C496C4800246E
:108CB000346005F07BFC01216A4804F0F9F80028D3
:108CC0007FF46FAF09B0BDE8F08F03238DF80C304F
:108CD000EB88ADF818302B89ADF81A30EB680593A6
:108CE000D9E702238DF80C302B89ADF81830AB880A
:108CF000ADF81A30EB680593AB7DA3F10603B3FA28
:108D000083F35B098DF81C30C5E701238DF80C3027
:108D10002B89ADF81830AB88ADF81A30EB680593A5
:108D2000B9E705238DF80C30B5E74C494C4805F000
:108D30000DFC0546306038E70DF10C080023C8F83B
:108D400008300393C8E90333012068E70DF10C08EC
:108D5000454A002353600393C8E90233C8F8103032
:108D600001205CE70229EA881FD8DFF814814FEA66
:108D7000890404EB090108EB81010DF10C084B8912
:108D8000033B9B1A00224B81C8F808200392C8E9D4
:108D90000322012043E700230DF10C08C8E9033347
:108DA000C8F8083003930F2039E74FEA8904DFF849
:108DB000D08004EB090108EB8101D31C0A8913441C
:108DC0000B81EA88D5E7294C294A21682948DFF830
:108DD000B0804FF0000985F804900823CDF800908A
:108DE00001F0A0FB244B25685B88A18803EB83037B
:108DF00008EB830208F82390536823600223556030
:108E00001181A38000283FF45DAF3568164A0DF14B
:108E10000C08002353600393C8E90233C8F81030EC
:108E20000E20FCE6114A13481168002302242B711E
:108E30009480012201F014FCE4E70C4B0F4A1968FE
:108E40000C4801232B7100230093082301F06AFBD7
:108E5000D8E700BFE83B0020BC3B0020E43B0020FB
:108E6000143C0020243C0020CC3B0020283C002067
:108E7000A81D030090360020D43B0020B01D030045
:108E8000EC3B0020DFF8288398F80030022B00F03C
:108E9000A68298F81430022B00F0B182BD4B0DF180
:108EA0000C08002001221A7003905860C8E90200E3
:108EB000C8F81000B3E6072B00F23082DFE813F0A9
:108EC00000022E022E029401EC01A201A201C601B1
:108ED00002232B71CDE904440DF10C08EB680393D8
:108EE00040460DF10A01FFF7DDFD002840F06281E8
:108EF0000A200023C8E90033C8E90233C8F810305B
:108F00008DE6A44B1B78002B00F03E82DFF888C270
:108F1000BCF80430012B12D8DFF8948203EB8302F3
:108F2000994608EB82021378C3B109F1010399B2A3
:108F300001299946ACF8043002F11402F3D90DF17D
:108F40000C0808220021944808F0DCFC0020C8F836
:108F500008000390C8E90300356860E65368DCF850
:108F6000001003F5805E03F1080A002900F0F1818A
:108F70004B88033301EB83018E4540F2E7810B6898
:108F8000013300F0E3814B88033301EB83039E45FB
:108F9000C0F0DC818888B84200F0D681B1F800B01A
:108FA000BBF1000F00F0D081EB88CCF800108342B9
:108FB000DBD100230093794A7948042301F0B2FA07
:108FC000002840F0078209EB890308EB830801239E
:108FD00088F8103076E6BCF80230DFF8D48103EB75
:108FE000830308EB8308D8F80C30002B40F0BF81D6
:108FF00004228CF80020D8F804106948012201F0FE
:109000002FFB00283FF45EAE35680DF10C080023FD
:1090100041F61D52C8F808300393C8E90333904263
:1090200008BF1846FBE5DCF804205E4853888488B6
:1090300001685B4801EB84010333002400949BB278
:1090400003249B008CF8004001F06CFAD9E7EA8811
:10905000AC4641F61D5004EB090108EB8101D31C1D
:109060000A8913440B81EA8865464C4408EB84085E
:10907000B8F80A30033B9B1AA8F80A30C5E74A4BF8
:10908000AA694A491A604FF0000B1846C3F804B0A9
:10909000FFF708FD002800F08F810223AB75042341
:1090A0005146CDF800B0EA183D4801F03BFA0028DF
:1090B0003FF408AEAB7DD6F800C0EA88022B00F280
:1090C000878165460E20D0E7384B374AB3F800A0B9
:1090D00051683348314A00234FF0060C85F816C01A
:1090E0000093042301F01EFA0028E3D10AEB8A0A58
:1090F00008EB8A08012388F8103009B0BDE8F08F2A
:109100002B692748002B14BF032301230022AB75D2
:109110000AF108010092042305F10C0201F002FAA1
:109120000028C7D1CEE5EB882A691D484FF0010C15
:1091300085F816C04FF0000C0AF10C019B00CDF829
:1091400000C001F0EFF90028B4D109B0BDE8F08FFC
:1091500002230022AB75042300925146EA181048FE
:1091600001F0E0F90028A5D109B0BDE8F08F032A8D
:109170000CBF052306230022AB750AF104010092FF
:10918000042305F10802064801F0CCF9002891D12A
:1091900098E500BFCC3B0020343C0020A41D030018
:1091A00090360020283C0020B03B0020303C0020BE
:1091B000EC3B00200499954A8B88EB800B882B812F
:1091C000934800940423BDF80A4001F0ABF900284D
:1091D00040F0FB808F4B04EB840403EB84040123F9
:1091E000237409B0BDE8F08F8B4ADCF80410938833
:1091F000498803330B44022193808CF80010FFF759
:10920000D9FBFEE6844B854A196881480023009308
:10921000CCF8043007238CF80030082301F082F9E1
:10922000EFE6BCF80220DFF8EC819300134408EB72
:10923000830806200023D8F80410794A00938CF89C
:1092400000000823724801F06DF9DAE601238CF87A
:1092500000309CF80A304BB1DFF8B881D8F80C30F8
:1092600000228CF80A20002B00F09D809CF80B3027
:10927000002B43D0DFF89C81D8F8203000228CF8F6
:109280000B20002B3AD198F82430BBB30123ACF863
:109290000230FFF78FFBB4E6BCF80220DFF87481E0
:1092A0005D4C9300991808EB810120684D68B4F873
:1092B00004E0486002202560A1F808E0A080B5E73E
:1092C000DFF85081BCF8081098F8142098F80030A6
:1092D000B2FA82F252090131B3FA83F35B098CF8D6
:1092E0000B20ACF80810002201218CF80A30ACF8F1
:1092F00002208CF80C208CF80010ACE70DF10C0863
:109300000020C8F808008CF80000ACF80200CCF887
:1093100004000390C8E90300356880E4013B062B94
:109320003FF639AD01A252F823F000BFB39302001B
:10933000FF91020027900200D78F0200978D020054
:1093400023920200059202009E4504D8CCF800400A
:10935000EBE5514610E6196801311946F6D05888F8
:10936000033003EB80039E45BFF414AEEEE72A4BB7
:109370002748196802229A8005228CF800200023D1
:10938000012201F06DF93CE60DF10C08082221469E
:10939000244808F0B7FA0394C8E90244C8F810401A
:1093A000356802203BE498F81020002A3FF45EAFB5
:1093B0006DE79CF80A304EE70DF10C080390C8E900
:1093C0000200C8F810000A2029E435680E2090E554
:1093D0000E2040E635680E200DF10C0889E50023CB
:1093E0009A001A4408EB8203002059680090082371
:1093F00008F822000A4A064801F094F802E5012321
:10940000EEE7EA88AC460F2025E600BFA41D030066
:1094100090360020EC3B0020283C0020B01D0300CB
:10942000A81D0300343C00204068FFF7B3BB00BF19
:10943000044A137923B901211060918018467047BE
:10944000852070473C3C0020074B1A68D20704D4A3
:10945000C021012283F800131A604FF080430122DB
:10946000C3F81825704700BF00E100E0044B01225B
:109470001A604FF08042D2F81834DB03FBD47047F7
:109480000C00004010B5154B1A6882B062B1002183
:10949000134A19601B68507900934FF080410123F3
:1094A000009CC1F80833A8B10E4B1A6882B10022A3
:1094B0001A601B6801934FF080420221084B01980B
:1094C000C2F808131B68012002B0BDE8104018471D
:1094D00002B010BD116853718847E5E700010040F4
:1094E0003C3C00200401004001600B6843604A6876
:1094F000934204BF00234360704700BF436843B1F9
:10950000026891680B4443605268934204BF002391
:10951000436070478ADF70478BDF70478CDF70478E
:10952000FFF7FABF002855D070B50D4642670021FD
:109530005A22044608F0E6F91DB32B7984F85A3014
:109540002B7B84F864302B687BB31E68586899685D
:10955000C4F86E10C4F86660C4F86A009B89A4F869
:109560007230AB6883B31868596804F15C0303C3B5
:1095700004F17802FF23C4F87821A4F87C3100209C
:1095800070BDB4F8663014491448A4F86C5003F068
:10959000E30343F482734FF0C87284F85A50A4F87E
:1095A0006630A066C4E91712E2E7B4F86620A4F8B2
:1095B0006C3002F0E30343F482730849A4F8663088
:1095C000A166AB68002BCED1034A4FF0C873C4E943
:1095D0001723CDE70E20704706001800A0005000AA
:1095E00010B310B5044686B01422002101A808F07B
:1095F00089F9FFF791FF94F866301B070BD404F547
:10960000BC7104F16600FFF785FF044630F00800E6
:109610000CD106B010BD636F002BF0D0012201A861
:109620008DF804209847EAE70E207047064B07485C
:109630000749C01AC008000440F00100224604F0A7
:1096400081FA204606B010BDCC3803000C39030067
:10965000C01D03002DE9F04F064699B036F8083BCF
:10966000103B05460C46102B44D8DFE813F03C01B4
:1096700043004300430043004300430043004300D2
:1096800043004300250143005E00430043004600C1
:10969000D14603238DF83830069B0F96002B40F0FF
:1096A000E3800A9BF3B194F85A3000218DF838100A
:1096B000C3B194F86460FFF72FFF142213A808F0D9
:1096C00021F93346059905F10A0004F15C02FFF720
:1096D00025FF06238DF84C301490636F18B12BB121
:1096E00013A89847636F0BB10EA898470199002003
:1096F000FFF710FF19B0BDE8F08F142213A8002166
:1097000008F000F9626F002AF4D030687168357A89
:1097100014AB03C3663405211D70179413A88DF88C
:109720004C10904719B0BDE8F08F14220EA800210C
:1097300008F0E8F894F8663004F166020592129297
:109740001B0704F5BC72019200F1E48094F85820E4
:10975000069294F84420079294F84D3094F85320E0
:10976000089294F8572094F821700992002B40F049
:10977000FD8001200322CDE9033002210D920292E7
:1097800004220A930B918A4681460C926FB394F897
:109790002030B5F82480002B00F07081013BDBB253
:1097A00004F1200707EB4317A34602E0BB4500F096
:1097B00065815A464146286A03F000F90BF1200BF7
:1097C0000028F3D004999DF8402003910B9904914F
:1097D0000D990B9142F001020C990A904B468DF8BD
:1097E0004020D146DDF808A00291079A002A40F0F7
:1097F0002981CDF808A0CA469946089B002B40F065
:10980000F180099B002B3FF444AF94F85630B5F833
:109810002480002B3FF43CAF013BDBB204F1560740
:1098200007EB430704F1540902E0B9453FF430AFB8
:109830004A464146286A03F0BFF909F102090028A7
:10984000F3D09DF840300F9643F008038DF8403078
:10985000069B03228DF83820002B3FF424AF039B96
:109860000133DBB20393D146039B4B457FF43AAF00
:1098700094F85A3000218DF83810002B3FF432AFA5
:1098800094F86460FFF748FE142213A808F03AF831
:109890003346059905F10A0004F15C02FFF73EFE2C
:1098A00006238DF84C301490636F00283FF41BAFF3
:1098B000002B7FF415AF16E713A81422002108F03F
:1098C00021F82B7A012B7FF415AF626F002A3FF449
:1098D00011AF6634042117948DF8503013A88DF819
:1098E0004C10904706E7142213A8002108F00AF84C
:1098F000636FAA88ADF854206634072214968DF859
:109900004C201794002B3FF4F5AE13A8984719B0DC
:10991000BDE8F08F02230EA88DF838300F96636FE4
:10992000984701990020FFF7F5FD94F85A30002B75
:109930003FF4E0AE94F86460FFF7EEFD14220021DE
:1099400013A807F0DFFF3346059905F10A0004F17B
:109950005C02FFF7E3FD062314908DF84C300028DD
:109960003FF4C8AE636F002BCFD1C3E694F84C3000
:10997000002B00F08A80013BDBB204F14C024FF077
:10998000070A1AFB032A04F1450805F10B0903E055
:1099900008F10708D04578D0AB7A98F800205B082A
:1099A000B3EB520FF4D10622494608F1010007F04B
:1099B0008DFF0028ECD19DF84030022243F00203D5
:1099C00004920122042103200A928DF84030039270
:1099D000134605220D910B90029182464FF0020929
:1099E0000C92D3E694F85280AF8C94F85830B8F1CA
:1099F000000F71D0002B58D108F1FF385FFA88F8BA
:109A000004F1520303EB880804F14E094A46394633
:109A1000286A03F049F809F1040968B19DF840305B
:109A2000049A039243F004038DF840300123D14699
:109A30000A93DDF808A0E4E6C845E7D1D146DDF891
:109A400008A0DEE694F84330A98C002B3FF4D5AE95
:109A500094F84230286A04F1220202F0E9FF00285B
:109A60003FF4CBAE9DF84030049A039243F01003CC
:109A70000B9A0A9004928DF84030BEE60C9A4B4641
:109A8000D146DDF808A00292AFE603220D9292467D
:109A900005220221002001230C9204220B91049341
:109AA0000A9089460390029270E604F14E0B4FF043
:109AB000000903E05FFA83F9C845AFD05A4639463A
:109AC000286A02F0F1FF0BF1040B09F101030028F1
:109AD000F0D1C845B2D1A1E7002BAFD09EE700BFBF
:109AE00005F0BCB82DE9F041058ACF1C043D2F4498
:109AF0000646B7FBF5F705F0CDF8002834D0FFB2E5
:109B00004FF48073013F0446C580066083802CD0EB
:109B10008046002509E06379AF4203F101036371D8
:109B2000C8F80000066080461FD0304605F0B2F845
:109B300001350028EFD194F805802768B8F10103BA
:109B400016D03D46013083422D68FBD1B8F1000F9D
:109B50000AD0002601E03C463F68214601362846EF
:109B600005F0C0F8B045F6D800242046BDE8F081E5
:109B70002146384605F0B6F8F6E700BF043001216B
:109B800003F08AB92DE9F04101210446043003F0C5
:109B90008FF9C0B208B1BDE8F08194F8058025685E
:109BA000B8F1010314D02E46013083423668FBD150
:109BB000B8F1000FEFD0002701E02C462D682146B8
:109BC0000137304605F08EF8B845F6D8BDE8F0818B
:109BD00021462846BDE8F04105F084B82DE9F84358
:109BE0000546C6884079144606FB00F2043A04EBA9
:109BF000030C1F1D624538BFD41ABE428846B7FB0E
:109C0000F6F106FB117002D801392D68FCD1371A24
:109C1000A74228BF27469CB14FF000090430E41B3F
:109C200028443A4608EB090107F05EFEA642B94413
:109C30002D6837464FF0000028BF2746002CEDD195
:109C4000BDE8F8832DE9F8430546C68840791446F7
:109C500006FB00F2043A04EB030C1F1D624538BFFB
:109C6000D41ABE428846B7FBF6F006FB107102D844
:109C700001382D68FCD1771AA74228BF27469CB12E
:109C80004FF0000904312944E41B3A4608EB09006F
:109C900007F02AFEA642B9442D6837464FF000016E
:109CA00028BF2746002CEDD1BDE8F88329DF704797
:109CB00028DF7047034B187A0122B0FA80F05A74FB
:109CC00040097047543C002030B55D4C237A87B082
:109CD000002B39D05B4B1B68022222721A79002AB2
:109CE0003DD0012A24D019688A68C2B10022684692
:109CF0000092C0E902220325026101959A6805924B
:109D00001A79002A57D0012A07D102228DF80020A3
:109D1000DA68120302925B6904938B689847002308
:109D200049494A482372636004F040FC07B030BDE3
:109D3000D3E903021044FFF7BBFF20B31128D2D1AF
:109D40000123237207B030BD3F49404804F0FEFBB9
:109D50003C4A034610600028BED16060E6E7D3E9C4
:109D60000525521BB2F5805F28BF4FF48052D3E91E
:109D700003109208012A38BF012229442844FFF722
:109D800095FF0028DAD1227C002ACFD1227A002A3E
:109D9000CCD0022A0AD1E0601A79DAB1012A05D1C1
:109DA000D3E9042101328A421A611FD0637C73B95E
:109DB000FFF78AFFBAE701228DF800201A690292A4
:109DC000DA6803925B6904938B689847A7E7FEF70C
:109DD000C5FDABE7D3E90512881AB0F5805F94BFE3
:109DE000121802F5805291429A61DFD1002222724C
:109DF00019688868A8B168460092C0E90122C0E9E4
:109E000003229A6805921A7982B1012A07D10222A7
:109E10008DF80020DA68120302925B6904938B6864
:109E200098470949094804F0C1FBBFE701228DF8B2
:109E300000201A690292DA6803925B690493EEE7E4
:109E4000543C00206C3C0020683C0020443C002036
:109E500000F0FD03012B00D07047A0F10100044B7E
:109E6000B0FA80F04009002218745A74FFF72CBF32
:109E7000543C0020831E012B3FD810B5334C237A6D
:109E800086B0002B37D0022B31D103283AD0304B8B
:109E900000221B68E2601A79002A40D0012A26D1EC
:109EA000D3E9042101328A421A6120D100202072B4
:109EB00019688A68BAB10022CDE9032202920092A1
:109EC0009A68019005921A79002A35D0012A07D1A3
:109ED000DA685B6904931303022202938DF8002071
:109EE0008B68684698471B491B4804F05FFB637CFE
:109EF00023B9FFF7E9FE06B010BD7047FEF72EFD4F
:109F000006B010BDE3680133082B01D8E360EEE72B
:109F10000F4B00221B68E26022720D20C8E7D3E9D4
:109F20000512881AB0F5805F94BF121802F58052AE
:109F300091429A61DBD1B9E7012218698DF80020BE
:109F4000DA685B690493CDE90202C9E7543C00205A
:109F50006C3C0020683C0020443C0020022003F0C0
:109F6000ABB900BF2DE9F0470D46064603F0BEF938
:109F7000012801D9BDE8F087012D04461ED085B126
:109F8000022DF7D11C4B00EB40041C446578002DDA
:109F9000F0D01A4B1B68002BECD02846BDE8F047E8
:109FA0001847174802F0CEFC134B164A04EB440145
:109FB0000B44125D9D78AA42DCD1E8E70E4F4FEAD0
:109FC000400808EB0003FA18FD5C53783BB9A04445
:109FD00047440C4BBA781A55002DCBD0D9E7DFF89F
:109FE000289007484A464FF4004102F055FC0028EB
:109FF000EDD189F80060EAE7D43C0020E43C002081
:10A00000943C0020EC3C0020703C002010B500780F
:10A0100003F06CF9012800D910BD074B00EB40009C
:10A02000184440780028F7D0044B1B68002BF3D06D
:10A03000BDE81040184700BFD43C0020E43C00209D
:10A0400038B5C14D2B78044663B1C04B1B78002056
:10A05000287023B303F0EEF8012003F0EBF803209F
:10A0600003F0E8F8172C00F26C81DFE814F0E6004A
:10A07000FB00FB00A000B300C600D8004E001B0090
:10A0800028001B0028005D00640064006400640078
:10A0900064008D001101260135005700570003F0C0
:10A0A000DBF8DFE7012318462B7003F005F90022E7
:10A0B00040F6CD41A648BDE8384002F0EDBB012393
:10A0C00018462B7003F0F8F800224FF48041A048A6
:10A0D000BDE8384002F0E0BB9C4B1B78002B00F041
:10A0E0002781002003F0A6F8012003F0A3F8032045
:10A0F00003F0A0F8002003F08BF8012003F088F8AB
:10A10000944B15221A70002506E0002003F080F819
:10A11000904B07221A700025284638BD03F0B4F88A
:10A120008C4B00251C70F7E703F0AEF8894B0C222E
:10A130001A700025F0E7884802F004FCD4F11104FD
:10A14000054600F0E880002840F0E580012C14D09E
:10A15000C82303FB04F44FF4FA704FF400430021CA
:10A16000C3FB04014FF47A72002307F0DDFB2A469B
:10A170000146794802F090FB0546022003F048F8BA
:10A18000724B01221A70C7E7704B1B78002B00F04E
:10A19000D280002003F04EF8012003F04BF803209A
:10A1A00003F048F86B4B12221A700025B4E7002028
:10A1B00003F01AF8002840F0A88003F029F841F6CF
:10A1C0009A11644B624803241C700022BDE8384099
:10A1D00002F062BB002003F007F8002840F08F80F7
:10A1E00003F016F843F233315A4B594804241C70DB
:10A1F0000022BDE8384002F04FBB002002F0F4FF1F
:10A20000002878D103F004F8524B514805241C7003
:10A21000002241F69A11BDE8384002F03DBB002013
:10A2200003F04AF84B4B4A4806241C70002240F6C3
:10A23000CD41BDE8384002F02FBB444B1B78002BCA
:10A2400073D0002002F0F6FF012002F0F3FF03209C
:10A2500002F0F0FF3E4802F075FB3E4B002205463F
:10A260001A7059E7002002F0BFFF002839D102F030
:10A27000CFFF41F69A1143F23333022C18BF19462F
:10A28000344B33481C700022BDE8384002F004BB58
:10A290002E4B1B78002B45D0002002F0CBFF012075
:10A2A00002F0C8FF032002F0C5FF002002F0B0FF5B
:10A2B000284B13221A7000252EE7244B1B78EBB392
:10A2C000002002F0B7FF012002F0B4FF032002F0EB
:10A2D000B1FF012002F09CFF1E4B14221A700025D2
:10A2E0001AE7002002F0A6FF022C4EF2666118BFAA
:10A2F0004FF40031C4E7002002F09CFF84E7002007
:10A3000002F098FF4FF400316EE7002002F092FF58
:10A3100046F2666155E7022002F08CFF0B4B0022EB
:10A320001A70F9E602F098FFBFE702F095FF91E797
:10A3300002F092FFDEE602F08FFF33E702F08CFFBF
:10A34000C7E70025E8E600BFE03C0020713C0020A4
:10A35000B43C0020E83C0020743C0020044B1B6807
:10A36000DB0700D47047034B1878FFF769BE00BFC6
:10A37000DC3C0020E83C002038B5234B234A196020
:10A380008307106000F0010503D42DBB2C46204646
:10A3900038BD1F4B1F480E210F241970DC7040F28E
:10A3A0006662022104F03CFA044610B135BB204637
:10A3B00038BD04F08DFA04460028F7D10146164A4C
:10A3C000164802F057FA0446002DF0D0012002F0A2
:10A3D00097FF002CEBD102E0012002F091FF104A20
:10A3E0001048002102F046FA04460028DFD10E4A48
:10A3F0000E480121BDE8384002F03CBA012002F0CD
:10A400007FFF204638BD00BFE43C0020DC3C00203C
:10A41000D43C0020F01D03000DA00200041E030028
:10A420005DA30200081E03005D9F0200001E0300E2
:10A43000012811D8012A15D0012923D010B44CB21B
:10A44000A4B102290AD1124B00EB400003440020C2
:10A450005A705DF8044B70470720704707205DF87D
:10A46000044B704701290AD00022E5E7084900EBB8
:10A4700040030B4420469A705DF8044B704700F18E
:10A480000E02D2B200EB400301490020CA547047CB
:10A49000D43C0020014B1B68184700BFF03C002053
:10A4A000114B98421DD130B583B000230DF1070048
:10A4B0008DF807300D4604F04DFC0C4B1C794CB95F
:10A4C00001229DF807001D601A7104F069FC204606
:10A4D00003B030BD9DF8070004F062FC112003B00A
:10A4E00030BD0020704700BF00200040F03C00203D
:10A4F000034B984203D1034B00221A601A71704734
:10A5000000200040F03C00208268002393608268B5
:10A510001361826853618268D36082685360826885
:10A52000136070472DE9F04182B0002858D0002A0E
:10A5300068D0D0F800C0BCF1000F68D01C4673B3DF
:10A540004768D7F80480B3FBF8F708FB1737002FEC
:10A5500037D18F073AD112F0030F3CD1C768B94207
:10A5600011D23348334C344B344A3549001BC008B0
:10A570001024000440F00100009403F0ABFC2046DE
:10A5800002B0BDE8F0814D1E06692C44B442E8D803
:10A59000DCF80C40A44602B0BDE8F0416047244816
:10A5A000244C254B274A2649001BC00809240004D7
:10A5B00040F00100009403F08DFC204602B0BDE89D
:10A5C000F0811B481B4C1C4B1F4AECE71848194CE8
:10A5D000194B1E4AC9E71648164C174B1C4AC4E7CC
:10A5E0001348144C144B1B4A1549001BC0080E2479
:10A5F000000440F00100009403F06CFC204602B01F
:10A60000BDE8F0810A480B4C0B4B134AECE7094CB0
:10A610000748094B114A0A49001BC00808240004D6
:10A6200040F00100009403F055FC2046A8E700BF6D
:10A630002C390300CC380300101E0300B41F0300A4
:10A64000B81E0300F41E03004C1F0300781F030014
:10A65000901F0300B01E0300441F0300381F0300B7
:10A66000F0B583B0002843D0D0F800C0BCF1000F93
:10A670004ED03AB34768D7F800E00EF1FF370F42EB
:10A6800031D1C768B94210D229482A4C2A4B2B4AEB
:10A690002B49001BC0081024000440F00100009466
:10A6A00003F018FC204603B0F0BD4D1E04690EFBFC
:10A6B0000255A542E8D8DCF81040A44603B0BDE836
:10A6C000F04060471B4C1A481B4B1E4A1C49001B9C
:10A6D000C0080924000440F00100009403F0FAFBD4
:10A6E000204603B0F0BD1248124C134B164ACFE778
:10A6F000104C0F48104B154A1149001BC0080E247E
:10A70000000440F00100009403F0E4FB2046CAE797
:10A71000084C0748084B0E4A0949001BC00808248A
:10A72000000440F00100009403F0D4FB2046BAE797
:10A730002C390300CC380300241E0300601E0300E4
:10A74000B81E0300F41E0300381E0300B01E0300F1
:10A75000381F030030B585B0047885888DF8004037
:10A760008468ADF804508DF80640C568074A084B68
:10A770008DF80750D0E9040453F8213052F8211025
:10A78000CDE902046846984705B030BDF83C00208A
:10A79000003D00202DE9F04F814607785B4D5C4875
:10A7A00045F827300C46497B40F8272083B0924675
:10A7B00069B9584ABAF1000F3B46214609F1040035
:10A7C00008BF002203B0BDE8F04FFDF7D1B8226802
:10A7D000514DDFF848814FF0A04302F5E07240F29E
:10A7E0000C6143F82210626802F5E072012643F81A
:10A7F000221021681F2984BF01F01F0103F5407357
:10A8000001228A40C3F8082563681F2B8ABF434A88
:10A810004FF0A04203F01F0306FA03F3C2F8083515
:10A8200023684FF0A04B03F5E07340F20D624BF844
:10A830002320636803F5E07335434BF823204FF47E
:10A840008070A847CDF804B04FF0000B63681F2B51
:10A850008ABF40464FF0A04003F01F0CD0F810050F
:10A8600098BF9C4620FA0CF0C2074FF0A04148D494
:10A8700023681F2B84BF414603F01F0306FA03F32E
:10A88000C1F80C354FF48070A847236803F01F010E
:10A890001F2B06FA01F106FA03F24FF4807024D957
:10A8A000C8F808150BF1010BA847BBF1090FCDD172
:10A8B00063681F2B8ABF19494FF0A04103F01F03A3
:10A8C000012202FA03F3C1F80C354FF48070A84757
:10A8D00062681F2A86BF02F01F0210494FF0A04194
:10A8E00001239340C1F8083563E7019B4FF4807062
:10A8F000C3F808250BF1010BA847BBF1090FA5D13F
:10A90000D6E7BBF1000FD4D153E700BFF83C0020DD
:10A91000003D002055A70200F01F03000003005077
:10A920004E4B984218D8023B984280F094800B3BE3
:10A93000984233D94A4B984200F0878021D8023B95
:10A9400098427FD0474948F2715248F216538842E4
:10A950000CBF104618467047434B98426FD037D80B
:10A96000033B984268D026D9404B98425ED040497C
:10A9700048F2175248F2165388420CBF1046184648
:10A9800070473C4B984254D03B4948F2035248F23E
:10A99000165388420CBF104618467047013B984238
:10A9A00044D2043B984253D023D8002848F2165092
:10A9B00008BF00207047023B98423DD02F4948F223
:10A9C000145248F2165388420CBF1046184670477E
:10A9D0002B4B984236D019D80A3B98422FD02949A0
:10A9E00048F2135248F2165388420CBF10461846DC
:10A9F0007047254B98421CD0244948F2105248F227
:10AA0000165388420CBF104618467047204B984298
:10AA10000CD0A0F5700048F2165248F20353A0F68D
:10AA2000344001288CBF10461846704748F2115038
:10AA3000704748F20350704748F21050704748F290
:10AA40000150704748F21450704748F20250704766
:10AA500048F21350704748F270507047120CF000E3
:10AA6000080CF000070CF000250CF000230CF0009F
:10AA7000240CF0000D0CF0000F0CF000210CF00085
:10AA8000310CF000300CF000010CF000030CF00071
:10AA9000320CF000F8B5134B02689A421ED0124EE9
:10AAA0000D4604460121304602F0CAF90746BFF3BD
:10AAB0005F8F78B9FBF72CFC2946201D05F0EEFCD2
:10AAC000FFF72EFF0446FBF737FCBFF35F8F3760BD
:10AAD0002046F8BD48F204542046F8BD0024204624
:10AAE000F8BD00BF6169614D80610020014B01220A
:10AAF0001A7070474C3D0020704700BF00B583B00E
:10AB0000044B0093044A4023FBF72AFC03B05DF892
:10AB100004FB00BF1DAB02000C3D002038B50F4800
:10AB20000F4D03780F4CEB5C0025D2B2257053B16A
:10AB3000043000F071FF58B90B4B1B7813B1237828
:10AB4000002BFCD038BD0C3001F034FA0028F3D0D3
:10AB5000064A532100F06CF8EEE700BF5C3200209B
:10AB6000846100204C3D0020083D0020242003008B
:10AB700030B51548154A0378D35C89B0BBB10430B1
:10AB800000F0CAFE124D0FCD6C460FC495E80F00C1
:10AB9000062584E80F00002269460B48009502F064
:10ABA0000BF940B90B4B00221A7009B030BD0C30C4
:10ABB00001F082F9E6E7084A432100F039F8054B35
:10ABC00000221A7009B030BD5C3200208461002080
:10ABD000F81F0300083D00202420030030B50F4D6E
:10ABE0000FCD89B06C460FC495E80F00062584E8A8
:10ABF0000F000B4A0B480095694602F0DDF820B9BA
:10AC0000094B01221A7009B030BD084A432100F0F7
:10AC10000FF8054B01221A7009B030BDF81F030070
:10AC2000EDAA02005C320020083D00202420030031
:10AC300000B583B002900091019244F20100714688
:10AC40006A4604F077FB03B000BD00BF10B568B9D9
:10AC50000E4CA368012262703BB1D3E900230020AF
:10AC6000A2609847A368002BF7D110BD0128FCD142
:10AC7000064C2369A070002BF7D0D3E900230120F4
:10AC8000226198472369002BF7D110BD503D002069
:10AC900070B910B5074CA368012262703BB1D3E9CB
:10ACA00000230020A2609847A368002BF7D110BDB5
:10ACB000704700BF503D002030B5012883B01DD043
:10ACC000B0B1032812D1224CFEF7BEFB00230DF1D8
:10ACD00007008DF8073004F03DF8E368013BE360BE
:10ACE000E5686DB39DF8070004F05AF803B030BD75
:10ACF000184B0122C3F8802003B030BD144C002350
:10AD00000DF107008DF8073004F024F8237853B1D3
:10AD1000E3689DF8070001330122E360A27004F0AC
:10AD20003FF803B030BD0C486360A3602361E3606B
:10AD3000FEF77EFBFDF722FE30B101232370E7E72B
:10AD4000FEF794FBA570CDE7FEF77EFBF5E700BFAD
:10AD5000503D002000E100E04DAC02002DE9F04F35
:10AD60008A4683B09245164605469846DDE90CB101
:10AD7000C0F09C8053460127B3FBF6F39E4207F1D7
:10AD80000107F9D9474538BF474611F00103AA68C2
:10AD9000009302D1BBF1000F68D1012403E008F158
:10ADA000FF3806FB04F4B8F1010FF8D8BAFBF4F051
:10ADB0008642F6D9DFF8F8904FF00D0807E0B4426C
:10ADC000B4FBF6F31CD3BAFBF3F0AA681C4619F8DF
:10ADD000003029680A2B04FB10AA01EB020E02F1D5
:10ADE000010028D0A8608EF80030D5E901329A42DF
:10ADF000E5D3284603F092FFB4FBF6F3B442E2D267
:10AE0000009BABB1BBF1000F12D0BB4510D9202481
:10AE1000AB682A68591CA960D454D5E901329A421A
:10AE20000BF1FF3B1ED2BBF1000F01D0BB45EFD1B0
:10AE300003B0BDE8F08FA86001F80280D5E90120D9
:10AE4000904204D22A6802EB000E0130CAE728467D
:10AE5000019303F063FFAA682968019B501C01EB72
:10AE6000020EBFE7284603F059FFDCE78B0717D433
:10AE70002024BB4591D92B68511CA9609C54D5E96D
:10AE800001329A420BF1FF3B05D2BBF1000F84D097
:10AE9000BB45F0D181E7284603F040FFAA68F4E7FC
:10AEA000B8F1000F0CBF30242024E2E7012769E746
:10AEB00088200300002900F0E9822DE9F04F0546C3
:10AEC00085B091460C460E78DFF81CA74FF00D0BAD
:10AED00013E0AB6828680A2E03F1010200EB0301BE
:10AEE00000F02681AA600E70D5E901329A4280F006
:10AEF00011812678002E00F014810134002E00F01C
:10AF00001081252EE5D12146002711F8012B2D2A8D
:10AF100000F0E580302A00F0E6802B2A00F0D68091
:10AF20002A2A00F01181A2F13006F3B2092B03D9CD
:10AF300022E2A3F130060146084606EB860310F82C
:10AF4000012BA2F13004092C02EB4303F1D92E2A84
:10AF500000F006814FF0000802F0FB03682B01F1BE
:10AF6000010405D114F8012B02F0FB03682BF9D082
:10AF7000253A532ABDD801A353F822F011B3020099
:10AF8000F3AE0200F3AE0200F3AE0200F3AE020035
:10AF9000F3AE0200F3AE0200F3AE0200F3AE020025
:10AFA000F3AE0200F3AE0200F3AE0200F3AE020015
:10AFB000F3AE0200F3AE0200F3AE0200F3AE020005
:10AFC000F3AE0200F3AE0200F3AE0200F3AE0200F5
:10AFD000F3AE0200F3AE0200F3AE0200F3AE0200E5
:10AFE000F3AE0200F3AE0200F3AE0200F3AE0200D5
:10AFF000F3AE0200F3AE0200F3AE0200F3AE0200C5
:10B00000F3AE0200F3AE0200F3AE0200F3AE0200B4
:10B01000F3AE0200F3AE0200F3AE0200F3AE0200A4
:10B02000F3AE0200F3AE0200F3AE0200F3AE020094
:10B03000F3AE0200F3AE0200F3AE0200F3AE020084
:10B04000F3AE0200F3AE020029B30200F3AE020039
:10B05000F3AE0200F3AE0200F3AE0200F3AE020064
:10B06000F3AE0200F3AE0200F3AE0200F3AE020054
:10B07000F3AE0200EFB002008BB20200F3AE0200AA
:10B08000F3AE0200F3AE0200F3AE02008BB2020098
:10B09000F3AE0200F3AE0200F3AE0200F3AE020024
:10B0A000F3AE0200F3AE020003B20200F3AE020000
:10B0B000F3AE0200A9B10200F3AE02008DB10200AE
:10B0C000F3AE0200F3AE020029B3020047F004071A
:10B0D0000C46214611F8012B2D2A7FF41BAF47F0B7
:10B0E00001070C46F5E747F002070C46F1E7D9F8EF
:10B0F00000301A1DC9F800201E78AB680A2E00F037
:10B100004F822A68591CA960D654D5E901329A4267
:10B11000FFF4EFAE284603F001FE2678002E7FF400
:10B12000ECAE2B7B002B40F0218105B0BDE8F08F09
:10B13000AA6000F803B0D5E901329A4280F00E818E
:10B14000296811440132CDE6D9F800301A1DC9F83A
:10B15000002062781E682E2A04F102007FF4FAAE05
:10B160004A78A2F13003092B01464FF000083FF660
:10B17000F3AE08EB880802EB480811F8012FA2F1A2
:10B180003003092BA8F13008F3D9E5E6D9F80030EF
:10B190001A1DC9F8002019680197434600960A2233
:10B1A0002846FFF7DBFDA4E6D9F800301A1DC9F8E0
:10B1B0000020D3F80080FB0700F1EB80B8F1000F0E
:10B1C00000F0EC81404606F0A5FB0746BE4240F287
:10B1D0005E81002E00F05B81202102E0BE4200F083
:10B1E0005681AA682B68501CA8609954D5E90123A0
:10B1F000934206F1FF36F1D3284603F08FFD20215C
:10B20000ECE7D9F80020131DC9F80030AB682968B5
:10B210001768581C3022A860CA54D5E9012393420C
:10B2200080F0F1802A68581C7821A860D154D5E9B3
:10B230000123934280F0E2800F2F03D93A4612098E
:10B240000F2AFCD84FF0805606E00F2E4FEA161357
:10B250007FF64FAE1E46AB68B7FBF6F21AF80280D7
:10B260002868B8F10A0F06FB127700EB030103F11F
:10B27000010267D0AA6081F80080D5E901329A42C4
:10B28000E3D3284603F04AFDDFE7D9F800301A1D62
:10B29000C9F80020196881EAE172A2EBE172092A7B
:10B2A0004FF001000BDDDFF844C300E01A46ACFBB1
:10B2B00002E3632A00F101004FEAD303F6DC4045C4
:10B2C000034638BF4346029307F00203002E57D0CF
:10B2D0000029C0F29D807A0700F19A80002B00F0CF
:10B2E0009980B8F1000F40F095800029C0F23781B5
:10B2F0007A0700F1478107F00303022B00F0FE807C
:10B30000CDE9006743460A222846FFF727FDF0E50E
:10B31000AB682A68581C2521A860D154D5E90132B0
:10B320009A42FFF4E6ADF5E6D9F800301A1DC9F8E7
:10B330000020196801974346009610222846FFF71F
:10B340000DFDD6E5AA6000F803B0D5E901329A42B6
:10B3500080F094802B68991801328BE7284603F01F
:10B36000DDFCAB6829685A1C1944BBE5284605B0CA
:10B37000BDE8F04F03F0D2BC084600262146E6E5C2
:10B380002BB1B8F1000F00F02881F807ADD40026EA
:10B39000ABE798F80020002A00F02381AB6847460D
:10B3A000C8F10101D5F800E00A2A01EB07080EEB0D
:10B3B000030C03F1010055D0A8608CF80020D5E9FA
:10B3C0000123934243D217F8012F002AEAD14645C0
:10B3D0007FF68FAD202702E046453FF48AADAA688C
:10B3E0002B68511CA9609F54D5E901329A4206F19D
:10B3F000FF36F1D3284603F091FCEDE7284603F031
:10B400008DFCAB6818E7284603F088FCAB6809E7B9
:10B41000013E63E7F8073FF568AF002EB7D0029B07
:10B42000B342BFF462AF2023AA68501CA86028680A
:10B430008354D5E90102824206F1FF3680F0BF80D5
:10B44000002EA4D0029AB242EED116464DE728460D
:10B45000029103F063FC17F8012F002AB7D0AB6804
:10B4600002999FE7A8600EF803B0D5E90130984231
:10B4700060D22B6803EB000C01309DE7284603F0F7
:10B480004DFCA9682B684A1C1944F3E6704798F8EC
:10B490000060002E3FF42DADAB6828680A2E03F142
:10B4A000010200EB030111D0AA600E70D5E901235F
:10B4B00093421BD218F8016F002E3FF41AAD286892
:10B4C0000A2E03F1010200EB0301EDD1AA6000F89E
:10B4D00003B0D5E901329A4239D2296811440132C8
:10B4E000AA600E70D5E901239342E3D3284603F006
:10B4F00015FC18F8016F002ECED1FAE4B8F1000F58
:10B500007FF4FEAE002E6AD0029BB342BFF4F8AEC9
:10B510003023AA68501CA86028688354D5E901022A
:10B52000824206F1FF3651D2002E58D0029AB24222
:10B53000EFD1E5E62846CDE9022103F0EFFBAB6849
:10B540002A68581C02EB030CDDE9022134E7284687
:10B5500003F0E4FBAB6829685A1C1944A4E7AA6805
:10B56000531CAB602B682D209854D5E901329A42C8
:10B57000C1F10001FFF4BFAE2846039103F0CEFBFA
:10B580000399B8E6AA68531CAB602B682B2098542B
:10B59000D5E901329A42FFF4AEAEEDE7474615E633
:10B5A0002A68591CA96002F803B0D5E90123934227
:10B5B000FFF4A7AD284603F0B1FBAB68A1E5284630
:10B5C000039103F0ABFB2023039939E7284603914D
:10B5D00003F0A4FB30230399A6E7464685E6002640
:10B5E0008EE69046F3E600BF88200300CDCCCCCC9D
:10B5F000F0B5464BD3F8242189B0002A55D000215C
:10B60000C3F82411D3F82421029202228DF81020CD
:10B61000029AD3F880043E4AC3F880040790D3F816
:10B620003C05D3680690C2E906110593116853687A
:10B6300004A89847354BD3F844214AB10021344A35
:10B64000C3F84411D3F84401916901900198D9B924
:10B650002E4BD3F82021AAB10021C3F82011D3F832
:10B6600020012B4A00900098506958B1D3F84C053E
:10B67000936806908DF810105161059304A8D2E9E3
:10B680000013984709B0F0BDD3F83C35D168069354
:10B6900000240025012305918DF81030C2E90645EC
:10B6A000D2E9001304A89847D2E7D3F81011002973
:10B6B000C0D0C3F81021D3F8101115480391039995
:10B6C0008169D3F83C458C42B4D1C569C768D0E9DB
:10B6D00000168DB1D3F800C285612CF02005C2613F
:10B6E000C3F800520369C3600122CDE905748DF8E7
:10B6F000102004A8B0479DE701238561CDE90574BA
:10B700008DF8103004A8B04794E700BF0020004037
:10B71000683D00202DE9F0430779794E4FEAC708CC
:10B7200008EB070306EB830385B093F82030002B6A
:10B7300040F0A8800D460446724900689146FEF725
:10B74000AFFE002840F09A802B68591C19D01F2B9F
:10B750004FF001028ABF6C494FF0A04103F01F0374
:10B7600002FA03F3C1F808352B681F2B86BF03F0DC
:10B770001F03654A4FF0A04203F5E073032142F82E
:10B7800023106B685A1C0BD01F2B86BF03F01F03BE
:10B790005D4A4FF0A04203F5E073002142F8231008
:10B7A0002368AA69C3F82425297D6A7D23680A4392
:10B7B000C3F86C25D5E900312268C2F80C35C2F80F
:10B7C00014152B7D012B67D008EB07029200B318EC
:10B7D000C3F804902B69B350B9F1000F3DD0216834
:10B7E0002B7F4A4D0022C1F81021D1F81011009191
:10B7F0002168DDF800C0C1F82021D1F820110191A5
:10B800002168DDF804C0C1F82421D1F82411029187
:10B810002168DDF808C0C1F84421D1F8441122683C
:10B8200003910399C2F804532268120B51B25B01D1
:10B830000029DBB22ADB01F1604101F5614181F8A9
:10B8400000332368324D1B0B5AB2520903F01F0319
:10B85000012101FA03F345F822304744226806EB40
:10B860008706002301240821C2F8001586F820402D
:10B87000C6E90633736105B0BDE8F083112005B059
:10B88000BDE8F083082005B0BDE8F083214902F04F
:10B890000F0211440B76D4E7AB68591C0BD01F2B59
:10B8A00086BF03F01F0318494FF0A04103F5E07372
:10B8B000002241F82320EB685A1C1AD01F2B8ABFA4
:10B8C00011494FF0A04103F01F03012202FA03F3D4
:10B8D000C1F80835EB681F2B88BF03F01F0303F581
:10B8E000E0738CBF08494FF0A041032241F82320A8
:10B8F000EB682268A968C2F80835C2F8101563E73A
:10B90000683D0020F1B50200000300501003020062
:10B9100000E100E0FCEC00E0F8B507793A4C026881
:10B92000FE00F31904EB830300215B68C2F80015E5
:10B9300083B10368354AC3F808230368344D1B0BF1
:10B940005AB25209203203F01F03012101FA03F316
:10B9500045F8223003684FF0FF3ED3F80CC5D3F80A
:10B960001455D3F80825D3F81015C3F80CE5C3F81F
:10B9700014E50368F445C3F808E5C3F810E50DD0F5
:10B98000BCF11F0F86BF0CF01F0C224B4FF0A043E1
:10B990000CF5E07C4FF0020E43F82CE06B1C0CD051
:10B9A0001F2D86BF05F01F051A4B4FF0A04305F56C
:10B9B000E0754FF0020C43F825C04D1C0BD01F2939
:10B9C00086BF01F01F01134B4FF0A04301F5E0715A
:10B9D000022543F82150531C0BD01F2A86BF02F0CA
:10B9E0001F020C4B4FF0A04302F5E072022143F816
:10B9F00022103E4404EB86040068FEF779FD002324
:10BA000084F820306360F8BD683D00201003020018
:10BA100000E100E00003005001F06043B3F1005F7B
:10BA20002DD1F0B40579244EEF007C1906EB840487
:10BA300082B06369002B39D16261A1600268C2F8EB
:10BA40002031D2F820C10268CDF804C0DDF804C06E
:10BA5000C2F85831D2F8582100920268DDF800C0CF
:10BA6000D4F814C0C2F84415C2F848C502680121D0
:10BA7000916062682AB1184602B0F0BC704710208D
:10BA80007047036800E0AAB9D3F82011D3F8582111
:10BA90000029F8D0002A14BF0F2000207B1906EBE4
:10BAA000830300225A6102B0F0BC7047112002B03B
:10BAB000F0BC70470F20F1E7683D0020002138B549
:10BAC000084602F083FD044638B9054D0123C5F848
:10BAD000003505F0D3F9C5F80045204638BD00BF54
