:020000022000DC
:1060000058D40320B5620200DD620200DF620200A4
:10601000E1620200E3620200E562020000000000AB
:10602000000000000000000000000000E762020025
:10603000E962020000000000EB620200ED62020073
:10604000C9C80200EF6202002DC90200EF6202001F
:10605000EF620200EF62020019940200EF62020098
:10606000EF620200EF620200EF620200EF620200E4
:10607000EF620200EF620200EF620200EF620200D4
:10608000EF62020061FC0200EF620200EF620200B8
:1060900001FD0200EF620200E1AB02007132030079
:1060A000EF620200EF620200EF620200EF620200A4
:1060B000EF620200EF62020000000000000000003A
:1060C000EF620200EF620200EF620200EF62020084
:1060D00009A20200EF620200EF620200EF6202001A
:1060E000EF620200EF620200D972030000000000BC
:1060F00000000000EF62020000000000EF620200FA
:10610000000000000000000000000000000000008F
:10611000000000000000000000000000000000007F
:10612000000000000000000000000000000000006F
:10613000000000000000000000000000000000005F
:10614000000000000000000000000000000000004F
:10615000000000000000000000000000000000003F
:10616000000000000000000000000000000000002F
:10617000000000000000000000000000000000001F
:10618000000000000000000000000000000000000F
:1061900000000000000000000000000000000000FF
:1061A00000000000000000000000000000000000EF
:1061B00000000000000000000000000000000000DF
:1061C00000000000000000000000000000000000CF
:1061D00000000000000000000000000000000000BF
:1061E00000000000000000000000000000000000AF
:1061F000000000000000000000000000000000009F
:1062000010B5054C237833B9044B13B10448AFF3F0
:1062100000800123237010BD200300200000000037
:10622000D4BC030008B5034B1BB103490348AFF3CB
:10623000008008BD0000000024030020D4BC03003F
:10624000154B002B08BF134B9D46A3F5803A002148
:106250008B460F461348144A121A11F099FC0F4B43
:10626000002B00D098470E4B002B00D09847002001
:10627000002104000D000D48002802D00C48AFF3A7
:10628000008011F03DFC2000290010F053F811F0BF
:1062900011FC00BF0000080058D4032000000000DB
:1062A0000000000020030020E04403200000000064
:1062B000000000000649074A074B9B1A03DD043B18
:1062C000C858D050FBDC04F08DFAFFF7B9FF00008E
:1062D0004CBE03000000002020030020FEE7FEE784
:1062E000FEE7FEE7FEE7FEE7FEE7FEE7FEE7FEE786
:1062F00008B507F053F8042103480CF0A9FC034B40
:1063000001225A7108BD00BF34BE03000000002006
:1063100007F006B910B5204C82B001A80AF096FF2C
:10632000D4F86C269DF8043022F00702C4F86C26DD
:10633000D4F86C261343C4F86C369DF8050002F0BF
:10634000D1FDD4F86C3623F47F43C4F86C36D4F80E
:106350006C3643EA0020C4F86C06D4F86C269DF82D
:10636000061022F47F02C4F86C26D4F86C3643EA97
:106370000143C4F86C36D4F86C269DF8071022F05F
:106380007F42C4F86C26D4F86C3643EA0163C4F843
:106390006C3602B010BD00BF0010004008B5034AC3
:1063A000034B044840F2D71111F066FB289003001C
:1063B0009C900300BC9003002B4B1B7803B97047E3
:1063C00070B5044684B0AE200BF056FB00283AD0DE
:1063D0002648274D2749284A4FF42053C0F8003259
:1063E00000232B602D680195019D0B6009680291C7
:1063F0004FF4C021029DC0F804131360116803918B
:106400001E4B1F491F4D039EC3F84825C3F84C552A
:10641000C3F82C19A1F5FF4105F586754839C3F875
:106420004055C3F84415D3F8001841F08001C3F873
:10643000001880254021C3F80455C3F8041524B979
:10644000114B01221A6004B070BDD0F8503513F022
:10645000FF0FF8D100BF00BF00BF00BF00BF00BFEB
:106460001368002BECD0EEE745030020001000403D
:1064700048110040441100403C71014000F00140CF
:1064800004F001400410004010100040324B1B7813
:1064900003B9704770B5314E82B0044635680BF0D1
:1064A00007FBB0F5C07F45D3C009EB09821E9A42B5
:1064B00098BFA5EBC2152A492A4A94BFC31E0025DE
:1064C000356000204FF40045C3F31403C2F864366E
:1064D000C2F8005208600B68009301F5B031009BD0
:1064E000C2F804530860086801901F4B1F48204DF4
:1064F000019EC3F84815C3F84C55C3F82C09A0F504
:10650000FF4005F586754838C3F84055C3F8440583
:10651000D3F8000840F08000C3F800088025402030
:10652000C3F80455C3F804053CB9124B01221A60A4
:1065300002B070BD356002B070BDD2F8503513F0B6
:10654000FF0FF5D100BF00BF00BF00BF00BF00BFFD
:106550000B68002BE9D0EBE7450300204003002047
:106560003C1100400010004000F0014004F00140E8
:1065700004100040101000402DE9F041594A5A4ED5
:10658000137823F00703137084B007460AF058FE0F
:10659000564AC0B2C2F80C053368002B00F09E804A
:1065A00093F88010002978D0C2F80435504A4FF093
:1065B00001084E4D4F4BC5F8002200211822C5F8A6
:1065C000602519601A680092009A43F80C1C0C3B75
:1065D00049481B680193019B016003680293474A85
:1065E000029C474C4FF45053C5F80433D2F800C214
:1065F000444B4CF4A06CC2F800C24FF0010CC2F83E
:1066000040C54FF0820CC2F844C54FF0830CC2F86D
:1066100048C52160216803910CF1804C0CF6817C07
:106620003949DDF80CE0C3F84845C3F84CC5C3F858
:106630002C19C3F85045C3F85425D3F80028DFF8C7
:10664000D4E0A1F5EF31F43942F08002C3F800281C
:106650004FF0800CC3F8401540224FF48071C3F80E
:1066600044E5C3F804C5C3F80415C3F804250EF0C7
:1066700061FFAFB1D5F8503513F0FF0F07D100BF60
:1066800000BF00BF00BF00BF00BF236843B1B8F127
:10669000000F0BD004B0BDE8F0818846522288E795
:1066A0001A4B01221A60B8F1000FF3D10AF02CFD49
:1066B00030600028EED090F88030002BEAD00B4BF1
:1066C0000B4AC3F80405C3F80022D3F85035DBB2F7
:1066D000022BDFD10E4B01221A60DBE798465222D3
:1066E00067E700BF4403002048030020001000407B
:1066F000520008003411004030110040009000406A
:106700003C71014000F0014004F0014010100040D5
:10671000081000403C700140F0B5664B1B7887B014
:10672000ABB103F0FF06037844780133A4064FEAC7
:10673000431354BFCE3303F22E4317460D4604468F
:1067400049B103F1A8000BF097F9002876D1002693
:10675000304607B0F0BD18460BF08EF90028F6D091
:106760000AF06EFD544BC0B2C3F80C05C3F80445E3
:1067700002F06EFB514B002808BF18464E4B18BF65
:106780004FF4A010C3F8000202F062FB00286CD1A5
:106790004B4B4C4C18601B680493049B0A21002D42
:1067A0006DD04948494A4A49434D00230360006877
:1067B000039003981360126808780192454ADDF847
:1067C00004C063F3C3000870C5F804431360136882
:1067D0000293A2F5B032029BA2F59C723E4B3D495A
:1067E000C3F848153D48C3F84C253D4C3D4AC3F815
:1067F0002C49C3F84005C3F84425D3F8002842F0DB
:106800008002C3F8002880204022C3F80405C3F8A2
:106810000425002F47D0284BD3F8503513F0FF0F35
:1068200008D100BF00BF00BF00BF00BF00BF0B68A2
:10683000002B38D03E46304607B0F0BD0AF000FDD0
:106840001D4BC0B2C3F80C05C3F8044502F000FBB1
:10685000254B264A002814BF18461046164BC3F88D
:10686000000202F0F5FA002892D0214B2149224C77
:1068700000221A601B680593059B002D91D1134BD4
:1068800013481D601B68047801930B4A114BDDF817
:1068900004C065F3C3040470C2F804131D601B68D0
:1068A0000293029B9AE7154B012230461A6007B00B
:1068B000F0BD00BF450300200010004002000400AE
:1068C0000C1100400A00040048110040041100406F
:1068D000440300203C71014000F0014010110040D1
:1068E00004F001403C7001400038140002380400FC
:1068F0006C11004002000008020004081010004063
:10690000F0B5B24B1B7885B0092B00F2E981DFE8C6
:1069100013F01E00EF006800A500260026002D00E1
:10692000FA0029010A00AA4BAA4A40208021C3F894
:106930000805C3F80815137803F0FF04002B00F0D6
:106940004081A54B01221A60204605B0F0BD022906
:1069500000F0378104200AF02FFC0124F4E700281E
:1069600040F04A810446204605B0F0BD0028F9D029
:10697000974B984C80204FF480714025C3F8085500
:10698000C3F80805C3F80815D3F80018002021F053
:106990008001C3F80018C3F82C0923787BB18F4B12
:1069A0008F498D4C0A25C3F808530125C3F800020E
:1069B0002560C3F8440608600B680393039B002A14
:1069C00000F0FF80874B1D680621284609F018FD5E
:1069D0000446002800F0F580284606210AF08EFBC8
:1069E000B2E7814B1B78C3F38003002B00F0488192
:1069F0000028B7D0764B7D4E7D48764D4021C3F8B8
:106A000008158021C3F808154FF48071C3F80815E4
:106A1000D3F8001821F08001C3F8001800240121E8
:106A2000C3F82C493160D0F8003223F4A063C0F8D9
:106A300000322B7853B1A0F5FF40684B70384FF40B
:106A40005055C3F80853C3F800420160002A00F013
:106A5000B880062014460AF04FFB75E7002881D065
:106A60005B4B624F62485B4E4021C3F808158021A2
:106A7000C3F808154FF48071C3F80815D3F800184F
:106A8000002521F080010124C3F80018C3F82C5917
:106A90003C60D0F8003223F4A063C0F800323378B1
:106AA000002B40F0DD80002A00F08B8051494B4BD9
:106AB0000D680192002185F88010D3F8480500F098
:106AC0007F0002F0C7F92B78019A2B44064613F891
:106AD000010C144602F0E2F902B29200FF2A28BF2C
:106AE000FF22714252B2284649B20AF003FB2BE75B
:106AF000384B1B7803F0FF04002B62D0374B102279
:106B0000C3F8082320E700283FF42CAF304B314C6A
:106B100080204FF480714025C3F80855C3F808055C
:106B2000C3F80815D3F80018002021F08001C3F83D
:106B30000018C3F82C09237873B12849264C05F1B5
:106B400080454FF4004305F6E875C1F8083301238A
:106B5000C1F800022B6023609AB3012014460AF0AA
:106B6000CFFAF1E600283FF4FDAE194B194C802016
:106B70004FF480714025C3F80855C3F80805C3F8E1
:106B80000815D3F80018002021F08001C3F8001880
:106B9000C3F82C09237873B110490F4C05F18045D7
:106BA0004FF4C02305F57F65C1F808330123C1F810
:106BB00000022B60236022B1012014460AF0A2FAE1
:106BC000C2E60124204605B0F0BD00BF4603002008
:106BD00000F001404503002010100040001000406C
:106BE0005C1100404C030020440300201090004042
:106BF00000900040480300203D4B3E484021C3F830
:106C000008154FF400744FF480718025C3F80855BF
:106C1000C3F80845C3F80815D3F80018002421F07C
:106C20008001C3F80018C3F82C490378002B3FF407
:106C3000C6AE019202F00CF92F4E304B304905F1EF
:106C40008045A04208BF334605F57B652D48C1F855
:106C500008330123C1F800422B600360019AAEE6BD
:106C6000019202F0F5F82649274BA842254808BFB3
:106C70000A23C1F80833C1F800520460019A12E7F0
:106C80001B4A224D22481B4C4021C2F80815802186
:106C9000C2F808154FF48071C2F80815D2F8001830
:106CA00021F08001C2F800180121C2F82C392960B6
:106CB000D0F8002222F4A062C0F80022227802F06C
:106CC000FF04002A3FF47DAFA0F5FF400C4A703866
:106CD0004FF45055C2F80853C2F80032016033E651
:106CE0000C4B0D4A0D4840F21D5110F0C5FE00BF7F
:106CF00000F00140450300200A00040002000408DF
:106D000000100040101000400200000810900040E9
:106D1000009000400C91030034900300BC900300ED
:106D2000F0B583B0164605460F4609F053FB0446FE
:106D3000002848D09E4B1B78092B00F2D981DFE850
:106D400013F057005D006900A500AC00AC000A001C
:106D5000DD000A014500002D00F09B80954B964810
:106D60004022C3F8082580214FF48072C3F808152B
:106D7000C3F80825D3F80028002122F08002C3F8C8
:106D80000028C3F82C1903787BB18C4B8C4A8D48B2
:106D90000A25C3F808530125C3F800120560C3F89B
:106DA0004416116013680193019B66B1864B1D6800
:106DB0000621284609F024FB034620B12846062177
:106DC0001C460AF09BF9204603B0F0BD794B7A4A85
:106DD00040208021C3F80805C3F80815137803F094
:106DE000FF02002BEFD0774B012114461960EAE730
:106DF000022FE8D004200AF0DFF9E4E76E4B1B789D
:106E000003F0FF02002BDED06C4B10211446C3F8B8
:106E10000813D8E76D4B1B78C3F38003002B00F0F9
:106E20002A81002D35D0634B694F6A49624D40225B
:106E3000C3F808258022C3F808254FF48072C3F8F0
:106E40000825D3F8002822F08002C3F8002800208B
:106E50000122C3F82C093A60D1F8003223F4A06370
:106E6000C1F800322B7853B1A1F5FF41534B703973
:106E70004FF45055C3F80853C3F800020A60002EBF
:106E8000A1D0062034460AF037F99CE7002D40F0E7
:106E9000AB802C46204603B0F0BD002DF9D0454B09
:106EA000454940208022C3F80805C3F808254FF45F
:106EB00000704FF48072C3F80805C3F80825D3F8B2
:106EC0000028002522F08002C3F80028C3F82C59BE
:106ED0000B78002B3FF469AF01F0BAFF3E493F4BFE
:106EE000364A3F4FA84208BF0B463649C2F808331E
:106EF0000123C2F800523B600B6056E7002DC8D05A
:106F00002C4B2D484022C3F8082580214FF4807275
:106F1000C3F80815C3F80825D3F80028002122F08B
:106F20008002C3F80028C3F82C1903785BB1234B07
:106F30002C48244A4FF40045C3F80853C3F8001204
:106F4000012303601360002E3FF43DAF012034465F
:106F50000AF0D6F837E7002D9BD0164B1648402292
:106F6000C3F8082580214FF48072C3F80815C3F8D0
:106F70000825D3F80028002122F08002C3F8002859
:106F8000C3F82C1903785BB10C4B15480D4A4FF42C
:106F9000C025C3F80853C3F800120123036013602F
:106FA000002E3FF410AF012034460AF0ABF80AE798
:106FB0004603002000F0014045030020001000407F
:106FC0005C110040101000404C03002044030020DE
:106FD00010900040009000400A00040002000408E5
:106FE0003010004028100040454BDFF828C14549CB
:106FF00045484022C3F808258022C3F808254FF4ED
:107000008072C3F80825D3F80028002722F08002F8
:107010000125C3F80028C3F82C79CCF80050D1F82A
:10702000003223F4A063C1F800320378002B51D161
:10703000002E3FF4C8AE354A354B1568002285F85E
:107040008020D3F8480500F07F0001F003FF2B7883
:107050002B44074613F8010C01F020FF02B2920006
:10706000FF2A28BFFF22794252B2284649B234464D
:107070000AF040F8A7E6224A264D22484021C2F8ED
:1070800008158021C2F808154FF48071C2F8081560
:10709000D2F8001821F08001C2F800180121C2F8CE
:1070A0002C392960D0F80022174D22F4A062C0F8D4
:1070B00000222A7802F0FF00002A3FF484AE144A2E
:1070C000154D4FF45056C2F808630446C2F800321A
:1070D000296078E601F0BCFE0D4A0F490F4BB8421B
:1070E00008BF0A23C2F80833C2F800720D609FE798
:1070F0000B4B0C4A0C4840F21D5110F0BDFC00BF78
:1071000000F00140009000404503002048030020AB
:1071100000100040109000401010004002000008D5
:107120000C91030034900300BC900300F0B583B0D1
:1071300050B10AF0BDFC3B2804D9CE4D2B7803F0AA
:10714000FF065BB103B0F0BDCA4D2B78002B40F0B9
:10715000A38003B0BDE8F0400AF08CBCC64CC74A1F
:10716000C4F8FC6F01270F23C4F8FC7FC4F8103566
:10717000D4F8143523F00F03C4F81435D4F81435BB
:1071800043F00803C4F81435D4F8143523F04073E1
:10719000C4F81435D4F8143543F00073C4F814352A
:1071A000D4F8143523F08063C4F81435D4F81435BA
:1071B00043F08063C4F81435D4F8183523F0FF0386
:1071C000C4F81835D4F8183543F07F03C4F81835DF
:1071D000D4F8503623F00103C4F85036D4F85036B2
:1071E0003B43C4F85036D4F8343523F00303C4F8D5
:1071F0003435D4F8343543F00203C4F83435D4F8C8
:10720000343523F44073C4F83435D4F8343543F4BA
:107210000073C4F83435C4F83825FFF77BF8984B71
:10722000C4F84466C4F848360AF004F8A0F10B0329
:10723000DBB20F2B00F21C81924B0A3800EB80006E
:107240000222C4F8080583F80163C3F88021D4F84A
:107250000032002B40F005818B4C2378002B40F04E
:10726000F0802378092B00F2F58001A252F823F078
:1072700045710200557402002F740200557402001B
:107280002574020013740200557402000774020092
:10729000FB730200BB7302007A4B0226C3F88060C6
:1072A0000446C3F8806183F80103BFF34F8FBFF337
:1072B0006F8F714B0127C3F8FC0FC3F8FC7F287058
:1072C0000EF030F93146384609F084F830B96F4B8A
:1072D0006F4A704840F2CE6110F0CEFB2246314634
:1072E0003846FFF70DFB0028F1D0674C2378092BB7
:1072F00000F2E88001A252F823F000BF53710200AF
:10730000A97302008F730200457302002573020007
:1073100025730200257302005371020053710200AD
:1073200053710200022323700EF05CFD5A4B1C685F
:107330000421204609F064F8002840F086800EF011
:1073400097FD06E7554B1D68002385F88030022322
:1073500023700EF047FD484BD3F8480500F07F003E
:1073600001F078FD2B782B44044613F8010C01F052
:1073700095FD02B29200FF2A28BFFF22614252B25D
:10738000284649B209F0B6FE0EF072FDE1E6444B24
:107390001B785B077FF5DDAE0EF024FD052009F0BC
:1073A000ABFE0EF065FDD4E6002626700EF0BAF8AE
:1073B000304609F001FF2E70CBE62B78002B3FF40E
:1073C000C1AE384A384B2C483849394E394D002423
:1073D000146014680194019CC3F848258024C3F804
:1073E0004C0501224020C3F84065C3F84455C3F85A
:1073F0000445C3F804050A60A4E6002003B0BDE814
:10740000F040FEF7D9BF002003B0BDE8F040FFF721
:107410003DB8214B00221868114603B0BDE8F0408A
:10742000FFF77AB91C4B002218680121F5E72B7889
:10743000002B3FF487AE002003B0BDE8F040FFF71B
:107440009BB82F700EF060F80BE72046042109F07E
:1074500055FE74E7184B194A0E4840F2B76110F018
:107460000BFB174B154A0B4840F28F6110F004FBE1
:10747000FEF794FF4503002000100040211001009A
:10748000000700FF00E100E04603002088910300B0
:1074900064900300BC9003004C03002048030020CC
:1074A000440300203C71014000F0014010100040F6
:1074B000101100403C7001400C91030050900300FB
:1074C00060910300034B044A044840F2F96110F054
:1074D000D3FA00BF0C91030064900300BC9003003A
:1074E0002DE9F04182B006460EF054FB0446A0B1EF
:1074F000294D2B787BB12B78012B0CD0274F3B7873
:1075000003F0FF086BB9012230461146FFF708FC73
:107510000646D0B904460EF0A1FB204602B0BDE8F5
:10752000F0810AF0C5FA3B28EDD81D4B0026012258
:10753000C3F8FC6FC3F8FC2F2E700DF0F3FF30463C
:1075400009F03AFE44463E70E5E701232B703B7894
:1075500003F0FF08A3B1134A114B00211160126818
:10756000019210220199C3F80423D3F8501511F0A9
:10757000FF0FD0D1397809B1C3F808230026DBE723
:1075800085F800800DF0CEFF404609F015FE344628
:1075900087F80080BFE700BF4603002045030020B6
:1075A00000100040101100402DE9F04707468846C2
:1075B000144699460EF0EEFA054600B3184E33789D
:1075C000022B14D03378032B11D0DFF858A09AF88F
:1075D0000030D3B94A4641463846FFF7A1FBC0B157
:1075E000022333709AF8003003F0FF069BB90CB108
:1075F0002846A0470EF032FB2846BDE8F087002C55
:10760000FAD0A0472846BDE8F0870AF051FA3B2897
:10761000E0D80025EBE70120FEF7AEFF3546E6E7B0
:1076200046030020450300202DE9F843099C9DF8FE
:10763000209005460E4690461F460EF0ABFA80B3EA
:107640001C4B1B783BBB3146284608F0C3FE78B381
:10765000284631460122FFF753F9054640B3164E3E
:10766000164B02223270404601223946C3F8008090
:10767000FFF752F8B9F1000F00D0C8B1002F14BFC6
:107680000423052333700CB12846A0470EF0E6FA18
:107690002846BDE8F8830AF00BFA3B28D3D80EF051
:1076A000DDFA0CB10020A04700252846BDE8F8838C
:1076B0000025E8E745030020460300204C03002096
:1076C00070B505460E460EF065FA0446D8B1164B65
:1076D0001B78FBB90121284608F07CFEA8B10122E5
:1076E00028461146FFF70CF9044670B10F4A1049BD
:1076F000104B16600725002201200D701A70FEF74E
:10770000C5FE0EF0ABFA204670BD00240EF0A6FABE
:10771000204670BD0AF0CCF93B28DBD800240EF0DF
:107720009DFA204670BD00BF4503002040030020A5
:10773000460300203C03002038B505460EF02AFA27
:107740000446B0B1134B1B78D3B90121284608F089
:1077500041FE80B1012228461146FFF7D1F80446C8
:1077600048B10D4B082201201A70FEF725FE0EF0DD
:1077700075FA204638BD00240EF070FA204638BD58
:107780000AF096F93B28E0D800240EF067FA20466C
:1077900038BD00BF4503002046030020F0B585B08A
:1077A00004460EF0F7F9002840D02B4D2B78002B23
:1077B0003ED10121204608F00DFE002841D00122D3
:1077C00020461146FFF79CF800283AD0234B0922A7
:1077D0001A702B7803F0FF0623B3214A214B22496C
:1077E000224D0024146014680394214C039FC3F8B5
:1077F0004825C3F84C15C3F84055C3F844458025C7
:107800004024C3F80455C3F80445D1F8503513F0AB
:10781000FF0F07D100BF00BF00BF00BF00BF00BF08
:107820001368A3B101900EF019FA019805B0F0BDEC
:107830000AF03EF93B28BCD80EF010FA002005B043
:10784000F0BD002001900EF009FA0198EEE7094B17
:10785000012230461A60E5E7450300204603002078
:107860003C71014000F00140001000401011004048
:107870003C7001401010004038B504460EF08AF903
:10788000C0B12A4D2B787BB92B78012284F8802057
:1078900033B1274B1B78DBB2022B24D0062B0ED042
:1078A0000EF0DCF9012038BD0AF002F93B28EBD8D4
:1078B0000EF0D4F9012384F88030012038BD1D4931
:1078C000D1F85035DBB2022BEAD1D1F80032122BBD
:1078D00024D1194D194B1A482C60C1F80445C1F840
:1078E00000021A60DCE71349D1F85035DBB2022BF5
:1078F000D6D1D1F80032522B09D10F4D0F4B114880
:107900002C60C1F80445C1F800021A60C8E70E4BAC
:107910000E4A0F4840F69F3110F0AEF80D4B0B4A5F
:107920000B4840F6AE3110F0A7F800BF4503002029
:1079300046030020001000404803002008100040CB
:107940001200080052000800149103007890030010
:10795000BC9003003891030038B50EF01BF90446C3
:10796000A0B12E4D2B7853B92D4B1B78023B072B22
:107970001DD8DFE803F0200D0D0D0D1C0D3D0AF0A4
:1079800097F83B28F0D80EF069F90024204638BD5E
:107990002B7863B109F04EFCA0F10B03DBB20F2B87
:1079A0003AD80A381F4B00EB8000C3F808050EF0E8
:1079B00055F9204638BD2B7863B109F03BFCA0F1A6
:1079C0000B03DBB20F2B27D80A38164B00EB8000D5
:1079D000C3F80805012211460020FFF7A1F900288D
:1079E000E5D02B78002BE2D00120FEF7C5FDDEE7C5
:1079F0002B78002BDBD009F01DFCA0F10B03DBB2D0
:107A00000F2B09D80A380749074B00EB80000122E9
:107A1000C1F808051A60CAE7FEF7C0FC450300205C
:107A200046030020001000401010004038B50EF052
:107A3000B1F8044630B10A4D2B782BB92B7863B9D5
:107A40000EF00CF9204638BD0AF032F83B28F5D884
:107A500000240EF003F9204638BDFEF75BFCEFE78B
:107A6000450300204ADF70472DE9F8431F4B1B7880
:107A700073B31F4B1A7892BB01251E4C1D702378DF
:107A800003F0FF070BB1BDE8F883DFF884801A4EDE
:107A9000DFF88090194BD8F80020A9F80020304674
:107AA000102239461F8010F073F8B9F80030D8F86A
:107AB0000420B360304640F20113F2603770257045
:107AC000B380FFF7CFFF0028DDD02770BDE8F88333
:107AD0000B4B0C4A0C4840F2FD210FF0CDFF0B4B35
:107AE000084A094840F2FE210FF0C6FF6503002056
:107AF000640300207E030020680300207A03002036
:107B0000FC91030090910300809203000C9203000B
:107B1000500300207C03002030B51C4B1B7883B041
:107B200063B31B4A137813B31A4B1B78DBB2022BD7
:107B300003D00023137003B030BD17494FF4807099
:107B4000C1F88000BFF34F8FBFF36F8F1348144C01
:107B5000012505600020206024680194019C1070BC
:107B6000BFF35F8FC1F800310B6003B030BD0D4B28
:107B70000D4A0E484FF444710FF07EFF0C4B0A4A39
:107B80000A4840F20F310FF077FF00BF6503002075
:107B9000640300207E03002000E100E00480004038
:107BA00040810040EC910300B091030080920300FB
:107BB000FC910300704700BF38B51F4B1A7802F0E4
:107BC000FF037AB11D4B1A78022A0DD11B78022BC4
:107BD0000DD000231A4A1278012A25D1834294BF7E
:107BE00000230123184638BD0023184638BD154B25
:107BF0001549D3F84425D3F80435C989013AD21A76
:107C000022F07F4243F6095340F2FF140025E3FBC4
:107C10000245630A43EAC5538A1C9A42D9D29B1A89
:107C2000B3F5965FDAD2D5E7084B094A09484FF415
:107C30004E710FF021FF00BF640300207E0300207F
:107C40007803002000B0004050030020249203007D
:107C5000D091030080920300124B1B78022B01D0BD
:107C60000020704730B4104A1049D2F84435D2F899
:107C70000425C989013B9B1A23F07F4343F609522F
:107C800040F2FF140025E2FB0345600A40EAC550BC
:107C90008B1C834202D3002030BC7047C01A30BC1A
:107CA000704700BF7E03002000B00040500300205A
:107CB000F0B595B0002415460F4608461E4604F060
:107CC000DDFA384623460895082205A91A9D09962B
:107CD0000D950A948DF82C400C9404F033FB9DF81C
:107CE00014308DF81140DDE9061003F00302012A7B
:107CF000CDE9020127D0022A04D0384604F0C2FAA6
:107D000015B0F0BDBDF81650C3F3C2038DF81030A6
:107D1000AD090826082D2C4628BF082433462246E4
:107D20000EA9384604F00EFB2D1B214608AB02AA13
:107D30000EA8264407F0E6FE002DEBD1384604F0ED
:107D4000A1FA15B0F0BDBDF81460059DC6F3831609
:107D5000C3F3C204B2000EA9384608238DF81040C0
:107D6000C5F3952504F0EEFA08AB324628460EA975
:107D7000009302AB07F050FE384604F083FA15B0CA
:107D8000F0BD00BF9BDF70479DDF70479EDF7047EF
:107D9000F0B590F85A32314C03EB830303EB8303C5
:107DA00025689B009BB0C618EDB12D4CB678A7781E
:107DB000B74240D0012D16D9A779B74241D0022D44
:107DC00011D0A77AB74242D0032D0CD0A77BB7427F
:107DD0000BD0042D07D0A77CB74220D0052D02D0B0
:107DE000A57DB54221D01BB0F0BDB4F80CC0C75A78
:107DF000BC45EED11B4B1E68002EF4D015460C4638
:107E00006822002168460FF0C3FE01236846ADF8E2
:107E1000025001948DF80030B0471BB0F0BDB4F8AB
:107E200010C0C75ABC45D9D1E4E7A48AC35A9C42C2
:107E3000E0D01BB0F0BD30F803C02788BC45B9D1F5
:107E4000D8E7B4F804C0C75ABC45B8D1D2E7B4F8F3
:107E500008C0C75ABC45B7D1CCE700BF8803002093
:107E600018060020800300202DE9F04F90F85AC238
:107E70004B4F0CEB8C0303EB83033D689B0083B0FB
:107E8000C6181DB3474CB67894F80280B04571D03F
:107E9000012D1BD994F806E0B64572D0022D15D0FD
:107EA00094F80AE0B64573D0032D0FD094F80EE095
:107EB000B6450ED0042D09D094F812E0B6454BD04B
:107EC000052D03D094F816E0B6454CD003B0BDE8BC
:107ED000F08FB4F80C8030F803E0F045EAD1324B73
:107EE000D3F800B0BBF1000FF0D0DFF8C490D9F8A0
:107EF0000060052EEAD82D4C4FF06C0A0AFB06FAFA
:107F000004EB0A03964664228846A3F802E002FBCB
:107F10000C01181D01930FF02DFE0136B8F1000F72
:107F2000019BC9F8006014BF00220222AE42C3F8D0
:107F300068B004F80A20C9D10025A36E20469847EE
:107F40003B6801359D4204F16C04F6D30023C9F867
:107F5000003003B0BDE8F08FB4F8108030F803E0D3
:107F6000F045ADD1BBE7A48AC35A9C42B7D003B059
:107F7000BDE8F08FB4F8008030F803E0F04587D119
:107F8000ADE730F80380B4F804E0F04586D1A6E709
:107F9000B4F8088030F803E0F04585D19FE700BFD2
:107FA0008803002018060020800300208C03002096
:107FB000140600202DE9F04390F85A8290F85932C7
:107FC00008EB880808EB88084FEA880500EB050EE7
:107FD00003EBC3049EF8047005EB440403F1010CA9
:107FE00004F10A06BC4583B006443DD0BB4233D2FF
:107FF00000F11C080444A84407F1FF3C35899C4566
:1080000005F1010610D0658CAE4217D0013DADF8E8
:108010000650ADF8046000230B70104601A9FFF76D
:10802000B5FE03B0BDE8F083BEF80860AE4219D0DB
:108030000135ADF80450ADF80660ECE703EBC3067C
:1080400008EB46065D1C5FFA85F94F452B4680F824
:10805000595204F11204D1D8012300200B7003B04F
:10806000BDE8F0830026EDE73389BEF808008342BF
:10807000F2D00133ADF80430ADF80600CBE700BF15
:1080800090B389B36E4B1B7873B32DE9F04F03881F
:10809000113B9FB004460D46222B00F29580DFE88D
:1080A00013F0D0019300930093009300930093008A
:1080B0009300930093009300930093009300930028
:1080C0009300930093009300930093009300930018
:1080D0009300930093009300930093009300930008
:1080E00024009300D700A30070478688B1F85E3261
:1080F0009E4240F0B681C388002B40F01F8291F869
:108100005A62016906EB860303EB830305EB8302E6
:10811000C2F8061095F859328088002B00F0398299
:10812000013BDBB2642103EBC30301FB06F101EB6E
:1081300043032B445B8A01339BB21289ADF81220B2
:1081400004A9ADF81030FFF71FFE064600283BD00B
:1081500095F85A223B4902EB820202EB820200238D
:10816000086885F85B329200A918A78840B3364B9F
:10817000897893F802C08C4500F0D58301281FD977
:1081800093F806C08C4500F0EB83022818D093F8D2
:108190000AC08C4500F0FC83032811D093F80EC070
:1081A0008C4500F0FD8304280AD093F812C08C455A
:1081B00000F00684052803D0987D884200F00884EA
:1081C000224B03225F801A7095F85C324BB12388F2
:1081D000303B1F2B05D8A688B5F85E329E4200F0D2
:1081E00088811FB0BDE8F08F8288B1F85E329A4274
:1081F000EAD1C18895F85AC295F85962002940F031
:1082000047814389002B00F04381642000FB0CF080
:1082100006EBC60300EB430028442246D389A3F5AE
:108220002453082B00F26381DFE813F05F015B0148
:10823000580161016101610161016101210100BF1A
:108240008403002088030020180600208C030020EF
:108250008688B1F85E329E4240F00381C388002BCD
:1082600040F0C58091F85A92867A09EB890707EBAE
:108270008707BF0001EB070898F804A05644052EB5
:1082800000F3B481F6B288F80460CDF80490B245EA
:10829000514680F09C82A646CB00642000FB09F08A
:1082A00003EB0A0C5EF80C2F98F80460DEF80490DB
:1082B00000EB4C0CAC440AF10108CCF80A20CCF8D5
:1082C0000E90BEF808E0ACF812E00022B045ACF821
:1082D0001420ACF81620ACF81820ACF81A2078D28C
:1082E000A6464FEAC80303EB080C5EF816BF00EB86
:1082F0004C0CAC44DEF804A0CCF80EA0CCF80AB0CC
:1083000001F10209BEF808E0ACF812E04E45ACF805
:108310001420ACF81620ACF81820ACF81A2040F263
:108320005482A6464FEAC90303EB090C5EF820BF4E
:1083300000EB4C0CAC44DEF804A0CCF80EA0CCF85A
:108340000AB001F10308BEF808E0ACF812E04645B7
:10835000ACF81420ACF81620ACF81820ACF81A20B1
:1083600040F2CD82A6464FEAC80303EB080C5EF844
:108370002ABF00EB4C0CAC44DEF804A0CCF80EA0F5
:10838000CCF80AB00431BEF808E0ACF812E08E4236
:10839000ACF81420ACF81620ACF81820ACF81A2071
:1083A00040F21382A446CB0003EB010E5CF8349F2D
:1083B00000EB4E002844DCF80480C0F80E80C0F8C2
:1083C0000A90BCF808C0A0F812C08282C282028360
:1083D00042830B440199642205EB430302FB01F243
:1083E0001F44AB18798A1F89B942C0F0D480002796
:1083F00085F85972A2880DF10F012846FFF7DAFDC2
:108400000646002840F00B819DF80F30002B3FF40A
:10841000DBAEA28801212846FFF726FD95F85D32E4
:10842000AB4AA78812680133DBB2934285F85D320C
:10843000C0F03E82A74B85F85B6203225F801A7012
:10844000C2E68288B1F85E329A427FF4CAAE002357
:108450004FF6FF7281F85B3281F85C32A1F85E2240
:10846000BFE695F85C22002A7FF4B8AEB9E697899A
:10847000838A47832BB1C38A1BB1038B0BB1438B18
:1084800033B963890131994202F10602FFF4C6AEA5
:10849000642303FB0C5301361B7900279E428DF8A1
:1084A0000F7064D101238DF80F30A2880121284676
:1084B000FFF7DAFC95F85D32854AA6881268013329
:1084C000DBB2934285F85D32C0F0C481814B032159
:1084D00000225E80197085F85B2275E6938983829D
:1084E000C8E793890383838AC4E79389C382838A15
:1084F000C0E74FF41872002128460FF049FB764B75
:10850000764C186828600023A5F85E6285F85D3215
:10851000304685F85A3285F859322A4601212360BF
:10852000FFF730FC112800F0BD8100287FF459AE20
:10853000012385F85C0285F85B3252E63246002161
:108540002846FFF791FC95F85D32614AA7881668C6
:108550000133DBB2B34285F85D32C0F0CB805D4BB6
:10856000032100225F80197085F85B222CE685F8D4
:108570005962A2880DF10F012846FFF71BFD064640
:10858000002840F028819DF80F30002B3FF41CAEEE
:108590008BE7D388D1E5052E3FF429AF85F85962E2
:1085A000A088002E00F0B581731EDBB203EBC3037D
:1085B00002EB43032B445B8A01339BB204A9ADF861
:1085C0001030ADF81270FFF7DFFB00283FF4FCAD70
:1085D000002385F85B320146A2882846FFF7D8FBC6
:1085E0003C4BA2885A8003221A70EDE53C4B3D4E6D
:1085F0003D49F61AF6080523360488F8043046F09B
:1086000002063046EA5B09F067FF3046374909F059
:108610008BFE95F85A3298F80460019337E695F886
:108620005A222B4B85F85B7202EB820202EB82022C
:108630001868A7889200A91800283FF4C1AD264BFE
:10864000897893F802C08C4500F05B8101287FF6A1
:10865000B7AD93F806C08C4500F05D8102283FF469
:10866000AFAD93F80AC08C4500F0828103283FF437
:10867000A7AD93F80EC08C4500F0828104283FF42A
:108680009FAD93F812C08C4500F0928105283FF40D
:1086900097AD987D88427FF493AD998AAB5A994201
:1086A0007FF48EAD124BD3F80080B8F1000F3FF489
:1086B00087AD6822002104A80FF06AFA0123ADF803
:1086C000127004A805968DF81030C047A78877E58A
:1086D000880300208C0300201806002014060020C8
:1086E0006CBD03009CBD0300EC92030034930300B7
:1086F0008003002095F85A22D74B0132D2B202EB08
:10870000820101EB8101890005EB010C53F8220085
:1087100085F85A224FF0000885F859826246685061
:108720008CF8048001213846FFF72CFB8146002895
:108730003FF44AAD95F85A2285F85B8202EB82023B
:1087400002EB82029200A91898788978884200F09A
:108750007481012E3FF434AD9879884200F066812F
:10876000022E3FF42DAD987A884200F08481032ECA
:108770003FF426AD987B884200F07681042E3FF4CA
:108780001FAD987C884200F05F81052E3FF418AD44
:10879000987D88427FF414AD998AAB5A99427FF450
:1087A0000FADAE4B1E68002E3FF40AAD04A8682240
:1087B00000210FF0EDF9012304A8ADF81270CDF8F7
:1087C00014908DF81030B047FAE4414601E60AF102
:1087D000FF31CB00FDE595F85A22A14B85F85B727D
:1087E00002EB820202EB82021968A7889200A818A5
:1087F00000293FF4E5AC984B807893F802C084459B
:1088000000F0EC8001297FF6DBAC93F806C08445CC
:1088100000F0EC8002293FF4D3AC93F80AC0844501
:1088200000F0EC8003293FF4CBAC93F80EC08445F4
:1088300000F0EC8004293FF4C3AC93F812C08445E7
:1088400000F0EC8005293FF4BBAC997D81427FF4B8
:10885000B7AC22E795F85A327F480133DBB203EB1D
:10886000830202EB82029200A91850F8230085F8D7
:108870005A32002385F85932A8500A460B71304607
:108880000121FFF77FFA00283FF49EAC85F85B32A8
:10889000014632462846FFF77BFA724B03225E8080
:1088A0001A7091E4012385F85B3285F85C3298E414
:1088B00095F85A32684885F859620133DBB203EB08
:1088C000830202EB82029200A91850F8230085F877
:1088D0005A32A8500A460E7138460121FFF752FA63
:1088E00000283FF471AC01463A4685F85B622846A1
:1088F000FFF74EFA5B4B03225F801A7064E449462F
:1089000067E535F802E0B3F800C0E6457FF49EAEB7
:10891000C8E6DB8852E6B3F804E035F802C0E64565
:108920007FF49CAEBEE635F802E0B3F800C0E64541
:108930007FF424AC494BD3F80080B8F1000F3FF42A
:108940003FAC6822002104A80FF022F90123ADF802
:108950001270059604A88DF81030C047A7882FE440
:1089600035F802E0B3F804C0E6457FF40EACE1E769
:1089700035F802E0B3F808C0E6457FF477AE91E63B
:10898000B3F80CE035F802C0E6457FF477AE89E62F
:1089900035F802E0B3F808C0E6457FF4FDABC9E75F
:1089A00035F802E0B3F80CC0E6457FF4FCABC1E754
:1089B000B3F810E035F802C0E6457FF467AE71E623
:1089C00035F802E0B3F810C0E6457FF4F3ABB1E749
:1089D000998AAB5A99427FF4F3ABABE7B3F800E066
:1089E00035F802C0E6457FF40DAF5BE6B3F804E06E
:1089F00035F802C0E6457FF40DAF53E6B3F808E062
:108A000035F802C0E6457FF40DAF4BE6B3F80CE055
:108A100035F802C0E6457FF40DAF43E6B3F810E049
:108A200035F802C0E6457FF40DAF3BE635F802C0ED
:108A3000988884457FF494AEB3E635F802C0188870
:108A400084457FF486AEACE635F802C0188A8445CA
:108A50007FF49BAEA5E600BF18060020800300202F
:108A6000880300208C03002035F802C098898445D3
:108A70007FF484AE95E635F802C0188984457FF40A
:108A800076AE8EE62DE9F0410388112B82B00446C4
:108A900075D00BD9122B49D0502B04D1714EC288FE
:108AA000F3899A427ED002B0BDE8F081102BFAD152
:108AB000C37B012BF7D16C4D29884FF6FF72914291
:108AC00040F0B280694F8288664E2A8003CFC5F895
:108AD0000A00C5F80E10618A6F89F0894FF0000C0A
:108AE0008F4285F808C000F29280AF898F42C0F0B3
:108AF0008E80E989A78A40F2F314A14294BF4C1AF0
:108B00000C1BBC4200F2838001F2F311B9427ED308
:108B10006B720028C7D17369002BC4D00121ADF856
:108B200006208DF8041001A89847BCE74E4D8288B6
:108B30002B889342B7D141896889884258D8A8893F
:108B4000884255D3E989A48940F2F310814294BF49
:108B5000481A081AA0424BD801F2F311A14247D398
:108B6000404A52694FF480712981002A9BD001212B
:108B7000ADF806308DF8041001A8904793E73A4D00
:108B800082882B889A428ED1686807F067FB18B1FB
:108B9000344B9B6903B198474FF6FF732B8002B0AB
:108BA000BDE8F081038A022B7FF47DAF2E4DB0F833
:108BB00004802F8847457FF476AF12300DF010FB0C
:108BC000002839D06B7A002B3DD1D6E901132C7ADD
:108BD00068683A46002C18BF194607F0E9FA0028E1
:108BE0003FF461AFB369002B3FF45DAF98475AE79C
:108BF0001C4E2C7A6868D6E90113002C18BF194660
:108C000000236B7207F0D4FA0028EBD14BE7002366
:108C10006B7200287FF447AF6868716807F0C8FA84
:108C200000283FF440AFDDE70E4B9B69002B3FF47B
:108C30003AAF0420984736E7686807F00FFB002832
:108C40003FF431AFCEE7736900222A72002B3FF464
:108C50002AAF0122ADF806808DF8042001A89847BC
:108C600021E700BF300600204C06002060060020EF
:108C700010B50278012A82B00BD0022A28D032B96E
:108C8000214B03221B688DF800206846984702B0EC
:108C900010BD1E4B1E4C19784068615C04248DF891
:108CA000004000788DF8040069B903F10C001949FF
:108CB00005F0B4FE184A144B01211B681170684678
:108CC000984702B010BD1819124905F02FFBF1E7C3
:108CD0000E4B0F4C1978C068615C01908DF8002034
:108CE00051B1181D01220B4905F020FB064B6846C7
:108CF0001B68984702B010BD03F10C000122054922
:108D000005F08CFEF2E700BF680600200800002096
:108D10009C3403206C0600206D0600202DE9F046EF
:108D20002B4D2C4F06469A4691460FCD8BB002AC88
:108D30000FC495E80F0096F810C0757C84E80F000A
:108D4000254B7269C3F800901CF1000C7368019305
:108D500018BF4FF0010C33688DF824A0002D18BF08
:108D60004FF00E0AB568039308BF4FF0000AF3688E
:108D70001A4C8DF81CC008928DF81DA04FF0000C05
:108D8000059502A904933846019B154A029384F87D
:108D900000C007F0DBFA10B93368013302D10BB021
:108DA000BDE8F0860F4A3B78D35C3BB1381D012209
:108DB0000D4905F0BBFA0BB0BDE8F08607F10C00D9
:108DC0000122094905F02AFE0BB0BDE8F08600BF7C
:108DD0009C93030008000020680600206D06002018
:108DE000718C02009C3403206C060020054A137825
:108DF00033B1054900230978017013701846704794
:108E0000052070476D0600206C06002010B50D4B44
:108E10000D4C1A780D49A25C087052B1181D012240
:108E200005F032FA11280BD0002814BF03200020CF
:108E300010BD03F10C00012205F08AFD1128F3D1C9
:108E4000042010BD080000209C3403207006002080
:108E50000020704710B504460AF040FD10F11D0FC8
:108E60000ADB10F1090F04DB0A2808DC0134E0B248
:108E700010BD0234E0B210BD0334E0B210BD1E28B4
:108E800007DD322807DD4628D4BF023C033CE0B2B0
:108E900010BD204610BD013CE0B210BD10B5044627
:108EA0000AF01CFD10F11D0F0ADB10F1090F04DBA5
:108EB0000A2808DC013CE0B210BD023CE0B210BD63
:108EC000033CE0B210BD1E2807DD322807DD46282E
:108ED000D4BF02340334E0B210BD204610BD0134CB
:108EE000E0B210BD10B504460AF0F8FC10F11D0FF9
:108EF0000ADB10F1090F04DB0A2808DC013CE0B2B0
:108F000010BD023CE0B210BD033CE0B210BD1E2813
:108F100007DD322807DD4628D4BF02340334E0B22F
:108F200010BD204610BD0134E0B210BD84DF704793
:108F300010B5084B1C780CB1074810BD074B08480A
:108F40000849C01AC008000440F0010009F0ECF91B
:108F5000204610BD9B060020A40600206CBD030027
:108F6000BCBD0300D4940300F0B503888588112BA1
:108F700091B027D0182B23D1037BDB0704462BD4D9
:108F8000A16835486A4640230AF0C4FA064600281C
:108F900051D1324F30484FF4617404FB05746A4676
:108FA000214640230AF08CFA002836D1012384F8A8
:108FB00081334FF4617303FB0575012385F880331A
:108FC00011B0F0BD254A4FF4617303FB0525002362
:108FD000A5F8803311B0F0BD214B224A1B781268EE
:108FE000214E002B08BF002612B1284690470246AA
:108FF00031462846FFF79AFF0028C1D01B4A1C4B78
:109000001C499B1ADB081B04024643F0010009F0CF
:1090100063FA194B01221A70B2E7144A144B17492C
:109020009B1ADB081B04024643F0010009F054FAC6
:1090300084F88163BDE70D4B0D481149C01AC00883
:109040000004324640F0010009F046FA0A4B0122C2
:109050001A7011B0F0BD00BF2CA60300E40600207A
:109060009C060020A0060020740600206CBD0300B2
:10907000BCBD0300649403007106002098940300B3
:109080002C940300F0B5224C94F86A5083B0002D64
:109090003AD14FF0FF334FF0FF364FF0FF372946FC
:1090A000062204F16400C4E90033C4E90233C4E9D0
:1090B0000433C4E90633C4E90833C4E90A33236638
:1090C000C4E90C67C4E90E67C4E91067C4E9126714
:1090D000C4E91467C4E916670EF05AFD0D4A0E4B39
:1090E0000E491D60C02082F80603402010601B68F6
:1090F000019301984FF000430122284684F86A202A
:10910000C1F8043303B0F0BD082003B0F0BD00BFC8
:10911000680A002000E100E07C610040006000403F
:10912000034B93F86A00003018BF0120704700BF5E
:10913000680A0020F0B5704B1C1894F93050002DCF
:1091400063DA8E78C6F340069646002E57D01D6827
:10915000013500F0C3800124082553F8247001373D
:1091600056D004F1010C53F82C7001374FD0A71CD6
:10917000AF4242D253F82720013200F0AD8004F113
:10918000030CAC4539D253F82C7001373FD004F1B1
:10919000040CAC4531D253F82C70013737D004F1B0
:1091A000050CAC4529D253F82C7001372FD004F1AF
:1091B000060CAC4521D253F82C70013727D004F1AE
:1091C000070CAC4519D253F82C7001371FD004F1AD
:1091D000080CAC4511D253F82C70013717D004F1AC
:1091E000090CAC4509D253F82C7001370FD00A3462
:1091F000AC4202D2DC6A01346CD00420F0BD1D6A9E
:10920000013571D009240C25A7E70820F0BD64467C
:109210001F1865B243F824E087F8305016B91C4493
:1092200084F858008A7854071AD4D60741D41F28E6
:109230004C7887BF314E00F01F0202464FF0A04627
:1092400002F5E072A40046F822402D4EC40800F05A
:10925000070C375D012202FA0CF23A4332558A7844
:10926000097812F002021AD0AB0003F1804303F533
:10927000C0430202D3F8100520F44F3020F44070B0
:10928000C3F810050904D3F8100501F4403102F4C5
:109290007C520A430243C3F810250020F0BD083D6C
:1092A0002B44104693F8602042EA811183F8601045
:1092B000F0BD1F2887BF114A00F01F0404464FF07D
:1092C000A04202EB8402D2F8004724F00204C2F864
:1092D0000047BAE70B249BE73C4699E70025C3F813
:1092E00000E084F830509DE7082684F830601A6268
:1092F0003546344693E700BF680A0020000300505B
:10930000CC0A002070B4394C251883B095F9303060
:10931000072B10DD234493F858309B09032B34D0DE
:10932000012B0CBF4FF400314FF440311F284CD8B3
:109330004FF0A04339E0DAB2072A23D8980000F1B1
:10934000804000F5C04003F140029200D0F8106563
:1093500092B202F1804202F5C04246F00106C0F826
:1093600010650020106012680192019A51B195F9C0
:10937000302054F822202AB101221D4902FA03F3B9
:10938000C1F8043303B070BC70471F2820D9194BB3
:10939000D3F8103500F01F00C34013F0010F14BFC5
:1093A0004FF440314FF40031124B03EB8000D0F802
:1093B000002722F44032C0F80027D0F800370B43D2
:1093C000C0F8003703B070BC704700F01F00EBE737
:1093D0004FF0A0421346D2F81025C24012F0010F00
:1093E0000CBF4FF400314FF44031DEE7680A002033
:1093F00000600040000300501F288ABF054B4FF05B
:10940000A04300F01F00D3F8103523FA00F000F05D
:1094100001007047000300502DE9F047002388B099
:10942000CDE90233C84A1668012E00F047821E4675
:10943000C64B1A68012A00F03382C54B1A68012A0C
:1094400000F02082C34B1A68012A00F00D82C24B43
:109450001A68012A00F0FA81C04B1A68012A00F04C
:10946000E781BF4B1A68012A00F0D481BD4B1A680E
:10947000012A08D0BC4B1A68012A00F02A820EBBD0
:1094800008B0BDE8F087B94AD2F804231706F1D531
:1094900000221A6019680091603319680098012948
:1094A00046F080060ED11A601B6801934FF0A0426F
:1094B000019BD2F81025AE4B0292D3F810350393DE
:1094C00046F00046AB4F00240125A30003F1804382
:1094D0002E4203F5C0434FEA45050BD0D3F81005E3
:1094E00057F82420D3F81015C0F30520C1F301412B
:1094F00002B190470134082CE7D1002EC0DA0DF1FB
:1095000010089C4C9A4F0023C8F80430049394F937
:1095100060304FF0FF304FF0FF315D1CCDE90601A8
:109520004FF0010600F0F5805FFA83FC2CF0C000DC
:1095300008AB4FEAD00903EB090E0CF007031EF845
:10954000082C06FA03F312EA030521D022184FEA89
:109550009C1192F9302054F82220002A00F0348126
:10956000032900F033811F2800F2E98005464FF0FF
:10957000A04C0CEB850C1EF8185CDCF800E71D40D5
:10958000CEF3014E40F0CF80BEF1030F00F0B38167
:1095900094F96130581C32D0DBB223F0C00008AA25
:1095A0004FEAD00E02EB0E0C03F007011CF8082C5A
:1095B00006FA01F912EA090F21D02218990992F945
:1095C000302054F82220002A00F01081032900F0F6
:1095D00010811F2800F2F48003464FF0A04E0EEBDE
:1095E00083031CF818ECD3F800C71EEA090FCCF36C
:1095F000014C40F0D980BCF1030F00F08E8194F94A
:109600006230591C32D0DBB223F0C00008AA4FEA06
:10961000D00E02EB0E0C03F007011CF8082C06FA22
:1096200001F912EA090F21D02218990992F9302084
:1096300054F82220002A00F0CF80032900F0CF80C8
:109640001F2800F2A58003464FF0A04E0EEB8303C7
:109650001CF818ECD3F800C71EEA090FCCF3014C34
:1096600040F08A80BCF1030F00F06B8194F9633005
:109670005A1C33D0DBB223F0C00008AA4FEAD00E48
:1096800002EB0E0C03F007021CF8081C06FA02F2AB
:10969000114223D004EB0009990999F9309054F84C
:1096A0002990B9F1000F00F0AB80032900F0AB80E6
:1096B0001F288BBFBE464FF0A04E03F01F0303468A
:1096C0000EEB83031CF818ECD3F800C71EEA020F58
:1096D000CCF3014C60D1BCF1030F1CD0002D3FF442
:1096E000CFAE4FF0A042029BD2F81015D7F810056C
:1096F0008B4203D1039B83423FF4C2AEDDE90423D6
:10970000CDE9062394F960305D1CCDE902107FF4A9
:109710000BAF00253CE7032900F02981B9F1000FC8
:10972000DCD0C847DAE7BEF1020FF2D1032900F01E
:1097300039810025002A3FF42BAF904728E70CF031
:109740001F05BC4615E700BF0061004004610040F2
:10975000086100400C61004010610040146100404D
:10976000186100401C6100407C61004000600040C6
:1097700000030050680A0020BCF1020F7FF476AFAE
:10978000032900F00C81002A3FF470AF90476DE789
:1097900003F01F03BE4659E7BCF1020F9ED1032917
:1097A000BCD14FF4403CE4E0BCF1020F7FF427AFA2
:1097B000032900F0F180002A3FF421AF90471EE713
:1097C00003F01F03BE460AE70329A2D118F8095087
:1097D0001D4308F80950C6E603297FF447AF18F87F
:1097E0000EA04AEA090A08F80EA029E703297FF427
:1097F00006AF18F80EA04AEA090A08F80EA0E8E633
:1098000003297FF46BAF18F80EA04AEA020A08F8A1
:109810000EA04DE7654AD2F8042352067FF526AE26
:1098200000221A601B680093009B46F040061DE66C
:109830005E4AD2F8042391067FF513AE00221A6027
:109840001B680093009B46F020060AE6574AD2F8B0
:109850000423D0067FF500AE00221A601B68009337
:10986000009B46F01006F7E5504AD2F8042314078F
:109870007FF5EDAD00221A601B680093009B46F057
:109880000806E4E5494AD2F8042355077FF5DAAD26
:1098900000221A601B680093009B46F00406D1E585
:1098A000424AD2F8042397077FF5C7AD00221A6019
:1098B0001B680093009B46F00206BEE53B49D1F8C9
:1098C000041311F0010150D0136013680093009B42
:1098D000AEE500221A601B6801934FF0A042019B85
:1098E000D2F81025324B0292D3F810350393002E94
:1098F0003FF405AEE4E503297FF41CAF4FF40035D7
:10990000DCF8003723F44033CCF80037DCF80037BC
:109910002B43CCF8003701250CE703297FF44BAF2C
:109920004FF4003ED3F800C72CF4403CC3F800C706
:10993000D3F800C701354EEA0C0CEDB2C3F800C7EE
:1099400039E703297FF41FAF4FF4003ED3F800C777
:109950002CF4403CC3F800C7D3F800C701354EEAE9
:109960000C0CEDB2C3F800C70DE70E4660E54FF4EE
:10997000003CD3F8002722F44032C3F80027D3F884
:109980000027013542EA0C02EDB2C3F80027B9F115
:10999000000F7FF4C6AEA4E64FF4403EC2E74FF49A
:1099A000403ED3E74FF44035AAE700BF00600040D7
:1099B0000003005070B52C4A82B0012102E0C2E8D9
:1099C000431FDBB1D2E84F3FDBB28DF803309DF887
:1099D0000330002BF3D0BFF32F8F244B1B682BB128
:1099E000234B18680230400802B070BD204B1A6843
:1099F000D207F6D41868400802B070BD1D4C02258D
:109A0000C4F80853BFF35F8F1848016851B9184B69
:109A10001868C4F8045301304008BFF35F8F117019
:109A200002B070BD12490E6801360E60BFF35F8F41
:109A300003600068019001980868C4F8045301307D
:109A40004008BFF35F8F13700B68DC0704D50B6809
:109A500001330B6002B070BD074B084A08484FF451
:109A600086710EF009F800BFD80A002004410240B8
:109A7000DC0A002000400240C89503004C9503001A
:109A8000E0950300054B5B68DB0602D5044B012221
:109A90001A60024B1022C3F88420704700E100E0F6
:109AA000D40A0020044B1A6822B1044A0020102175
:109AB00018605160704700BFD40A002000E100E048
:109AC000F0B583B0FFF776FFBFF35F8F374BD3F866
:109AD0000465BFF35F8F364A012102E0C2E8441FEC
:109AE0006CB3D2E84F3FDBB28DF803309DF8033002
:109AF000002BF3D0BFF32F8F2E4B1B68C3B12E4B1F
:109B00001B6802335B08984218BF284A2B4818BFCD
:109B1000D2F8046540F2FF1443F609520025E2FB37
:109B20000645620A42EAC55203FB002003B0F0BDBD
:109B3000214B1A68D207E3D41B685B08E3E71B4D8F
:109B40000227C5F80873BFF35F8F1A4B196849B92C
:109B5000194B1B68C5F8047301335B08BFF35F8FB3
:109B60001170D0E71449D1F800C00CF1010CC1F814
:109B700000C0BFF35F8F1C601B680193019B0B68E3
:109B8000C5F8047301335B08BFF35F8F14700A6874
:109B9000D40703D50A6801320A60B4E7084B094AC2
:109BA00009484FF486710DF067FF00BF0040024086
:109BB000D80A002004410240DC0A00200080841EF4
:109BC000C89503004C950300E09503001F207047E3
:109BD0002DE9F04F85B006468B46FFF7EBFE814638
:109BE000BFF35F8FDFF83C82D8F80475BFF35F8F57
:109BF000FFF7E0FE814518BFD8F804758649DFF805
:109C000024C243F6095340F2FF184FF00009E3FB6A
:109C100007894FEA582242EAC9524FEA5923E1FB29
:109C2000002396424FF48031CCF808131046CCF84C
:109C3000441303D9B11A0029C0F2D1808642C0F082
:109C4000C6809A461BEB06084FF000014FF0000C4F
:109C500041F1000918EB0C0E49EB0A0A6F494FEA73
:109C60005E3848EACA48A8FB01894FEA5A3001FB2E
:109C700000994FEA187141EA09114FEA1978480131
:109C80004FEA4816401A46EAD16666EB08064FEAE4
:109C900086194FEA801B49EA9069BBEB000069EB2B
:109CA0000606F6004FEAC00946EA507619EB0100B5
:109CB00046EB0806BEEB00046AEB06054FEA4820B7
:109CC0004FF00009DFF87081A94508BFA04540EAC0
:109CD000D1504FEA4121C0F09880DFF86081504EAA
:109CE00040F2314E0EFB04FE08FB05EEA4FB088992
:109CF000F1444FF0FF3E18EB0E0E47F6FF7444EBB5
:109D00000905ED0B69184CEB00084D014FEA4814AA
:109D1000B5EB010C44EAD16464EB080084014FEA1E
:109D20008C15B5EB0C0544EA9C6464EB0004E4007C
:109D3000E80044EA557440F2FF1C451844EB08045F
:109D4000002015EB0C0540EB04044FEA552A4AEAC3
:109D5000C45A4FEA542BC6E900AB324CC4F8401544
:109D6000D4F80415B9421ED0FFF724FE0746BFF30E
:109D70005F8FD4F80455BFF35F8FFFF71BFE874258
:109D800018BFD4F80455244943F6095440F2FF1291
:109D90000023E4FB0523520AD6E900AB42EAC35292
:109DA0005B0AE1FB002312F13E0143F10003009145
:109DB0000193DDE900345C4508BF534513D2194BCC
:109DC0004FF48032C3F8042305B0BDE8F08F801B48
:109DD0000028BFF636AF111C43F1010A32E7111C0F
:109DE00043F1FF3A2EE7104A0E4B00211160126832
:109DF000039203994FF48032C3F84823C3F8082331
:109E000005B0BDE8F04F05F0C3B8084B084A094853
:109E100083210DF031FE00BF0080841ED07B6308DB
:109E2000E00A0020004002404041024064950300E7
:109E30003095030074950300452C16007B2DE8BD7A
:109E4000074A084B4FF480310020C2F8481382B013
:109E5000C2F8081318601B680193019B02B0704799
:109E600000400240404102402DE9F84F5D4CDFF8D0
:109E70008CB1DFF88CA1FFF79DFD8046BFF35F8FAB
:109E8000D4F80455BFF35F8FFFF794FD804518BFEA
:109E9000D4F80455544943F6095340F2FF184FF0E3
:109EA0000009E3FB05894FEA582242EAC9524FEA0A
:109EB0005923E1FB002312F13E0C43F100004FEA6D
:109EC0005C3242EAC042A2FB0B23410B0BFB013385
:109ED000110F41EA03111A0F4FEA411E5301BEEB65
:109EE000010E43EAD16363EB02084FEA88134FEA9D
:109EF0008E1943EA9E63B9EB0E0E63EB0803DB0099
:109F00004FEACE0843EA5E7318EB010E42EB0303FF
:109F1000BCEB0E0660EB0307DFF8E8804FF00009AA
:109F2000B9454FEA422E4FF4003008BFB0454EEA23
:109F3000D15EC4F808034FEA41214FF00002C4F893
:109F4000440348D340F2314303FB06F3A6FB0A89DE
:109F50000AFB073399444FF0FF3318EB030347F62E
:109F6000FF7349EB0303DB0B591842EB0E0C4B015B
:109F70004FEA4C12B3EB010E42EAD16262EB0C08DD
:109F80004FEA8E134FEA8812B3EB0E0342EA9E6249
:109F900062EB0802D2004FEAC30EC4F8441542EA4D
:109FA0005372C4F804031EEB010340F2FF1142EBAD
:109FB0000C02D4F804055B1842F100025B0A0B495D
:109FC00043EAC253A8424FEA5222C1E902327FF467
:109FD00052AFBDE8F88F064B064A074883210DF0C3
:109FE0004BFD00BF004002400080841EE00A0020BC
:109FF000649503003095030074950300D07B6308DB
:10A000007B2DE8BD452C16002DE9F84F0646884605
:10A01000FFF7D0FC8246BFF35F8FDFF89891D9F845
:10A020000475BFF35F8FFFF7C5FC824518BFD9F8F1
:10A0300004755F4943F6095340F2FF1A4FF0000BD5
:10A04000E3FB07AB4FEA5A2242EACB524FEA5B23CB
:10A05000E1FB0023574F1046194686424FF4003368
:10A06000C7F808330246C7F8443303D9331A002B24
:10A07000C0F293809642C0F0888018EB060A4FF039
:10A0800000094FF0000249F1000B1AEB02064BEBFE
:10A090000107494B4FEA563848EAC748A8FB0389ED
:10A0A000790B03FB01994FEA187141EA09114FEA54
:10A0B000197C48014FEA4C13B0EB010E43EAD1631F
:10A0C00063EB0C084FEA8E104FEA8813B0EB0E00DA
:10A0D00043EA9E6363EB0803DB004FEAC00E43EAEA
:10A0E00050731EEB010043EB0C03341A67EB0305BE
:10A0F000324E0027AF424FEA4C2C08BFA6424CEA32
:10A10000D15C4FEA41214CD32D4E2E4840F23143D1
:10A1100003FB04F306FB0533A4FB06451D444FF087
:10A12000FF33E31847F6FF7345EB0303DB0B5918C6
:10A1300042EB0C0C4B014FEA4C125C1A42EAD16222
:10A1400062EB0C05AA01A3011B1B42EA946262EBBD
:10A150000502DC00D20042EA5372631840F2FF1499
:10A1600042EB0C0200251B1945EB02025B0A43EA95
:10A17000C253520A0F4CC0E902324FF40035C4F802
:10A180004415C4F80453BDE8F88F921B002ABFF6AB
:10A1900074AF003041F101016FE7003041F1FF3150
:10A1A0006BE7094B094A0A4883210DF065FC00BFA3
:10A1B0000080841E00400240D07B6308452C1600BE
:10A1C0007B2DE8BDE00A0020649503003095030074
:10A1D00074950300074A084B4FF400310020C2F881
:10A1E000481382B0C2F8081318601B680193019BE2
:10A1F00002B070470040024044410240014B986861
:10A20000704700BFE00A0020F0B52F4B1B6883B0F9
:10A210008BB92E4CD4F80433D90302D52C4B1A68D1
:10A22000FAB92A4BD3F80423920302D5294A1168BC
:10A2300041B903B0F0BD254B0222C3F80823FFF754
:10A24000B9FBE6E700211160126800924FF400327A
:10A250000099C3F84823C3F808230BF0E9F903B0C9
:10A26000F0BD00221A601B680193019BFFF7A2FB5F
:10A270000546BFF35F8FD4F80465BFF35F8FFFF728
:10A2800099FB854218BFD4F80465134F134943F670
:10A29000095340F2FF140025E3FB0645620A42EA37
:10A2A000C5526B0AD7E90045E1FB0023AB4208BF6A
:10A2B000A242B6D3054B4FF48032C3F84823C3F80B
:10A2C000082304F065FEACE7044102400040024070
:10A2D0004041024044410240E00A00200080841EC8
:10A2E000AFDF7047B1DF7047B2DF7047B3DF704751
:10A2F000F0B5254B254C93E80300238889B04FF631
:10A30000FF756E46AB4286E8030007D137E0208830
:10A3100009F094FAA8420346208030D01846002263
:10A32000314609F013FA07460028F0D000232288AE
:10A330001128CDE90233CDE90433CDE90633ADF878
:10A340000C201CD086281CD00BF0D8F9104D114AD7
:10A3500023881149541BE4082404024644F00100F8
:10A3600008F09AF9BDF80C00049707238DF808301F
:10A3700007F0E8F9ADF80A0002A802F0FFFC09B006
:10A38000F0BD10460623F1E74C960300F00A0020CA
:10A390006CBD0300F4BD0300A8970300044B1A88AA
:10A3A0004FF6FF739A4200D17047FFF7A1BF00BF7D
:10A3B000F00A00202DE9F04782B0074607F0F2F8D6
:10A3C0004FF6FF7398425AD0304A314BDFF8C4A0A1
:10A3D000A3EB02094FEAD9094FEA0949064649F0B9
:10A3E000010901224FF003086B4608213046541C36
:10A3F00009F0DAFFA4B20546032378BB019A384678
:10A40000911D42F8048BFFF76FFF0821034668B3E4
:10A410000C2B304604D10AF0B9F8A8B92246E3E77C
:10A420000821052B18BF1D460AF0B0F840B10BF00B
:10A4300065F9324603461749484608F02DF90325C9
:10A44000284602B0BDE8F0870BF058F932460346C3
:10A450005146484608F020F92246C5E7072814BFB0
:10A4600005460C25284602B0BDE8F0873246304646
:10A470000AF0F0F80546284602B0BDE8F08743F23E
:10A480000205284602B0BDE8F08700BF6CBD03009E
:10A49000F4BD0300D49603002DE9F04383B0804659
:10A4A00007F080F84FF6FF7398422DD100273E4603
:10A4B00003254FF001092B463A4631464046FFF747
:10A4C00011FF042804460BD008280BD00B280BD012
:10A4D000B9F1000F08BF0B24204603B0BDE8F0839C
:10A4E0001124F5E70024F3E715F0020504D13EB18D
:10A4F0002F462E46032500E001254FF00009DAE73C
:10A500006FB137460325F8E76A46082109F048FF8E
:10A510000028CBD1019EB78835680636C9E7064BBF
:10A5200006480749C01AC0080004424640F001002E
:10A5300007F0D2FFD0E700BF6CBD0300F4BD0300FD
:10A540005C96030000B585B00DF10703039307F097
:10A5500029F802AA012109F023FF20B9039B1878EA
:10A5600005B05DF804FB002005B05DF804FB00BFFA
:10A5700038B5124D03462846FFF7B8FE78B929884A
:10A5800043F203044FF6FF721846FFF7A9FEA042FC
:10A5900000D038BD2988013189B22980F2E70BF05B
:10A5A000ADF8074A074B08499B1ADB081B04024613
:10A5B00043F0010007F090FF032038BDF20A0020AD
:10A5C0006CBD0300F4BD03005497030010B5074BA6
:10A5D000044693E8030082B06B4683E80300002240
:10A5E0001946204609F0B2F802B010BD5496030097
:10A5F00001F01F024B09012100EB8300914007F09D
:10A600000BB900BF10B5012301F01F04490900EB8D
:10A61000810003FA04F107F0F3F8E04000F00100D4
:10A6200010BD00BF01F01F0201234909934000EB58
:10A630008100D94307F0FCB84B0901F01F0150F825
:10A640002300C84000F00100704700BF2DE9F04F23
:10A6500001F1FF3A83B04FEA5A130E4604460193C4
:10A660004FF000094FF0010854F8292004EB890746
:10A67000D24392FAA2F2B2FA82F2202A24D04FEA0E
:10A68000491505EB020A56450CD81DE03B68DB4333
:10A6900093FAA3F3B3FA83F3202B05EB030A13D049
:10A6A000564511D90AF01F0B4FEA5A1008FA0BF160
:10A6B00004EB800007F0A4F820FA0BF0C307E5D400
:10A6C000504603B0BDE8F08F019A4A4509F10103F5
:10A6D00001D09946C8E7B246F2E700BF08B5034A81
:10A6E000034B044840F2BD110DF0C6F91498030065
:10A6F000889103003098030008B590F880301BB9AA
:10A7000001F098FE38B108BD044B054A054840F2F7
:10A71000B7110DF0B1F9FFF7E1FF00BF7C9803001E
:10A72000149803003098030070B582B0044601A865
:10A730000D4616460AF012FF50B1019B002B08BFD0
:10A740000123324629462046FFF7D6FF02B070BDEE
:10A750000346324629462046FFF7CEFF02B070BDC1
:10A76000704700BF41B108B591F88030084633B951
:10A7700001F060FE08B108BD7047FFF7AFFF034B63
:10A78000034A044840F2B7110DF076F97C980300B3
:10A790001498030030980300F0B5054685B01646BE
:10A7A0001F460C4689B103A80AF0D8FE40B90090B4
:10A7B0003B46324621462846FFF7D4FF05B0F0BDA0
:10A7C0000398002808BF0120F1E70846EFE700BF23
:10A7D000704700BF704700BF704700BF704700BFA1
:10A7E000704700BF10B44FF080414FF080520020FE
:10A7F000C1F80C015E4BC1F81001C1F83805D2F860
:10A800000414C3F82015D2F80814C3F82415D2F89C
:10A810000C14C3F82815D2F81014C3F82C15D2F86C
:10A820001414C3F83015D2F81814C3F83415D2F83C
:10A830001C14C3F84015D2F82014C3F84415D2F8FC
:10A840002414C3F84815D2F82814C3F84C15D2F8CC
:10A850002C14C3F85015D2F83014C3F85415D2F89C
:10A860003414C3F86015D2F83814C3F86415D2F85C
:10A870003C04C3F86805D2F840043E49C3F86C05AF
:10A880000968D2F84424C3F87025082924D04FF071
:10A890008043D3F80024D20744BF6FF00102C3F80D
:10A8A0000024354AD2F8883043F47003C2F8883067
:10A8B000BFF34F8FBFF36F8F4FF01023D3F80022F9
:10A8C000002A23DBD3F80432002B1FDB2B4B2C4A4E
:10A8D0001A605DF8044B70472A4B1B68002BD6D1D9
:10A8E00029482A4A2A4C04602A492B4BFB20C2F8EB
:10A8F00018050A681B68294822F00F0203F00F03AD
:10A9000013434FF400720B600260C0E7244A012336
:10A91000C2F80435D2F80034002BFBD04FF01023DE
:10A9200012211F4AC3F80012D2F80034002BFBD0CA
:10A930004FF0102312211A4AC3F80412D2F800343F
:10A94000002BFBD000231649C2F80435D1F800349F
:10A95000002BFBD0BFF34F8F0749124BCA6802F49C
:10A96000E0621343CB60BFF34F8F00BFFDE700BF32
:10A9700000C000403001001000ED00E01C0000208D
:10A980000090D003340100108C56004000F00040CD
:10A9900048810300E40E0040580200104096024037
:10A9A00000E001400400FA0510DF704711DF704736
:10A9B00070B53D4D2B7884B0002B66D13B4E3C49A1
:10A9C000012302A8337001F0DFFB039B2BB90EE0DB
:10A9D00002A801F0E3FB039B4BB1D3E90021002067
:10A9E00090470028F4D10446204604B070BD314998
:10A9F00002A801F0C9FB039B4BB1D3E90021002061
:10AA0000904702A801F0CAFB039B002BF5D12A4A0C
:10AA1000002312688DF8083002A801920BF06EF83E
:10AA2000264901A8FFF7C0FFB0FA80F304465B098E
:10AA30009DF808002B700BF087F8002CD4D1204B28
:10AA400020491C70347091F81623EC2352091341ED
:10AA5000DB071ED51C4B9A6812B31A6842F48002B9
:10AA60001A60144902A801F08FFB039B002BBBD096
:10AA7000D3E900210120904702A801F08FFB039B3E
:10AA8000002BF5D1204604B070BD0824204604B048
:10AA900070BD0E4AA12142F2020002F0A9FCE0E7DB
:10AAA0004FF480030B60DCE7F50A0020F40A002075
:10AAB000E89803000099030094980300E9610300FB
:10AAC000F60A002000E100E0B03C03209898030063
:10AAD000F0B5324D2B7883B0002B55D0304E314934
:10AAE00001236846337001F04FFB019B2BB90EE048
:10AAF000684601F053FB019B4BB1D3E900210120D3
:10AB000090470028F4D10446204603B0F0BD264902
:10AB1000684601F039FB019B4BB1D3E900210220CB
:10AB20009047684601F03AFB019B002BF5D10027C6
:10AB300068468DF800700AF0E1FFFFF737FF044622
:10AB40009DF800002F700AF0FFFF002CDCD1174B9E
:10AB500034709A68E2B9164B4FF48002C3F8802033
:10AB60001149684601F010FB019B002BCCD0D3E9C2
:10AB7000002103209047684601F010FB019B002B49
:10AB8000F5D1204603B0F0BD0824204603B0F0BD47
:10AB90001A6822F480021A60E2E700BFF50A00207A
:10ABA000F40A0020E898030000990300B03C032059
:10ABB00000E100E0054B1B7833B1054B1B780BB16E
:10ABC000FFF786BFFFF7F4BE08207047F40A0020A5
:10ABD000F50A0020014B1878704700BFF50A0020E5
:10ABE00000B583B06846084901F0CEFA019B43B135
:10ABF000D3E900209047684601F0D0FA019B002B72
:10AC0000F6D103B05DF804FBF4980300F0B5374CBF
:10AC1000374D67886268BE00F31905EB830383B084
:10AC2000596801F58050002A5CD05388033302EB49
:10AC30008302904228D91368013325D05388033307
:10AC400002EB830398421FD34FF6FF7EB2F804C095
:10AC5000F44517D0B2F800C0BCF1000F12D062600A
:10AC60005388244D2448AE882968033300259BB2BD
:10AC700000959B0001EB86010325257002F0A6F8E4
:10AC800003B0F0BD98420DD83E4405EB8605EB6855
:10AC9000D3B9194804250122257003B0BDE8F0405E
:10ACA00002F032B91A6801321A46EDD0B3F802C088
:10ACB0000CF1030C03EB8C039842C7D23E4405EB26
:10ACC0008605EB68002BE4D00A4B0B48196802227A
:10ACD0009A80052500230122257003B0BDE8F040CD
:10ACE00002F012B901F10802A3E700BF1C0B00201B
:10ACF000380B0020740B002008030020F0B44368D8
:10AD00001BB1374AD468A34246D20023354F0B808B
:10AD10007A684FF0010C02F580544FF6FF76083246
:10AD200094420ED8BCF1020FA1F800C007F114073D
:10AD300054D07A6802F58054083294424FF0020CE5
:10AD4000F0D913680133EDD05388033302EB83034A
:10AD50009C42E7D39588B5420AD0158845B19568DD
:10AD600003689D4211D05388033302EB8302D7E777
:10AD70009C42D7D91A6801321A46D3D05D88033570
:10AD800003EB85039C42E5D2CCE7174B42601B895D
:10AD900003810120F0BC704712699342B5D813F0CB
:10ADA0000305B2D1104A048912899442ADD10468D6
:10ADB0009A689442A9D10B484268934203D902F59C
:10ADC0008052934207D38269934207D902F5805299
:10ADD000934203D201250D800120DBE70020D9E753
:10ADE00008030020380B00201C0B00202DE9F04F39
:10ADF000AE4E89B004464FF6FF773568002D00F05F
:10AE0000C0802A78531E052B00F2F180DFE803F0A2
:10AE10003D4A4A1E1E03002C40F0BA80DFF8B0C243
:10AE20009CF80C209CF80030002A00F07081013B57
:10AE30008CF80C40062B00F2DA80DFE813F0E60312
:10AE40000C032002F801D8001E030F03002C40F071
:10AE50009F802B79012B00F08081002B00F0648112
:10AE60000DF10C08022B0394C8E90244C8F8104005
:10AE700040F0C580204604902B78023B042B36D846
:10AE8000DFE803F06F5B4F2F7B00002C40F08A80DF
:10AE90002B79032B00F2E680DFE813F0FB002001A2
:10AEA000F000C100B5F81490A97D002C40F0868018
:10AEB0004FEA8904DFF8208204EB090308EB8303DF
:10AEC000B3F808A05B6803EB8A0A062900F2C58381
:10AED000DFE811F06A0279024202550201022602FD
:10AEE000E90104238DF80C30EB88ADF81830704C74
:10AEF00004F1100554F8043B404603B19847A542BD
:10AF0000F8D16C496C480024346007F05FFF0121E0
:10AF10006A4806F0B1FC00287FF46FAF09B0BDE8C5
:10AF2000F08F03238DF80C30EB88ADF818302B89A7
:10AF3000ADF81A30EB680593D9E702238DF80C3091
:10AF40002B89ADF81830AB88ADF81A30EB68059353
:10AF5000AB7DA3F10603B3FA83F35B098DF81C30D4
:10AF6000C5E701238DF80C302B89ADF81830AB887C
:10AF7000ADF81A30EB680593B9E705238DF80C306E
:10AF8000B5E74C494C4807F0F1FE0546306038E71C
:10AF90000DF10C080023C8F808300393C8E9033307
:10AFA000012068E70DF10C08454A00235360039324
:10AFB000C8E90233C8F8103001205CE70229EA88AA
:10AFC0001FD8DFF814814FEA890404EB090108EB6C
:10AFD00081010DF10C084B89033B9B1A00224B8128
:10AFE000C8F808200392C8E90322012043E70023A0
:10AFF0000DF10C08C8E90333C8F8083003930F209B
:10B0000039E74FEA8904DFF8D08004EB090108EB47
:10B010008101D31C0A8913440B81EA88D5E7294CA6
:10B02000294A21682948DFF8B0804FF0000985F8E7
:10B0300004900823CDF8009001F0C8FE244B256849
:10B040005B88A18803EB830308EB830208F8239055
:10B0500053682360022355601181A38000283FF4C8
:10B060005DAF3568164A0DF10C0800235360039359
:10B07000C8E90233C8F810300E20FCE6114A134824
:10B080001168002302242B719480012201F03CFFFF
:10B09000E4E70C4B0F4A19680C4801232B7100237D
:10B0A0000093082301F092FED8E700BF340B002084
:10B0B000040B00202C0B0020600B0020700B0020E4
:10B0C000140B0020740B00201899030008030020C3
:10B0D0001C0B002020990300380B0020DFF8288388
:10B0E00098F80030022B00F0A68298F81430022B5A
:10B0F00000F0B182BD4B0DF10C08002001221A7046
:10B1000003905860C8E90200C8F81000B3E6072BA6
:10B1100000F23082DFE813F000022E022E029401CA
:10B12000EC01A201A201C60102232B71CDE9044466
:10B130000DF10C08EB68039340460DF10A01FFF78F
:10B14000DDFD002840F062810A200023C8E90033B9
:10B15000C8E90233C8F810308DE6A44B1B78002BE9
:10B1600000F03E82DFF888C2BCF80430012B12D810
:10B17000DFF8948203EB8302994608EB820213788E
:10B18000C3B109F1010399B201299946ACF8043021
:10B1900002F11402F3D90DF10C08082200219448A1
:10B1A0000CF0F6FC0020C8F808000390C8E9030082
:10B1B000356860E65368DCF8001003F5805E03F143
:10B1C000080A002900F0F1814B88033301EB830169
:10B1D0008E4540F2E7810B68013300F0E3814B8834
:10B1E000033301EB83039E45C0F0DC818888B842BD
:10B1F00000F0D681B1F800B0BBF1000F00F0D081B3
:10B20000EB88CCF800108342DBD100230093794A0D
:10B210007948042301F0DAFD002840F0078209EBA9
:10B22000890308EB8308012388F8103076E6BCF820
:10B230000230DFF8D48103EB830308EB8308D8F8EE
:10B240000C30002B40F0BF8104228CF80020D8F88D
:10B2500004106948012201F057FE00283FF45EAE59
:10B2600035680DF10C08002341F61D52C8F808306E
:10B270000393C8E90333904208BF1846FBE5DCF8A6
:10B2800004205E485388848801685B4801EB840190
:10B290000333002400949BB203249B008CF80040ED
:10B2A00001F094FDD9E7EA88AC4641F61D5004EB65
:10B2B000090108EB8101D31C0A8913440B81EA8838
:10B2C00065464C4408EB8408B8F80A30033B9B1AE7
:10B2D000A8F80A30C5E74A4BAA694A491A604FF0F4
:10B2E000000B1846C3F804B0FFF708FD002800F073
:10B2F0008F810223AB7504235146CDF800B0EA18C4
:10B300003D4801F063FD00283FF408AEAB7DD6F860
:10B3100000C0EA88022B00F2878165460E20D0E744
:10B32000384B374AB3F800A051683348314A0023FC
:10B330004FF0060C85F816C00093042301F046FD7B
:10B340000028E3D10AEB8A0A08EB8A08012388F86F
:10B35000103009B0BDE8F08F2B692748002B14BFCF
:10B36000032301230022AB750AF108010092042394
:10B3700005F10C0201F02AFD0028C7D1CEE5EB88CB
:10B380002A691D484FF0010C85F816C04FF0000CDB
:10B390000AF10C019B00CDF800C001F017FD002858
:10B3A000B4D109B0BDE8F08F02230022AB750423AD
:10B3B00000925146EA18104801F008FD0028A5D176
:10B3C00009B0BDE8F08F032A0CBF05230623002235
:10B3D000AB750AF104010092042305F10802064846
:10B3E00001F0F4FC002891D198E500BF140B002077
:10B3F000800B00201499030008030020740B002028
:10B40000F80A00207C0B0020380B00200499954A94
:10B410008B88EB800B882B81934800940423BDF824
:10B420000A4001F0D3FC002840F0FB808F4B04EB76
:10B43000840403EB84040123237409B0BDE8F08F76
:10B440008B4ADCF804109388498803330B440221AB
:10B4500093808CF80010FFF7D9FBFEE6844B854AF9
:10B460001968814800230093CCF8043007238CF836
:10B470000030082301F0AAFCEFE6BCF80220DFF858
:10B48000EC819300134408EB830806200023D8F8CE
:10B490000410794A00938CF800000823724801F0E8
:10B4A00095FCDAE601238CF800309CF80A304BB1A9
:10B4B000DFF8B881D8F80C3000228CF80A20002B75
:10B4C00000F09D809CF80B30002B43D0DFF89C816E
:10B4D000D8F8203000228CF80B20002B3AD198F8B5
:10B4E0002430BBB30123ACF80230FFF78FFBB4E686
:10B4F000BCF80220DFF874815D4C9300991808EBCA
:10B50000810120684D68B4F804E04860022025609D
:10B51000A1F808E0A080B5E7DFF85081BCF808107A
:10B5200098F8142098F80030B2FA82F252090131EA
:10B53000B3FA83F35B098CF80B20ACF808100022F7
:10B5400001218CF80A30ACF802208CF80C208CF821
:10B550000010ACE70DF10C080020C8F808008CF8CA
:10B560000000ACF80200CCF804000390C8E9030026
:10B57000356880E4013B062B3FF639AD01A252F855
:10B5800023F000BF0BB6020057B402007FB20200E6
:10B590002FB20200EFAF02007BB402005DB40200E4
:10B5A0009E4504D8CCF80040EBE5514610E61968FA
:10B5B00001311946F6D05888033003EB80039E45CD
:10B5C000BFF414AEEEE72A4B2748196802229A808E
:10B5D00005228CF800200023012201F095FC3CE6B6
:10B5E0000DF10C080822214624480CF0D1FA0394EE
:10B5F000C8E90244C8F81040356802203BE498F8D6
:10B600001020002A3FF45EAF6DE79CF80A304EE749
:10B610000DF10C080390C8E90200C8F810000A20D8
:10B6200029E435680E2090E50E2040E635680E20AE
:10B630000DF10C0889E500239A001A4408EB8203F7
:10B64000002059680090082308F822000A4A06489A
:10B6500001F0BCFB02E50123EEE7EA88AC460F20CF
:10B6600025E600BF1499030008030020380B0020D2
:10B67000740B00202099030018990300800B002010
:10B680004068FFF7B3BB00BF08B301B370B582B029
:10B690000C460DF106010546FFF730FB10B90A20F4
:10B6A00002B070BDBDF806000A4B6E6800EB80006A
:10B6B00003EB800001210C3006F0D2F826606B68A5
:10B6C00001220C3300206360AA7202B070BD052015
:10B6D000704700BF380B002000B310B582B00DF1E9
:10B6E00006010446FFF70AFBA8B1BDF806300C4A74
:10B6F00003EB830302EB8303DA684AB1A27A3AB11F
:10B70000DA680021013A0846DA60A17202B010BD81
:10B71000062002B010BD0A2002B010BD05207047FF
:10B72000380B0020474B1B7853B3002938D00A88C8
:10B730004FF6FF739A4221D04B88FBB14B689B07B1
:10B740002CD12DE9F043B1F8089009F103039BB225
:10B7500040F2FD32934283B024D83B4A16783EB97A
:10B76000558914892C441C44A4B2B4F5806F1BD3B2
:10B77000147D3CB1072003B0BDE8F083042070477E
:10B7800002207047D58B948B2C441C44A4B2B4F592
:10B79000806FEFD24FF00108C44607E003207047E6
:10B7A000052070470920E6E7B046B4464FEA8C070B
:10B7B000674402EB87072B440C46064601A9234841
:10B7C0007B8107F095FA1C22054600210CF0E0F978
:10B7D000002D2DD002230027A5F814802B70AF7503
:10B7E00063682B6101211A4806F03AF8E860238863
:10B7F0002B816388AB8001A96F81A5F8069013485F
:10B8000007F0A4FA36B17760EA68124B32601B8900
:10B81000B77233810121104806F016F8044618B1BA
:10B82000002003B0BDE8F083FFF7E0FA2046A2E76E
:10B830007B89C9F57F4909F1FD099944A7F80A9068
:10B84000082098E7140B0020380B0020600B002024
:10B85000300B00201C0B0020700B002058B3494B0C
:10B860001B78002B37D031B30A884FF6FF739A420A
:10B870002FD04B886BB34B689B072ED12DE9F0433B
:10B88000B1F8089009F103039BB240F2FD329342F4
:10B8900083B024D83C4A15783DB95689148934447C
:10B8A0001C44A4B2B4F5806F1BD3147D2CB10720C7
:10B8B00003B0BDE8F08305207047D68B948B3444E9
:10B8C0001C44A4B2B4F5806FF1D24FF00108C44615
:10B8D00009E00420704702207047032070470920C8
:10B8E000E6E7A846AC464FEA8C05654402EB8505C1
:10B8F000334407460C4625486B8101A907F0F8F947
:10B900001C22064600210CF043F9002E30D0002501
:10B910000323A6F814803370B57563683361012181
:10B920001B4805F09DFFF060238833816388B38056
:10B930000423A6F80690B3753B68B36101A975812D
:10B94000124807F003FA7D60F268124B3A601B89D7
:10B95000BD723B810121104805F076FF044618B105
:10B96000284603B0BDE8F083FFF740FA20469FE782
:10B970006B89C9F57F4909F1FD099944A5F80A9039
:10B98000082095E7140B0020380B0020600B0020E6
:10B99000300B00201C0B0020700B0020184B1B7874
:10B9A00013B34FF6FF73984223D070B582B001A94C
:10B9B0000446144807F09CF91C22054600210CF0AF
:10B9C000E7F89DB105230126EC8001A92B702E71AB
:10B9D0000C4807F0BBF931460B4805F035FF04462B
:10B9E00048B1002002B070BD02207047082002B0AC
:10B9F00070BD04207047FFF7F9F9204602B070BD12
:10BA0000140B0020600B0020700B00202DE9F04388
:10BA1000374C2478002C64D0002A65D0002B63D0EA
:10BA2000B3F804C0BCF1010F15D8324E0CEB8C04F6
:10BA300006EB84064FF6FF7E4FF00008347864B1C1
:10BA40000CF1010C1FFA8CF4022C9C8006F11406F8
:10BA50004FF0010CF2D10A202FE01C68756805F543
:10BA60008057002C3AD06588033504EB8504A74243
:10BA700002D8C3F80080E3E725680135F9D065886E
:10BA8000033504EB8505AF42F3D3B4F80490F145D8
:10BA900015D0B4F80090B9F1000F10D01C60A58843
:10BAA0008542DBD125888D42D8D1A1681160196803
:10BAB000114B51601B8913810020BDE8F083BD420A
:10BAC000D7D22C6801342C46D3D0B5F8029009F1B6
:10BAD000030905EB8905AF42D7D2CAE705F108048F
