:1000000000000420B5020000DD020000DF02000055
:10001000E1020000E3020000E50200000000000031
:10002000000000000000000000000000E7020000E7
:10003000E902000000000000EB020000ED020000F9
:1000400085040000EF020000F1080000EF0200004C
:10005000EF020000EF020000EF020000EF020000DC
:10006000EF020000EF020000EF020000EF020000CC
:10007000EF020000F91D0000EF020000EF02000097
:10008000EF020000491E0000EF020000EF02000036
:100090001D1F0000EF020000EF020000EF02000051
:1000A000EF020000EF020000EF020000EF0200008C
:1000B000EF020000EF02000000000000000000005E
:1000C000EF020000EF020000EF020000EF0200006C
:1000D000EF020000EF020000EF020000EF0200005C
:1000E000EF020000EF020000EF020000000000003D
:1000F00000000000EF02000000000000EF0200001E
:1001000000000000000000000000000000000000EF
:1001100000000000000000000000000000000000DF
:1001200000000000000000000000000000000000CF
:1001300000000000000000000000000000000000BF
:1001400000000000000000000000000000000000AF
:10015000000000000000000000000000000000009F
:10016000000000000000000000000000000000008F
:10017000000000000000000000000000000000007F
:10018000000000000000000000000000000000006F
:10019000000000000000000000000000000000005F
:1001A000000000000000000000000000000000004F
:1001B000000000000000000000000000000000003F
:1001C000000000000000000000000000000000002F
:1001D000000000000000000000000000000000001F
:1001E000000000000000000000000000000000000F
:1001F00000000000000000000000000000000000FF
:1002000010B5054C237833B9044B13B10448AFF350
:1002100000800123237010BD780000200000000042
:100220000C3F000008B5034B1BB103490348AFF373
:10023000008008BD000000007C0000200C3F000092
:10024000154B002B08BF134B9D46A3F5803A0021A8
:100250008B460F461348144A121A03F0EDF90F4B60
:10026000002B00D098470E4B002B00D09847002061
:10027000002104000D000D48002802D00C48AFF307
:10028000008003F0A7F92000290003F001F803F033
:100290008DF900BF000008000000042000000000ED
:1002A0000000000078000020B80B002000000000D3
:1002B000000000000649074A074B9B1A03DD043B78
:1002C000C858D050FBDC00F0EDFDFFF7B9FF00008F
:1002D000983F00000000002078000020FEE7FEE7C5
:1002E000FEE7FEE7FEE7FEE7FEE7FEE7FEE7FEE7E6
:1002F00030B41F49A1F58C728B1ADB1003EBD3735A
:100300005B10DD0052F83330984202EB050420D236
:10031000A24218D2ED1005EBD5756D1002EBC501A8
:1003200052F83530984205D310E052F833309842F5
:100330000FD221468B1ADB1003EBD3735B108A427A
:1003400002EBC304F1D30B4830BC704722460C4685
:100350001146984204D904F108028A42CCD3F2E74C
:100360006068044B30BC002808BF1846704700BFC7
:10037000B037000084360000704700BF00B583B07E
:10038000044B0093044A402302F0DAFC03B05DF80A
:1003900004FB00BF9D0300009800002002B32DE97C
:1003A000F843114B114E8846144643F001090327C8
:1003B0000025224608EB0501002002F0D3FB03468E
:1003C0001D444FF47A40E41A23B9337833B1C84757
:1003D000013F06D001233370002CEAD1BDE8F88339
:1003E00070473770BDE8F883703B00009400002030
:1003F000704700BF02F074BC08B5FFF7FBFF042193
:10040000034801F043FC034B01225A7108BD00BFB1
:10041000583F000000000020044A137923B901214D
:10042000106091801846704785207047D8000020E2
:10043000074B1A68D20704D4C021012283F80013A5
:100440001A604FF080430122C3F81825704700BF9F
:1004500000E100E010B4094B094A0021196083B0A3
:100460001B680193019C4FF0804102200123C1F8D9
:100470000403136003B05DF8044B704704010040AF
:100480000800004010B5154B1A6882B062B1002117
:10049000134A19601B68507900934FF08041012383
:1004A000009CC1F80833A8B10E4B1A6882B1002233
:1004B0001A601B6801934FF080420221084B01989B
:1004C000C2F808131B68012002B0BDE810401847AD
:1004D00002B010BD116853718847E5E70001004084
:1004E000D80000200401004030B5C38883B0044622
:1004F0000D4613BB217A05291DD0637AA08873B9F4
:10050000124B53F82140002100F0E0FD1049034652
:100510002246284603B0BDE8304000F083BA00F020
:1005200001FE0C4B0C4953F82020284600F07AFAC3
:10053000217AA088E4E703B030BD084A0092084958
:10054000084A284600F06EFAD4E700BF103C0000CD
:10055000043C00009C3B0000003C0000F83B000015
:10056000E03B0000D83B00002DE9F04385B01D467C
:100570000C9C002381460E46174694F80C8023738A
:1005800021462846FFF7B0FF062F09D8DFE807F01D
:10059000042E343B444F1F004946204600F042FAE7
:1005A0002B7A052B05D06B7A5BB92749204600F0E2
:1005B00039FA204600F02AFA84F80C8005B0BDE82C
:1005C000F083224A2249204600F02CFAEDE7D6E9D2
:1005D0000413F2680393B3680291CDE900324946EF
:1005E000D6E90023204600F01DFAD9E732684946D3
:1005F000204600F017FAD3E74946D6E90023204603
:1006000000F010FACCE7B36800934946D6E900231E
:10061000204600F007FAC3E7D6E9023201920093C0
:100620004946D6E90023204600F0FCF9B8E7D6E9B0
:100630000321B3680291CDE900324946D6E900238F
:10064000204600F0EFF9ABE7D43B0000F83B000098
:10065000003C0000082900D970472DE9F04F1D46E5
:1006600083B000241B7B2C7307460E461046294698
:1006700091460193DFF8C8A0DFF8C880FFF734FF88
:1006800005E03A5D013400F0CDF9082C09D0A6420E
:1006900041462846F5D85146013400F0C3F9082CEC
:1006A000F5D12249DFF8A0A0214CDFF8A080284630
:1006B00000F0B8F94FF0000B0EE012F8081011F03E
:1006C000970F08BF2E22214628460BF1010B00F0A0
:1006D000A9F9BBF1080F10D05E4505D917F80B201A
:1006E0007E2AEAD92E22EEE7514628460BF1010B6D
:1006F00000F098F9BBF1080FEED199F80830052BFE
:1007000002D099F809305BB90A49284600F08AF905
:10071000284600F07BF9019B2B7303B0BDE8F08FF6
:10072000054A0649284600F07DF9EDE7CC3B00007C
:10073000D03B0000D43B0000F83B0000003C000030
:10074000C83B0000C03B00000C3C0000053E000020
:1007500010B568B90E4CA368012262703BB1D3E9B1
:1007600000230020A2609847A368002BF7D110BD9A
:100770000128FCD1064C2369A070002BF7D0D3E9E7
:1007800000230120226198472369002BF7D110BD77
:10079000E000002038B50A4C237813B1852528469F
:1007A00038BD08486360A3602361E360FFF734FE4F
:1007B0000546FFF73DFE01232370284638BD00BFE4
:1007C000E00000205107000038B5154DAB78044615
:1007D00073B110B1436801209847002000F044FC39
:1007E000EB680133EB600020BDE8384000F044BC0A
:1007F00003F0FF0000F038FC64B12A6942B1944272
:1008000008D0134601E09C4204D01B68002BFAD1AB
:1008100022602C61EB68002BE2D1FFF71BFEDFE7C3
:10082000E000002082680023936082681361826880
:1008300053618268D3608268536082681360704736
:10084000B8B130B4D0E90112521A0468D2B2531EC2
:100850002160DBB242B101680A685C1E551C0D6064
:100860001370E3B2FF2BF6D103680020187130BC7F
:1008700070470E20704700BF38B50446002000F0D6
:10088000F3FBD4E900311A688A4215D9511E196068
:100890002168A3680868258A12F8012CE4681B1AED
:1008A0000879DBB2984205FB024400D20B710020AC
:1008B00000F0E2FB204638BD0024002000F0DCFB05
:1008C000204638BD38B5054600200C4600F0CCFB6C
:1008D0002A681368591C1160E9682A8A641AB4FBF3
:1008E000F2F41C700020BDE8384000F0C5BB00BF2A
:1008F000014B1B68184700BFF4000020064B1A5C30
:100900001F2A86BF02F01F0204494FF0A0410123B5
:100910009340C1F808357047883C00000003005040
:100920000A4B185C1F288ABF09494FF0A04100F00C
:100930001F00D1F804350122824022EA030013404F
:10094000C1F80805C1F80C35704700BF883C0000AD
:1009500000030050C20710B40CD4830707D50D491B
:100960004FF0A0420C23C1F80837C2F800375DF8F9
:10097000044B7047074B03224FF400444FF480614F
:10098000C3F83C27C3F82827C3F80C45C3F80C1557
:10099000E3E700BF0003005050E8002F0B4640E89B
:1009A000003C9CF0000FF7D11046704750E8003F24
:1009B00003EB010240E8002C9CF0000FF6D110463A
:1009C000704700BF50E8003FA3EB010240E8002C55
:1009D0009CF0000FF6D11046704700BF012350E88D
:1009E000002F42EA030C40E800C191F0000FF6D15D
:1009F00060467047002350E800CF0CEA030240E84D
:100A0000002191F0000FF6D160467047826842B134
:100A100010B5044643690168006998470023A36044
:100A200010BD70470EB400B582B0039921B104AB7C
:100A300001AA019301F0A0FD02B05DF804EB03B040
:100A4000704700BF00B583B00DF107018DF80700B6
:100A5000074800F083F8064800F072F810B903B0B8
:100A60005DF804FB01F0BCF903B05DF804FB00BFC6
:100A70007C3F000038B50E4C2278AAB90D4A0E49C9
:100A80000346002808BF134620461B8820F8013F74
:100A900001F064F9054608B1284638BD01F08EF929
:100AA00001232370284638BD8525284638BD00BF60
:100AB0004C0100208C3C0000450A000010B50A469D
:100AC0000146044800F0B2F8044601F077F92046E8
:100AD00010BD00BF7C3F00002DE9F84303681E688D
:100AE0005C68A64284BF8468013417468946A41B0B
:100AF000C2684168BC42054606FB02110DD307FBE4
:100B000002F2484602F08AFDAA682B683E449642EB
:100B100088BF00261E60BDE8F88304FB02F8424649
:100B2000484602F07BFDEA6869683C1B09EB080057
:100B300002FB04F202F072FD2B681C60BDE8F88332
:100B40000368826818685B68934234BF01330023EE
:100B5000C01AB0FA80F04009704700BFF8B50446EB
:100B600000200E4600F080FA2368A56819685A68CC
:100B7000AA4234BF01320022914213D05F685A6802
:100B800095420CD800225A60E2686068531E072B19
:100B900040D8DFE803F039353F313F3F3F1801329D
:100BA0005A60F1E7227C002A3AD15F6859688D4289
:100BB0002DD85A602268A16813688B4234BF013374
:100BC00000231360E0E7D6E9002300EBC700C0E98B
:100BD00000232268136851688B4282BFA0680130ED
:100BE0000918CB1A9168994238BF936000240020FD
:100BF00000F042FA2046F8BD336840F82730E8E7B5
:100C0000338820F81730E4E73378C355E1E7013142
:100C10005960CFE7314607FB020002F0FFFCD8E73E
:100C20000424002000F028FA2046F8BD70B51446D0
:100C30000AB9204670BD054600200E4600F014FAA1
:100C40002A68136851688B4208D8CB1A9C420BD98A
:100C50000524002000F010FA204670BDAA68013279
:100C60000A44D31A9C42F3D8224631462846FFF75D
:100C700033FF0024EDE700BFFFF7E2BD2DE9F041AF
:100C8000058ACF1C043D2F440646B7FBF5F7FFF756
:100C9000F3FD002834D0FFB24FF48073013F0446C7
:100CA000C580066083802CD08046002509E06379EA
:100CB000AF4203F101036371C8F80000066080468B
:100CC0001FD03046FFF7D8FD01350028EFD194F84A
:100CD00005802768B8F1010316D03D4601308342F4
:100CE0002D68FBD1B8F1000F0AD0002601E03C4688
:100CF0003F68214601362846FFF7E4FDB045F6D8A7
:100D000000242046BDE8F08121463846FFF7DAFD91
:100D1000F6E700BF04300121FFF748BE2DE9F0419E
:100D2000012104460430FFF74DFEC0B208B1BDE812
:100D3000F08194F805802568B8F1010314D02E469F
:100D4000013083423668FBD1B8F1000FEFD00027A5
:100D500001E02C462D68214601373046FFF7B2FDF1
:100D6000B845F6D8BDE8F08121462846BDE8F041F7
:100D7000FFF7A8BD2DE9F8430546C688407914461B
:100D800006FB00F2043A04EB030C1F1D624538BF5A
:100D9000D41ABE428846B7FBF6F106FB117002D8A2
:100DA00001392D68FCD1371AA74228BF27469CB1CC
:100DB0004FF000090430E41B28443A4608EB0901CF
:100DC00002F02CFCA642B9442D6837464FF00000D3
:100DD00028BF2746002CEDD1BDE8F8832DE9F84364
:100DE0000546C6884079144606FB00F2043A04EB37
:100DF000030C1F1D624538BFD41ABE428846B7FB9C
:100E0000F6F006FB107102D801382D68FCD1771A74
:100E1000A74228BF27469CB14FF00009043129445E
:100E2000E41B3A4608EB090002F0F8FBA642B9447D
:100E30002D6837464FF0000128BF2746002CEDD122
:100E4000BDE8F88330B482B001248DF80740144B1C
:100E50009DF80750186044F20104A04259609A605E
:100E600013D044F20201884206D1DA60DA681288AF
:100E70009A61DA685268DA6172B69DF80730002B21
:100E8000FBD162B602B030BC70471A611A69926831
:100E90005A611A6912689A611A695268DA61EBE755
:100EA0005001002010B44FF080414FF080520020DC
:100EB000C1F80C015E4BC1F81001C1F83805D2F839
:100EC0000414C3F82015D2F80814C3F82415D2F876
:100ED0000C14C3F82815D2F81014C3F82C15D2F846
:100EE0001414C3F83015D2F81814C3F83415D2F816
:100EF0001C14C3F84015D2F82014C3F84415D2F8D6
:100F00002414C3F84815D2F82814C3F84C15D2F8A5
:100F10002C14C3F85015D2F83014C3F85415D2F875
:100F20003414C3F86015D2F83814C3F86415D2F835
:100F30003C04C3F86805D2F840043E49C3F86C0588
:100F40000968D2F84424C3F87025082924D04FF04A
:100F50008043D3F80024D20744BF6FF00102C3F8E6
:100F60000024354AD2F8883043F47003C2F8883040
:100F7000BFF34F8FBFF36F8F4FF01023D3F80022D2
:100F8000002A23DBD3F80432002B1FDB2B4B2C4A27
:100F90001A605DF8044B70472A4B1B68002BD6D1B2
:100FA00029482A4A2A4C04602A492B4BFB20C2F8C4
:100FB00018050A681B68294822F00F0203F00F0386
:100FC00013434FF400720B600260C0E7244A012310
:100FD000C2F80435D2F80034002BFBD04FF01023B8
:100FE00012211F4AC3F80012D2F80034002BFBD0A4
:100FF0004FF0102312211A4AC3F80412D2F8003419
:10100000002BFBD000231649C2F80435D1F8003478
:10101000002BFBD0BFF34F8F0749124BCA6802F475
:10102000E0621343CB60BFF34F8F00BFFDE700BF0B
:1010300000C000403001001000ED00E0080000207A
:101040000090D003340100108C56004000F00040A6
:1010500048810300E40E0040580200104096024010
:1010600000E001400400FA0572B6024A1368013339
:101070001360704770010020034A1368013B13603E
:1010800003B962B6704700BF7001002038B50C4B41
:101090000C48002400250022FF21C3E90045C3F8C5
:1010A0001824996083F82024C3F81424FFF7E4FD82
:1010B000044610B90448FFF7B5FB204638BD00BF11
:1010C00048020020683F00009C3C0000A9B1124B80
:1010D00012495B1ADB081AD030B4114C22888242C4
:1010E00017D0002203E034F8225085420AD00132A2
:1010F0009342F8D1002030BC7047084A02EBC0028E
:101100001068704701EBC202106830BC7047184687
:1011100070470A46F8E700BF583F0000103F000044
:1011200074000020094B013903EBC00003290BD8E0
:10113000DFE801F00208060402207047407970479A
:10114000007970470420704700207047103F00006E
:101150002DE9F04F9D4CD4E900239A4289B000F06C
:1011600030810023C4F81834BFF34F8FD4E9013520
:1011700003EA0501CA1C04EB820614F8222050077A
:101180001BD52768327802F00302012A00F007819C
:10119000022A03D17288023303EB921303EA05019A
:1011A000D4F81804CA1C04EB820630B99F4240F2FE
:1011B000048114F822205207E4D404EB81015A1C64
:1011C000C96802912A4004EB820201F00301D2684F
:1011D0000392022903F1020600F00281012900F0C6
:1011E0006581D4F810543DB12B6828469B68984718
:1011F000EB681D68002DF7D1754A764BD4F808804E
:101200009B1ADB0800200193FFF72EFFD4E901327F
:10121000D4F8009013440133A3EB0903012B00F22F
:1012200094816D4D2F1FA5F1080601212846FFF777
:10123000BDFB3846FFF7D2FB3046FFF7CFFBD4E9C2
:10124000013E03EA0E01C81C04EB800214F82000E2
:1012500010F0040000F0A08003F1020C92F800B03E
:101260000BF0030BBBF1010FE24600F09080BBF1E5
:10127000020F7CD0CA1C04EB82020028EED104EBE2
:1012800081010133CA68059203EA0E0304EB83036C
:1012900002F00302012AD96800F08780022A5CD19B
:1012A000BDF816309B0903334FEA114B0AEB930A42
:1012B0003046FFF79FFB5946002856D02846C4F811
:1012C00004A0FFF773FBD4E9013221681344013312
:1012D0005B1A012BA9D90A400332052302310020F1
:1012E00044F822302160FFF7C7FE00213A48FFF79B
:1012F00053FB80F3100009F1010303EA0803BDF872
:10130000042004EB830308EA090808F1030842EA11
:101310000042DA6054F82820304B63F39F2222F415
:101320007F7323F0030343F0110344F8282024F8CB
:10133000283094F820343BB9D4E90030C01A18BFE3
:10134000012009B0BDE8F08FFFF702FF0028F3D0BD
:10135000FFF7FEFE0028F7D1EEE73046FFF74AFB25
:101360004FF0000B59460028A8D12846A9E753881A
:101370000CEB93130EEA0301CA1C03F1020C14F8E0
:101380002200E24604EB820200F0040075E71388B5
:10139000C3F383136344EDE703F1020A6FE7328876
:1013A0000233C2F383121344F8E6BDF81430C3F3DA
:1013B00083134FEA114B9A447AE7676009B0BDE89E
:1013C000F08F002009B0BDE8F08F00BF4802002078
:1013D000103F0000383F000064060020A83C0000D9
:1013E000BDF80A305F484FEA9319B9F1500FC8466B
:1013F00028BF4FF0500868F38F1308F10801ADF8CB
:101400000A30FFF73BFC074600283FF4EAAEFFF73F
:1014100081FC082200230DEB02013846FFF7AAFCED
:1014200025EA060301339B0098457BD9002B00F089
:101430008E8005EA0601A8EB0308DDB2033104EB58
:1014400081012A46082338465FFA88F8FFF792FCA4
:10145000424605F1080344493846FFF78BFC09F181
:10146000030906EB9909D4F81834002B69D1D4F894
:10147000105465B1EB685A7928463946002A5CD089
:101480002B681B689847EB681D68002DF2D1384621
:10149000FFF744FC0020FFF7E7FDD4F818340BB940
:1014A000C4F804900020FFF7E7FD45E7BDF80820E9
:1014B0002C48C2F38313062B28BF062363F389123B
:1014C00002339900ADF80820FFF7D8FB0746002843
:1014D0003FF487AEFFF71EFC082200230DEB02014C
:1014E0003846FFF747FCBDF8083013F4707F36D05C
:1014F0004FF0000805EA06014FEA8803033108337C
:1015000004EB810104223846FFF734FCBDF80830B3
:1015100008F10108C3F3831306F1010943454E4660
:10152000E8D8A0E705EA0601033104EB8101424651
:1015300008233846FFF71EFC91E71D68002D99D15E
:10154000A5E73846FFF7EAFBF6E64946C3E65FFA49
:1015500088F2082304493846FFF70CFC7FE7B146C0
:1015600081E700BF683F0000540200202DE9F04FE2
:10157000654C87B0804600200191A568FFF774FD97
:10158000D4E9012326681A440132921B012A00F291
:10159000B88004F21C4704F2144901213846FFF7D1
:1015A00005FA5A48FFF71AFA4846FFF717FAD4E93E
:1015B000013E03EA0E00C21C04EB820114F8222053
:1015C00012F0040200F09A8003F1020C91F800B0CE
:1015D0000BF0030BBBF1010FE24600F08A80BBF178
:1015E000020F00F1030B74D004EB8B01002AEDD144
:1015F00004EB80000133C268039203EA0E0304EB9C
:10160000830302F00302012AD9685AD0022A55D175
:10161000BDF80E309B0903334FEA114B0AEB930AD6
:101620004846FFF7E7F95946002845D03846C4F840
:1016300004A0FFF7BBF9D4E9011322681944013172
:10164000891A0129A9D91340033302320521002048
:1016500044F823102260FFF70FFD00212C48FFF70C
:101660009BF980F31000731C2B4004EB83030004F0
:101670003540033540EA1840D86014F8253068F347
:10168000C50304F82530019B54F8252063F39F22FD
:1016900022F4717323F0030343F0010344F825207F
:1016A00024F8253094F820341BB1FFF751FD0028B1
:1016B000FBD107B0BDE8F08F3846BAE74FF0000B1A
:1016C000AEE7BDF80C30C3F383134FEA114B9A44D5
:1016D000A6E74B880CEB93130EEA0300C11C03F141
:1016E000020C14F82120E24604EB810102F004020E
:1016F0007CE70B88C3F383136344EDE703F1020A2D
:1017000076E732469FE700BF4802002060060020CF
:10171000640600202DE9F04F684C87B08046002019
:10172000CDE90012A568FFF79FFCD4E901232668E4
:101730001A440132921B022A00F2BE8004F21C47B6
:1017400004F2144901213846FFF730F95C48FFF7ED
:1017500045F94846FFF742F9D4E9013E03EA0E0095
:10176000C21C04EB820114F8222012F0040200F0E3
:10177000A08003F1020C91F800B00BF0030BBBF159
:10178000010FE24600F09080BBF1020F00F1030B65
:101790007AD004EB8B01002AEDD104EB80000133F9
:1017A000C268039203EA0E0304EB830302F0030210
:1017B000012AD96860D0022A5BD1BDF80E309B099E
:1017C00003334FEA114B0AEB930A4846FFF712F92D
:1017D000594600284BD03846C4F804A0FFF7E6F875
:1017E000D4E90113226819440131891A0229A9D9BF
:1017F0001340033303324521002044F823102260B4
:10180000FFF73AFCB31C2B4004EB8303019A2D48ED
:10181000DA600021FFF7C0F880F31000731C2B4042
:1018200004EB830300043540033540EA1840D860D8
:1018300014F8253068F3C50304F82530009B54F8EC
:10184000252063F39F2222F4717323F0030343F0F6
:10185000410344F8252024F8253094F820341BB1A6
:10186000FFF776FC0028FBD107B0BDE8F08F3846C3
:10187000B4E74FF0000BA8E7BDF80C30C3F38313B7
:101880004FEA114B9A44A0E74B880CEB93130EEAF6
:101890000300C11C03F1020C14F82120E24604EB02
:1018A000810102F0040276E70B88C3F383136344DB
:1018B000EDE703F1020A70E7324699E7480200209B
:1018C00060060020640600202DE9F04F6C4C89B0C2
:1018D00080460020CDE901120393A568FFF7C4FB01
:1018E000D4E9012326681A440132921B032A00F22C
:1018F000C58004F21C4704F2144901213846FFF761
:1019000055F86048FFF76AF84846FFF767F8D4E9EA
:10191000013E03EA0E00C21C04EB820114F82220EF
:1019200012F0040200F0A78003F1020C91F800B05D
:101930000BF0030BBBF1010FE24600F09780BBF107
:10194000020F00F1030B00F0818004EB8B01002AF1
:10195000ECD104EB80000133C268059203EA0E0368
:1019600004EB830302F00302012AD96866D0022A3D
:1019700061D1BDF816309B0903334FEA114B0AEBD6
:10198000930A4846FFF736F85946002851D03846A2
:10199000C4F804A0FFF70AF8D4E901132268194437
:1019A0000131891A0329A8D9134003330432852150
:1019B000002044F823102260FFF75EFBB21C2A408F
:1019C000F31C2B4004EB820204EB8303029FD760DD
:1019D0000021039A2C48DA60FEF7DEFF80F3100046
:1019E000731C2B4004EB830300043540033540EAAD
:1019F0001840D86014F8253068F3C50304F8253082
:101A0000019B54F8252063F39F2222F4717323F085
:101A1000030343F0810344F8252024F8253094F88B
:101A200020341BB1FFF794FB0028FBD109B0BDE8BF
:101A3000F08F3846AEE74FF0000BA2E7BDF8143048
:101A4000C3F383134FEA114B9A449AE74B880CEB8C
:101A500093130EEA0300C11C03F1020C14F82120B9
:101A6000E24604EB810102F0040270E70B88C3F345
:101A700083136344EDE703F1020A6AE7324693E712
:101A80004802002060060020640600202DE9F04F87
:101A90008BB0DDE914677A4C06938046169B05925D
:101AA0000020CDE9076709930191A568FFF7DCFAEB
:101AB000D4E9012326681A440132921B062A00F257
:101AC000DD8004F21C4704F2144901213846FEF778
:101AD0006DFF6C48FEF782FF4846FEF77FFFD4E9B2
:101AE000013E03EA0E00C21C04EB820114F822201E
:101AF00012F0040200F0BF8003F1020C91F800B074
:101B00000BF0030BBBF1010FE24600F0AF80BBF11D
:101B1000020F00F1030B00F0998004EB8B01002A07
:101B2000ECD104EB80000133C268029203EA0E0399
:101B300004EB830302F00302012AD9687ED0022A53
:101B400079D1BDF80A309B0903334FEA114B0AEBF8
:101B5000930A4846FEF74EFF5946002869D038469A
:101B6000C4F804A0FEF722FFD4E901132268194447
:101B70000131891A0629A8D913400333073240F2EC
:101B80004511002044F823102260FFF775FA06F192
:101B9000020C0CEA050CF71C2F4004EB8C0C321DD8
:101BA0000598CCF80C002A4004EB87070698F860EB
:101BB00004EB82020798D060711DDDE9080229401C
:101BC000B31D04EB81012B4004EB8303C8600021AB
:101BD0002D48DA60FEF7E0FE80F31000731C2B4006
:101BE00004EB830300043540033540EA1840D86015
:101BF00014F8253068F3C50304F82530019B54F828
:101C0000252063F39F2222F4717323F0030343F42E
:101C1000A07343F0010344F8252024F8253094F8FC
:101C200020341BB1FFF794FA0028FBD10BB0BDE8BC
:101C3000F08F384696E74FF0000B8AE7BDF8083082
:101C4000C3F383134FEA114B9A4482E74B880CEBA2
:101C500093130EEA0300C11C03F1020C14F82120B7
:101C6000E24604EB810102F0040258E70B88C3F35B
:101C700083136344EDE703F1020A52E732467BE740
:101C8000480200206006002064060020F0B41B4ECD
:101C9000D6F810340746002B2DD0DC6825790021BA
:101CA000A942084617D0234603E0DB681A798A4226
:101CB00011D01B68002BF8D1FB681871D6F81034CE
:101CC0009BB1DA68FB6812681A60D6F81034DB68DA
:101CD0001F60F0BC7047092901F1010301D01946CA
:101CE000DEE74FF0FF30F0BC7047C6F81074FA68BA
:101CF0001360F0BC70471846DEE700BF48020020C2
:101D000038B5094BD3F81044012583F820544CB161
:101D1000E3685D71236820465B689847E3681C6848
:101D2000002CF5D138BD00BF4802002001600B68CF
:101D300043604A68934204BF00234360704700BF7A
:101D400000B583B002900091019244F20100714607
:101D50006A4601F05FF903B000BD00BF134A137873
:101D60000BBB30B40378124CDB07216006D5114958
:101D7000D1F8043543F00103C1F804350D4C0E4988
:101D8000D4F8003223F00103C4F8003243785B0139
:101D90004FF400550124DBB281F80D330D6014704F
:101DA000002030BC70478520704700BF0807002026
:101DB0000407002000D0004000E100E0064A074B85
:101DC0000021116082B01268019201990122C3F8CA
:101DD00004231A6002B0704700D1004000D00040D8
:101DE0000349044A0123C1F808331360704700BF58
:101DF00000D0004004D00040074B0849084A0020AA
:101E0000186082B01B680193019BD1F80805136824
:101E1000C0B202B0184700BF00D1004000D000405F
:101E200004070020082910B5044605D0054A40F2F1
:101E300073110020FFF784FFD4E90030BDE81040A3
:101E4000184700BFD83C00002DE9F0432A492B4B2E
:101E50000024C1F84041C1F84441C1F84841C1F8EB
:101E60004C41C1F80041C1F804411B6883B02BB359
:101E70002348D1F8045501681A68224FDFF898808A
:101E80006D1A25F07F45AA42A14609D8197CDE6962
:101E9000AD1A1444A9B91EB133461A68AA42F5D93D
:101EA00019491A4A0B7812789A421DD01849194AD2
:101EB00041F823404FF48013C2F8003103B0BDE86D
:101EC000F08383F81090D3E9053208210192684627
:101ED0003A46009300F0F6FF0028DCD0424640F27C
:101EE0008711FFF72DFFD6E7531CDBB2022B08BF8B
:101EF00000230B70DAE700BF001001402C0800201F
:101F000028080020251E00002508002024080020A5
:101F10001C08002000E100E0D83C00002DE9F04F53
:101F2000B14AB24913780978B14E994285B0356803
:101F300000F089810133DBB2022B08BF0023AD49D9
:101F40001370AD4AD1F800C052F823200CEB020305
:101F500023F07F430B60002D00F0C2812B689A4272
:101F6000C0F0C08100273846BE4603E00B689342AC
:101F700000F26C81EC68C5F800E0D21A1844E969F7
:101F80003CB10CEB000323F07F43C5E90134EF6162
:101F90002F460D460029E9D1316000254FF0010A96
:101FA000964B9749DFF86C9243F0010301934FF091
:101FB0000008002F33D0D7E901BE3C46FF698D4BA6
:101FC00090481A68ABEB020323F07F43834200F290
:101FD00001817344236000203268E061C4E901009C
:101FE00001202074002A00F0F3801068984208D382
:101FF000DFE0DEF800C0DC4580F0E08072465B4642
:102000006046D2F81CE0A3EB000BBEF1000FF0D14C
:10201000C4F800B0C4F81CE0D461002FCBD191F813
:1020200001E0087870454AD084460CEB4C0C8B7864
:1020300001EBCC0C421CD0B283429CF804300870F7
:1020400004BF00200870022BDCF8084025D0032BC9
:1020500019D0012BE6D1237C002BE3D1DCF80CB0A6
:10206000C4F804B0DCF810E0C4F808E0DCF8142090
:10207000E26099F80020DCF81800A061002A9ED0E8
:1020800063609B469BE73368002BCBD000221A7419
:10209000DB69002BFBD13360C1E733685BB19C4245
:1020A00000F0BA809B4602E0944261D09346DBF890
:1020B0001C20002AF8D1002323747045B4D136685F
:1020C000B8F1000F01D1B5422CD086B3494A4E4B2E
:1020D0001468D3F80475DFF83881366898F8002062
:1020E0003D1B25F07F450335002A00F0B680AE4247
:1020F0002CBFA4196419444A24F07F44C2F8404517
:10210000D2F80435DB1BE41B23F07F4324F07F442B
:102110000333A34200F2BA80002389F8003005B0EF
:10212000BDE8F08FBAF1000FF6D0002ECED1364DBB
:10213000364A324C4FF400314FF480330127C2F855
:1021400080103C43C5F848334FF43C60C5F8083371
:102150006F60A047274BAF604FF43C601E60A04704
:102160002B4B1E70002389F8003005B0BDE8F08FBE
:102170005C4553D0E069D4F800E0CBF81C0000289F
:102180005BD09C46026872440260634518BF4FF002
:1021900001080023087891F801E023748DE7326884
:1021A00000230120C4E90033A360E36120747AB105
:1021B00010683460C31A1360E261FAE66044C31A1F
:1021C000CEF80030C4F800B0C4F81CE0D46124E7B5
:1021D0003460EEE6A2EB0B0222F07F427245DED2C3
:1021E000AEEB02032360F6E6240800202508002059
:1021F0002C080020280800201C080020D03C0000EB
:102200000C070020FEFF7F000010014000E100E00D
:102210001908002018080020A3462246D3F81CC045
:10222000C6F800C0BCF1000F45D0D069D2F800E07C
:10223000CBF81C000028A5D1A7E70023087891F867
:1022400001E0237439E70027BA46A9E631600D465C
:102250009B1A0B604FF0010AA2E62449244A4FF46E
:102260008030C3F844034FF0010AC3F804034FF46D
:102270000030C1F8800142F001020860C3F800A0FC
:102280004FF43C60904788F800A030E7184BD2F834
:102290000415C2F8401543F001034FF43C60984721
:1022A000124B4FF40032C3F80021002389F80030AC
:1022B00005B0BDE8F08FCDE902320E4BDFF83CE00F
:1022C00001209860019B89F80000CEF800C04FF40F
:1022D0003C609847D6F800C00749DDE90232A4E720
:1022E0002F465AE629460027B2E700BF00E100E08A
:1022F000D03C0000001001400C07002028080020FE
:102300002DE9F8431F4D204E204FDFF898804FF401
:1023100080334FF400324FF001090024C6F88020CA
:1023200047EA0907C5F848334FF43C60C5F808335D
:10233000C5F80490B847C5F808904FF43C60C8F859
:102340000040B847124A134B13491C601470134BDA
:10235000134A0C700B2114701C8099704FF480127A
:10236000C023C6F8802186F814333260C5F80845CA
:1023700086F81133D5F80435C8F800302046BDE89A
:10238000F88300BF0010014000E100E0D03C0000F5
:10239000190800202C080020240800200C07002029
:1023A0002508002028080020074B9B783BB142B14C
:1023B00038B10368187C10B959745A617047082005
:1023C00070470720704700BF0C0700202DE9F84335
:1023D000224CA378002B35D0002833D0042934D9DF
:1023E00043697BB3437C0646012B4FF000000CBFD2
:1023F0008846804617468946FEF736FE6378A17800
:1024000022785D1CEDB2A94208BF0025AA421FD068
:1024100003EB430304EBC3030121114A9E601971CE
:10242000D2F80425DA600020C3E904989F61657042
:10243000FEF722FE0B4B4FF48012C3F80021002060
:10244000BDE8F8830820BDE8F8830720BDE8F883DD
:102450000020FEF711FE0420F2E700BF0C07002069
:102460000010014000E100E02DE9F84F884690455A
:10247000164605461F46DDE90AB177D343464FF0BD
:102480000109B3FBF6F39E4209F10109F9D9B945F7
:1024900038BFB94611F0010AAA6802D1BBF1000F9A
:1024A00045D1012402E0013F06FB04F4012FFAD8D4
:1024B000B8FBF4F18E42F7D92E4F07E0B442B4FBDB
:1024C000F6F315D3B8FBF3F1AA681C46531CAB60B6
:1024D0002B68785C9854D5E901329A4204FB118844
:1024E000ECD32846FEF792FAB4FBF6F3B442E9D2F5
:1024F000BAF1000F15D0BBF1000F12D0CB4510D9A7
:102500002024AB682A68591CA960D454D5E901324B
:102510009A420BF1FF3B06D2BBF1000F01D0CB4535
:10252000EFD1BDE8F88F2846FEF770FAF4E78B0785
:1025300017D42024CB45B4D92B68511CA9609C54D6
:10254000D5E901329A420BF1FF3B05D2BBF1000FF6
:10255000A7D0CB45F0D1A4E72846FEF757FAAA68E2
:10256000F4E7002F0CBF30242024E3E74FF00109EB
:102570008DE700BF303D0000002900F042822DE9C8
:10258000F04F054683B093460C460B7801E0237864
:1025900093B1013483B1252B15D0AA682968501C4A
:1025A000A8608B54D5E901329A42F0D32846FEF751
:1025B0002DFA2378002BECD12B7B002B40F01981D6
:1025C00003B0BDE8F08F2146002711F8012B2D2A1A
:1025D00000F0E580302A00F0E6802B2A00F0D6805B
:1025E0002A2A00F0E480A2F13006F3B2092B03D9C5
:1025F00003E2A3F130060146084606EB860310F815
:10260000012BA2F13004092C02EB4303F1D92E2A4D
:1026100000F0D9804FF0000802F0FB03682B01F1B5
:10262000010405D114F8012B02F0FB03682BF9D04B
:10263000253A532AABD801A353F822F01B280000F7
:102640008F2500008F2500008F2500008F250000BA
:102650008F2500008F2500008F2500008F250000AA
:102660008F2500008F2500008F2500008F2500009A
:102670008F2500008F2500008F2500008F2500008A
:102680008F2500008F2500008F2500008F2500007A
:102690008F2500008F2500008F2500008F2500006A
:1026A0008F2500008F2500008F2500008F2500005A
:1026B0008F2500008F2500008F2500008F2500004A
:1026C0008F2500008F2500008F2500008F2500003A
:1026D0008F2500008F2500008F2500008F2500002A
:1026E0008F2500008F2500008F2500008F2500001A
:1026F0008F2500008F2500008F2500008F2500000A
:102700008F2500008F250000352800008F25000050
:102710008F2500008F2500008F2500008F250000E9
:102720008F2500008F2500008F2500008F250000D9
:102730008F25000051280000732800008F2500001D
:102740008F2500008F2500008F25000073280000D2
:102750008F2500008F2500008F2500008F250000A9
:102760008F2500008F250000012900008F25000023
:102770008F2500007B2900008F250000FF27000027
:102780008F2500008F2500003528000047F0040742
:102790000C46214611F8012B2D2A7FF41BAF47F080
:1027A00001070C46F5E747F002070C46F1E7DBF8B6
:1027B00000301A1DCBF8002062781E682E2A04F122
:1027C00002007FF427AF4A78A2F13003092B0146BB
:1027D0004FF000083FF620AF08EB880802EB4808EE
:1027E00011F8012FA2F13003092BA8F13008F3D919
:1027F00012E7284603B0BDE8F04FFEF707B9DBF853
:1028000000301A1DCBF80020196801974346009646
:102810000A222846FFF728FEB9E6AB682A68591C49
:10282000A9604FF02501D154D5E901329A42FFF455
:10283000AEAEBBE6DBF800301A1DCBF800201968FD
:1028400001974346009610222846FFF70DFE9EE6AC
:10285000DBF80020131DCBF80030AB682968127834
:10286000581CA860CA54D5E901329A42FFF48FAED1
:102870009CE6DBF800301A1DCBF80020D3F800905E
:1028800089EAE972A2EBE972092A4FF0010A01DC38
:1028900009E01A46B14B632AA3FB02130AF1010AAD
:1028A0004FEAD303F5DCC24538BFC24607F0020346
:1028B000002E40F0A780002B40F0FA800026B9F1EE
:1028C000000FC0F2E2807A070CD5AA682B68501C72
:1028D0002B21A8609954D5E901329A4202D32846A7
:1028E000FEF794F807F00303022B00F00A81CDE90C
:1028F0000067434649460A222846FFF7B5FD46E6EB
:10290000DBF80020131DCBF80030AB68296817688E
:10291000581C3022A860CA54D5E90123934280F0A4
:1029200012812A68581C7821A860D154D5E9012366
:10293000934280F003810F2F03D93A4612090F2AE0
:10294000FCD84FF0805606E00F2E4FEA16137FF6A4
:102950001EAE1E46AB682968B7FBF6F2581CA8608D
:102960007F48805CC854D5E90131994206FB127753
:10297000EAD32846FEF74AF8E6E7DBF800301A1DEE
:10298000CBF80020D3F80080FB075FD598F8002033
:10299000002A00F0E180AB684746C8F101092968C8
:1029A000581CA860CA54D5E90123934209EB0708D3
:1029B0001AD217F8012F002AF1D146457FF6E7AD6C
:1029C000202702E046453FF4E2ADAB682A68591C77
:1029D000A960D754D5E901329A4206F1FF36F1D306
:1029E0002846FEF713F8EDE72846FEF70FF817F82C
:1029F000012F002AE1D0AB68D1E708460026214626
:102A000005E67047B9F1000F01DB780700D5013EFC
:102A1000002B48D1F9073FF552AF002E3FF44EAFDF
:102A2000B245BFF44CAF2021AA682B68501CA860A7
:102A30009954D5E901329A4206F1FF3641D2002E6F
:102A40003FF43CAFB245EFD1564638E7B8F1000F3E
:102A500035D0404600F000FE0746BE4236D9AEB340
:102A60004FF0200901E0BE4230D0AB682A68591C03
:102A7000A96002F80390D5E901329A4206F1FF36C7
:102A8000F1D32846FDF7C2FFEDE7AA682B68501C7A
:102A90002D21A8609954D5E901329A42C9F1000963
:102AA000FFF420AF1BE7B8F1000F3FF408AFB1E728
:102AB000B8F1000F4ED0FB073FF501AFFEE64746E9
:102AC000CBE72846FDF7A2FF2021B8E798F80020C1
:102AD000002A3FF45CADAB682968581CA860CA5452
:102AE000D5E90123934204D218F8012F002AF3D12B
:102AF0004DE52846FDF78AFF18F8012F002AEAD194
:102B000045E5B8F1000F7FF4F2AE0EB3B245BFF465
:102B1000EEAE3021AA682B68501CA8609954D5E904
:102B200001329A4206F1FF3603D28EB1B245F1D19D
:102B3000DDE62846FDF76AFF3021F6E72846FDF777
:102B400065FFAB68F7E62846FDF760FFAB68E8E68F
:102B50000026CCE64646B2E690462EE7CDCCCCCC5D
:102B6000303D00002DE9F04F4400DFF870B1261829
:102B70000BEBC60683B0F76A012F80468A46914662
:102B800042D0002F63D0022F39D100F1010808EBA9
:102B90004808756A4FEAC8080027B36A346AAB422E
:102BA00003F1FF329CBF1B1903F1FF33A4EB0504B3
:102BB0008CBF531B5B1B0BEB08024C4528BF4C46DC
:102BC0009C42506828BF1C4628445146224600F0CB
:102BD00025FD336A25449D422744A9EB0409A244FC
:102BE00007D07562B9F1000FD7D1384603B0BDE800
:102BF000F08F00257562B9F1000FCED1F5E70027FF
:102C0000384603B0BDE8F08FD6E90835B76AAF4261
:102C100098BFFF18461C013F06EB46067F1B0BEBD7
:102C2000C606974228BF17467068A3EB05094F45B3
:102C300028442DD23A4600F0F1FCA0440BEBC80B1F
:102C40003D443846CBF8245003B0BDE8F08FB36A5A
:102C5000756AAB429CBF316A5B18013B5B1B9A42B1
:102C6000C3D8044400F101080BEBC40408EB480886
:102C70000BEBC80B236ADBF804005E1BB24228444E
:102C800015441BD2514600F0C9FC4F466562ACE7C3
:102C90004A46019300F0C2FC019B7068ED1A3D4466
:102CA0000AEB09012A4600F0B9FCA0440BEBC80B63
:102CB0003846CBF8245003B0BDE8F08FED1A324609
:102CC000514600F0ABFC0AEB0601DBF804002A4693
:102CD00000F0A4FC4F46656287E700BF380B002078
:102CE00038B5114C114B1248E36110254FF40073B5
:102CF000104A11492362E06400232565E01D022586
:102D0000A3626362E362A3656365E365A261A26493
:102D1000C4E9045500F098FC2046084900F094FCF2
:102D20002023A37138BD00BF380B002040080020CD
:102D300030080020403D00004C3D0000503D0000A8
:102D4000F0B595B0002415460F4608461E46FDF71F
:102D5000E1FF384623460895082205A91A9D0996E1
:102D60000D950A948DF82C400C94FEF737F89DF8D9
:102D700014308DF81140DDE9061003F00302012A3A
:102D8000CDE9020127D0022A04D03846FDF7C6FF5C
:102D900015B0F0BDBDF81650C3F3C2038DF8103066
:102DA000AD090826082D2C4628BF082433462246A4
:102DB0000EA93846FEF712F82D1B214608AB02AAD1
:102DC0000EA82644FDF746FC002DEBD13846FDF752
:102DD000A5FF15B0F0BDBDF81460059DC6F38316C0
:102DE000C3F3C204B2000EA9384608238DF8104080
:102DF000C5F39525FDF7F2FF08AB324628460EA92C
:102E0000009302ABFDF7B0FB3846FDF787FF15B026
:102E1000F0BD00BF064A074B10B5002414701C60BB
:102E2000BFF35F8F04490548FEF780FF204610BDC1
:102E3000480A00204C0A0020583D0000400A0020AB
:102E400008B50020FEF710F9F1EE103A23F09F03C9
:102E5000E1EE103ABFF35F8F054B4022C3F88421A7
:102E60000020FEF709F920BF40BF20BF08BD00BF0A
:102E700000E100E0F0B412F0030412D14B1CDB00BF
:102E80000A4D0B4E0B4F34709BB213442B600A4E0D
:102E90000A4D0B4B28803470198020463A60F0BCF4
:102EA000704707242046F0BC704700BF540A00203A
:102EB000500A0020580A0020600A00205C0A002006
:102EC0005E0A00202DE9F047294F3B888B4202D251
:102ED0000920BDE8F0870546002016460C46FEF79F
:102EE000C3F8244B244A2548197813780088DBB2AC
:102EF000834238BF0133C9B234BFDBB200239942E9
:102F00002FD092F800801378DFF87890DBB29842E7
:102F100086BF0133DBB200235FFA88F8002013700C
:102F2000FEF7AAF8D9F800300FFA88F24FEAC20A81
:102F300043F83260534405B11CB900209880BDE8C5
:102F4000F0870F4B38881B68294608FB0030224663
:102F500000F064FBD9F800309A440020AAF804403D
:102F6000B7E70020FEF788F80420BDE8F08700BF2F
:102F70005C0A0020600A0020500A00205E0A00203F
:102F8000540A0020580A00202DE9F84F1B4C1C4D14
:102F900022782B789A4226D0DFF86CA0DFF86C906C
:102FA000184FDFF86CB04FF000082378DAF80020F3
:102FB0003888D9F80060DBB20FFA83FE02EBCE014D
:102FC00003FB0060898852F83E3098472378BBF8AD
:102FD0000010DBB25A1C9942D2B206D92270237873
:102FE0002A789A42E1D1BDE8F88F84F800802278EF
:102FF0002B789A42D9D1BDE8F88F00BF600A002033
:10300000500A00205C0A0020580A0020540A0020C0
:103010005E0A00202DE9F041054684B00F461646B1
:1030200072B6FEF76DFEFEF793F80028FBD11E4B3B
:103030001E4CE41AE40844F2010324049D4244F0C7
:10304000010416D044F202039D42204626D1338863
:1030500072681749FEF738FC164B1B68DB0700D572
:1030600000BE32463946284604B0BDE8F041FDF7BF
:10307000E9BED6F808804046FDF73AF933680E49B4
:10308000CDE9013773680093424603462046FEF7B8
:10309000FDFC20460949FEF769FADDE73A46084992
:1030A000FEF738FBD8E700BF103F0000383F0000B4
:1030B000703D0000F0ED00E08C3D0000B43D0000EC
:1030C000C83D000010B5234B2348244C24492268F6
:1030D000C01AC008000440F00300531C2360FEF730
:1030E00019FB23681F4CDB0754BF01200020FDF7AC
:1030F00017FC04211C48FDF7E1FC2060F8B91A4ACE
:103100001A4B1268A3FB02139B0940F2F51101FB55
:10311000132303F5FA734FF400424FF4FA700021C1
:10312000E2FB03014FF47A72002300F0BDF80022A5
:1031300001460F48FFF74AF9206028B910BD0D4A33
:103140003621FEF7FDFDDAE70A4A3921BDE81040D5
:10315000FEF7F6BD103F0000383F0000340B0020A2
:10316000E43D0000B40B0020B00B002041DDB32093
:10317000140B0020F03D0000024A01210020FFF75F
:10318000A1BE00BFC530000010B50120FDF7E2FB75
:103190000120FDF7B3FB4FF400410020FDF776FF5F
:1031A000324C2060002837D1FDF726F9304B3148EA
:1031B0003149C01AC008000440F00300FEF7D6F9F8
:1031C000FDF7E8FA206000284AD10020FDF7FCFA5C
:1031D0000020FDF74FFC206000283CD1FFF71AFECD
:1031E000206098BB254A0A210820FFF743FE40BB18
:1031F000FFF786F82060F8B9214A22480021FFF73E
:10320000D3F8206098B900224FF480411E48FFF7A0
:10321000DDF8206028B910BD1C4A5721FEF790FD4B
:10322000C2E71A4A6D21BDE81040FEF789BD174A72
:103230006A21FEF785FDE6E7144A6621FEF780FD68
:10324000DAE7124A6421FEF77BFDD1E70F4A6221DB
:10325000FEF776FDC6E70D4A5F21FEF771FDBDE77B
:103260000A4A5C21FEF76CFDAFE700BFB40B0020FB
:10327000103F0000383F0000FC3D0000640A0020C1
:1032800079310000E03D0000140B0020F03D00000B
:1032900008B5FFF779FFFFF777FEFDF759FF002824
:1032A000FBD1FFF7CDFDF6E753B94AB9002908BFB6
:1032B00000281CBF4FF0FF314FF0FF3000F074B911
:1032C000ADF1080C6DE904CE00F006F8DDF804E07D
:1032D000DDE9022304B070472DE9F047089E04465B
:1032E0008846002B40F085808A42154648D9B2FABC
:1032F00082F24AB1C2F1200701FA02F320FA07F77D
:10330000954047EA030894404FEA154E230CB8FB5A
:10331000FEF71FFA85FC0EFB178843EA084307FBFC
:103320000CF1994209D9EB1807F1FF3080F0E380E6
:10333000994240F2E080023F2B445B1AA4B2B3FBF7
:10334000FEF00EFB103344EA034400FB0CFCA445E2
:1033500009D92C1900F1FF3380F0CB80A44540F24D
:10336000C88002382C4440EA0740A4EB0C04002734
:103370001EB1D4400023C6E900433946BDE8F087BA
:10338000002A53D0B2FA82F2002A40F0B680491BDC
:103390004FEA154E1FFA85F80127B1FBFEFC230CFE
:1033A0000EFB1C1143EA014308FB0CF1994207D9BB
:1033B000EB180CF1FF3002D2994200F2EC80844607
:1033C000591AA3B2B1FBFEF00EFB101443EA0444F9
:1033D00008FB00F8A04507D92C1900F1FF3302D2F1
:1033E000A04500F2DC801846A4EB080440EA0C403B
:1033F000BEE78B4208D9002E78D00027C6E900012D
:1034000038463946BDE8F087B3FA83F77FB98B4277
:1034100002D3824200F2BD80841A61EB03030120D3
:103420009846002EA9D0C6E90048A6E7FFDEC7F1FE
:103430002005BB4022FA05FC4CEA030C01FA07F414
:1034400020FA05F821FA05F34FEA1C4E48EA040475
:10345000B3FBFEF9210C0EFB19331FFA8CF841EA7D
:10346000034309FB08FA9A4502FA07F200FA07F14A
:103470000BD91CEB030309F1FF3080F088809A45DB
:1034800040F28580A9F102096344A3EB0A03A4B2C8
:10349000B3FBFEF00EFB103344EA034400FB08F8D4
:1034A000A04508D91CEB040400F1FF336BD2A04502
:1034B00069D90238644440EA0940A4EB0804A0FB3F
:1034C00002894C45C6464B4654D351D0002E69D094
:1034D000B1EB0E0264EB030404FA05F522FA07F3DC
:1034E000FC401D43C6E90054002746E737463046F6
:1034F00043E7184637E707461FE7C2F1200320FAE3
:1035000003F7954001FA02F021FA03F34FEA154E52
:103510003843010CB3FBFEF71FFA85F80EFB173397
:1035200041EA034107FB08F38B4204FA02F407D98E
:10353000691807F1FF3C28D28B4226D9023F294463
:10354000CB1A81B2B3FBFEF00EFB103341EA03410C
:1035500000FB08F38B4207D9691800F1FF3C10D239
:103560008B420ED902382944C91A40EA074714E7AA
:103570004145ABD2B8EB020E69EB0C0201381346A1
:10358000A4E76046F0E7184695E76746D8E7814626
:103590007BE7384645E7ACF1020C2B4410E70238D4
:1035A0002C4421E73746E8E6704700BF08B5074BD3
:1035B000044613B10021AFF30080054B1868836AFD
:1035C00003B19847204600F04FF800BF000000000C
:1035D000083F000070B50D4D0D4C641BA410002673
:1035E000A64209D10B4D0C4C00F040F8641BA4100E
:1035F0000026A64205D170BD55F8043B9847013618
:10360000EEE755F8043B98470136F2E76C000020DE
:103610006C0000206C000020700000200A449142E1
:1036200000F1FF3300D1704710B511F8014B03F8DA
:10363000014F9142F9D110BD02440346934200D19B
:10364000704703F8011BF9E7034611F8012B03F853
:10365000012B002AF9D17047034613F8012B002AE9
:10366000FBD1181A01387047FEE700BFF8B500BF5C
:10367000F8BC08BC9E467047F8B500BFF8BC08BC53
:103680009E467047556E6B6E6F776E206572726FD7
:103690007220636F6465000000000000B037000016
:1036A00001000000BC37000002000000DC37000011
:1036B000030000000038000004000000143800007F
:1036C0000500000028380000060000003C3800001B
:1036D0000700000054380000080000006C380000AB
:1036E00009000000843800000A000000A038000033
:1036F0000B000000B83800000C000000D0380000BB
:103700000D000000E43800000E000000F838000052
:103710000F00000008390000100000001C390000F4
:10372000110000003439000080000000443900001E
:103730008100000068390000820000008439000028
:1037400083000000A039000084000000C0390000A0
:1037500085000000E4390000860000000C3A0000FB
:1037600090000000243A000091000000443A00005C
:1037700092000000643A0000008200007C3A0000E1
:10378000018200009C3A000002820000B83A00006A
:1037900000840000D43A000001840000F83A0000E0
:1037A00002840000243B0000038400004C3B000026
:1037B0004E52465F53554343455353004E52465F66
:1037C0004552524F525F5356435F48414E444C4519
:1037D000525F4D495353494E470000004E52465FD9
:1037E0004552524F525F534F465444455649434504
:1037F0005F4E4F545F454E41424C4544000000002F
:103800004E52465F4552524F525F494E5445524EBA
:10381000414C00004E52465F4552524F525F4E4F50
:103820005F4D454D000000004E52465F4552524FDD
:10383000525F4E4F545F464F554E44004E52465FC6
:103840004552524F525F4E4F545F535550504F5256
:10385000544544004E52465F4552524F525F494EC6
:1038600056414C49445F504152414D004E52465FD3
:103870004552524F525F494E56414C49445F535452
:10388000415445004E52465F4552524F525F494E99
:1038900056414C49445F4C454E4754480000000097
:1038A0004E52465F4552524F525F494E56414C4927
:1038B000445F464C414753004E52465F4552524F7B
:1038C000525F494E56414C49445F444154410000C7
:1038D0004E52465F4552524F525F444154415F53EE
:1038E000495A45004E52465F4552524F525F544925
:1038F0004D454F55540000004E52465F4552524FC1
:10390000525F4E554C4C00004E52465F4552524F4E
:10391000525F464F5242494444454E004E52465F24
:103920004552524F525F494E56414C49445F4144C3
:10393000445200004E52465F4552524F525F42552C
:10394000535900004E52465F4552524F525F4D4F01
:1039500044554C455F4E4F545F494E495449414C84
:10396000495A4544000000004E52465F4552524FAE
:10397000525F4D555445585F494E49545F46414941
:103980004C4544004E52465F4552524F525F4D5592
:103990005445585F4C4F434B5F4641494C454400AA
:1039A0004E52465F4552524F525F4D555445585FF7
:1039B000554E4C4F434B5F4641494C454400000037
:1039C0004E52465F4552524F525F4D555445585FD7
:1039D000434F4E445F494E49545F4641494C45442C
:1039E000000000004E52465F4552524F525F4D4F0D
:1039F00044554C455F414C52454144595F494E49FD
:103A00005449414C495A4544000000004E52465F1B
:103A10004552524F525F53544F524147455F4655AE
:103A20004C4C00004E52465F4552524F525F41503F
:103A3000495F4E4F545F494D504C454D454E54459E
:103A4000440000004E52465F4552524F525F464579
:103A500041545552455F4E4F545F454E41424C458F
:103A6000440000004E52465F4552524F525F494F4C
:103A70005F50454E44494E47000000004E52465F9D
:103A80004552524F525F4452565F5457495F455218
:103A9000525F4F56455252554E0000004E52465FFF
:103AA0004552524F525F4452565F5457495F4552F8
:103AB000525F414E41434B004E52465F4552524F7A
:103AC000525F4452565F5457495F4552525F444ECD
:103AD00041434B004E52465F4552524F525F424C5B
:103AE000455F495053505F52585F504B545F54529A
:103AF000554E4341544544004E52465F4552524F45
:103B0000525F424C455F495053505F4348414E4ECF
:103B1000454C5F414C52454144595F4558495354C7
:103B2000530000004E52465F4552524F525F424C86
:103B3000455F495053505F4C494E4B5F4449534396
:103B40004F4E4E4543544544000000004E52465FE0
:103B50004552524F525F424C455F495053505F505F
:103B60004545525F52454A454354454400000000D4
:103B70000338FDD8704700007D030000F10300000A
:103B8000790300007274745F6C6F675F6261636BCE
:103B9000656E6400434C4F434B000000F83B00004F
:103BA000243C0000D83B00002C3C0000343C0000CA
:103BB0003C3C0000443C00004C3C0000543C0000F5
:103BC0002025303278000000202020007C000000FA
:103BD000256300000D0A00001B5B313B33316D0093
:103BE00025734C6F67732064726F70706564202852
:103BF00025642925730D0A001B5B306D0000000051
:103C0000257300003C25733E2025733A20000000F8
:103C1000000000005C3C0000643C00006C3C0000C4
:103C2000743C00001B5B313B33306D001B5B313B50
:103C300033326D001B5B313B33336D001B5B313B1B
:103C400033346D001B5B313B33356D001B5B313B07
:103C500033366D001B5B313B33376D006572726F1D
:103C6000720000007761726E696E6700696E666F40
:103C7000000000006465627567000000636C6F639C
:103C80006B000000505253002F2A00000106000074
:103C9000726E670055415254000000006C0600200F
:103CA0007F000000EC0600204261636B656E647368
:103CB00020666C75736865640000000061707000B8
:103CC000524E47000000000000000000000000000D
:103CD0000338FDD8704700002F686F6D652F686549
:103CE000726D616E2F4465736B746F702F6E5246E8
:103CF00035323834302F53444B31352E332F636FE8
:103D00006D706F6E656E74732F6C6962726172692B
:103D100065732F74696D65722F6170705F74696D62
:103D200065722E63000000005541525445000000AA
:103D300030313233343536373839414243444546E1
:103D40005465726D696E616C00000000525454003D
:103D50005345474745520000903F0000903F000008
:103D6000040000007077725F6D676D7400000000E2
:103D7000415353455254494F4E204641494C4544C6
:103D80002061742025733A25750000004552524F7A
:103D900052202575205B25735D2061742025733AC0
:103DA00025750D0A50432061743A2030782530384B
:103DB00078000000456E64206F66206572726F7235
:103DC000207265706F727400554E4B4E4F574E20E7
:103DD0004641554C542061742030782530385800C5
:103DE000140B0020626C696E6B20256400000000DB
:103DF000626C696E6B792E630000000048656C6C24
:103E00006F000000002020202020202020202828D3
:103E1000282828202020202020202020202020208A
:103E200020202020208810101010101010101010CA
:103E300010101010100404040404040404040410FA
:103E40001010101010104141414141410101010188
:103E50000101010101010101010101010101010152
:103E6000101010101010424242424242020202025E
:103E70000202020202020202020202020202020222
:103E800010101010200000000000000000000000D2
:103E90000000000000000000000000000000000022
:103EA0000000000000000000000000000000000012
:103EB0000000000000000000000000000000000002
:103EC00000000000000000000000000000000000F2
:103ED00000000000000000000000000000000000E2
:103EE00000000000000000000000000000000000D2
:103EF00000000000000000000000000000000000C2
:103F000000000000000000000C0000200000000085
:103F1000943B000000000000843C00000000000012
:103F2000C03C000000000000943C000000000000C5
:103F3000283D000000000000BC3C0000000003031E
:103F40007C3C000000000000643D00000000000018
:083F5000903C0000000000009D
:103F5800783B000000000000843B000000000020C7
:103F6800740100203C020020440200207C01002053
:043F7800180000002D
:103F7C0040010020FC000020400000000100000077
:043F8C000000000031
:083F9000B0C2FF7F0100000038
:103F980000000000FF0000000090D00300000000B7
:103FA8000000000000000000000000000000000009
:103FB80000000000000000000000000000000000F9
:103FC80000000000000000000000000000000000E9
:103FD80000000000000000000000000000000000D9
:103FE80000000000000000000000000000000000C9
:103FF8000000000000000000000000002502000092
:0440080001020000B1
:04000003000002B542
:00000001FF
