:020000021000EC
:1080000000400020D1E5010019E601001BE6010057
:108010000000000000000000000000000000000060
:108020000000000000000000000000001DE601004C
:1080300000000000000000001FE6010021E6010032
:1080400023E6010023E6010039DC010099D3010099
:1080500023E60100000000003DC0010023E601000E
:1080600023E6010023E6010023E6010023E60100E8
:1080700023E6010023E6010023E6010023E60100D8
:1080800023E60100DDB0010023E6010023E6010044
:10809000BDB1010023E6010089DB010023E60100F8
:1080A00023E6010023E601000000000000000000BC
:1080B00000000000000000000000000000000000C0
:1080C00010B5064C2378002B07D1054B002B02D0AE
:1080D000044800E000BF0123237010BD8020002071
:1080E00000000000CCEB0100084B10B5002B03D0C2
:1080F0000749084800E000BF07480368002B00D18B
:1081000010BD064B002BFBD09847F9E7000000009C
:1081100084200020CCEB0100802000200000000023
:10812000164B002B00D1144B9D46402292029A1A06
:10813000924600218B460F461348144A121A00F04B
:1081400065F80F4B002B00D098470E4B002B00D04A
:1081500098470020002104000D000D48002802D09F
:108160000C4800E000BF00F02DF82000290006F0C8
:1081700021FA00F011F8C04600000800004000207D
:108180000000000000000000802000201C280020CB
:108190000000000000000000084B10B50400002B98
:1081A00002D0002100E000BF054B1868836A002B55
:1081B00000D09847200000F031F8C04600000000D1
:1081C00068E9010070B500260C4D0D4C641BA4102D
:1081D000A64209D1002606F0BBFB0A4D0A4C641BDF
:1081E000A410A64205D170BDB300EB5898470136E4
:1081F000EEE7B300EB5898470136F2E7782000200D
:1082000078200020782000207C20002003008218A5
:10821000934200D1704719700133F9E7FEE7C04679
:108220007FDF704782DF7047A7DF7047A9DF7047A5
:10823000AADF704700207047002070470020704779
:10824000F0B5C64600B541782F4BCA0052189200CF
:108250009C469B185C680600002C0DD04B002B4DF3
:10826000581880002818807A47B2002F1DDB0022A2
:1082700000249046002704E000230027234D984661
:108280004B005B189B00EB1818894246230039000D
:10829000FFF7CCFF0B2812D0002804D1012C19D0F5
:1082A00004BC9046F0BD1A48F8E74006DFD4A0B2FF
:1082B000170080466046083767448458E1E77278C3
:1082C000390053009B189B00EB1818894246012384
:1082D000FFF7ACFF72780C2153009B189B00ED1840
:1082E00028890C4AFFF7A0FF0028D9D002220A4BA8
:1082F000C318934305D0082803D0112801D00020CB
:10830000CEE70348CCE7C046EC200020E020002068
:1083100041800000FFFF0000FECFFFFFF0B589B0F5
:108320001A236A4653804A782D4D53009B186A469B
:108330009B00EB1806000C0018890232032301A9E8
:10834000FFF776FF002802D0002009B0F0BD6B4691
:108350005A886378234FD800C01880000830381836
:1083600001A906F0D5FA002827D06178CB005A1869
:108370009200BA185268002A30D11B4D03225B18B4
:108380009B00FA506B4661785A88CB005B189B00C3
:10839000FB185A60637801A9D800C0188000083023
:1083A000381806F0C4FA60783823C100091889002B
:1083B000791824223000A847C6E7607843001B18CC
:1083C0009B00ED18AB7A9B07BED4C3001818800041
:1083D000381824220021FFF719FFB5E7034DCDE738
:1083E000E0200020EC200020C9A301004DA40100E2
:1083F00070B506004A780C4CD3009B189B000D000A
:10840000E01824223823310002F062F8002807D156
:108410006A78D3009B189B00E4186368013300D08E
:1084200070BD6060FCE7C046EC200020F0B54F4610
:108430004646D646C0B54D4E1F00336890B08046C4
:1084400089469246002B46D0189B742B43D8484B44
:108450006A46019300231374189B0997089300241C
:10846000444D02E00134072C11D0A1B202AA280029
:1084700001F07EFF0028F5D1082202A9404606F04F
:1084800047FA0028EED1E4B201ADAC7003E001ADD3
:10849000AC78FF2C1FD04B46032B2DD0364BFB1A4C
:1084A000C32B1ED9354BFB1A1B2B30D800236B7006
:1084B0000AAB09931823089308334A46022A4FD07F
:1084C000022213436A46137407AB0593524633687E
:1084D00004A92800984710B01CBC90469946A246B3
:1084E000F0BD53462649002B0BD00B680122A24059
:1084F00093430B602023E0E7189B742B2ED043237B
:10850000E0E70122A2400B681342E4D0EEE71D48E9
:108510003B1A232B0FD91C4B9F42F0D01B4BA200C0
:10852000D3589F42D7D11A4BDA7A4023A242C4D102
:1085300000226A70C1E730236A46137400236B700F
:108540000133EB70124B9A7A30239207B5D4242270
:108550000021FFF75BFE6B461B7CAEE72323B1E7F0
:10856000012213436A461374AEE7C046B8200020C8
:1085700000FFFFFFE02100201C210020C42000207C
:1085800018210020EC20002074EA01009C2000202B
:10859000E020002000207047002070470020704736
:1085A0000020704770B506004A780C4CD3009B1829
:1085B0009B000D00E01824223823310001F088FFD1
:1085C000002807D16A78D3009B189B00E4186368E1
:1085D000013300D070BD6060FCE7C046EC20002095
:1085E000F0B5C64600B541782F4BCA00521892002C
:1085F0009C469B185C680600002C0DD04B002B4D50
:10860000581880002818807A47B2002F20DB0022FB
:1086100000249046002704E000230027234D9846BD
:108620004B005B189B00EB18188942462300390069
:10863000FFF7FCFD0B2815D0002803D0012C1CD01F
:108640001B4802E0012C18D0002004BC9046F0BD6D
:108650004006DCD4A0B21700804660460837674465
:108660008458DEE77278390053009B189B00EB18A2
:10867000188942460123FFF7D9FD72780C21530077
:108680009B189B00ED1828890A4AFFF7CDFD0028AA
:10869000DAD00222084BC3189343D1D00828CFD098
:1086A0001128D1D10248D0E7EC200020E0200020A2
:1086B00041800000FFFF0000FECFFFFFF0B589B052
:1086C0001A236A4653804A782D4D53009B186A46F8
:1086D0009B00EB1806000C0018890232032301A945
:1086E000FFF7A6FD002802D0002009B0F0BD6B46C0
:1086F0005A886378234FD800C01880000830381893
:1087000001A906F005F9002827D06178CB005A1896
:108710009200BA185268002A30D11B4D03225B1810
:108720009B00FA506B4661785A88CB005B189B001F
:10873000FB185A60637801A9D800C018800008307F
:10874000381806F0F4F860783823C1000918890059
:10875000791824223000A847C6E7607843001B1828
:108760009B00ED18AB7A9B07BED4C300181880009D
:10877000381824220021FFF749FDB5E7034DCDE766
:10878000E0200020EC200020C9A301004DA401003E
:10879000F0B5DE4657464E464546E0B587B00190F7
:1087A00000286DD000223E4B01261A605A729A7240
:1087B00001233C4876428372073200210681C6724B
:1087C000FFF724FD242200213748FFF71FFD374B18
:1087D00000259A461C00364BFF279846354B9B4692
:1087E000012399462000062200211130FFF70EFDDB
:1087F000102200212000FFF709FD4B464246AB4006
:10880000126859469A431300424613600022AB0097
:10881000CA50294B27745E550135A77626831C3430
:10882000072DDFD1254B264D0393264B290002A8A7
:10883000029301F027FD00281BD14B46224E3370D6
:10884000019B1B78002B1DD100245746A1B204AA1E
:10885000280001F08DFD002300281CD11C2204A952
:10886000380001F035FE002817D101341C37072CE1
:10887000ECD107B03CBC90469946A246AB46F0BD51
:108880001248F6E702AB9988DB882800594389B281
:1088900001F078FEEDE73370EBE700233370E8E793
:1088A000B8200020E0200020EC2000201C21002027
:1088B000182100209C2000201021002074000700B7
:1088C000E02100202D840100172100200E800000EF
:1088D000F8B5194B05001B780C00002B01D1174887
:1088E000F8BD00280AD0002908D00B68002B05D05D
:1088F000134E3768002F03D01248F1E71248EFE714
:108900003000053108C0052206F011F82379022055
:10891000B37201230421327A9A430243D2B28A43CA
:1089200032720122F3791343DBB20343DBB28B4390
:10893000F37100202F70D3E717210020088000007A
:10894000B8200020048000000E800000F0B5DE4654
:1089500057464E464546FF23E0B58FB00393B44BD0
:1089600004001B78002B3FD0B24F3B689A46002B87
:108970003AD005AD031D6B602A232B81AE4B0493C7
:108980000388102B00D16DE1FF218288AB4E944605
:10899000B27A8946910705D5A9498C452BD03189F2
:1089A000614528D0113B9BB2412B1DD8A5499B00A6
:1089B000CB589F4613232B700023994604AB98464F
:1089C0004A4629004046D0472B78122B0CD1B37A67
:1089D000012B09D00123B372023B3381F3720722CA
:1089E00000213000FFF712FC0FB03CBC90469946C6
:1089F000A246AB46F0BDF17A894604A988464846AE
:108A00008870002140464170CCE701217B7A88467E
:108A10008B437B72042313319A43B2722970A1797C
:108A2000002900D0A8E1E1790B42C5D04B46FF2BCD
:108A3000C2D008231A43E37AB2729B070AD54B4689
:108A40004A464146DB009B1A7F4A9B00D3189A7E18
:108A50008A439A76F37AFF2BAED03378022B00D17B
:108A6000A3E2794B4A469A464B46DB009B1A316893
:108A70009B0053441961B1889A7E9982B1799975A6
:108A800002218A439A764B466A4608AC93809188C5
:108A90006E48220001F06CFC04AB9846002836D1E9
:108AA0005A7853009B189B00F3189B7A5B0600D4FE
:108AB00078E2674B994643469B781C22D900C91A35
:108AC0008900514400232000C847002812D14346A2
:108AD0005A78403053009B189B00F318997A8143D1
:108AE0009972D100891A5B4B890059181C221C23EA
:108AF0002000C84743461A78414653009B189B0004
:108B0000FB189B7A544A9B009B58200098473B686F
:108B10009A460023994653E7A379112B02D11307F4
:108B200000D5B0E180235B421A4395332B7004AB30
:108B30009846B272BB7A494A9B009B584046984778
:108B40003B689A46002399463AE7BB7A434A9B0022
:108B50009B5804A8984747E702231100082499432B
:108B6000B172144000D1D5E004AA4BB29046002B5C
:108B700000DAD5E11023B37202332B70002399463B
:108B80001EE713232B7004231A43F37AB272FF2BD0
:108B900000D0ADE02C4A9246927EFF2A00D131E20D
:108BA000362251468A5CFF2A00D14FE252228A5C6B
:108BB000FF2A00D14CE26E228A5CFF2A00D14BE2F0
:108BC0008A228A5CFF2A00D144E2A6228A5CFF2A1C
:108BD00000D145E2C2228A5CFF2A00D13EE2204A4F
:108BE00091460022D900C91A89001A4B51440B92B0
:108BF0000C910D92089309920A92A0883A1D08AB35
:108C00000021FFF70DFB002800D0EDE63B689A46F7
:108C100004AB9846D4E6F37AFF2B00D1BFE00A4BB1
:108C20000C499A46002352466046FFF7FBFADBE602
:108C300017210020B820002000FFFFFFE0200020C7
:108C4000FFFF00006CE901001C210020E021002052
:108C50004DA40100C420002098EA010078EA010038
:108C6000438000000122DA4E9246B37A1A4200D1C4
:108C7000BAE60223B3720F332B7004AB984600237D
:108C800042465370838807223381831D19003000C8
:108C9000994605F04CFE5246237D1A4200D1D0E0A1
:108CA000CC4A5B08D35CFF2B00D136E10A22039348
:108CB00099B2B2724246F3729370C74808AA01F0A3
:108CC00057FB002800D022E743465B7808A9D8006C
:108CD000C01AC24B800018181C221C2301F0F8FB9C
:108CE000BB7ABF4A9B009B58414608A898470EE7AD
:108CF0001623BC481A22002108302B70FFF786FA91
:108D00004022B37A134300229146B74AB372924687
:108D1000F37A66E704AB98464B46FF2B00D129E770
:108D20004A46DB009B1A9B009A46AF4B50469B4637
:108D30001130DA44062200215844FFF767FA102266
:108D400000215046FFF762FAFF23524613749376D0
:108D500001225346524248461A8301238340A349C5
:108D6000086898434B4608609900A14BCC50434695
:108D70009A703B689A46FDE66A46F37A9648938075
:108D8000918808AA994601F0F3FA002800D191E0F1
:108D9000A37999463B689A4604AB984610E69249F7
:108DA000E3898A46098B994200D15DE15146898E5B
:108DB000994200D156E150215046415A994200D182
:108DC0005AE16C21415A994200D153E18821415A1C
:108DD000994200D14CE1A421415A994200D145E188
:108DE000C021455A00219D4200D01BE706310823CF
:108DF000C8B21A4302AB0391F072B272987289B290
:108E000008AA754801F0B4FA002812D102AB5B7AC7
:108E10001C22D800C01A714B8000181808A91C2306
:108E200001F056FBBB7A6E4A9B009B5804A908A828
:108E30009847F37AFF2B00D020E1A38800219C46BD
:108E4000F0E60023684C9A46103407E001239C4664
:108E5000E24453461C34072B00D158E6072249460A
:108E6000200005F055FD0028F0D153466A460393D3
:108E70005346082113711379B27A68460A43514662
:108E80008180818815E757481A2200210830FFF7B2
:108E9000BDF9162360222B70B37A13430222B372FA
:108EA0007B7A13437B723B689A460023994604AB56
:108EB000984685E5742108A801F064FB83460028E4
:108EC00000D065E74B464A46DB009B1A9B00464AAA
:108ED0001800924611305044062200210193FFF7FA
:108EE00095F9019B10229C46E24400215046FFF771
:108EF0008DF95246FF2313749376013BFF3B138396
:108F0000494643468B40394A116899434B461160A4
:108F10005946374A9B0099503AE7FF210A22C8E692
:108F20006A464B4608AC938091882B48220001F09A
:108F30001FFA002800D01CE743465A7853009B18BC
:108F40009B00F3189B7A5B063FD52A4B9946434614
:108F50009B781C22D900C91A234B8900591820007C
:108F60000023C84700280FD1434659780C234B43B0
:108F7000F3189A7A403082439A721C225143174B5D
:108F8000200059181300C84743461A784146530039
:108F90009B189B00FB189B7A174A9B009B5820004C
:108FA0009847E6E6154B994685E50F4B4A469A46A3
:108FB0004B460121DB009B1A084A9B00528A53440E
:108FC0001A839A7E8A439A765DE50D4B9946BEE7F1
:108FD000E020002010210020E0210020C4200020FB
:108FE00088EA0100EC2000201C210020182100202C
:108FF0009C2000204DA4010098EA0100C9A30100B3
:109000003582010000223378022B1CD0D300991A3C
:109010008900514408001030844630680861604679
:10902000B1888180B1798171FD219B1A9B005344E5
:10903000997603AB1A7002AB1B7904AA93700022D5
:10904000F3729146CDE5FE21D300EEE70122DAE787
:109050000222D8E70422D6E70322D4E7F93AD2E77E
:109060000522D0E70121C2E60021C0E60521BEE6C7
:109070000421BCE60321BAE60221B8E6A38801492F
:109080009C46CFE5C420002082B00190019B002BBC
:1090900014D0019B0A48013B01930138C046C046E9
:1090A000C046C046C046C046C046C046C046C04690
:1090B000C046C046F1D1019B002BEAD102B07047F7
:1090C000E703000029DF704728DF7047F0B5454609
:1090D000DE4657464E46E0B55A4D85B02C78012CF9
:1090E00066D0002C4CD0022C15D0032C0CD1564B42
:1090F0001868FFF7E9FF021E06D0112860D1082387
:10910000524A11680B43136005B03CBC9046994627
:10911000A246AB46F0BD4D4B9A461B6803934C4BA1
:1091200098461B789E00F6188023B6005B051969E7
:10913000464437690904090C38009B4605F072FA69
:10914000414B814618605B461969F088013F09046C
:10915000C019090C05F066FA81452CD00323039C45
:109160009C4353461C603B4B1B68002B02D10233CF
:10917000234240D00022384B1A7000F007FBC3E7AF
:10918000364B1C60364B1C60314B5A78002ABBD0E2
:1091900019788A00521892009B18D988314A1B7995
:1091A0001160032B24D0042B22D0012BACD12B70C7
:1091B00000F090FCA8E70123039A9A431443D0E7F8
:1091C000234F387884002418A4003E19F06873698E
:1091D00031794600361823480C3400683C19009059
:1091E0002148B60036582000B04704232B708BE787
:1091F00000F03CF888E7184A48461370FFF764FF10
:10920000021E00D180E7112804D108231C435346D5
:109210001C6079E74346187884002418A4002000D5
:109220001E1973693179F6680C307400A4190D4E5B
:10923000A4003668404400960B4EA459A04704236E
:109240002B7061E7EC220020D0220020D4220020E5
:1092500004220020D8220020ED220020E822002055
:10926000E4220020E8210020EC210020F0B5574640
:109270004E464546DE46E0B55D4A83B011788B0028
:109280005B189B00D318DA681F699146802252054B
:10929000116990464A4652004A449000554A1E8938
:1092A00012181089548952684443A418DA88524B22
:1092B00095199B46924600235A4609041360090CEF
:1092C0003800ED1905F034FA00295FD143461B69D7
:1092D0009BB29A4544D0AC4200D177E04B46032B79
:1092E0003ED043461969B8190904090C05F020FA63
:1092F000424B89081960434619690904090C280082
:1093000005F016FA002925D08026760531693369E3
:1093100089B29946A0B205F085F96A464B46804667
:10932000D380AFB2D188380005F07CF943466A4655
:10933000D380D38880B283423FD03469316938000A
:1093400089B205F0F5F95B462404240C89B2641A4D
:10935000A4081C6002222A4B1A70FFF7B7FE0EE029
:1093600080235B05196938000904090C05F05AF9D6
:109370000322244B1860224B1A70FFF7A7FE03B09C
:109380003CBC90469946A246AB46F0BD4B46032BEB
:10939000E6D043461969B8190904090C05F0C8F963
:1093A000164B8908196043461969AC42A5D10222BF
:1093B000134B1A70FFF78AFEE1E75B4624042D0485
:1093C000240C2D0C641BA4081C60C3E7002EC7D01E
:1093D0004B46032BC4D043461969B8190904090C3C
:1093E00005F0A6F9054B8908196043461B69B1E7EA
:1093F00004220020EC210020F0220020D8220020AE
:10940000EC220020D0220020082170B50C00244A54
:1094100082B013681C4009D08B431360214B224A51
:109420001B789B009B58984702B070BD1F4D2B784E
:109430009800C01880002A18117904292AD0D6680B
:109440005369720092191A4E920036680C300096D9
:10945000184E281896590022B04702212A78930006
:109460009B189B00EB181C71DC80D9601C615C614F
:109470001C816B780132013BD2B26B700A2A06D094
:109480002A7000220C4B1A70FFF720FECCE7002355
:109490002B70F6E70122084B1A70FFF717FEC3E79F
:1094A000D4220020ED220020A8EA0100042200209E
:1094B000E8210020EC210020EC220020802230B5A1
:1094C0005205234B14691B682404013B240C5C43A4
:1094D000204B83B05869431C37D011690904090C2B
:1094E00005F0A0F880235B0519691B4B09040138BE
:1094F000090C41431A682000FFF7E4FD002806D05C
:10950000112806D10823154A11680B43136003B0D4
:1095100030BD134D2B789A00D2189200AC180C3243
:10952000AD18E268636921795400A4180D4AA400BB
:10953000126800920C4AA45802002800A047042296
:109540000A4B1A70FFF7C2FDE1E75069CAE7C0464F
:10955000D022002000100010D8220020D4220020A9
:1095600004220020E8210020EC210020EC22002031
:1095700030B5254B83B05869431C40D080235B0530
:1095800019690904090C05F04DF8040080235B05F6
:10959000186919691A691D4B09041B68000492B205
:1095A000090C013C000C920859436043FFF78AFD07
:1095B000002806D0112806D10823154A11680B434C
:1095C000136003B030BD134D2B789A00D21892006F
:1095D000AC180C32AD18E268636921795400A41804
:1095E0000D4AA400126800920C4AA45802002800F8
:1095F000A04704220A4B1A70FFF768FDE1E78023B9
:109600005B055C69C2E7C04600100010D022002054
:10961000D422002004220020E8210020EC21002098
:10962000EC220020F0B58027284C7F05227839698C
:1096300093009B189B00E3181A89DD881B69AD18FD
:10964000ED18090483B0090C280005F071F8204BCF
:109650000E005869431C37D039690904090C04F01D
:10966000E1FF80235B0519691A4B09041A680B0C8A
:10967000411E594328008919FFF724FD002806D010
:10968000112806D10823144A11680B43136003B054
:10969000F0BD23789D00ED18AD0062190C356419FA
:1096A000D568536911796A0052190C4D92002D68E2
:1096B00000950B4D555902002000A8470422094B84
:1096C0001A70FFF703FDE2E77869CAE70422002079
:1096D00000100010F0220020D4220020E8210020F9
:1096E000EC210020EC220020082330B51F4D83B070
:1096F0002C68234214D1A30702D501231C432C60FC
:1097000002221B4B1A701B4B1868FFF7DDFC002868
:1097100004D011280DD108231C432C6003B030BDA8
:109720009C43134B144A1B782C609B009B58984712
:10973000F4E7124D2B789A00D2189200AC180C3234
:10974000AD18E268636921795400A4180C4AA4009A
:10975000126800920B4AA45802002800A047042275
:10976000094B1A70FFF7B2FCD8E7C046D42200209C
:10977000ED220020D0220020A8EA010004220020CF
:10978000E8210020EC210020EC22002030B5234B02
:1097900083B05869431C3CD080235B0519690904D8
:1097A000090C04F03FFF0300802252051069116983
:1097B0000004013B000C09045843090C04F032FF7B
:1097C000FFF782FC002806D0112806D10823144A8E
:1097D00011680B43136003B030BD124D2B789A0013
:1097E000D2189200AC180C32AD18E2686369217986
:1097F0005400A4180C4AA400126800920B4AA45802
:1098000002002800A0470422094B1A70FFF75EFCF3
:10981000E1E780235B055B69C6E7C04600100010E6
:10982000D422002004220020E8210020EC21002086
:10983000EC220020082370B52B4D82B02C68234207
:1098400009D09C43294B2A4A1B782C609B009B58CB
:10985000984702B070BD0122244B1A70254B5869FD
:10986000431C3DD080235B0519690904090C04F0F1
:10987000D9FE060080235B05186919691A691E4B19
:1098800009041B68000492B2090C013E000C920806
:1098900059437043FFF716FC0028DAD0112803D192
:1098A00008231C432C60D4E7144D2B789A00D2185F
:1098B0009200AC180C32AD18E2686369217954004B
:1098C000A4180F4AA400126800920E4AA45802007D
:1098D0002800A04704220C4B1A70FFF7F7FBB8E7EB
:1098E00080235B055E69C5E7D4220020ED220020BD
:1098F000A8EA010000100010D0220020042200205D
:10990000E8210020EC210020EC220020F0B54E469A
:109910004546DE465746E0B5644B85B01E6898461E
:1099200008231A003240914600D077E0604F3D781E
:10993000AB0003935B199B00FB181A69541EDA886D
:109940001B89A418E41880235B051969594B1B680F
:109950009A46002B45D1584B1B689B4680235B05DC
:10996000196920000904090C04F05CFE834567D3E3
:1099700053465DD0002B5DD1039B9C466544AD00F2
:109980007A19117904296DD02800D46853696200CE
:1099900012194A4C920024680C300094484C381834
:1099A00014590022A04751463A7893009B189B0017
:1099B000FB1819715146D9800221D96051461961AD
:1099C0005961514619817B780132013BD2B27B70DB
:1099D0000A2A4DD03A7000223A4B1A70FFF776FBF4
:1099E00015E0354B09041B68090C20009B4604F068
:1099F00019FE5845B2D14A46334B1A6001231E4323
:109A000043464A461E60314B1A70FFF7BFFE05B051
:109A10003CBC90469946A246AB46F0BD9E434346A9
:109A20001E602A4B2A4A1B789B009B589847EEE7FA
:109A3000002B05D00322254B1A70FFF7F3FDE6E754
:109A40000022214B58461A60204B02321A70FFF751
:109A50003BFB0028DBD011280DD108231E434346D1
:109A60001E60D4E70122174B1A70FFF72FFBCEE7D9
:109A700000233B70AFE73B789A00D2189200BC18E5
:109A800063692179E4680C32BF18620012190B4C2B
:109A90009200246800940A4C145902003800A04730
:109AA0000422084B1A70FFF711FBB0E7D422002004
:109AB00004220020F0220020D0220020E8210020F3
:109AC000EC210020EC220020D8220020ED220020F2
:109AD000A8EA0100F0B54746CE4680B58027444C41
:109AE0007F0526783969B500AB199B00E318DA8841
:109AF00089B283B08A421AD8188959691B699208B9
:109B0000C018FFF7DFFA002806D011282FD108234C
:109B1000384A11680B431360AD19AD006419E2882F
:109B2000354B1A6003B00CBC90469946F0BD3869BD
:109B300059690004000C101A1D893A691B6992B218
:109B4000EB18091892081818FFF7BCFA002806D07D
:109B500011282BD10823274A11680B431360802357
:109B60005B051B69244A1B041B0C1360DAE723788E
:109B70009F00FF18BF00E21953691179D268994616
:109B800094461E4B52001B68624400931C4B92008B
:109B9000D3580C37E719984602004B463800C047A7
:109BA0000422184B1A70FFF791FAB5E723789D004D
:109BB000ED18AD0062190C356419D5685369117937
:109BC0006A0052190D4D92002D6800950C4D5559A3
:109BD00002002000A84704220A4B1A70FFF776FA09
:109BE00080235B051B69044A1B041B0C136099E767
:109BF00004220020D4220020E4220020E8210020BA
:109C0000EC210020EC220020F0B5CE464746082388
:109C100080B5774E83B0346823426DD1754B1A6896
:109C2000571C1F60744B1D68002D28D1734B18788A
:109C30009946802385002D185B051969AB0098466D
:109C40004D4645442B690904581EEB88090CC01881
:109C50002B89C01804F0E6FC874265D3684B60D0BE
:109C60001F68002F00D18BE001231A00224050D141
:109C70001C43644B34601A70FFF788FD44E00421F4
:109C8000604B197080235B051F693F043F0C5743ED
:109C90005D4A5069421C42D019690904090C04F05C
:109CA000C1FC80235B05196901380904090C414393
:109CB0002A003800FFF706FA002825D011285BD0CB
:109CC0004E4D2B789A00D2189200AC180C32AD1879
:109CD000E268636921795400A4184C4AA400126810
:109CE00000924B4AA45802002800A0470422494B86
:109CF0001A70FFF7EBF907E09C43424B464A1B788A
:109D000034609B009B58984703B00CBC9046994622
:109D1000F0BD03223B4B1A70FFF784FCF4E758694F
:109D2000BFE71B68002B9FD10222364B38001A7008
:109D3000FFF7CAF90028E7D011281DD04B461B7841
:109D40009A00D2184B4692009D180C3214006B6991
:109D50002979ED684C446A0052192C4D92002D6807
:109D600000952B4D555902002000A8470422294B8D
:109D70001A70FFF7ABF9C7E708231C433460C3E749
:109D8000297904292BD04046EC686B6962001219CE
:109D90001E4C920024680C3000941D4C4844145909
:109DA0000022A0474B4602211A7893009B189B0083
:109DB0004B44D9601F71DF801F615F611F814B467B
:109DC00049465B780132013BD2B24B700A2A0CD073
:109DD0000A7000220F4B1A70FFF778F994E70122FE
:109DE0000C4B1A70FFF772F98EE700230B70F0E747
:109DF000D4220020D0220020D822002004220020DB
:109E0000F0220020ED22002000100010E8210020A8
:109E1000EC210020EC220020A8EA010030B5154B0F
:109E200083B01868FFF750F9002806D0112806D132
:109E30000823114A11680B43136003B030BD0F4D66
:109E40002B789A00D2189200AC180C32AD18E26848
:109E5000636921795400A418094AA4001268009289
:109E6000084AA45802002800A0470422064B1A7092
:109E7000E3E7C046D0220020D422002004220020A4
:109E8000E8210020EC210020EC220020F0B546461D
:109E9000D6464F46C0B51F4D984608AB1B886E7816
:109EA00094469A4604240A2E2DD02B78F418092CB7
:109EB00000DD0A3C142254432C1920716046606175
:109EC00020000C30914684C984C041465246E1804E
:109ED00022810024104A013611786E70A14212D1FD
:109EE0004F465F43ED190D4BE98819602B79032B21
:109EF00007D0042B05D0012B05D11370FFF7EAFD25
:109F000001E0FFF7B3F920001CBC90469946A24639
:109F1000F0BDC04604220020EC220020E8210020F1
:109F2000F0B5C64600B5764C0425237882B01A00F9
:109F30000600AA4312D0022814D003280ED108200C
:109F400070490A6810425BD0022B52D0032B01D01B
:109F5000012B03D182430A60FFF7B8F802B004BCBA
:109F60009046F0BD022B44D0032B58D0012BF5D1E5
:109F70000821644A1368194200D095E0624D634994
:109F80002B7809689A00D2189200AB18DF887F1AE4
:109F9000BFB2DF80002F00D08BE059690C328C46B5
:109FA0001979DB68A8185A00D218594B92001B681F
:109FB0000093584BD358002298466346C0472A78EE
:109FC00093009B189B00EB181F71DF80DE601F6100
:109FD0005F611F816B780132013BD2B26B702A70D6
:109FE0000A2A01D100232B7000232370FFF76EF89B
:109FF000B4E7494B494A1B789B009B589847ADE70B
:10A0000047490A6801320A60032A55D0022BA3D1BE
:10A01000414B444A1B789B009B5898479EE7082178
:10A02000384A136819423FD13F4B374D1A68571CC5
:10A030001F602B78984680235B05196943469E0074
:10A04000F3189B00EB181A690904501EDA881B8963
:10A050008018C018090C04F0E5FA874200D27BE7AB
:10A0600048D04644B600AA19117904293DD03000E1
:10A07000D668536972009219254E920036680C30EA
:10A080000096244E281896590022B047002102203D
:10A090002A7893009B189B00EB181971D980D8601F
:10A0A00019615961198195E78B431360FFF70EF829
:10A0B00054E7FFF70FFD51E7134F3B789A00D21892
:10A0C0009200BE1873693179F6680C32B8187200C4
:10A0D00092190F4E9200366800960E4E96590D2238
:10A0E000B0472570FEF7F2FF38E701232370FEF733
:10A0F000EDFF33E70D4B1B68002BB2D12CE7C046B8
:10A10000EC220020D422002004220020E42200209F
:10A11000E8210020EC210020ED220020BCEA010013
:10A12000E8220020A8EA0100D0220020F02200202E
:10A1300010B500202C2400220221484B185514345D
:10A14000185502341A5302341A5310341855023475
:10A150001A530234D9601876196259639964D96523
:10A160001A705A701A71DA801A615A611A815A8308
:10A170005A629A629A83DA859A63DA631A86DA6493
:10A180001A651A665A661A531034185502341A534F
:10A1900002341A531034185502341A530634195124
:10A1A00004341A5104341A510C3C1A531034185503
:10A1B00002341A530634195104341A5104341A5112
:10A1C0000C3C1A531034185502341A5306341951E2
:10A1D00004341A5104341A510C3C1A5310341855D3
:10A1E000BA201A52063019501967C2315A50043138
:10A1F0005A500C395A679A675A52194B1A80194BA0
:10A200005869431C26D080235B0519690904090C91
:10A2100004F008FA0300802252051069033B000491
:10A22000000C5843104B0021186000230F4A0020F7
:10A2300013600F4A136013815381D3609382D382DA
:10A240000C4A11700C4A13600C4A136004220C4B28
:10A250001A6010BD80235B055B69DCE704220020E7
:10A26000DC22002000100010E0220020D02200207C
:10A27000EC210020EC220020E8220020E422002033
:10A28000D4220020F8B5CE46474680B5334B0400B3
:10A290001B680D0008205B0703D40CBC9046994650
:10A2A000F8BD002C55D0002953D02368002B50D086
:10A2B000802252051369A6889BB201389E42ECD8D1
:10A2C0000F2EEAD9E388002BE7D07343994624493F
:10A2D000244B0F6858698846B944431C3BD0116928
:10A2E0000904090C04F09EF9802149050B691B043F
:10A2F0001A0C431E534307209945CED8B307CCD13F
:10A30000194B03381E889946022EC6D00C2373437E
:10A31000164AC0C5D018476020680136985060685A
:10A32000A5888446E08864460833D45068430A69A7
:10A330000B6992B280180C69013899B204F0FCF9EB
:10A340004346A4B26043C7191F604B4600201E80DD
:10A35000A3E70E20A1E75069C6E7C046D42200203B
:10A36000E022002000100010DC220020EC21002060
:10A37000F0B5134B1C680823640701D41800F0BD26
:10A3800000281BD0002A19D00468013B012CF5D805
:10A3900065000C4E2D19AD00AF59002FEED0751988
:10A3A0002E894068714309186889464368683618E1
:10A3B000B142E3D2146051600023DFE70E23DDE7F2
:10A3C000D4220020EC210020F0B51E4C05002468AA
:10A3D00083B00820640701D403B0F0BD00292ED05B
:10A3E000002D2CD02C680138012CF5D866003419CA
:10A3F000154FA400E659002EEED06E683C19B44605
:10A400002789668964687E433419A445E4D2002A0A
:10A41000E2D09742E0D3D418A742DDDB09308C07A5
:10A42000DAD103242342D7D166462642D4D1009301
:10A430000F3813000A002900FFF728FDCCE70E2093
:10A44000CAE7C046D4220020EC210020F0B51E4C03
:10A450000500246883B00820640701D403B0F0BD70
:10A4600000292ED0002D2CD02C680138012CF5D8D5
:10A4700066003419154FA400E659002EEED06E6820
:10A480003C19B4462789668964687E433419A4451B
:10A49000E4D2002AE2D09742E0D3D418A742DDDB11
:10A4A00009308C07DAD103242342D7D166462642ED
:10A4B000D4D100930C3813000A002900FFF7E6FC02
:10A4C000CCE70E20CAE7C046D4220020EC210020B1
:10A4D000F0B5CE46474680B51600284A05001268FA
:10A4E00083B00C000820520704D403B00CBC904683
:10A4F0009946F0BD00293ED0002D3CD00A680138B5
:10A50000012AF2D81E49894651008A18494692000C
:10A5100089580029E9D061684A448C4611898846E7
:10A5200047465189526879438A189445DDD2002EF6
:10A53000DBD0B045D9D3F2189045D6DB0930AA0755
:10A54000D3D103221342D0D1614611408846CCD1E9
:10A55000634419003200280004F0E9F90C23226852
:10A56000009653434A462000D65802212B0042460B
:10A57000B0474046B9E70E20B7E7C046D4220020D6
:10A58000EC210020F0B5CE46474680B5244B83B081
:10A590001B6805000E0008245B0705D4200003B0EB
:10A5A0000CBC90469946F0BD002837D00368013CAA
:10A5B000012BF3D85A00D3181A499B005A58002A85
:10A5C000ECD04268CB1890465F891A895868574387
:10A5D0003F189146B845E1D2434609349B07DDD187
:10A5E00043461100181A04F0A3F8093C0029D5D1FC
:10A5F0004946300004F09CF889B20029CED1002EE3
:10A60000CCD04346F3189F42C8D3002233000092B7
:10A6100029000320FFF73AFC0400BFE70E24BDE742
:10A62000D4220020EC210020074B1A68082352078F
:10A6300001D418007047002804D0044B5B780360F5
:10A640000023F6E70E23F4E7D422002004220020A2
:10A6500075DF704776DF70477ADF70477BDF7047C2
:10A6600010B5184B82B01888174B984214D0174A6F
:10A67000174C13780133DBB21370217B99420DD252
:10A6800000231370237C002B12D16369002B03D0AD
:10A69000002201A80270984702B010BD0D49FFF7D3
:10A6A000D7FF0028F8D0A369002BF5D09847F3E72F
:10A6B0003B21FFF7CFFF0028E7D0A369002BE4D0B0
:10A6C0009847E2E7F6220020FFFF00004423002025
:10A6D000F82200203C23002030B51B4B1B4A5B882E
:10A6E000118883B099420FD852889A420CD3184BE4
:10A6F0005B69002B03D0012201A802709847154C1A
:10A700000023237003B030BD124C2378002B08D0F7
:10A710000F4B5B69002BF3D0002201A80270984711
:10A72000EEE70D4B0A4D1B78002B0BD0A9680022D9
:10A730000A4801F005F80028E2D0AB69002BDFD011
:10A740009847DDE76968F2E7342300203C230020C6
:10A75000F8220020F42200204423002014230020AB
:10A76000164902000B0070B532CA32C332CA32C376
:10A7700012681A600022124B01681A70002916D064
:10A78000104C0832200004F0D2F82000FFF764FFDC
:10A7900000280BD101220C4B52421A8000220B4B95
:10A7A00000211A700A480B4A00F0B0FF70BD05483E
:10A7B000FFF754FF0028EDD0F8E7C046F82200204C
:10A7C000F42200203C230020F62200204423002015
:10A7D000D0EA010061A6010010B50388112B35D025
:10A7E00021D9122B17D0502B1CD1214CC288E389C0
:10A7F0009A4217D1C38B022B14D11E33C35CDB07E3
:10A800000ED41C4801F012F800280BD0A369002BCD
:10A8100008D0984706E0811D0822174804F087F801
:10A82000FFF75AFF10BD102BFCD101008288134B9B
:10A8300016311A801048082204F079F80022104BD3
:10A840001A700B4BDB89002BECD1E9E701220B4B93
:10A8500052421A8000220A4B06481A7000F0E6FFA6
:10A860000028DFD0024B9B69002BDBD09847D9E74B
:10A87000F82200201423002034230020F622002098
:10A880004423002070B5040008000D0004F058F8BF
:10A890006560208070BDC04671DF704772DF704711
:10A8A00079DF70477DDF704765DF7047F0B5DE46C2
:10A8B00057464E464546E0B587B09B4610AB91469D
:10A8C00004CB07001B8802910193138890460393E1
:10A8D0000388002B00D16EE000239A4604AB0024CD
:10A8E000DD1C03E03B880134A3422EDD7B68A10020
:10A8F0009C460422614405A804F019F800222900AE
:10A9000005A8FFF7D1FF061E2BD12B784B45E9D1C7
:10A910005346002B2DD043461A884B460199D31835
:10A920008B421DDC5A44290005A8FFF7BDFF002813
:10A930003BD142462B78128801349B184246138043
:10A9400001239A463B88A342D0DC5346002B32D0E9
:10A9500043461B88039A013B9B1A9BB2FF2B26D9C7
:10A960000C26300007B03CBC90469946A246AB4648
:10A97000F0BD43464A461B8801999A1802328A4222
:10A98000EEDC4246013369469BB213805A46097A8F
:10A9900005A8D15443461A882900013292B21A8080
:10A9A0005A44FFF781FF0028C3D00600D9E7110001
:10A9B0005A465354D5E70026D3E7C046F0B557466C
:10A9C0004E464546DE460023E0B517881380436BAC
:10A9D00087B006000D001400002B00D1E2E0022F2A
:10A9E00000D8D7E01A7802230B7011212388013395
:10A9F0009BB22380E954238801339BB22380EA541D
:10AA0000238801339BB22380326B002A00D170E08F
:10AA100019001231B94200D9BCE01121E954238850
:10AA2000013901339BB22380E954238801339BB25F
:10AA30002380D17BE954238801339BB22380917B0F
:10AA4000E954238801339BB22380517BE954238846
:10AA500001339BB22380117BE954238801339BB2DD
:10AA60002380D17AE954238801339BB22380917AE1
:10AA7000E954238801339BB22380517AE954238817
:10AA800001339BB22380117AE954238801339BB2AE
:10AA90002380D179E954238801339BB223809179B3
:10AAA000E954238801339BB223805179E9542388E8
:10AAB00001339BB223801179E954238801339BB27F
:10AAC0002380D178E954238801339BB22380917885
:10AAD000E954238801339BB223805178E9542388B9
:10AAE00001339BB223801278EA54238801339BB24E
:10AAF00023802E22B25C002A56D12D22B25C002A7D
:10AB000000D072E0B278002A00D09BE0F278002AF0
:10AB100013D0D91CB9423DD80221E9542388013908
:10AB200001339BB22380E954238801339BB22380F5
:10AB3000EA54238801339BB223807268002A14D020
:10AB4000D91CB94226D802211278E9542388083149
:10AB500001339BB22380E954238852B201339BB264
:10AB60002380EA542388013323803389002B00D0CB
:10AB700092E1338A002B00D0AAE1338B002B00D066
:10AB8000C0E1336A002B00D1BFE02288911DB94299
:10AB900000D878E00C2007B03CBC90469946A2460D
:10ABA000AB46F0BD00232FE7D91CB942F2D80221F1
:10ABB0001C20E954238801339BB22380E854238866
:10ABC00001339BB22380022A00D1BAE100D8B3E15D
:10ABD000032A00D1B8E1042A00D077E10322EA5425
:10ABE000238801339BB2238087E709330C20BB42C3
:10ABF000D1D804A8FFF750FE0028CCD10822238822
:10AC00000921EA542388133201339BB22380EA548A
:10AC100002AB9C462088153A013080B22080614406
:10AC2000281803F084FE238802AA0633127A9BB206
:10AC30002380002A00D00122EA54238801339BB2EA
:10AC400023805FE704330C20BB42A4D804A8FFF79D
:10AC500027FE00289FD103222388EA542388163236
:10AC600001339BB22380EA54238802AA01339BB2AA
:10AC700012892380EB181A70120A5A702388023343
:10AC80009BB2238042E719888A46052900D81DE136
:10AC9000B248504480B28046B1488446804500D8CE
:10ACA00014E158888146052800D80FE1AB48694671
:10ACB0008046C8444046C881C889604500D805E13F
:10ACC000A848824504D0814502D0CA4500D9FDE09C
:10ACD0000521A95422880D31013292B22280A95453
:10ACE0002288013292B222801988AA181170090AAA
:10ACF00051702288023292B222805988AA181170AB
:10AD0000090A5170238802332380736A9846002B06
:10AD100030D0998820888A1C831C9B18BB4200D99C
:10AD200038E7FE2A00D935E7FF220331295423886A
:10AD300001339BB22380EA544246238801339BB2FD
:10AD400023801288EB181A70120A5A704346208822
:10AD5000023080B220809A88002A0BD0996800299E
:10AD600000D1B3E0281803F0E2FD42462388928820
:10AD70009B1823802C23F35C002B3BD133780020DD
:10AD8000002B00D107E732880720012A00D102E713
:10AD90002288901CB84200D9FCE6012B05D17378BB
:10ADA00002339B189F4200D2F4E6023FBA1A04AF66
:10ADB00093B22818390098463B80FFF773FD0028AE
:10ADC00000D0E8E63378022B00D1BFE0012B5ED043
:10ADD00043460821FE2B00D9DCE622885E1CAE54D7
:10ADE0002288013292B22280A954228801329B1813
:10ADF0002380D0E6B36A9846002B67D09B88023345
:10AE0000FE2B00D9C6E60022914616329246163233
:10AE1000208893460CE04B46B26A5B0090464B4458
:10AE20009B00984443469B880233FE2B00D9B1E631
:10AE3000524601332B54238801339BB22380EA54BA
:10AE40004246238801339BB223801288EB181A7084
:10AE5000120A5A7043462088023080B220809A88B5
:10AE6000002A0BD09968002930D0281803F05FFD24
:10AE7000434620889B88C01880B220804B4601330F
:10AE8000DBB299465B46F35C4B45C4D876E77378F2
:10AE900098459ED243469CE708239846B0440197C4
:10AEA00000942B00022202214046FFF7FFFC0028FD
:10AEB00000D070E6019700942B0010220621404636
:10AEC000FFF7F4FC002800D153E664E6072062E6B1
:10AED00010239846B044019700942B0002220321CE
:10AEE0004046FFF7E3FC002800D054E601970094A9
:10AEF0002B00102207214046FFF7D8FC002800D184
:10AF00003BE648E618239846B044019700942B008E
:10AF1000022214214046FFF7C9FC002800D03AE67F
:10AF2000019700942B00102215214046FFF7BEFC2C
:10AF3000002800D125E62EE6012AC7D10022EA54D6
:10AF40004EE60122EA544BE6E95449E63B880921E2
:10AF5000984500D33EE743463BE7C0467FF3FFFFFB
:10AF60007DF30000FFFF000030B593B01F236A4659
:10AF70000C009380D380002822D0C3785B071CD5B7
:10AF800001AA02A9FFF71AFD02AD002816D1002C74
:10AF900019D0E378002B10D16B460AA99A1D200026
:10AFA000FFF70CFD002809D16B469B790AAA694678
:10AFB00028000979FFF772FC00E0072013B030BDCC
:10AFC00090800025E3E76B460022DC800023EEE75B
:10AFD0001D4B1B78012B00D070471C4B1B681B07B7
:10AFE000FAD1F0221A4B1B68134018D1194B1B6879
:10AFF00013421CD0154B1B681B07EDD1F022144BDC
:10B000001B681340402BE7D1124B1B681342E3D15E
:10B01000C12380220121DB00D205D150DCE7102BB7
:10B0200001D0302BEAD10B4B1B681342E6D10A4A00
:10B030000A4B1A6080220A4B12021A60024B1B78DC
:10B04000012BD7D0C8E7C046E00F00F0E40F00F0B6
:10B05000E80F00F0EC0F00F0DFFF07C00405004030
:10B06000186C004080218023184A8902D150802228
:10B07000D221174B520289005A5040395A500122AE
:10B080002F205A600138C046C046C046C046C04660
:10B09000C046C046C046C046C046C046C046F1D1C4
:10B0A0009A6000230B4A2F2013600138C046C04627
:10B0B000C046C046C046C046C046C046C046C04660
:10B0C000C046C046F1D1044A1370704700E100E069
:10B0D000001001405C2300204D230020A021F0B58A
:10B0E0000023C6462C4A490000B553500431535042
:10B0F00004315350043153504C39535004315350A0
:10B10000264B1B68002B37D0254900265458254A6A
:10B11000254F1268A41A00222402240A904602E055
:10B12000002D1AD02B001A68A24216D8A41AB618FD
:10B130001A7CDD69002AF3D0424699691A745A696B
:10B140003B68002B1BD0100098470028E8D0002255
:10B15000002102F027FE002DE4D11449144A0B7897
:10B1600012789A420ED0134A9B009E508021802371
:10B17000114A49035B00D15004BC9046F0BD080061
:10B180009047CDE70132D3B2022B01D00B70EAE732
:10B1900000230B70E7E7C046001001406423002045
:10B1A000040500005C2300204823002059230020D0
:10B1B000582300205023002000E100E0F0B5DE46D7
:10B1C00057464E464546E0B5C34B8BB00093C34A45
:10B1D0001B68C349019309781378994200D128E18B
:10B1E0000133DBB2022B00D100231370BD4A9B0058
:10B1F0009B58009A9B46019B5B441B021B0A1360F1
:10B2000001230393B84B00241B681F000993B74B1D
:10B21000BC461B781A000293B54B92461B680493F8
:10B22000009B1B680693B34B1B780593002399463C
:10B23000089307935346013BDBB29A46FF2B5DD040
:10B240005346D800049B9846404402784578AA4269
:10B25000F0D04168530088469B1881780132DB00AA
:10B26000D2B2434491422BD0197802290DD0032940
:10B27000EDD1002FEBD03C74FF69002FFBD10123EF
:10B280009946002345789C46E1E75E68002FDED0B2
:10B290003900BE4201D115E01900CB69002BD6D090
:10B2A0009E42F9D18E420ED0F3693568CB61002BF6
:10B2B00014D019686746884645441D604578C6E73E
:10B2C0000022D1E73E00FF69002F09D001239946F3
:10B2D000F3693568BC46CB61002BEAD14578B6E707
:10B2E0000125854B9D6000239C46013399460893B8
:10B2F000002306934B4607930593D5E7079B002B46
:10B3000000D09AE0089B002B02D0009B069A1A609E
:10B310004B46002B02D06246734B1A60039B002BF6
:10B3200000D0D0E0099B0025DB1B5A1E9341DBB205
:10B33000039300226F4B94461B783E000593009BBD
:10B3400000921B686D4A984692460122664B06970A
:10B350001B6891469B46029B4746013BDBB202932A
:10B36000FF2B00D199E0049ADB0090469844002D11
:10B3700025D06B68A9682C00ED69DA1B1202120A4D
:10B3800052454ED85218226063466360A3604B4614
:10B3900023746346E361002E6ED031683000914221
:10B3A00004D361E0196891424CD21800C369521A63
:10B3B000002BF7D12260E361C461002DD9D143464F
:10B3C000404659781B78019599425ED044685A00EE
:10B3D000A046D21884780133D200DBB24244037015
:10B3E0009C424ED01478012CEED15468257CA8469E
:10B3F000002DE9D14346019D019393688046636027
:10B40000D168A1601069E0605269A261059A002AC2
:10B41000B3D0019B63600023DA1B1202120A52456B
:10B42000B0D9FB1A1B021B0A8B4211D2CA1A226026
:10B43000AAE700239B460393E4E66A462D4B127D60
:10B440001A705FE7891A19602260E361C461B4E78A
:10B45000634623606360A3604B4623746346E361E5
:10B46000002E09D00022316801238A1A3260A346D7
:10B47000E661009326007AE70123A34626000093A5
:10B4800075E7634603700023ACE7029B019D013B17
:10B49000DBB20293FF2B00D065E7009BB8465A460B
:10B4A000069F002B00D0A9E0B74246D1039B002B9A
:10B4B00043D100230F4A13700BB03CBC9046994611
:10B4C000A246AB46F0BD084B00201B6800250021BA
:10B4D00000245E4629E0C0465C230020582300205B
:10B4E00059230020502300206423002060230020E3
:10B4F000682300204C23002000100140FEFF7F0045
:10B500003A68B24200D97CE0F868B61A89183C6003
:10B51000FB69002807D0FD613D00019AB860521810
:10B520001202120A7A601F000398002FE8D1002847
:10B5300000D1FEE6374A1360FBE6002E00D15AE048
:10B54000354A3648364C815842468A1A12022578C6
:10B55000120A33680332002D2CD0934200D213001C
:10B56000A82443442D481B021B0AE4002A4D035122
:10B5700042595B1A521A1202120A1B0203321B0AA8
:10B580009A4296D9435903512F200138C046C046EC
:10B59000C046C046C046C046C046C046C046C0467B
:10B5A000C046C046F1D1802180231E4A89025B003B
:10B5B000D1507EE78025D1266D02B6008551403EF0
:10B5C0008551C0278026174DB6027F00EE512E60B0
:10B5D000012505602F200138C046C046C046C04640
:10B5E000C046C046C046C046C046C046C046C0462B
:10B5F000F1D12570B1E7FFF735FD5AE7054B1A6029
:10B6000052E7B346002801D002490B605B46D21ACC
:10B610003A608EE66423002004050000001001401B
:10B620004D23002000E100E0F8B503264746CE4652
:10B63000350080B580460F0014009946154007205C
:10B64000002D03D00CBC90469946F8BD002A44D08A
:10B65000FFF708FD4A46224B80211A60214B7A00F1
:10B660001E70214BD2191C602300D2001833636076
:10B670009B18E3609B18C022C5206361257065702C
:10B68000A77025726572A77225746574A774FF246C
:10B69000164B49031D60164B52001D70154B800060
:10B6A0001D70154B99501A58A2433F3C22431A5023
:10B6B000A1221960C42441461048D2008150A40040
:10B6C0001A590F491140C02212020A431A510D4B58
:10B6D000C2580D4B00201A60B4E7034B1A60B1E763
:10B6E00048230020602300206823002064230020DA
:10B6F000582300205923002000E100E00010014001
:10B70000FF00FFFF040500005C23002010B50B4B79
:10B710001B68002B0BD0002A07D0002805D0036837
:10B7200008201C7C002C04D010BD0720FCE708205A
:10B73000FAE759745A610020F6E7C04668230020F2
:10B74000F0B5344B1C68002C06D0002804D0072329
:10B75000042903D81800F0BD0823FBE74369002B38
:10B76000FAD0437C0025012B43D02B4B10265B687D
:10B77000DB05DB0D25D1A4196378A6785F1CFFB229
:10B78000BE423AD02678BE4235D05E00F6186368D5
:10B79000F6009C4666440423002EDBD0033B337046
:10B7A00070601E4B1E48C358F160B3608021802337
:10B7B00072611C4A5B00490335616770D1500023F8
:10B7C000C8E7103B5EB2002E19DBB608C036154F35
:10B7D000B600F75903263340DB00DF40BB09334096
:10B7E000DBB20026012BC6D00836032BC3D00836A7
:10B7F000C1E70D00B9E70423ACE70027C2E70F2635
:10B80000094FDBB2BC461E40083EB608B60066448F
:10B810007768DFE76823002000ED00E00405000002
:10B820000010014000E100E018ED00E010B52C4BE5
:10B8300002001B680820002B2AD0002A28D051695A
:10B84000002925D000211174264908304968C9050E
:10B85000C90D1ED11B1858789C78411CC9B28C4266
:10B8600031D01C788C422CD0440024185868E40055
:10B87000844664440420002C0AD0023820706260A0
:10B880005970802180230020174A49035B00D15062
:10B8900010BD103948B2002817DB8008C030124CA8
:10B8A0008000045903200140C900CC40A109014097
:10B8B000C9B200200129CDD008300329CAD00830F0
:10B8C000C8E70420E4E70021CBE70F20074CC9B20A
:10B8D000A446084008388008800060444468E1E7D6
:10B8E0006823002000ED00E000E100E018ED00E03A
:10B8F000A0DF7047A2DF7047F0B557464E46454679
:10B90000DE46E0B591B00190894690469A460029FE
:10B9100051D04346002B04D100220021002002F028
:10B9200041FA022509AC1C2200212000FCF76EFC24
:10B93000237803AF2B43237001239B46BB706B46D8
:10B9400000269B880322002102A83B806660E660F7
:10B9500026616661A661FCF759FC53461B7802AA72
:10B96000137053465B7800215370937806229343FB
:10B970002B43E7251D405B469D4302AB9D7004AD04
:10B980000E322800FCF742FC02AB6B6043462B8171
:10B99000AB814B462B610B4B2A00188821001A9B68
:10B9A00004976E81FFF7A6FF11B03CBC9046994604
:10B9B000A246AB46F0BD00220021002002F0F2F9C1
:10B9C000A7E7C046A4230020F0B55746DE4645460B
:10B9D0004E460123E0B595B004A98B70A34B05003A
:10B9E0000B80A34B01201A009A46FFF781FF071E28
:10B9F00000D0E6E02A88002A00D0F7E02A89002A51
:10BA000000D001E12A8A002A00D009E12A8B002A0D
:10BA100000D011E12A8C002A00D019E12A8D002AD9
:10BA200000D0D6E02B6B002B64D06A461978022632
:10BA3000117669461A680DAC120A4A765A882000B7
:10BA40008A76DA78CA766A461979117769469B68E8
:10BA500053771A0A1B0C8A77CB771C220021FCF73C
:10BA6000D5FB237800213343237000239B4663607A
:10BA7000E36023616361A361013399466B464A46E3
:10BA80009A756A467B4B03A893820322FCF7BEFBA0
:10BA90003C236A46EB5C002113732B003C335B783C
:10BAA0005373937B062293431E430823F6B29846B2
:10BAB0009E4308339E434B469E436B469E7308AE9F
:10BAC0000E323000FCF7A2FB05AB089303AB7360AA
:10BAD000434633815B4673814346B38106AB336192
:10BAE0005346320018882100634BFFF703FF0028FC
:10BAF00000D079E06B6B002B0AD01A7919685F4B84
:10BB00005F4800932B003C33FFF7F6FE00286BD113
:10BB1000AB6B002B55D0694602261A780DAC0A761D
:10BB20005A8820004A76120A8A769A8803AFCA7623
:10BB3000120A0A77DB881C224B771B0A8B770021BD
:10BB4000FCF764FB237800213343237000239946DC
:10BB50006360E36023616361A36101339B466B46CD
:10BB60005A469A756A46474B380093820322FCF77F
:10BB70004DFB3C23EB5C06223B702B003C335B7897
:10BB800000217B70BB7893433343E7261E405B461E
:10BB90009E43BE7008AE0E323000FCF737FB05AB9B
:10BBA000089307233381B38106AB4A46336153467A
:10BBB000728118883200344B21007760FFF79AFEBB
:10BBC0000700380015B03CBC90469946A246AB46EB
:10BBD000F0BD2E4BE96A00932B002D483C33FFF754
:10BBE0008BFE002800D11DE70700EAE7294B6968B2
:10BBF00000932B0028483C33FFF77EFE0028F3D14A
:10BC00002A89002A00D1FDE6244BE96800932B0025
:10BC100023483C33FFF770FE002800D1F2E6E3E74B
:10BC2000204B696900932B001F483C33FFF764FEEB
:10BC3000002800D1EAE6D7E71C4BE96900932B0006
:10BC40001B483C33FFF758FE002800D1E2E6CBE763
:10BC5000184B696A00932B0017483C33FFF74CFEE2
:10BC6000002800D1DAE60700ABE7C0460A1800005A
:10BC7000A4230020232A0000B023002094230020C6
:10BC80002A2A0000502A00008C230020A82300202C
:10BC9000282A00007C230020292A00008423002079
:10BCA000242A00009C230020252A00007423002061
:10BCB000272A00006C230020262A000070B54425A6
:10BCC000164C0820635D002B00D070BD4022FF2180
:10BCD000013BA3540132A1540132A3542362013227
:10BCE0006362A362E36223636363A363E363FC3978
:10BCF0000238A35423606360A360E360236163613F
:10BD0000A361E36101F05AFF8021C123044A9B0033
:10BD10000906D150012300206355D6E7B82300203F
:10BD2000006000404423034AD05C431E9841C0B2E7
:10BD30007047C046B8230020F0B5C64600B5504C49
:10BD40000825231820331E787F2E03D8280004BC32
:10BD50009046F0BDCD78AC46002D33D00425A846E2
:10BD600025680126013500D185E0B500635901330E
:10BD70002FD0731C9D00675901372BD0B31C43454E
:10BD80001ED29D006759013724D0F31C434517D2BA
:10BD90009D00675901371DD0331D434510D29D00CA
:10BDA0006759013716D0731D434509D29D00675965
:10BDB00001370FD00636464502D2E36901333ED043
:10BDC0000425C3E72569013530D0082305269846A8
:10BDD000CBE733006251624627185EB220373E70CF
:10BDE000002A28D08B78002B14D10300A0254A7894
:10BDF000C133FF3392009B00ED055A51CB78002BE5
:10BE000020D1A4193C340B7822789B011343237072
:10BE100000259BE7A022D2059446E0250227830057
:10BE20006344ED005A59BA435A51E7E70425042602
:10BE30001D7004232261E3183C331870D2E70723F6
:10BE40001C25C7E70F4AB6009446A2226644D200DA
:10BE50000B780D4CB15800022140F82464012040B9
:10BE6000C024B1501B04A402B15823401843084316
:10BE7000B05000256AE7002622601E70B2E7C04677
:10BE8000B823002000600040FFE0FCFF0023F0B575
:10BE9000254C22182032D356032B18DDE3183C33EF
:10BEA0001B789B09032B33D0012B3AD0C025AD0260
:10BEB000A023DB059C46E02380006044DB00C158E2
:10BEC0001A4C2140C150C2582A43C250F0BDD8B2CA
:10BED0000328FBD8164DA227AC46012698006044E3
:10BEE000FF00C5593543C55118006546002740304D
:10BEF000800080B247510029E8D0127852B29200F7
:10BF00001259002AE2D09E40C1239B00EE50DDE78B
:10BF1000A223A022DB00D205D258012383401A427B
:10BF2000C4D18025AD02C3E7B8230020FFFFFCFF8A
:10BF30000060004010B5144B1B1820331B785BB217
:10BF4000032B12DCDAB2032A0ED8104AA22494463C
:10BF5000012299006144E400085990439A40C223A9
:10BF6000085161469B00CA5010BDA023DB059C46CA
:10BF7000E02380006044DB00C25805490A40C250FB
:10BF8000C258C250F0E7C046B8230020006000400D
:10BF9000FFFFFCFF2021F0B5254B1A18515603294D
:10BFA00027DCCAB2032A32D8224CA227A446012495
:10BFB0008D006544FF00EE599200A643EE51C22663
:10BFC0008C406546B600AC5100244531FF318900F4
:10BFD0004C510100A0240225C131FF318900E40544
:10BFE0000D51012149429950FF221B1820331A702C
:10BFF000F0BDA024E405A446E02482006244E400ED
:10C0000015590D4E3540155115591551CAB201003B
:10C01000A0240225C131FF318900E4050D51012121
:10C0200094009A1849423C3219511170DCE7C0461D
:10C03000B823002000600040FFFFFCFFF0B5D646AB
:10C040004F464646C0B5C84A00241368012B00D1AC
:10C05000BDE0C64B1A68012A00D1C6E0C44B1A687D
:10C06000012A00D1D1E0C34B1A68012A00D1DCE0DB
:10C07000C14B00251A68012A00D1E7E023070BD045
:10C08000E30700D5F8E0A30700D504E1630700D576
:10C090000FE1230700D5E3E0002C04DB1CBC904635
:10C0A0009946A246F0BD4023B44CE1564B1C1ED02D
:10C0B000C9B2C02308009843231820331B785BB211
:10C0C0009B00E658002E12D0A0230127DB059C46DA
:10C0D000E023874082006244DB00D35889099B0338
:10C0E0009B0F3D4200D110E1022B00D178E14123AA
:10C0F000E1564B1C1ED0C9B2C02308009843231838
:10C1000020331B785BB29B00E658002E12D0A02390
:10C110000127DB059C46E023874082006244DB0068
:10C12000D35889099B039B0F3D4200D1D1E0022BDC
:10C1300000D149E14223E1564B1C1ED0C9B2C023B5
:10C1400008009843231820331B785BB29B00E65805
:10C15000002E12D0A0230127DB059C46E023874058
:10C1600082006244DB00D35889099B039B0F3D4248
:10C1700000D10DE1022B00D12CE14323E1564B1CF1
:10C1800000D18BE7C9B2C02308009843231820339D
:10C190001B785BB29B00E658002E00D17EE7A023FF
:10C1A0000124DB059C46E023844082006244DB00DE
:10C1B000D35889099B039B0F254200D1C1E0022B74
:10C1C00000D06BE7032900D110E1B04766E7C12139
:10C1D0006B48890044581C4000D13AE700231360A3
:10C1E000624B1A68012A00D038E7C12264499200E4
:10C1F000895802220A4200D130E7002119605C4BC5
:10C2000014431A68012A00D02DE7C1225C4992002C
:10C21000895804220A4200D125E700211960554BB4
:10C2200014431A68012A00D022E7C122544992001F
:10C23000895808220A4200D11AE7002119604E4BA2
:10C2400014431A680025012A00D017E71D608023D7
:10C250001B061C43A022A223D205DB00D5580DE704
:10C26000474A484BD058D158444B8903C004890FE2
:10C27000C00EDB6898470FE7A223414ADB00D05885
:10C28000D1583E4B8903C0041B68890FC00E9847E4
:10C29000A30700D4FAE63C4B394AD058D158374B63
:10C2A0008903C0045B68890FC00E9847630700D4F8
:10C2B000EFE6A323324ADB00D058D1582F4B890335
:10C2C000C0049B68890FC00E9847230700D4E3E69B
:10C2D000C6E7032B00D02DE7032914D180239B024E
:10C2E0009A46E023DB00D7589946BC46274FB8460C
:10C2F000674643461F403B004F46D351D3595746EC
:10C300001F434B46D750B04714E7032B00D0EEE64F
:10C31000032914D180239B029A46E023DB00D758DF
:10C320009946BC46194FB846674643461F403B00F6
:10C330004F46D351D35957461F434B46D750B0476A
:10C34000D5E6032B00D0A9E6032900D03DE78027DE
:10C35000BF02E023DB00D5580C4C2540D550D45803
:10C360003C43D450B04799E600610040046100406E
:10C37000086100400C6100407C610040B82300204F
:10C38000006000401C05000014050000FFFFFCFFDA
:10C39000032B00D0F1E6032914D180239B029A4697
:10C3A000E023DB00D7589946BC46124FB846674693
:10C3B00043461F403B004F46D351D35957461F4376
:10C3C0004B46D750B047D8E603299CD1C0239B02E7
:10C3D0009A4686E70329F5D1C0239B029A46DFE7F8
:10C3E0000329ACD1C0239B029A4696E7C027BF021F
:10C3F000AFE7C046FFFFFCFF36DF704737DF70470F
:10C400004279002153009B180F4ADB00D318822287
:10C4100010B504685200A1505A8242790B4992002B
:10C420005258002A0AD0C22201685C6992008C50DE
:10C4300002225A61C12301689B00CA50012302688D
:10C4400013620268536110BD0024002018240020EC
:10C45000427953009B18034ADB00D31801229A71DA
:10C460007047C04600240020F8B5CE464746A321B9
:10C4700080B54279414D53009B180400DB000068F1
:10C48000EB18C900DA89415898688154013292B298
:10C49000DA819B89934203D80CBC90469946F8BD3B
:10C4A00080220320216892008B58677983437E00A5
:10C4B0008B50F319DB00EB18DA89998901320238C5
:10C4C0008A4210D08022216892008B58F6190343CB
:10C4D0008B502023F600AD192A7C2B7423689B18FF
:10C4E00001221A60D8E75A79002AEBD1822120680C
:10C4F000490059824250627991009046204A8A58F8
:10C50000002A0CD0C2222168586992008850022269
:10C510005A61C12321689B00CA50637998464346FB
:10C520005B0099464344DB00EB185B78154A9B009F
:10C530009858154A9B589C46002B10D00378042B22
:10C540000FD003000022083306E01800083319005A
:10C5500008390978042904D001326245F5D1022056
:10C56000B0E74B464344DB004278EB185A7043680F
:10C57000002BF4D0200098470220A3E700240020DD
:10C580001824002080EB01002CEB0100F8B5474691
:10C59000CE4680B5802247790168060003209200CC
:10C5A0008B587C0083438B50344DE319DB00EB1830
:10C5B000DA899989013202388A4213D0802231689F
:10C5C00092008B58E41903438B502023E4002C196C
:10C5D000227C237433689B1801221A600CBC90469D
:10C5E0009946F8BD5A79002AE8D18221306849007D
:10C5F00059824250727991009046214A8A58002A05
:10C600000CD0C222316858699200885002225A61C7
:10C61000C12331689B00CA507379984643465B003A
:10C6200099464344DB00EB185B78164A9B00985808
:10C63000154A9B589C46002B10D00378042B0FD032
:10C6400003000022083306E01800083319000839F7
:10C650000978042904D001326245F5D10220ADE702
:10C660004B464344DB004278EB185A704368002B7A
:10C67000F4D0300098470220A0E7C04600240020F4
:10C680001824002080EB01002CEB0100F8B5474690
:10C69000CE4680B542793E4D53009B18DB00EB1827
:10C6A000DA899B6801689A5C3A4B0400CA50802280
:10C6B00047790168032092008B587E0083438B509A
:10C6C000F319DB00EB18DA899989013202388A42C2
:10C6D00013D08022216892008B58F61903438B50A7
:10C6E0002023F600AD192A7C2B7423689B180122A5
:10C6F0001A600CBC90469946F8BD5A79002AE8D1D8
:10C700008221206849005982425062799100904606
:10C71000214A8A58002A0CD0C22221685869920006
:10C72000885002225A61C12321689B00CA50637954
:10C73000984643465B0099464344DB00EB185B7820
:10C74000164A9B009858164A9B589C46002B10D0BE
:10C750000378042B0FD003000022083306E01800F2
:10C760000833190008390978042904D001326245D8
:10C77000F5D10220ADE74B464344DB004278EB188D
:10C780005A704368002BF4D0200098470220A0E79D
:10C79000002400201C0500001824002080EB01006C
:10C7A0002CEB0100F8B54746CE4680B542794A4D9C
:10C7B00053009B18B122DB00EB180400D979006804
:10C7C000D200815001212268116284220021206858
:10C7D0005200815019745A826779404AB9008A58C8
:10C7E0009046002A0BD0C22220685E6992008650D3
:10C7F00004225A61C12320689B00C25067798022BD
:10C800000326206892008358B3437E008350F319B7
:10C81000DB00EB189889DA898446013201206245F1
:10C8200013D08022216892008B5803438B50F31958
:10C83000DB00ED1820232A7C2B7423689B1801222F
:10C840001A600CBC90469946F8BD5A79002AE8D186
:10C8500004302168FF300A5042465882002A0AD02C
:10C86000C222216858699200885002225A61C1236D
:10C8700021689B00CA506379194A98465B00994623
:10C880004344DB00EB185B789B009858154A9B5893
:10C890009C46002B10D00378042B0FD003000022FD
:10C8A000083306E01800083319000839097804290C
:10C8B00004D001326245F5D10220B2E74B46434431
:10C8C000DB004278EB185A704368002BF4D020004C
:10C8D00098470220A5E7C046002400201824002025
:10C8E00080EB01002CEB0100F8B54746CE4680B541
:10C8F0004279504D53009B18B122DB00EB18040025
:10C90000D9790068D2008150012122681162082281
:10C9100000211A7420681532FF3281505A826279E0
:10C92000454990004158884600290BD0C222206812
:10C930005E699200865080225A61C12320689B0064
:10C94000C250627953009B18DB00EB18DA899B68B0
:10C9500020689A5C394B0326C250802220689200DE
:10C9600083586779B3437E008350F319DB00EB18DB
:10C970009889DA89844601320120624513D08022E9
:10C98000216892008B5803438B50F319DB00ED189C
:10C9900020232A7C2B7423689B1801221A600CBC6C
:10C9A00090469946F8BD5A79002AE8D104302168AA
:10C9B000FF300A5042465882002A0AD0C22221681B
:10C9C00058699200885002225A61C12321689B0055
:10C9D000CA5063791A4A98465B0099464344DB0083
:10C9E000EB185B789B009858164A9B589C46002B86
:10C9F00010D00378042B0FD003000022083306E088
:10CA000018000833190008390978042904D00132C4
:10CA10006245F5D10220B2E74B464344DB00427841
:10CA2000EB185A704368002BF4D02000984702207E
:10CA3000A5E7C04600240020182400201C050000A3
:10CA400080EB01002CEB0100F8B5CE46474680B5DF
:10CA50004279424D53009B18DB00EB18DA89998923
:10CA6000013292B20400DA81914203D80CBC9046A4
:10CA70009946F8BD9B6801689A5C394BCA50802280
:10CA800047790168032092008B587E0083438B50C6
:10CA9000F319DB00EB18DA899989013202388A42EE
:10CAA00010D08022216892008B58F61903438B50D6
:10CAB0002023F600AD192A7C2B7423689B180122D1
:10CAC0001A60D3E75A79002AEBD182212068490005
:10CAD00059824250627991009046224A8A58002A2F
:10CAE0000CD0C222216858699200885002225A61F3
:10CAF000C12321689B00CA506379984643465B0076
:10CB000099464344DB00EB185B78174A9B00985822
:10CB1000164A9B589C46002B10D00378042B0FD04C
:10CB200003000022083306E0180008331900083912
:10CB30000978042904D001326245F5D10220B0E71A
:10CB40004B464344DB004278EB185A704368002B95
:10CB5000F4D0200098470220A3E7C046002400201C
:10CB60001C0500001824002080EB01002CEB0100C4
:10CB7000F0B54F464646D646C0B54479060060003B
:10CB8000684F0019C0003D5C0820002D04D01CBC7B
:10CB900090469946A246F0BD002900D1BDE062480A
:10CBA000A4000251614A8246A350614B6148E6509D
:10CBB000A0230A68DB05C132FF329200D0504A68D8
:10CBC000C132FF329200D050012210000C68A04008
:10CBD000A124E40018514868A44682401A510A680A
:10CBE0005548C132FF329200D0504A68C132FF32FC
:10CBF0009200D05004200138C046C046C046C0460E
:10CC0000C046C046C046C046C046C046C046C046F4
:10CC1000F1D1A222D2009046484A00250124914633
:10CC2000424648689A58C240144200D072E022003E
:10CC30000868824048461A5004200138C046C04661
:10CC4000C046C046C046C046C046C046C046C046B4
:10CC5000C046C046F1D122000868824060461A50A2
:10CC600004200138C046C046C046C046C046C04643
:10CC7000C046C046C046C046C046C046F1D1013598
:10CC8000092DCDD1486801231C00A02284402B48E7
:10CC9000D205145004200138C046C046C046C046E4
:10CCA000C046C046C046C046C046C046C046C04654
:10CCB000F1D148688340A120C0001350A0220B6826
:10CCC0001C48C133FF33D2059B0098504B68C133D9
:10CCD000FF339B00985032688868194BD050A122CE
:10CCE00033680C68D20048689C50144A98505046EB
:10CCF00072799300C358002B05D00420097B30566D
:10CD000000F05CFF727953009B180122DB00FA549B
:10CD100000203CE7002DB6D1D0E70A482101411898
:10CD20003DE7C046002400201824002020240020D5
:10CD30001C2400200C0600000D0600000C0500005D
:10CD400024050000D4EA0100822200230168520079
:10CD50008B50016804328B50016814328B5001688B
:10CD600008328B5043790D4A9B009B58002B05D00D
:10CD70008022C123016892009B00CA50A023052293
:10CD80000168DB00CA504179054A4B005B1802215B
:10CD9000DB009954D31800225A70704718240020E1
:10CDA00000240020F0B5574645464E46DE46E0B525
:10CDB00087B09A4610AB1B780091019300239146EF
:10CDC00004AA4579D3710422AB4B07005B689046F7
:10CDD000DB05DB0D31D104ABD81DFFF70DFB0228BD
:10CDE00000D189E0002800D088E0A44B6E009B466B
:10CDF0007319DB005B449C78E4B2002C18D101224B
:10CE00009A704346012B36D062B604ABD879FFF74F
:10CE1000F5FA022302009A4300D074E01120002C9E
:10CE200029D007B03CBC90469946A246AB46F0BD1F
:10CE30004346012BE8D11120F3E7103B5AB2002AF8
:10CE400000DAE7E09208C0328D499200515803227F
:10CE50001340DB00D9408B091A40D3B29846012A0F
:10CE6000B9D1864B6E009B467319DB005B44997801
:10CE70000029E0D19A706A4673191278DB005B448E
:10CE8000DA7152469A814A469A600022DA816A46ED
:10CE900012795A7101221A7100229A717979794AAC
:10CEA00048004318DB005B445B7892469B00D258F5
:10CEB0009446754AD3589846002B16D063461B7883
:10CEC000002B28D0634600228C460833414680461A
:10CED00006E0180008331C00083C2478002C17D00A
:10CEE00001328A42F5D161464046684B8A00D358E8
:10CEF000002B2AD0002094E772B676E700220021AA
:10CF000000F050FF71E70022002100F04BFF85E7A1
:10CF100061468446404662464318DB0052785B44D3
:10CF20005A7063465B68002BDFD0380098477979E8
:10CF3000564B8A00D358002BDCD17319DB005B44BD
:10CF40001B7903244800002B00D002247319DD0054
:10CF500003932B005B441A00123202925A469B46FE
:10CF6000019203003A0000971568019A5B189446F5
:10CF7000DB0063445B8A92279846A844A4460021BC
:10CF80007F00434E444601E0002B4ED12068EB5910
:10CF900001315A1E93418E4292415242134300285E
:10CFA000F2D06446002B40D10022029B1B88EB1874
:10CFB0001A60009B019A5B799446984652465B0042
:10CFC00099464344DB0063445B789B00D0582E4A6B
:10CFD000D558002D10D00378A3422ED00300002294
:10CFE000083306E018000833190008390978A1420F
:10CFF00023D00132AA42F5D15B469B79002B2AD17E
:10D000005A46D189928991422ED2009B009A597931
:10D010004B00A9E70F221F49DBB28C461A40083AA1
:10D02000920892006244516811E7922300225B004B
:10D03000EA50009B05241D68B6E7019A4B469446CA
:10D040004344DB00427863445A704368002BD3D0DA
:10D0500000989847D0E7019B03209B46039BDE0086
:10D0600000235E44B370DCE6019A00209346039AE5
:10D07000D6005E44B370D4E600ED00E0002400204A
:10D0800000E100E080EB01002CEB010018240020FF
:10D09000FE0F000018ED00E0F0B5574645464E463D
:10D0A000DE46E0B587B09A4610AB1B78009101933D
:10D0B0000023914604AA4579D3710422AE4B0700A0
:10D0C0005B689046DB05DB0D31D104ABD81DFFF763
:10D0D00093F9022800D188E0002800D087E0A74B10
:10D0E0006E009B467319DB005B449C78E4B2002C15
:10D0F00018D101229A704346012B36D062B604AB98
:10D10000D879FFF77BF9022302009A4300D073E03D
:10D110001120002C29D007B03CBC90469946A2466D
:10D12000AB46F0BD4346012BE8D11120F3E7103B9D
:10D130005AB2002A00DA83E09208C0329049920085
:10D14000515803221340DB00D9408B091A40D3B257
:10D150009846012AB9D1894B6E009B467319DB00B2
:10D160005B4499780029E0D19A706A467319127865
:10D17000DB005B44DA71524600219A814A46D9812C
:10D1800069469A60002209791A719A715971797900
:10D190007C4A48004318DB005B445B7892469B0066
:10D1A000D2589446784AD3589846002B16D06346F6
:10D1B0001B78012B28D0634600228C460833414659
:10D1C000804606E0180008331C00083C2478012C37
:10D1D00017D001328A42F5D1614640466B4B8A0036
:10D1E000D358002B37D0002095E772B677E700229E
:10D1F000002100F0D7FD72E70022002100F0D2FDEF
:10D2000086E761468446404662464318DB00527812
:10D210005B445A7063465B68002BDFD03800984748
:10D2200079795A4B8A00D358002BDCD17319DB0073
:10D230005B441B79002B00D19AE0022448000BE0EC
:10D240000F225349DBB28C461A40083A92089200EA
:10D250006244516875E703247319DD0003932B00C2
:10D260005B441A0012321D0002925A4603000192DA
:10D27000AB463A0000971568019A5B189446DB00AC
:10D2800063445B8A92279846A844A44600217F0005
:10D29000404E444601E0002B43D12068EB59013158
:10D2A0005A1E93418E429241524213430028F2D0BB
:10D2B0006446002B35D10022029B1B88EB181A60B4
:10D2C000009B019A5B799446984652465B009946CA
:10D2D0004344DB0063445B789B00D0582A4AD5580E
:10D2E000002D10D00378A34223D00300002208337E
:10D2F00006E018000833190008390978A14218D04F
:10D300000132AA42F5D15B469B79002B1FD15A46C8
:10D31000D1899289914223D2009B009A59794B007E
:10D32000A9E7922300225B00EA50009B05241D68B8
:10D33000C1E7019A4B4694464344DB00427863447C
:10D340005A704368002BDED000989847DBE7019BBA
:10D3500003209B46039BDE0000235E44B370DAE6A5
:10D36000019A00209346039AD6005E44B370D2E639
:10D370000324480070E7C04600ED00E000240020D0
:10D3800000E100E080EB01002CEB010018240020FC
:10D3900018ED00E0FE0F0000F0B5C646434B9221A9
:10D3A0009C4600B5424F49007A8A58586244146836
:10D3B00000225A5008395A5014395A50043986B04C
:10D3C0005A50002805D1002C03D106B004BC904669
:10D3D000F0BD0524002856D0364B374A1B685879D3
:10D3E000984643009C461B18DB00FB185B789B00AB
:10D3F0009D58324A9E58002E10D02B78A34247D019
:10D400002B000022083306E01D00083319000839FC
:10D410000978A1423CD00132B242F5D1BB79002B50
:10D4200019D000230222BB7002AB1A70BB682449DA
:10D430000393FB891D4804934358435002211A4229
:10D4400000D1023102AB19731E4B02A819681E4BA2
:10D450001B689847B9E7FC89BA89A242B5D8BB7066
:10D460001022002102A8FAF7D1FE3B7902AA13701C
:10D47000BB68049401930393124B10001968124B7C
:10D480001B689847A1E73B795C425C410234A3E703
:10D4900060446B78C000381843706B68002BBDD0B7
:10D4A00040469847BB79002BD5D0BAE70030004002
:10D4B000002400201C24002080EB01002CEB010044
:10D4C000C4040000202400201824002073DF7047CB
:10D4D00070B59F4E86B0072200213000FAF796FE05
:10D4E0009C4C6378002B6ED09B4D2B78012B05D084
:10D4F000A278002A00D1EEE0022B0FD1974A1268E1
:10D50000002A00D1FCE00121954B082019709047BA
:10D510002B78012B00D1F6E0022B5FD0227B002A72
:10D5200001D1032B7AD0227E002A02D1042B00D114
:10D5300006E18A4A1268002A02D0033B012B77D900
:10D540000022884B1A70182200216846FAF75EFE06
:10D5500000236A46137013722A7801930393022AF8
:10D5600000D18AE072D9032A00D193E0042A22D1A3
:10D570006B46A28B1A82228C5A827B4B1A79002A24
:10D5800000D1B5E02278002A00D1B5E0774A1278C0
:10D59000002A00D0B0E069460393042302327448A5
:10D5A0000A720021C370FDF7DFFC002863D1062258
:10D5B000704B1A702A78002A50D1684B1B68002BD8
:10D5C00055D1002057E0A378634D002BA0D02B78D5
:10D5D000022B93D0012BA1D102232B70A378002B17
:10D5E00017D07378002B00D0AFE0B378002B00D0B9
:10D5F000ABE0F378002B00D0A7E03379002B00D00C
:10D60000A3E07379002B00D09FE0B379002B00D00A
:10D610009BE003232B70237B002B60D104232B7012
:10D62000237E002B00D18BE04C4B1A68002A87D058
:10D630002378002B84D04D4B1B78002B00D07FE744
:10D640000121484B0720197090477CE7012AB2D18D
:10D6500069460493474B01960A701A706846FFF7B3
:10D6600035FF002807D13D4B1B68002BA9D0414A4C
:10D6700010789847002006B070BD012369460B70F2
:10D680006B46218901965982694663680B82394B42
:10D690001A70E3E76B46A28A5A82228A1A82324BB8
:10D6A0001A79002A1DD02278002A1DD02F4A12781C
:10D6B000002A19D169460393042302322C480A72C6
:10D6C0000021C370FDF750FC0028D4D10522294B5E
:10D6D0001A702A786FE7022B00D01FE799E703231F
:10D6E00027E71A7B002ADED10322224B1A70B5E706
:10D6F0001A7B002A00D045E704221E4B1A70ADE7C2
:10D7000017490A7005E76278002A00D164E7727849
:10D71000002A00D00DE7B278002A00D009E7F2789D
:10D72000002A00D005E73279002A00D001E772799B
:10D73000002A00D0FDE6B279002A00D14CE7F8E6D5
:10D7400000230C4A2B701370FAE60223F1E6C04660
:10D75000C024002028240020252400208C24002020
:10D76000BC2400200C250020FC2400200D250020D6
:10D770004C24002024240020F8B504000E000E20C4
:10D78000002C00D17BE0002A79D000203C490870B1
:10D790003C490B6006993C4B19603C490B0023CA7D
:10D7A00023C323CA23C323CA23C307220021384823
:10D7B000FAF72CFD374B384A384D1A60384A0021A9
:10D7C0009A6028003822FAF721FD237822002B7076
:10D7D000A3781032AB70E378EB7063786B702B003A
:10D7E000103303CA03C32B00103A083303CA03C320
:10D7F0002B000832183303CA03C3636A002B11D00D
:10D80000284B294F6B62616A9F600A881A8088885A
:10D810009880002806D000238A68D25CFA5401332D
:10D820008342F9D1A36A002B14D0204B204FAB6266
:10D83000A06A9F608188998002881A80002300294D
:10D8400005D08268D25CFA5401338B42F9D12C2383
:10D85000E25CEA54236A002B06D0164B2B62226A44
:10D860005188598012881A806368002B03D0124BAC
:10D870006B6063686B6031002800FDF775FBF8BDD5
:10D88000252400208C240020882400202824002027
:10D89000C0240020FC240020102500204C2400205F
:10D8A00030250020B024002090240020C82400202F
:10D8B000D4240020F4240020F824002010B50024F3
:10D8C0000B4B82B0187001A80194FCF7ADFE08283C
:10D8D00009D0002805D1019B002B05D00122054B62
:10D8E0001A7002B010BD0194FFF7F2FDF9E7C046CF
:10D8F000252400208424002030B5038883B0112B18
:10D900001ED0192B07D0102B01D003B030BD828858
:10D910002D4B1A80F9E78479002CF6D12B4B1D781A
:10D92000022D4ED038D9032D23D0042DEDD1284B14
:10D930001C70284B1B68002BE7D000209847E4E7B9
:10D940000024254B1C70204B82881B889A42DCD116
:10D9500001251E4B01A81D700194FCF765FE0828E7
:10D9600024D0002827D1019B002B20D01B4B1D70F9
:10D97000CBE7174A1570042201A81A700194FCF72E
:10D9800053FE082812D0002815D1019B002B0ED081
:10D990000122124B1A70B8E7012DB6D1022201A85C
:10D9A0001A700194FCF740FE0828DAD10194FFF7C1
:10D9B0008FFD0028A9D00A4B1B68002BA5D09847E3
:10D9C000A3E70322D8E7C0466020002025240020DA
:10D9D000242400208C2400200D25002084240020F5
:10D9E0008824002030B5023883B0012803D8104CB9
:10D9F0002378002B01D103B030BD002501A825708C
:10DA00000195FCF711FE082807D000280AD1019BD8
:10DA1000002B03D001232370EDE70195FFF758FD9C
:10DA20000028E8D0034B1B68002BE4D09847E2E7BE
:10DA300084240020882400202EDF704751DF7047A7
:10DA400010DF704761DF704710B50800110000E07B
:10DA500000BF10BDF0B54F464646D646C0B5294F6B
:10DA6000294E3B6882B03268002B45D1002A34D061
:10DA700001AB01249846254B9A46254B99465346BF
:10DA800042461B88414613804B461D682800FFF71D
:10DA9000D9FF05281ED0002815D00022002100F053
:10DAA00081F9002C14D100254046FFF7C7FF052857
:10DAB0001DD0002817D00022002100F073F9002D9E
:10DAC000F2D12C00D7E7280033689847002CEAD021
:10DAD0000124D4E70125002CE6D002B01CBC9046FE
