:020000022000DC
:1060000000000420B5620200DD620200DF620200CF
:10601000E1620200E3620200E562020000000000AB
:10602000000000000000000000000000E762020025
:10603000E962020000000000EB620200ED62020073
:106040009DB80200EF62020001B90200EF62020097
:10605000EF620200EF62020031840200EF62020090
:10606000EF620200EF620200EF620200EF620200E4
:10607000EF620200EF620200EF620200EF620200D4
:10608000EF62020019DB0200EF620200EF62020021
:10609000B9DB0200EF620200619902009909030076
:1060A000EF620200EF620200EF620200EF620200A4
:1060B000EF620200EF62020000000000000000003A
:1060C000EF620200EF620200EF620200EF62020084
:1060D00021920200EF620200EF620200EF62020012
:1060E000EF620200EF620200A1390300000000002D
:1060F00000000000EF62020000000000EF620200FA
:10610000000000000000000000000000000000008F
:10611000000000000000000000000000000000007F
:10612000000000000000000000000000000000006F
:10613000000000000000000000000000000000005F
:10614000000000000000000000000000000000004F
:10615000000000000000000000000000000000003F
:10616000000000000000000000000000000000002F
:10617000000000000000000000000000000000001F
:10618000000000000000000000000000000000000F
:1061900000000000000000000000000000000000FF
:1061A00000000000000000000000000000000000EF
:1061B00000000000000000000000000000000000DF
:1061C00000000000000000000000000000000000CF
:1061D00000000000000000000000000000000000BF
:1061E00000000000000000000000000000000000AF
:1061F000000000000000000000000000000000009F
:1062000010B5054C237833B9044B13B10448AFF3F0
:1062100000800123237010BDF03200200000000038
:106220006076030008B5034B1BB103490348AFF385
:10623000008008BD00000000F432002060760300FA
:10624000154B002B08BF134B9D46A3F5803A002148
:106250008B460F461348144A121A0DF0FDFF0F4BE0
:10626000002B00D098470E4B002B00D09847002001
:10627000002104000D000D48002802D00C48AFF3A7
:1062800000800DF0A1FF200029000CF06BFA0DF04A
:1062900075FF00BF0000080000000420000000009F
:1062A00000000000F03200205C64002000000000CC
:1062B000000000000649074A074B9B1A03DD043B18
:1062C000C858D050FBDC03F051F9FFF7B9FF0000CC
:1062D0008077030030320020F0320020FEE7FEE736
:1062E000FEE7FEE7FEE7FEE7FEE7FEE7FEE7FEE786
:1062F00008B505F0DFFD0421034809F001FF034B59
:1063000001225A7108BD00BF6877030030320020B7
:10631000064A13680133012B136006D10449054A6C
:10632000C1F800354FF48063536070470C33002090
:1063300000A0025000E100E0064A1368013B136030
:106340003BB90549054AC1F800354FF48063C2F8EE
:10635000843070470C33002000A0025000E100E0C0
:1063600005F058BE10B5204C82B001A808F062FAC2
:10637000D4F86C269DF8043022F00702C4F86C268D
:10638000D4F86C261343C4F86C369DF8050001F070
:1063900061FED4F86C3623F47F43C4F86C36D4F82D
:1063A0006C3643EA0020C4F86C06D4F86C269DF8DD
:1063B000061022F47F02C4F86C26D4F86C3643EA47
:1063C0000143C4F86C36D4F86C269DF8071022F00F
:1063D0007F42C4F86C26D4F86C3643EA0163C4F8F3
:1063E0006C3602B010BD00BF0010004008B5034A73
:1063F000034B044840F2D7110DF0A2FEF8560300FB
:106400006C5703008C5703002B4B1B7803B9704764
:1064100070B5044684B0AE2008F040FB00283AD0A6
:106420002648274D2749284A4FF42053C0F8003208
:1064300000232B602D680195019D0B600968029176
:106440004FF4C021029DC0F804131360116803913A
:106450001E4B1F491F4D039EC3F84825C3F84C55DA
:10646000C3F82C19A1F5FF4105F586754839C3F825
:106470004055C3F84415D3F8001841F08001C3F823
:10648000001880254021C3F80455C3F8041524B929
:10649000114B01221A6004B070BDD0F8503513F0D2
:1064A000FF0FF8D100BF00BF00BF00BF00BF00BF9B
:1064B0001368002BECD0EEE71933002000100040E9
:1064C00048110040441100403C71014000F001407F
:1064D00004F001400410004010100040324B1B78C3
:1064E00003B9704770B5314E82B00446356808F084
:1064F000F1FAB0F5C07F45D3C009EB09821E9A427C
:1065000098BFA5EBC2152A492A4A94BFC31E00258D
:10651000356000204FF40045C3F31403C2F864361D
:10652000C2F8005208600B68009301F5B031009B7F
:10653000C2F804530860086801901F4B1F48204DA3
:10654000019EC3F84815C3F84C55C3F82C09A0F5B3
:10655000FF4005F586754838C3F84055C3F8440533
:10656000D3F8000840F08000C3F8000880254020E0
:10657000C3F80455C3F804053CB9124B01221A6054
:1065800002B070BD356002B070BDD2F8503513F066
:10659000FF0FF5D100BF00BF00BF00BF00BF00BFAD
:1065A0000B68002BE9D0EBE71933002014330020EF
:1065B0003C1100400010004000F0014004F0014098
:1065C00004100040101000402DE9F041594A5A4E85
:1065D000137823F00703137084B0074608F024F9FA
:1065E000564AC0B2C2F80C053368002B00F09E80FA
:1065F00093F88010002978D0C2F80435504A4FF043
:1066000001084E4D4F4BC5F8002200211822C5F855
:10661000602519601A680092009A43F80C1C0C3B24
:1066200049481B680193019B016003680293474A34
:10663000029C474C4FF45053C5F80433D2F800C2C3
:10664000444B4CF4A06CC2F800C24FF0010CC2F8ED
:1066500040C54FF0820CC2F844C54FF0830CC2F81D
:1066600048C52160216803910CF1804C0CF6817CB7
:106670003949DDF80CE0C3F84845C3F84CC5C3F808
:106680002C19C3F85045C3F85425D3F80028DFF877
:10669000D4E0A1F5EF31F43942F08002C3F80028CC
:1066A0004FF0800CC3F8401540224FF48071C3F8BE
:1066B00044E5C3F804C5C3F80415C3F804250AF07B
:1066C00043FCAFB1D5F8503513F0FF0F07D100BF31
:1066D00000BF00BF00BF00BF00BF236843B1B8F1D7
:1066E000000F0BD004B0BDE8F0818846522288E745
:1066F0001A4B01221A60B8F1000FF3D107F0F8FF2E
:1067000030600028EED090F88030002BEAD00B4BA0
:106710000B4AC3F80405C3F80022D3F85035DBB2A6
:10672000022BDFD10E4B01221A60DBE79846522282
:1067300067E700BF183300201C3300200010004022
:106740005200080034110040301100400090004019
:106750003C71014000F0014004F001401010004085
:10676000081000403C700140F0B5664B1B7887B0C4
:10677000ABB103F0FF06037844780133A4064FEA77
:10678000431354BFCE3303F22E4317460D4604463F
:1067900049B103F1A80008F081F9002876D100265C
:1067A000304607B0F0BD184608F078F90028F6D05A
:1067B00008F03AF8544BC0B2C3F80C05C3F80445CE
:1067C00001F0FEFB514B002808BF18464E4B18BF86
:1067D0004FF4A010C3F8000201F0F2FB00286CD1C6
:1067E0004B4B4C4C18601B680493049B0A21002DF2
:1067F0006DD04948494A4A49434D00230360006827
:10680000039003981360126808780192454ADDF8F6
:1068100004C063F3C3000870C5F804431360136831
:106820000293A2F5B032029BA2F59C723E4B3D4909
:10683000C3F848153D48C3F84C253D4C3D4AC3F8C4
:106840002C49C3F84005C3F84425D3F8002842F08A
:106850008002C3F8002880204022C3F80405C3F852
:106860000425002F47D0284BD3F8503513F0FF0FE5
:1068700008D100BF00BF00BF00BF00BF00BF0B6852
:10688000002B38D03E46304607B0F0BD07F0CCFFB5
:106890001D4BC0B2C3F80C05C3F8044501F090FBD2
:1068A000254B264A002814BF18461046164BC3F83D
:1068B000000201F085FB002892D0214B2149224C97
:1068C00000221A601B680593059B002D91D1134B84
:1068D00013481D601B68047801930B4A114BDDF8C7
:1068E00004C065F3C3040470C2F804131D601B6880
:1068F0000293029B9AE7154B012230461A6007B0BB
:10690000F0BD00BF19330020001000400200040059
:106910000C1100400A00040048110040041100401E
:10692000183300203C71014000F00140101100407C
:1069300004F001403C7001400038140002380400AB
:106940006C11004002000008020004081010004012
:10695000F0B5B24B1B7885B0092B00F2E981DFE876
:1069600013F01E00EF006800A500260026002D0091
:10697000FA0029010A00AA4BAA4A40208021C3F844
:106980000805C3F80815137803F0FF04002B00F086
:106990004081A54B01221A60204605B0F0BD0229B6
:1069A00000F03781042007F0FBFE0124F4E7002803
:1069B00040F04A810446204605B0F0BD0028F9D0D9
:1069C000974B984C80204FF480714025C3F80855B0
:1069D000C3F80805C3F80815D3F80018002021F003
:1069E0008001C3F80018C3F82C0923787BB18F4BC2
:1069F0008F498D4C0A25C3F808530125C3F80002BE
:106A00002560C3F8440608600B680393039B002AC3
:106A100000F0FF80874B1D680621284607F042FCE6
:106A20000446002800F0F5802846062107F05AFEAB
:106A3000B2E7814B1B78C3F38003002B00F0488141
:106A40000028B7D0764B7D4E7D48764D4021C3F867
:106A500008158021C3F808154FF48071C3F8081594
:106A6000D3F8001821F08001C3F800180024012198
:106A7000C3F82C493160D0F8003223F4A063C0F889
:106A800000322B7853B1A0F5FF40684B70384FF4BB
:106A90005055C3F80853C3F800420160002A00F0C3
:106AA000B8800620144607F01BFE75E7002881D049
:106AB0005B4B624F62485B4E4021C3F80815802152
:106AC000C3F808154FF48071C3F80815D3F80018FF
:106AD000002521F080010124C3F80018C3F82C59C7
:106AE0003C60D0F8003223F4A063C0F80032337861
:106AF000002B40F0DD80002A00F08B8051494B4B89
:106B00000D680192002185F88010D3F8480500F047
:106B10007F0001F057FA2B78019A2B44064613F8B0
:106B2000010C144601F072FA02B29200FF2A28BF4B
:106B3000FF22714252B2284649B207F0CFFD2BE73F
:106B4000384B1B7803F0FF04002B62D0374B102228
:106B5000C3F8082320E700283FF42CAF304B314C1A
:106B600080204FF480714025C3F80855C3F808050C
:106B7000C3F80815D3F80018002021F08001C3F8ED
:106B80000018C3F82C09237873B12849264C05F165
:106B900080454FF4004305F6E875C1F8083301233A
:106BA000C1F800022B6023609AB30120144607F05D
:106BB0009BFDF1E600283FF4FDAE194B194C8020F7
:106BC0004FF480714025C3F80855C3F80805C3F891
:106BD0000815D3F80018002021F08001C3F8001830
:106BE000C3F82C09237873B110490F4C05F1804587
:106BF0004FF4C02305F57F65C1F808330123C1F8C0
:106C000000022B60236022B10120144607F06EFDC4
:106C1000C2E60124204605B0F0BD00BF1A330020B3
:106C200000F0014019330020101000400010004017
:106C30005C110040203300201833002010900040E9
:106C4000009000401C3300203D4B3E484021C3F8DB
:106C500008154FF400744FF480718025C3F808556F
:106C6000C3F80845C3F80815D3F80018002421F02C
:106C70008001C3F80018C3F82C490378002B3FF4B7
:106C8000C6AE019201F09CF92F4E304B304905F110
:106C90008045A04208BF334605F57B652D48C1F805
:106CA00008330123C1F800422B600360019AAEE66D
:106CB000019201F085F92649274BA842254808BFD3
:106CC0000A23C1F80833C1F800520460019A12E7A0
:106CD0001B4A224D22481B4C4021C2F80815802136
:106CE000C2F808154FF48071C2F80815D2F80018E0
:106CF00021F08001C2F800180121C2F82C39296066
:106D0000D0F8002222F4A062C0F80022227802F01B
:106D1000FF04002A3FF47DAFA0F5FF400C4A703815
:106D20004FF45055C2F80853C2F80032016033E600
:106D30000C4B0D4A0D4840F21D510DF001FA00BFF9
:106D400000F00140193300200A000400020004088A
:106D50000010004010100040020000081090004099
:106D600000900040DC570300045703008C570300D9
:106D7000F0B583B0164605460F4607F07DFA044687
:106D8000002848D09E4B1B78092B00F2D981DFE800
:106D900013F057005D006900A500AC00AC000A00CC
:106DA000DD000A014500002D00F09B80954B9648C0
:106DB0004022C3F8082580214FF48072C3F80815DB
:106DC000C3F80825D3F80028002122F08002C3F878
:106DD0000028C3F82C1903787BB18C4B8C4A8D4862
:106DE0000A25C3F808530125C3F800120560C3F84B
:106DF0004416116013680193019B66B1864B1D68B0
:106E00000621284607F04EFA034620B128460621FF
:106E10001C4607F067FC204603B0F0BD794B7A4A68
:106E200040208021C3F80805C3F80815137803F043
:106E3000FF02002BEFD0774B012114461960EAE7DF
:106E4000022FE8D0042007F0ABFCE4E76E4B1B7880
:106E500003F0FF02002BDED06C4B10211446C3F868
:106E60000813D8E76D4B1B78C3F38003002B00F0A9
:106E70002A81002D35D0634B694F6A49624D40220B
:106E8000C3F808258022C3F808254FF48072C3F8A0
:106E90000825D3F8002822F08002C3F8002800203B
:106EA0000122C3F82C093A60D1F8003223F4A06320
:106EB000C1F800322B7853B1A1F5FF41534B703923
:106EC0004FF45055C3F80853C3F800020A60002E6F
:106ED000A1D00620344607F003FC9CE7002D40F0CB
:106EE000AB802C46204603B0F0BD002DF9D0454BB9
:106EF000454940208022C3F80805C3F808254FF40F
:106F000000704FF48072C3F80805C3F80825D3F861
:106F10000028002522F08002C3F80028C3F82C596D
:106F20000B78002B3FF469AF01F04AF83E493F4B24
:106F3000364A3F4FA84208BF0B463649C2F80833CD
:106F40000123C2F800523B600B6056E7002DC8D009
:106F50002C4B2D484022C3F8082580214FF4807225
:106F6000C3F80815C3F80825D3F80028002122F03B
:106F70008002C3F80028C3F82C1903785BB1234BB7
:106F80002C48244A4FF40045C3F80853C3F80012B4
:106F9000012303601360002E3FF43DAF012034460F
:106FA00007F0A2FB37E7002D9BD0164B1648402276
:106FB000C3F8082580214FF48072C3F80815C3F880
:106FC0000825D3F80028002122F08002C3F8002809
:106FD000C3F82C1903785BB10C4B15480D4A4FF4DC
:106FE000C025C3F80853C3F80012012303601360DF
:106FF000002E3FF410AF0120344607F077FB0AE77C
:107000001A33002000F00140193300200010004026
:107010005C11004010100040203300201833002085
:1070200010900040009000400A0004000200040894
:107030003010004028100040454BDFF828C145497A
:1070400045484022C3F808258022C3F808254FF49C
:107050008072C3F80825D3F80028002722F08002A8
:107060000125C3F80028C3F82C79CCF80050D1F8DA
:10707000003223F4A063C1F800320378002B51D111
:10708000002E3FF4C8AE354A354B1568002285F80E
:107090008020D3F8480500F07F0000F093FF2B78A4
:1070A0002B44074613F8010C00F0B0FF02B2920027
:1070B000FF2A28BFFF22794252B2284649B23446FD
:1070C00007F00CFBA7E6224A264D22484021C2F8D1
:1070D00008158021C2F808154FF48071C2F8081510
:1070E000D2F8001821F08001C2F800180121C2F87E
:1070F0002C392960D0F80022174D22F4A062C0F884
:1071000000222A7802F0FF00002A3FF484AE144ADD
:10711000154D4FF45056C2F808630446C2F80032C9
:10712000296078E600F04CFF0D4A0F490F4BB8423A
:1071300008BF0A23C2F80833C2F800720D609FE747
:107140000B4B0C4A0C4840F21D510CF0F9FF00BFEC
:1071500000F0014000900040193300201C33002053
:107160000010004010900040101000400200000885
:10717000DC570300045703008C570300F0B583B0BD
:1071800050B107F0A7FC3B2804D9CE4D2B7803F073
:10719000FF065BB103B0F0BDCA4D2B78002B40F069
:1071A000A38003B0BDE8F04007F076BCC64CC74AE8
:1071B000C4F8FC6F01270F23C4F8FC7FC4F8103516
:1071C000D4F8143523F00F03C4F81435D4F814356B
:1071D00043F00803C4F81435D4F8143523F0407391
:1071E000C4F81435D4F8143543F00073C4F81435DA
:1071F000D4F8143523F08063C4F81435D4F814356A
:1072000043F08063C4F81435D4F8183523F0FF0335
:10721000C4F81835D4F8183543F07F03C4F818358E
:10722000D4F8503623F00103C4F85036D4F8503661
:107230003B43C4F85036D4F8343523F00303C4F884
:107240003435D4F8343543F00203C4F83435D4F877
:10725000343523F44073C4F83435D4F8343543F46A
:107260000073C4F83435C4F83825FFF77BF8984B21
:10727000C4F84466C4F8483607F0D0FAA0F10B030E
:10728000DBB20F2B00F21C81924B0A3800EB80001E
:107290000222C4F8080583F80163C3F88021D4F8FA
:1072A0000032002B40F005818B4C2378002B40F0FE
:1072B000F0802378092B00F2F58001A252F823F028
:1072C00095710200A57402007F740200A57402008B
:1072D0007574020063740200A57402005774020002
:1072E0004B7402000B7402007A4B0226C3F88060D4
:1072F0000446C3F8806183F80103BFF34F8FBFF3E7
:107300006F8F714B0127C3F8FC0FC3F8FC7F287007
:1073100009F012FE3146384606F0AEFF30B96F4B29
:107320006F4A704840F2CE610CF00AFF22463146A7
:107330003846FFF70DFB0028F1D0674C2378092B66
:1073400000F2E88001A252F823F000BFA37102000E
:10735000F9730200DF730200957302007573020077
:107360007573020075730200A3710200A37102001D
:10737000A3710200022323700AF0D8FA5A4B1C684A
:107380000421204606F08EFF002840F086800AF097
:1073900013FB06E7554B1D68002385F88030022358
:1073A00023700AF0C3FA484BD3F8480500F07F0079
:1073B00000F008FE2B782B44044613F8010C00F073
:1073C00025FE02B29200FF2A28BFFF22614252B27C
:1073D000284649B207F082F90AF0EEFAE1E6444B9A
:1073E0001B785B077FF5DDAE0AF0A0FA052007F0F9
:1073F00077F90AF0E1FAD4E60026267009F09CFD40
:10740000304607F0CDF92E70CBE62B78002B3FF4F9
:10741000C1AE384A384B2C483849394E394D0024D2
:10742000146014680194019CC3F848258024C3F8B3
:107430004C0501224020C3F84065C3F84455C3F809
:107440000445C3F804050A60A4E6002003B0BDE8C3
:10745000F040FEF7D9BF002003B0BDE8F040FFF7D1
:107460003DB8214B00221868114603B0BDE8F0403A
:10747000FFF77AB91C4B002218680121F5E72B7839
:10748000002B3FF487AE002003B0BDE8F040FFF7CB
:107490009BB82F7009F042FD0BE72046042107F04E
:1074A00021F974E7184B194A0E4840F2B7610CF005
:1074B00047FE174B154A0B4840F28F610CF040FE17
:1074C000FEF794FF19330020001000402110010046
:1074D000000700FF00E100E01A33002058580300C5
:1074E000345703008C570300203300201C33002046
:1074F000183300203C71014000F0014010100040A2
:10750000101100403C700140DC570300205703007D
:1075100030580300034B044A044840F2F9610CF070
:107520000FFE00BFDC570300345703008C570300E5
:107530002DE9F04182B006460AF0D0F80446A0B129
:10754000294D2B787BB12B78012B0CD0274F3B7822
:1075500003F0FF086BB9012230461146FFF708FC23
:107560000646D0B904460AF01DF9204602B0BDE82F
:10757000F08107F0AFFA3B28EDD81D4B0026012221
:10758000C3F8FC6FC3F8FC2F2E7009F0D5FC304611
:1075900007F006F944463E70E5E701232B703B787F
:1075A00003F0FF08A3B1134A114B002111601268C8
:1075B000019210220199C3F80423D3F8501511F059
:1075C000FF0FD0D1397809B1C3F808230026DBE7D3
:1075D00085F8008009F0B0FC404607F0E1F8344639
:1075E00087F80080BFE700BF1A330020193300205E
:1075F00000100040101100402DE9F0470746884672
:10760000144699460AF06AF8054600B3184E3378D6
:10761000022B14D03378032B11D0DFF858A09AF83E
:107620000030D3B94A4641463846FFF7A1FBC0B106
:10763000022333709AF8003003F0FF069BB90CB1B7
:107640002846A0470AF0AEF82846BDE8F087002C8F
:10765000FAD0A0472846BDE8F08707F03BFA3B2860
:10766000E0D80025EBE70120FEF7AEFF3546E6E760
:107670001A330020193300202DE9F843099C9DF8A6
:10768000209005460E4690461F460AF027F880B324
:107690001C4B1B783BBB3146284606F0EDFD78B30A
:1076A000284631460122FFF753F9054640B3164EEE
:1076B000164B02223270404601223946C3F8008040
:1076C000FFF752F8B9F1000F00D0C8B1002F14BF76
:1076D0000423052333700CB12846A0470AF062F852
:1076E0002846BDE8F88307F0F5F93B28D3D80AF01F
:1076F00059F80CB10020A04700252846BDE8F883C2
:107700000025E8E7193300201A3300202033002039
:1077100070B505460E4609F0E1FF0446D8B1164B98
:107720001B78FBB90121284606F0A6FDA8B101226D
:1077300028461146FFF70CF9044670B10F4A10496C
:10774000104B16600725002201200D701A70FEF7FD
:10775000C5FE0AF027F8204670BD00240AF022F882
:10776000204670BD07F0B6F93B28DBD800240AF0AC
:1077700019F8204670BD00BF1933002014330020D3
:107780001A3300201033002038B5054609F0A6FF53
:107790000446B0B1134B1B78D3B90121284606F03B
:1077A0006BFD80B1012228461146FFF7D1F804464F
:1077B00048B10D4B082201201A70FEF725FE09F092
:1077C000F1FF204638BD002409F0ECFF204638BD0B
:1077D00007F080F93B28E0D8002409F0E3FF2046B9
:1077E00038BD00BF193300201A330020F0B585B032
:1077F000044609F073FF002840D02B4D2B78002B56
:107800003ED10121204606F037FD002841D001225B
:1078100020461146FFF79CF800283AD0234B092256
:107820001A702B7803F0FF0623B3214A214B22491B
:10783000224D0024146014680394214C039FC3F864
:107840004825C3F84C15C3F84055C3F84445802576
:107850004024C3F80455C3F80445D1F8503513F05B
:10786000FF0F07D100BF00BF00BF00BF00BF00BFB8
:107870001368A3B1019009F095FF019805B0F0BD20
:1078800007F028F93B28BCD809F08CFF002005B090
:10789000F0BD0020019009F085FF0198EEE7094B4B
:1078A000012230461A60E5E7193300201A33002020
:1078B0003C71014000F001400010004010110040F8
:1078C0003C7001401010004038B5044609F006FF36
:1078D000C0B12A4D2B787BB92B78012284F8802007
:1078E00033B1274B1B78DBB2022B24D0062B0ED0F2
:1078F00009F058FF012038BD07F0ECF83B28EBD821
:1079000009F050FF012384F88030012038BD1D4963
:10791000D1F85035DBB2022BEAD1D1F80032122B6C
:1079200024D1194D194B1A482C60C1F80445C1F8EF
:1079300000021A60DCE71349D1F85035DBB2022BA4
:10794000D6D1D1F80032522B09D10F4D0F4B11482F
:107950002C60C1F80445C1F800021A60C8E70E4B5C
:107960000E4A0F4840F69F310CF0EAFB0D4B0B4AD4
:107970000B4840F6AE310CF0E3FB00BF193300209A
:107980001A330020001000401C3300200810004073
:107990001200080052000800E45703004857030093
:1079A0008C5703000858030038B509F097FE0446C9
:1079B000A0B12E4D2B7853B92D4B1B78023B072BD2
:1079C0001DD8DFE803F0200D0D0D0D1C0D3D07F057
:1079D00081F83B28F0D809F0E5FE0024204638BDA8
:1079E0002B7863B106F01AFFA0F10B03DBB20F2B6B
:1079F0003AD80A381F4B00EB8000C3F8080509F09D
:107A0000D1FE204638BD2B7863B106F007FFA0F108
:107A10000B03DBB20F2B27D80A38164B00EB800084
:107A2000C3F80805012211460020FFF7A1F900283C
:107A3000E5D02B78002BE2D00120FEF7C5FDDEE774
:107A40002B78002BDBD006F0E9FEA0F10B03DBB2B4
:107A50000F2B09D80A380749074B00EB8000012299
:107A6000C1F808051A60CAE7FEF7C0FC1933002008
:107A70001A330020001000401010004038B509F003
:107A80002DFE044630B10A4D2B782BB92B7863B903
:107A900009F088FE204638BD07F01CF83B28F5D8D1
:107AA000002409F07FFE204638BDFEF75BFCEFE7BF
:107AB000193300204ADF70472DE9F8431F4B1B782C
:107AC00073B31F4B1A7892BB01251E4C1D7023788F
:107AD00003F0FF070BB1BDE8F883DFF884801A4E8E
:107AE000DFF88090194BD8F80020A9F80020304624
:107AF000102239461F800CF0AFFBB9F80030D8F8DF
:107B00000420B360304640F20113F26037702570F4
:107B1000B380FFF7CFFF0028DDD02770BDE8F883E2
:107B20000B4B0C4A0C4840F2FD210CF009FB0B4BAF
:107B3000084A094840F2FE210CF002FB39330020CC
:107B400038330020523300203C3300204E330020D5
:107B5000CC5803006058030050590300DC58030060
:107B6000243300205033002030B51C4B1B7883B0E9
:107B700063B31B4A137813B31A4B1B78DBB2022B87
:107B800003D00023137003B030BD17494FF4807049
:107B9000C1F88000BFF34F8FBFF36F8F1348144CB1
:107BA000012505600020206024680194019C10706C
:107BB000BFF35F8FC1F800310B6003B030BD0D4BD8
:107BC0000D4A0E484FF444710CF0BAFA0C4B0A4AB5
:107BD0000A4840F20F310CF0B3FA00BF39330020ED
:107BE000383300205233002000E100E004800040E0
:107BF00040810040BC5803008058030050590300E6
:107C0000CC580300704700BF38B51F4B1A7802F0FC
:107C1000FF037AB11D4B1A78022A0DD11B78022B73
:107C20000DD000231A4A1278012A25D1834294BF2D
:107C300000230123184638BD0023184638BD154BD4
:107C40001549D3F84425D3F80435C989013AD21A25
:107C500022F07F4243F6095340F2FF140025E3FB74
:107C60000245630A43EAC5538A1C9A42D9D29B1A39
:107C7000B3F5965FDAD2D5E7084B094A09484FF4C5
:107C80004E710CF05DFA00BF3833002052330020F3
:107C90004C33002000B0004024330020F45803008F
:107CA000A058030050590300124B1B78022B01D03F
:107CB0000020704730B4104A1049D2F84435D2F849
:107CC0000425C989013B9B1A23F07F4343F60952DF
:107CD00040F2FF140025E2FB0345600A40EAC5506C
:107CE0008B1C834202D3002030BC7047C01A30BCCA
:107CF000704700BF5233002000B000402433002002
:107D0000F0B595B0002415460F4608461E4603F010
:107D10007BFA384623460895082205A91A9D09963C
:107D20000D950A948DF82C400C9403F0D1FA9DF82F
:107D300014308DF81140DDE9061003F00302012A2A
:107D4000CDE9020127D0022A04D0384603F060FAB8
:107D500015B0F0BDBDF81650C3F3C2038DF8103056
:107D6000AD090826082D2C4628BF08243346224694
:107D70000EA9384603F0ACFA2D1B214608AB02AA27
:107D80000EA8264405F03AFE002DEBD1384603F04C
:107D90003FFA15B0F0BDBDF81460059DC6F383161B
:107DA000C3F3C204B2000EA9384608238DF8104070
:107DB000C5F3952503F08CFA08AB324628460EA988
:107DC000009302AB05F0A4FD384603F021FA15B08C
:107DD000F0BD00BF2DE9F0410388112B82B00446AD
:107DE00075D00BD9122B49D0502B04D1714EC288BB
:107DF000F3899A427ED002B0BDE8F081102BFAD10F
:107E0000C37B012BF7D16C4D29884FF6FF7291424D
:107E100040F0B280694F8288664E2A8003CFC5F851
:107E20000A00C5F80E10618A6F89F0894FF0000CC6
:107E30008F4285F808C000F29280AF898F42C0F06F
:107E40008E80E989A78A40F2F314A14294BF4C1AAC
:107E50000C1BBC4200F2838001F2F311B9427ED3C5
:107E60006B720028C7D17369002BC4D00121ADF813
:107E700006208DF8041001A89847BCE74E4D828873
:107E80002B889342B7D141896889884258D8A889FC
:107E9000884255D3E989A48940F2F310814294BF06
:107EA000481A081AA0424BD801F2F311A14247D355
:107EB000404A52694FF480712981002A9BD00121E8
:107EC000ADF806308DF8041001A8904793E73A4DBD
:107ED00082882B889A428ED1686806F01BF918B107
:107EE000344B9B6903B198474FF6FF732B8002B068
:107EF000BDE8F081038A022B7FF47DAF2E4DB0F8F0
:107F000004802F8847457FF476AF123009F046FF92
:107F1000002839D06B7A002B3DD1D6E901132C7A99
:107F200068683A46002C18BF194606F09DF80028EC
:107F30003FF461AFB369002B3FF45DAF98475AE758
:107F40001C4E2C7A6868D6E90113002C18BF19461C
:107F500000236B7206F088F80028EBD14BE7002372
:107F60006B7200287FF447AF6868716806F07CF890
:107F700000283FF440AFDDE70E4B9B69002B3FF438
:107F80003AAF0420984736E7686806F0C3F800283F
:107F90003FF431AFCEE7736900222A72002B3FF421
:107FA0002AAF0122ADF806808DF8042001A8984779
:107FB00021E700BF543300207033002084330020B9
:107FC0000020704710B5044608F05AFE10F11D0F4E
:107FD0000ADB10F1090F04DB0A2808DC0134E0B2E7
:107FE00010BD0234E0B210BD0334E0B210BD1E2853
:107FF00007DD322807DD4628D4BF023C033CE0B24F
:1080000010BD204610BD013CE0B210BD10B50446C5
:1080100008F036FE10F11D0F0ADB10F1090F04DB2A
:108020000A2808DC013CE0B210BD023CE0B210BD01
:10803000033CE0B210BD1E2807DD322807DD4628CC
:10804000D4BF02340334E0B210BD204610BD013469
:10805000E0B210BD10B5044608F012FE10F11D0F7D
:108060000ADB10F1090F04DB0A2808DC013CE0B24E
:1080700010BD023CE0B210BD033CE0B210BD1E28B2
:1080800007DD322807DD4628D4BF02340334E0B2CE
:1080900010BD204610BD0134E0B210BDF0B5224C39
:1080A00094F86A5083B0002D3AD14FF0FF334FF06F
:1080B000FF364FF0FF372946062204F16400C4E979
:1080C0000033C4E90233C4E90433C4E90633C4E924
:1080D0000833C4E90A332366C4E90C67C4E90E67B0
:1080E000C4E91067C4E91267C4E91467C4E91667F4
:1080F0000CF0B2F80D4A0E4B0E491D60C02082F8FC
:108100000603402010601B68019301984FF0004364
:108110000122284684F86A20C1F8043303B0F0BD78
:10812000082003B0F0BD00BF9033002000E100E064
:108130007C61004000600040034B93F86A0000300F
:1081400018BF0120704700BF90330020F0B5704B7E
:108150001C1894F93050002D63DA8E78C6F340066F
:108160009646002E57D01D68013500F0C3800124CB
:10817000082553F82470013756D004F1010C53F848
:108180002C7001374FD0A71CAF4242D253F82720A2
:10819000013200F0AD8004F1030CAC4539D253F844
:1081A0002C7001373FD004F1040CAC4531D253F8A8
:1081B0002C70013737D004F1050CAC4529D253F8A7
:1081C0002C7001372FD004F1060CAC4521D253F8A6
:1081D0002C70013727D004F1070CAC4519D253F8A5
:1081E0002C7001371FD004F1080CAC4511D253F8A4
:1081F0002C70013717D004F1090CAC4509D253F8A3
:108200002C7001370FD00A34AC4202D2DC6A013440
:108210006CD00420F0BD1D6A013571D009240C25F5
:10822000A7E70820F0BD64461F1865B243F824E0B4
:1082300087F8305016B91C4484F858008A785407DF
:108240001AD4D60741D41F284C7887BF314E00F08E
:108250001F0202464FF0A04602F5E072A40046F865
:1082600022402D4EC40800F0070C375D012202FAAF
:108270000CF23A4332558A78097812F002021AD089
:10828000AB0003F1804303F5C0430202D3F81005AD
:1082900020F44F3020F44070C3F810050904D3F8DF
:1082A000100501F4403102F47C520A430243C3F842
:1082B00010250020F0BD083D2B44104693F86020A7
:1082C00042EA811183F86010F0BD1F2887BF114A70
:1082D00000F01F0404464FF0A04202EB8402D2F8E3
:1082E000004724F00204C2F80047BAE70B249BE7DA
:1082F0003C4699E70025C3F800E084F830509DE73C
:10830000082684F830601A623546344693E700BF89
:108310009033002000030050F433002070B4394C37
:10832000251883B095F93030072B10DD234493F8DE
:1083300058309B09032B34D0012B0CBF4FF4003174
:108340004FF440311F284CD84FF0A04339E0DAB247
:10835000072A23D8980000F1804000F5C04003F1BF
:1083600040029200D0F8106592B202F1804202F50C
:10837000C04246F00106C0F8106500201060126887
:108380000192019A51B195F9302054F822202AB176
:1083900001221D4902FA03F3C1F8043303B070BC93
:1083A00070471F2820D9194BD3F8103500F01F0053
:1083B000C34013F0010F14BF4FF440314FF40031AC
:1083C000124B03EB8000D0F8002722F44032C0F8B3
:1083D0000027D0F800370B43C0F8003703B070BC5B
:1083E000704700F01F00EBE74FF0A0421346D2F8B1
:1083F0001025C24012F0010F0CBF4FF400314FF4B2
:108400004031DEE790330020006000400003005060
:108410001F288ABF054B4FF0A04300F01F00D3F880
:10842000103523FA00F000F00100704700030050FF
:108430002DE9F047002388B0CDE90233C84A166819
:10844000012E00F047821E46C64B1A68012A00F032
:108450003382C54B1A68012A00F02082C34B1A6888
:10846000012A00F00D82C24B1A68012A00F0FA813D
:10847000C04B1A68012A00F0E781BF4B1A68012A35
:1084800000F0D481BD4B1A68012A08D0BC4B1A6891
:10849000012A00F02A820EBB08B0BDE8F087B94A75
:1084A000D2F804231706F1D500221A60196800914A
:1084B000603319680098012946F080060ED11A60D1
:1084C0001B6801934FF0A042019BD2F81025AE4BE0
:1084D0000292D3F81035039346F00046AB4F0024C8
:1084E0000125A30003F180432E4203F5C0434FEA68
:1084F00045050BD0D3F8100557F82420D3F81015F4
:10850000C0F30520C1F3014102B190470134082CAA
:10851000E7D1002EC0DA0DF110089C4C9A4F0023D1
:10852000C8F80430049394F960304FF0FF304FF0F6
:10853000FF315D1CCDE906014FF0010600F0F5802A
:108540005FFA83FC2CF0C00008AB4FEAD00903EBC4
:10855000090E0CF007031EF8082C06FA03F312EAC2
:10856000030521D022184FEA9C1192F9302054F8CB
:108570002220002A00F03481032900F033811F28D3
:1085800000F2E98005464FF0A04C0CEB850C1EF87C
:10859000185CDCF800E71D40CEF3014E40F0CF80C0
:1085A000BEF1030F00F0B38194F96130581C32D052
:1085B000DBB223F0C00008AA4FEAD00E02EB0E0C8B
:1085C00003F007011CF8082C06FA01F912EA090F5A
:1085D00021D02218990992F9302054F82220002A3B
:1085E00000F01081032900F010811F2800F2F480B0
:1085F00003464FF0A04E0EEB83031CF818ECD3F8A3
:1086000000C71EEA090FCCF3014C40F0D980BCF141
:10861000030F00F08E8194F96230591C32D0DBB226
:1086200023F0C00008AA4FEAD00E02EB0E0C03F0B4
:1086300007011CF8082C06FA01F912EA090F21D0EB
:108640002218990992F9302054F82220002A00F0CB
:10865000CF80032900F0CF801F2800F2A5800346B9
:108660004FF0A04E0EEB83031CF818ECD3F800C7B4
:108670001EEA090FCCF3014C40F08A80BCF1030FD5
:1086800000F06B8194F963305A1C33D0DBB223F0D5
:10869000C00008AA4FEAD00E02EB0E0C03F007024E
:1086A0001CF8081C06FA02F2114223D004EB000960
:1086B000990999F9309054F82990B9F1000F00F018
:1086C000AB80032900F0AB801F288BBFBE464FF064
:1086D000A04E03F01F0303460EEB83031CF818ECB7
:1086E000D3F800C71EEA020FCCF3014C60D1BCF1F5
:1086F000030F1CD0002D3FF4CFAE4FF0A042029BE1
:10870000D2F81015D7F810058B4203D1039B834292
:108710003FF4C2AEDDE90423CDE9062394F96030CD
:108720005D1CCDE902107FF40BAF00253CE7032967
:1087300000F02981B9F1000FDCD0C847DAE7BEF1BB
:10874000020FF2D1032900F039810025002A3FF4FD
:108750002BAF904728E70CF01F05BC4615E700BF7C
:108760000061004004610040086100400C6100406D
:108770001061004014610040186100401C6100401D
:108780007C610040006000400003005090330020F6
:10879000BCF1020F7FF476AF032900F00C81002AB0
:1087A0003FF470AF90476DE703F01F03BE4659E7F3
:1087B000BCF1020F9ED10329BCD14FF4403CE4E050
:1087C000BCF1020F7FF427AF032900F0F180002AEB
:1087D0003FF421AF90471EE703F01F03BE460AE7B0
:1087E0000329A2D118F809501D4308F80950C6E61C
:1087F00003297FF447AF18F80EA04AEA090A08F8DF
:108800000EA029E703297FF406AF18F80EA04AEA64
:10881000090A08F80EA0E8E603297FF46BAF18F800
:108820000EA04AEA020A08F80EA04DE7654AD2F8FF
:10883000042352067FF526AE00221A601B680093BF
:10884000009B46F040061DE65E4AD2F804239106DE
:108850007FF513AE00221A601B680093009B46F060
:1088600020060AE6574AD2F80423D0067FF500AE68
:1088700000221A601B680093009B46F01006F7E583
:10888000504AD2F8042314077FF5EDAD00221A6098
:108890001B680093009B46F00806E4E5494AD2F8BD
:1088A000042355077FF5DAAD00221A601B68009398
:1088B000009B46F00406D1E5424AD2F8042397070C
:1088C0007FF5C7AD00221A601B680093009B46F03D
:1088D0000206BEE53B49D1F8041311F0010150D066
:1088E000136013680093009BAEE500221A601B68BA
:1088F00001934FF0A042019BD2F81025324B029217
:10890000D3F810350393002E3FF405AEE4E50329B8
:108910007FF41CAF4FF40035DCF8003723F440330C
:10892000CCF80037DCF800372B43CCF800370125B2
:108930000CE703297FF44BAF4FF4003ED3F800C798
:108940002CF4403CC3F800C7D3F800C701354EEA09
:108950000C0CEDB2C3F800C739E703297FF41FAF51
:108960004FF4003ED3F800C72CF4403CC3F800C7D6
:10897000D3F800C701354EEA0C0CEDB2C3F800C7BE
:108980000DE70E4660E54FF4003CD3F8002722F4D3
:108990004032C3F80027D3F80027013542EA0C0221
:1089A000EDB2C3F80027B9F1000F7FF4C6AEA4E61C
:1089B0004FF4403EC2E74FF4403ED3E74FF440351A
:1089C000AAE700BF006000400003005070B52C4AC9
:1089D00082B0012102E0C2E8431FDBB1D2E84F3F81
:1089E000DBB28DF803309DF80330002BF3D0BFF3DA
:1089F0002F8F244B1B682BB1234B18680230400883
:108A000002B070BD204B1A68D207F6D4186840082F
:108A100002B070BD1D4C0225C4F80853BFF35F8F30
:108A20001848016851B9184B1868C4F8045301304C
:108A30004008BFF35F8F117002B070BD12490E681D
:108A400001360E60BFF35F8F0360006801900198EC
:108A50000868C4F8045301304008BFF35F8F1370F7
:108A60000B68DC0704D50B6801330B6002B070BDE6
:108A7000074B084A08484FF486710BF061FB00BFB2
:108A80000034002004410240043400200040024031
:108A90005C5A0300E0590300745A0300054B5B68FD
:108AA000DB0602D5044B01221A60024B1022C3F8E8
:108AB0008420704700E100E0FC330020044B1A687A
:108AC00022B1044A0020102118605160704700BF95
:108AD000FC33002000E100E0F0B583B0FFF776FF43
:108AE000BFF35F8F374BD3F80465BFF35F8F364A10
:108AF000012102E0C2E8441F6CB3D2E84F3FDBB271
:108B00008DF803309DF80330002BF3D0BFF32F8F87
:108B10002E4B1B68C3B12E4B1B6802335B08984277
:108B200018BF284A2B4818BFD2F8046540F2FF143A
:108B300043F609520025E2FB0645620A42EAC552A5
:108B400003FB002003B0F0BD214B1A68D207E3D429
:108B50001B685B08E3E71B4D0227C5F80873BFF3EA
:108B60005F8F1A4B196849B9194B1B68C5F8047314
:108B700001335B08BFF35F8F1170D0E71449D1F860
:108B800000C00CF1010CC1F800C0BFF35F8F1C6086
:108B90001B680193019B0B68C5F8047301335B08E4
:108BA000BFF35F8F14700A68D40703D50A680132D7
:108BB0000A60B4E7084B094A09484FF486710BF084
:108BC000BFFA00BF004002400034002004410240D0
:108BD000043400200080841E5C5A0300E059030026
:108BE000745A03001F2070472DE9F04F85B00646E8
:108BF0008B46FFF7EBFE8146BFF35F8FDFF83C82C9
:108C0000D8F80475BFF35F8FFFF7E0FE814518BF0A
:108C1000D8F804758649DFF824C243F6095340F2B8
:108C2000FF184FF00009E3FB07894FEA582242EA98
:108C3000C9524FEA5923E1FB002396424FF4803199
:108C4000CCF808131046CCF8441303D9B11A002904
:108C5000C0F2D1808642C0F0C6809A461BEB06085F
:108C60004FF000014FF0000C41F1000918EB0C0E21
:108C700049EB0A0A6F494FEA5E3848EACA48A8FB3E
:108C800001894FEA5A3001FB00994FEA187141EA15
:108C900009114FEA197848014FEA4816401A46EA86
:108CA000D16666EB08064FEA86194FEA801B49EA4F
:108CB0009069BBEB000069EB0606F6004FEAC009BD
:108CC00046EA507619EB010046EB0806BEEB0004BD
:108CD0006AEB06054FEA48204FF00009DFF8708183
:108CE000A94508BFA04540EAD1504FEA4121C0F054
:108CF0009880DFF86081504E40F2314E0EFB04FE4A
:108D000008FB05EEA4FB0889F1444FF0FF3E18EB89
:108D10000E0E47F6FF7444EB0905ED0B69184CEB9A
:108D200000084D014FEA4814B5EB010C44EAD16448
:108D300064EB080084014FEA8C15B5EB0C0544EA9E
:108D40009C6464EB0004E400E80044EA557440F2DB
:108D5000FF1C451844EB0804002015EB0C0540EB04
:108D600004044FEA552A4AEAC45A4FEA542BC6E98A
:108D700000AB324CC4F84015D4F80415B9421ED0EB
:108D8000FFF724FE0746BFF35F8FD4F80455BFF307
:108D90005F8FFFF71BFE874218BFD4F804552449A4
:108DA00043F6095440F2FF120023E4FB0523520A64
:108DB000D6E900AB42EAC3525B0AE1FB002312F1A1
:108DC0003E0143F1000300910193DDE900345C456D
:108DD00008BF534513D2194B4FF48032C3F8042314
:108DE00005B0BDE8F08F801B0028BFF636AF111C20
:108DF00043F1010A32E7111C43F1FF3A2EE7104A12
:108E00000E4B002111601268039203994FF48032D7
:108E1000C3F84823C3F8082305B0BDE8F04F04F0B9
:108E2000D3BC084B084A094883210BF089F900BFDD
:108E30000080841ED07B630808340020004002407C
:108E400040410240F8590300C4590300085A030086
:108E5000452C16007B2DE8BD074A084B4FF48031A6
:108E60000020C2F8481382B0C2F8081318601B68CB
:108E70000193019B02B07047004002404041024014
:108E80002DE9F84F5D4CDFF88CB1DFF88CA1FFF7CE
:108E90009DFD8046BFF35F8FD4F80455BFF35F8F0D
:108EA000FFF794FD804518BFD4F80455544943F6A4
:108EB000095340F2FF184FF00009E3FB05894FEA20
:108EC000582242EAC9524FEA5923E1FB002312F12A
:108ED0003E0C43F100004FEA5C3242EAC042A2FB82
:108EE0000B23410B0BFB0133110F41EA03111A0F46
:108EF0004FEA411E5301BEEB010E43EAD16363EB1F
:108F000002084FEA88134FEA8E1943EA9E63B9EBD1
:108F10000E0E63EB0803DB004FEACE0843EA5E73F4
:108F200018EB010E42EB0303BCEB0E0660EB0307EC
:108F3000DFF8E8804FF00009B9454FEA422E4FF4C0
:108F4000003008BFB0454EEAD15EC4F808034FEACE
:108F500041214FF00002C4F8440348D340F23143AA
:108F600003FB06F3A6FB0A890AFB073399444FF07B
:108F7000FF3318EB030347F6FF7349EB0303DB0BE7
:108F8000591842EB0E0C4B014FEA4C12B3EB010E99
:108F900042EAD16262EB0C084FEA8E134FEA881264
:108FA000B3EB0E0342EA9E6262EB0802D2004FEA84
:108FB000C30EC4F8441542EA5372C4F804031EEB0E
:108FC000010340F2FF1142EB0C02D4F804055B18D8
:108FD00042F100025B0A0B4943EAC253A8424FEA3E
:108FE0005222C1E902327FF452AFBDE8F88F064B3E
:108FF000064A074883210BF0A3F800BF0040024057
:109000000080841E08340020F8590300C45903006E
:10901000085A0300D07B63087B2DE8BD452C160061
:109020002DE9F84F06468846FFF7D0FC8246BFF38D
:109030005F8FDFF89891D9F80475BFF35F8FFFF762
:10904000C5FC824518BFD9F804755F4943F609533A
:1090500040F2FF1A4FF0000BE3FB07AB4FEA5A2236
:1090600042EACB524FEA5B23E1FB0023574F104605
:10907000194686424FF40033C7F808330246C7F852
:10908000443303D9331A002BC0F293809642C0F0C8
:10909000888018EB060A4FF000094FF0000249F1F2
:1090A000000B1AEB02064BEB0107494B4FEA56380F
:1090B00048EAC748A8FB0389790B03FB01994FEAEB
:1090C000187141EA09114FEA197C48014FEA4C1323
:1090D000B0EB010E43EAD16363EB0C084FEA8E104C
:1090E0004FEA8813B0EB0E0043EA9E6363EB08037C
:1090F000DB004FEAC00E43EA50731EEB010043EB66
:109100000C03341A67EB0305324E0027AF424FEAD7
:109110004C2C08BFA6424CEAD15C4FEA41214CD30B
:109120002D4E2E4840F2314303FB04F306FB05337A
:10913000A4FB06451D444FF0FF33E31847F6FF73C9
:1091400045EB0303DB0B591842EB0C0C4B014FEAC8
:109150004C125C1A42EAD16262EB0C05AA01A3012F
:109160001B1B42EA946262EB0502DC00D20042EA79
:109170005372631840F2FF1442EB0C0200251B19D6
:1091800045EB02025B0A43EAC253520A0F4CC0E9A4
:1091900002324FF40035C4F84415C4F80453BDE856
:1091A000F88F921B002ABFF674AF003041F1010125
:1091B0006FE7003041F1FF316BE7094B094A0A487C
:1091C00083210AF0BDFF00BF0080841E00400240E2
:1091D000D07B6308452C16007B2DE8BD08340020A9
:1091E000F8590300C4590300085A0300074A084B02
:1091F0004FF400310020C2F8481382B0C2F80813BF
:1092000018601B680193019B02B070470040024048
:1092100044410240014B9868704700BF0834002069
:10922000F0B52F4B1B6883B08BB92E4CD4F80433A8
:10923000D90302D52C4B1A68FAB92A4BD3F8042368
:10924000920302D5294A116841B903B0F0BD254BFC
:109250000222C3F80823FFF7B9FBE6E700211160FB
:10926000126800924FF400320099C3F84823C3F803
:10927000082307F0E7FE03B0F0BD00221A601B6868
:109280000193019BFFF7A2FB0546BFF35F8FD4F864
:109290000465BFF35F8FFFF799FB854218BFD4F8D1
:1092A0000465134F134943F6095340F2FF14002598
:1092B000E3FB0645620A42EAC5526B0AD7E900455C
:1092C000E1FB0023AB4208BFA242B6D3054B4FF4EB
:1092D0008032C3F84823C3F8082304F075FAACE7DA
:1092E00004410240004002404041024044410240EB
:1092F000083400200080841E33DF704741DF704750
:10930000064A074B10B5002414701C60BFF35F8F32
:109310000449054801F020FB204610BD21340020FF
:1093200024340020E05A03001834002000B583B034
:1093300000230DF107008DF8073008F083F9F1EEF6
:10934000103A23F09F03E1EE103ABFF35F8F0B4B0F
:109350004022C3F884219DF8070008F099F900F035
:10936000F9FA28B920BF40BF20BF03B05DF804FB65
:10937000FFF7C4FF03B05DF804FB00BF00E100E0AD
:10938000F8B5264D04460121284605F059FABFF3E9
:109390005F8FD0B9042C3CD0214B1A7892B9214E62
:1093A000012234701A70204C63687BB1274604E0B8
:1093B000384601F0DBFA636843B11B6830789847A0
:1093C0000028F5D1BFF35F8F2860F8BD06F0D2FE0C
:1093D00005F0D8FE0028FBD13378023B012B0BD9D6
:1093E00000F0B8FAB8B94FF080430122C3F8002565
:1093F000BFF34F8F20BFFDE7BFF34F8F0B490C4BDF
:10940000CA6802F4E0621343CB60BFF34F8F00BF22
:10941000FDE7044EC7E7FFF76FFFE4E724340020C1
:1094200021340020203400201834002000ED00E01A
:109430000400FA0508B5094B5A78022A01D0012028
:1094400008BD0028FCD0002205485A7004F016F927
:109450000A2005F045F9012008BD00BF283400208E
:109460002C34002008B5034A034B044840F2BD11D8
:109470000AF066FEF85A030058580300145B030014
:1094800008B590F880301BB901F09AFF38B108BDDB
:10949000044B054A054840F2B7110AF051FEFFF7A8
:1094A000E1FF00BF605B0300F85A0300145B030098
:1094B00070B582B0044601A80D46164607F058FD67
:1094C00050B1019B002B08BF01233246294620469C
:1094D000FFF7D6FF02B070BD03463246294620464C
:1094E000FFF7CEFF02B070BD704700BF41B108B5B5
:1094F00091F88030084633B901F062FF08B108BD29
:109500007047FFF7AFFF034B034A044840F2B7111F
:109510000AF016FE605B0300F85A0300145B0300B8
:10952000F0B5054685B016461F460C4689B103A81E
:1095300007F01EFD40B900903B46324621462846C2
:10954000FFF7D4FF05B0F0BD0398002808BF012045
:10955000F1E70846EFE700BF704700BF704700BF64
:10956000704700BF704700BF704700BF10B44FF096
:1095700080414FF080520020C1F80C015E4BC1F8D1
:109580001001C1F83805D2F80414C3F82015D2F838
:109590000814C3F82415D2F80C14C3F82815D2F80F
:1095A0001014C3F82C15D2F81414C3F83015D2F8DF
:1095B0001814C3F83415D2F81C14C3F84015D2F8A7
:1095C0002014C3F84415D2F82414C3F84815D2F86F
:1095D0002814C3F84C15D2F82C14C3F85015D2F83F
:1095E0003014C3F85415D2F83414C3F86015D2F807
:1095F0003814C3F86415D2F83C04C3F86805D2F8EF
:1096000040043E49C3F86C050968D2F84424C3F805
:109610007025082924D04FF08043D3F80024D207C6
:1096200044BF6FF00102C3F80024354AD2F88830F5
:1096300043F47003C2F88830BFF34F8FBFF36F8FCE
:109640004FF01023D3F80022002A23DBD3F8043292
:10965000002B1FDB2B4B2C4A1A605DF8044B704724
:109660002A4B1B68002BD6D129482A4A2A4C046071
:109670002A492B4BFB20C2F818050A681B682948A9
:1096800022F00F0203F00F0313434FF400720B603C
:109690000260C0E7244A0123C2F80435D2F800343E
:1096A000002BFBD04FF0102312211F4AC3F80012E9
:1096B000D2F80034002BFBD04FF0102312211A4AAD
:1096C000C3F80412D2F80034002BFBD00023164953
:1096D000C2F80435D1F80034002BFBD0BFF34F8F14
:1096E0000749124BCA6802F4E0621343CB60BFF330
:1096F0004F8F00BFFDE700BF00C0004030010010E9
:1097000000ED00E0383200200090D003340100105A
:109710008C56004000F0004048810300E40E0040F9
:10972000580200104096024000E001400400FA0593
:1097300010DF704711DF704770B53C4D2B7884B057
:10974000002B66D13A4E3B49012302A8337001F049
:1097500003F9039B2BB90EE002A801F007F9039B64
:109760004BB1D3E90021002090470028F4D10446F2
:10977000204604B070BD304902A801F0EDF8039B0B
:109780004BB1D3E900210020904702A801F0EEF888
:10979000039B002BF5D1294A002312688DF808306D
:1097A00002A8019207F04EFF254901A8FFF7C0FF6C
:1097B000B0FA80F304465B099DF808002B7007F0AF
:1097C00067FF002CD4D11F4B1F491C70347091F8D7
:1097D0001623EC2352091341DB071ED51B4B9A6855
:1097E00002B31A6842F480021A60134902A801F019
:1097F000B3F8039B002BBBD0D3E900210120904795
:1098000002A801F0B3F8039B002BF5D1204604B069
:1098100070BD0824204604B070BD42F2020004F07E
:109820006BF9E2E74FF480030B60DEE74134002080
:10983000403400207C5B0300945B0300785B0300F2
:10984000292003004234002000E100E028640020C9
:10985000F0B5324D2B7883B0002B55D0304E3149C6
:1098600001236846337001F077F8019B2BB90EE0B5
:10987000684601F07BF8019B4BB1D3E90021012040
:1098800090470028F4D10446204603B0F0BD264995
:10989000684601F061F8019B4BB1D3E90021022039
:1098A0009047684601F062F8019B002BF5D1002734
:1098B00068468DF8007007F0C5FEFFF73BFF0446D1
:1098C0009DF800002F7007F0E3FE002CDCD1174B51
:1098D00034709A68E2B9164B4FF48002C3F88020C6
:1098E0001149684601F038F8019B002BCCD0D3E930
:1098F000002103209047684601F038F8019B002BB7
:10990000F5D1204603B0F0BD0824204603B0F0BDD9
:109910001A6822F480021A60E2E700BF4134002096
:10992000403400207C5B0300945B0300286400202B
:1099300000E100E0054B1B7833B1054B1B780BB100
:10994000FFF786BFFFF7F8BE0820704740340020BD
:1099500041340020014B1878704700BF413400208B
:1099600000B583B06846084900F0F6FF019B43B19B
:10997000D3E900209047684600F0F8FF019B002BD8
:10998000F6D103B05DF804FB885B0300F0B5374CFB
:10999000374D67886268BE00F31905EB830383B017
:1099A000596801F58050002A5CD05388033302EBDC
:1099B0008302904228D91368013325D0538803339A
:1099C00002EB830398421FD34FF6FF7EB2F804C028
:1099D000F44517D0B2F800C0BCF1000F12D062609D
:1099E0005388244D2448AE882968033300259BB250
:1099F00000959B0001EB86010325257001F0C8FF4F
:109A000003B0F0BD98420DD83E4405EB8605EB68E7
:109A1000D3B9194804250122257003B0BDE8F040F0
:109A200002F054B81A6801321A46EDD0B3F802C0F9
:109A30000CF1030C03EB8C039842C7D23E4405EBB8
:109A40008605EB68002BE4D00A4B0B48196802220C
:109A50009A80052500230122257003B0BDE8F0405F
:109A600002F034B801F10802A3E700BF6834002017
:109A700080340020BC340020DC320020F0B4436885
:109A80001BB1374AD468A34246D20023354F0B801E
:109A90007A684FF0010C02F580544FF6FF760832D9
:109AA00094420ED8BCF1020FA1F800C007F11407D0
:109AB00054D07A6802F58054083294424FF0020C78
:109AC000F0D913680133EDD05388033302EB8303DD
:109AD0009C42E7D39588B5420AD0158845B1956870
:109AE00003689D4211D05388033302EB8302D7E70A
:109AF0009C42D7D91A6801321A46D3D05D88033503
:109B000003EB85039C42E5D2CCE7174B42601B89EF
:109B100003810120F0BC704712699342B5D813F05D
:109B20000305B2D1104A048912899442ADD1046868
:109B30009A689442A9D10B484268934203D902F52E
:109B40008052934207D38269934207D902F580522B
:109B5000934203D201250D800120DBE70020D9E7E5
:109B6000DC32002080340020683400202DE9F04FE2
:109B7000AE4E89B004464FF6FF773568002D00F0F1
:109B8000C0802A78531E052B00F2F180DFE803F035
:109B90003D4A4A1E1E03002C40F0BA80DFF8B0C2D6
:109BA0009CF80C209CF80030002A00F07081013BEA
:109BB0008CF80C40062B00F2DA80DFE813F0E603A5
:109BC0000C032002F801D8001E030F03002C40F004
:109BD0009F802B79012B00F08081002B00F06481A5
:109BE0000DF10C08022B0394C8E90244C8F8104098
:109BF00040F0C580204604902B78023B042B36D8D9
:109C0000DFE803F06F5B4F2F7B00002C40F08A8071
:109C10002B79032B00F2E680DFE813F0FB00200134
:109C2000F000C100B5F81490A97D002C40F08680AA
:109C30004FEA8904DFF8208204EB090308EB830371
:109C4000B3F808A05B6803EB8A0A062900F2C58313
:109C5000DFE811F06A02790242025502010226028F
:109C6000E90104238DF80C30EB88ADF81830704C06
:109C700004F1100554F8043B404603B19847A5424F
:109C8000F8D16C496C480024346006F0B9FA01211F
:109C90006A4804F003FE00287FF46FAF09B0BDE806
:109CA000F08F03238DF80C30EB88ADF818302B893A
:109CB000ADF81A30EB680593D9E702238DF80C3024
:109CC0002B89ADF81830AB88ADF81A30EB680593E6
:109CD000AB7DA3F10603B3FA83F35B098DF81C3067
:109CE000C5E701238DF80C302B89ADF81830AB880F
:109CF000ADF81A30EB680593B9E705238DF80C3001
:109D0000B5E74C494C4806F04BFA0546306038E759
:109D10000DF10C080023C8F808300393C8E9033399
:109D2000012068E70DF10C08454A002353600393B6
:109D3000C8E90233C8F8103001205CE70229EA883C
:109D40001FD8DFF814814FEA890404EB090108EBFE
:109D500081010DF10C084B89033B9B1A00224B81BA
:109D6000C8F808200392C8E90322012043E7002332
:109D70000DF10C08C8E90333C8F8083003930F202D
:109D800039E74FEA8904DFF8D08004EB090108EBDA
:109D90008101D31C0A8913440B81EA88D5E7294C39
:109DA000294A21682948DFF8B0804FF0000985F87A
:109DB00004900823CDF8009001F0EAFD244B2568BB
:109DC0005B88A18803EB830308EB830208F82390E8
:109DD00053682360022355601181A38000283FF45B
:109DE0005DAF3568164A0DF10C08002353600393EC
:109DF000C8E90233C8F810300E20FCE6114A1348B7
:109E00001168002302242B719480012201F05EFE70
:109E1000E4E70C4B0F4A19680C4801232B7100230F
:109E20000093082301F0B4FDD8E700BF7C34002084
:109E30005034002078340020A8340020B8340020AA
:109E400060340020BC340020AC5B0300DC32002016
:109E500068340020B45B030080340020DFF82883DE
:109E600098F80030022B00F0A68298F81430022BEC
:109E700000F0B182BD4B0DF10C08002001221A70D8
:109E800003905860C8E90200C8F81000B3E6072B39
:109E900000F23082DFE813F000022E022E0294015D
:109EA000EC01A201A201C60102232B71CDE90444F9
:109EB0000DF10C08EB68039340460DF10A01FFF722
:109EC000DDFD002840F062810A200023C8E900334C
:109ED000C8E90233C8F810308DE6A44B1B78002B7C
:109EE00000F03E82DFF888C2BCF80430012B12D8A3
:109EF000DFF8948203EB8302994608EB8202137821
:109F0000C3B109F1010399B201299946ACF80430B3
:109F100002F11402F3D90DF10C0808220021944833
:109F20000AF09AF90020C8F808000390C8E9030075
:109F3000356860E65368DCF8001003F5805E03F1D5
:109F4000080A002900F0F1814B88033301EB8301FB
:109F50008E4540F2E7810B68013300F0E3814B88C6
:109F6000033301EB83039E45C0F0DC818888B8424F
:109F700000F0D681B1F800B0BBF1000F00F0D08145
:109F8000EB88CCF800108342DBD100230093794AA0
:109F90007948042301F0FCFC002840F0078209EB1B
:109FA000890308EB8308012388F8103076E6BCF8B3
:109FB0000230DFF8D48103EB830308EB8308D8F881
:109FC0000C30002B40F0BF8104228CF80020D8F820
:109FD00004106948012201F079FD00283FF45EAECB
:109FE00035680DF10C08002341F61D52C8F8083001
:109FF0000393C8E90333904208BF1846FBE5DCF839
:10A0000004205E485388848801685B4801EB840122
:10A010000333002400949BB203249B008CF800407F
:10A0200001F0B6FCD9E7EA88AC4641F61D5004EBD6
:10A03000090108EB8101D31C0A8913440B81EA88CA
:10A0400065464C4408EB8408B8F80A30033B9B1A79
:10A05000A8F80A30C5E74A4BAA694A491A604FF086
:10A06000000B1846C3F804B0FFF708FD002800F005
:10A070008F810223AB7504235146CDF800B0EA1856
:10A080003D4801F085FC00283FF408AEAB7DD6F8D2
:10A0900000C0EA88022B00F2878165460E20D0E7D7
:10A0A000384B374AB3F800A051683348314A00238F
:10A0B0004FF0060C85F816C00093042301F068FCED
:10A0C0000028E3D10AEB8A0A08EB8A08012388F802
:10A0D000103009B0BDE8F08F2B692748002B14BF62
:10A0E000032301230022AB750AF108010092042327
:10A0F00005F10C0201F04CFC0028C7D1CEE5EB883D
:10A100002A691D484FF0010C85F816C04FF0000C6D
:10A110000AF10C019B00CDF800C001F039FC0028C9
:10A12000B4D109B0BDE8F08F02230022AB7504233F
:10A1300000925146EA18104801F02AFC0028A5D1E7
:10A1400009B0BDE8F08F032A0CBF052306230022C7
:10A15000AB750AF104010092042305F108020648D8
:10A1600001F016FC002891D198E500BF6034002072
:10A17000C8340020A85B0300DC320020BC3400207F
:10A1800044340020C4340020803400200499954ACF
:10A190008B88EB800B882B81934800940423BDF8B7
:10A1A0000A4001F0F5FB002840F0FB808F4B04EBE8
:10A1B000840403EB84040123237409B0BDE8F08F09
:10A1C0008B4ADCF804109388498803330B4402213E
:10A1D00093808CF80010FFF7D9FBFEE6844B854A8C
:10A1E0001968814800230093CCF8043007238CF8C9
:10A1F0000030082301F0CCFBEFE6BCF80220DFF8CA
:10A20000EC819300134408EB830806200023D8F860
:10A210000410794A00938CF800000823724801F07A
:10A22000B7FBDAE601238CF800309CF80A304BB11A
:10A23000DFF8B881D8F80C3000228CF80A20002B07
:10A2400000F09D809CF80B30002B43D0DFF89C8100
:10A25000D8F8203000228CF80B20002B3AD198F847
:10A260002430BBB30123ACF80230FFF78FFBB4E618
:10A27000BCF80220DFF874815D4C9300991808EB5C
:10A28000810120684D68B4F804E048600220256030
:10A29000A1F808E0A080B5E7DFF85081BCF808100D
:10A2A00098F8142098F80030B2FA82F2520901317D
:10A2B000B3FA83F35B098CF80B20ACF8081000228A
:10A2C00001218CF80A30ACF802208CF80C208CF8B4
:10A2D0000010ACE70DF10C080020C8F808008CF85D
:10A2E0000000ACF80200CCF804000390C8E90300B9
:10A2F000356880E4013B062B3FF639AD01A252F8E8
:10A3000023F000BF8BA30200D7A10200FF9F020031
:10A31000AF9F02006F9D0200FBA10200DDA10200C1
:10A320009E4504D8CCF80040EBE5514610E619688C
:10A3300001311946F6D05888033003EB80039E455F
:10A34000BFF414AEEEE72A4B2748196802229A8020
:10A3500005228CF800200023012201F0B7FB3CE627
:10A360000DF10C0808222146244809F075FF0394DA
:10A37000C8E90244C8F81040356802203BE498F868
:10A380001020002A3FF45EAF6DE79CF80A304EE7DC
:10A390000DF10C080390C8E90200C8F810000A206B
:10A3A00029E435680E2090E50E2040E635680E2041
:10A3B0000DF10C0889E500239A001A4408EB82038A
:10A3C000002059680090082308F822000A4A06482D
:10A3D00001F0DEFA02E50123EEE7EA88AC460F2041
:10A3E00025E600BFA85B0300DC320020803400209B
:10A3F000BC340020B45B0300AC5B0300C834002015
:10A400004068FFF7B3BB00BF022004F0EBBD00BF04
:10A410002DE9F0470D46064604F012FE03281ED82B
:10A42000012D04461DD075B1022D18D11C4B00EB37
:10A4300040041C44657895B11A4B1B687BB12846D3
:10A44000BDE8F0471847184803F064FE144B174A5C
:10A4500004EB44010B44125D9D78AA42EBD0BDE8A9
:10A46000F0870F4F4FEA400808EB0003FA18FD5C35
:10A4700053783BB9A04447440C4BBA781A55002D89
:10A48000EDD0D9E7DFF8289007484A464FF400415D
:10A4900003F0EAFD0028EDD189F80060EAE700BF8B
:10A4A0003435002048350020F43400205035002099
:10A4B000D034002010B5007804F0C2FD03280BD87A
:10A4C000064B00EB40001844407828B1044B1B6851
:10A4D00013B1BDE81040184710BD00BF343500204F
:10A4E0004835002038B5C14D2B78044663B1C04BC8
:10A4F0001B780020287023B304F036FD012004F0FF
:10A5000033FD032004F030FD172C00F26C81DFE8EE
:10A5100014F0E600FB00FB00A000B300C600D8006A
:10A520004E001B0028001B0028005D006400640032
:10A530006400640064008D0011012601350057009D
:10A54000570004F023FDDFE7012318462B7004F0C9
:10A5500049FD002240F6CD41A648BDE8384003F051
:10A5600083BD012318462B7004F03CFD00224FF4FC
:10A570008041A048BDE8384003F076BD9C4B1B7875
:10A58000002B00F02781002004F0EEFC012004F0F5
:10A59000EBFC032004F0E8FC002004F0D3FC0120D5
:10A5A00004F0D0FC944B15221A70002506E0002020
:10A5B00004F0C8FC904B07221A700025284638BDCD
:10A5C00004F0FAFC8C4B00251C70F7E704F0F4FC57
:10A5D000894B0C221A700025F0E7884803F09AFD99
:10A5E000D4F11104054600F0E880002840F0E58031
:10A5F000012C14D0C82303FB04F44FF4FA704FF479
:10A6000000430021C3FB04014FF47A7200230AF0D7
:10A61000DBFE2A460146794803F026FD0546022066
:10A6200004F090FC724B01221A70C7E7704B1B7844
:10A63000002B00F0D280002004F096FC012004F0F2
:10A6400093FC032004F090FC6B4B12221A7000253F
:10A65000B4E7002004F062FC002840F0A88004F079
:10A6600071FC41F69A11644B624803241C7000226D
:10A67000BDE8384003F0F8BC002004F04FFC00288F
:10A6800040F08F8004F05EFC43F233315A4B59485E
:10A6900004241C700022BDE8384003F0E5BC002013
:10A6A00004F03CFC002878D104F04CFC524B51489B
:10A6B00005241C70002241F69A11BDE8384003F0D1
:10A6C000D3BC002004F08EFC4B4B4A4806241C707F
:10A6D000002240F6CD41BDE8384003F0C5BC444BF4
:10A6E0001B78002B73D0002004F03EFC012004F006
:10A6F0003BFC032004F038FC3E4803F00BFD3E4BCE
:10A70000002205461A7059E7002004F007FC0028D3
:10A7100039D104F017FC41F69A1143F23333022C7D
:10A7200018BF1946344B33481C700022BDE838402E
:10A7300003F09ABC2E4B1B78002B45D0002004F070
:10A7400013FC012004F010FC032004F00DFC002099
:10A7500004F0F8FB284B13221A7000252EE7244B37
:10A760001B78EBB3002004F0FFFB012004F0FCFB9E
:10A77000032004F0F9FB012004F0E4FB1E4B14223B
:10A780001A7000251AE7002004F0EEFB022C4EF2AE
:10A79000666118BF4FF40031C4E7002004F0E4FB09
:10A7A00084E7002004F0E0FB4FF400316EE7002066
:10A7B00004F0DAFB46F2666155E7022004F0D4FBB0
:10A7C0000B4B00221A70F9E604F0E0FBBFE704F03F
:10A7D000DDFB91E704F0DAFBDEE604F0D7FB33E7BC
:10A7E00004F0D4FBC7E70025E8E600BF44350020AD
:10A7F000D1340020143500204C350020D434002002
:10A80000044B1B68DB0700D47047034B1878FFF735
:10A8100069BE00BF403500204C350020032801D917
:10A820000020704704F0F8BB044B1B6813F00103D1
:10A8300001D118467047FFF755BE00BF40350020D4
:10A8400038B5254B254A19608307106000F00105D3
:10A8500003D44DBB2C46204638BD214B21480E2445
:10A860000F2210211C701124DA7099715C7240F271
:10A870006662042106F0E4FA044610B135BB2046B6
:10A8800038BD06F035FB04460028F7D10146164ACC
:10A89000164803F0D7FB0446002DF0D0012004F049
:10A8A000E1FB002CEBD102E0012004F0DBFB104ABD
:10A8B0001048002103F0C6FB04460028DFD10E4AF1
:10A8C0000E480121BDE8384003F0BCBB012004F074
:10A8D000C9FB204638BD00BF483500204035002068
:10A8E00034350020BC5B0300B5A40200E05B03002C
:10A8F00001A80200E45B030009A40200DC5B030082
:10A90000032807D8012A07D001291DD04BB28BB1EB
:10A91000022908D007207047012912D001294FF0E1
:10A920000002F3D110E00B4B00EB40000344002089
:10A930005A707047074900EB4000014418468A707E
:10A94000704700F10E02D2B200EB40030149002033
:10A95000CA5470473435002001600B6843604A6870
:10A96000934204BF00234360704700BF436843B174
:10A97000026891680B4443605268934204BF00230D
:10A98000436070478ADF70478BDF70478CDF70470A
:10A9900058B152B1F8B504461546042900F2D080EA
:10A9A000DFE801F0123663B205000E20704790F820
:10A9B0005600002840F0B8801388B4F854209A421A
:10A9C00040F0B6800020F8BD10460AF01FF80138AC
:10A9D000C0B21F2800F2AA8094F82060002E40F038
:10A9E000A380294620460AF007F80028EAD094F808
:10A9F0002000431C84F8203004EB401428460AF061
:10AA000005F829460246204609F018FC3046F8BDF4
:10AA1000106809F0FBFF0138C0B21F2800F28680E1
:10AA200094F84360002E7FD104F12207384629684C
:10AA300009F0E2FF0028C5D094F84330287903EBF1
:10AA400043122244591C82F8420084F843102D68B6
:10AA500003EB431328461F4409F0D8FF294602465A
:10AA6000384609F0EBFB3046F8BD90F84C60002EFC
:10AA70005AD106222946463009F0D2FB04F145039B
:10AA80000028A0D06A792F49920943F2022031F8B8
:10AA90001210814252D094F84C20C2EBC2023046D0
:10AAA0009E5C61F347069E5494F84C202978C2EBD3
:10AAB000C2021A44517094F84C206978C2EBC20269
:10AAC0001A44917094F84C20A978C2EBC2021A443F
:10AAD000D17094F84C20E978C2EBC2021A4411718B
:10AAE00094F84C202979C2EBC2021A44517194F8AF
:10AAF0004C206979C2EBC2021344997194F84C302E
:10AB0000013384F84C30F8BD90F8520060B9B4F8C5
:10AB10004E202B889A423FF455AF012384F85230DF
:10AB20002B68C4F84E30F8BD0420F8BD0C20F8BDE9
:10AB30000122A4F8543084F85620F8BD0846F8BD28
:10AB40000720F8BDE85B030060B3CB0610B401F04A
:10AB5000080429D0002380F8213080F84D3080F897
:10AB6000533080F857308B0744BF012380F84D30B5
:10AB7000CB0744BF012380F82130CB0644BF01231B
:10AB800080F844304B0744BF012380F853302CB980
:10AB900080F8582000205DF8044B7047012380F8AE
:10ABA0005730F5E70E2070470720F4E7FFF7ECBEBB
:10ABB000002855D070B50D46426700215A22044640
:10ABC00009F04AFB1DB32B7984F85A302B7B84F8AB
:10ABD00064302B687BB31E6858689968C4F86E109F
:10ABE000C4F86660C4F86A009B89A4F87230AB6848
:10ABF00083B31868596804F15C0303C304F1780255
:10AC0000FF23C4F87821A4F87C31002070BDB4F88B
:10AC1000663014491448A4F86C5003F0E30343F47D
:10AC200082734FF0C87284F85A50A4F86630A06658
:10AC3000C4E91712E2E7B4F86620A4F86C3002F019
:10AC4000E30343F482730849A4F86630A166AB6855
:10AC5000002BCED1034A4FF0C873C4E91723CDE7C8
:10AC60000E20704706001800A000500010B310B569
:10AC7000044686B01422002101A809F0EDFAFFF77E
:10AC800083FE94F866301B070BD404F5BC7104F105
:10AC90006600FFF777FE044630F008000CD106B0DE
:10ACA00010BD636F002BF0D0012201A88DF80420A5
:10ACB0009847EAE70E207047064B07480749C01A35
:10ACC000C008000440F00100224604F05DFE20466A
:10ACD00006B010BDF076030020770300F05B0300A0
:10ACE0002DE9F04F064699B036F8083B103B054673
:10ACF0000C46102B44D8DFE813F03C01430043001E
:10AD0000430043004300430043004300430043002B
:10AD1000250143005E00430043004600D146032363
:10AD20008DF83830069B0F96002B40F0E3800A9B8D
:10AD3000F3B194F85A3000218DF83810C3B194F86B
:10AD40006460FFF721FE142213A809F085FA334648
:10AD5000059905F10A0004F15C02FFF717FE0623CE
:10AD60008DF84C301490636F18B12BB113A898472D
:10AD7000636F0BB10EA8984701990020FFF702FE00
:10AD800019B0BDE8F08F142213A8002109F064FA6D
:10AD9000626F002AF4D030687168357A14AB03C34F
:10ADA000663405211D70179413A88DF84C10904738
:10ADB00019B0BDE8F08F14220EA8002109F04CFA5A
:10ADC00094F8663004F16602059212921B0704F5AE
:10ADD000BC72019200F1E48094F85820069294F835
:10ADE0004420079294F84D3094F85320089294F838
:10ADF000572094F821700992002B40F0FD8001202B
:10AE00000322CDE9033002210D92029204220A931B
:10AE10000B918A4681460C926FB394F82030B5F8B6
:10AE20002480002B00F07081013BDBB204F120078D
:10AE300007EB4317A34602E0BB4500F065815A4685
:10AE40004146286A03F046FA0BF1200B0028F3D0A4
:10AE500004999DF8402003910B9904910D990B9151
:10AE600042F001020C990A904B468DF84020D146E1
:10AE7000DDF808A00291079A002A40F02981CDF858
:10AE800008A0CA469946089B002B40F0F180099B18
:10AE9000002B3FF444AF94F85630B5F82480002BD3
:10AEA0003FF43CAF013BDBB204F1560707EB43072D
:10AEB00004F1540902E0B9453FF430AF4A46414637
:10AEC000286A03F005FB09F102090028F3D09DF878
:10AED00040300F9643F008038DF84030069B032264
:10AEE0008DF83820002B3FF424AF039B0133DBB2F5
:10AEF0000393D146039B4B457FF43AAF94F85A3005
:10AF000000218DF83810002B3FF432AF94F86460C4
:10AF1000FFF73AFD142213A809F09EF9334605996C
:10AF200005F10A0004F15C02FFF730FD06238DF8FD
:10AF30004C301490636F00283FF41BAF002B7FF45C
:10AF400015AF16E713A81422002109F085F92B7A12
:10AF5000012B7FF415AF626F002A3FF411AF663406
:10AF6000042117948DF8503013A88DF84C10904799
:10AF700006E7142213A8002109F06EF9636FAA886E
:10AF8000ADF854206634072214968DF84C2017949F
:10AF9000002B3FF4F5AE13A8984719B0BDE8F08F29
:10AFA00002230EA88DF838300F96636F98470199E9
:10AFB0000020FFF7E7FC94F85A30002B3FF4E0AE96
:10AFC00094F86460FFF7E0FC1422002113A809F054
:10AFD00043F93346059905F10A0004F15C02FFF7D5
:10AFE000D5FC062314908DF84C3000283FF4C8AEF1
:10AFF000636F002BCFD1C3E694F84C30002B00F0E8
:10B000008A80013BDBB204F14C024FF0070A1AFBC5
:10B01000032A04F1450805F10B0903E008F10708CC
:10B02000D04578D0AB7A98F800205B08B3EB520F8C
:10B03000F4D10622494608F1010009F0F1F8002890
:10B04000ECD19DF84030022243F002030492012229
:10B05000042103200A928DF8403003921346052202
:10B060000D910B90029182464FF002090C92D3E6AB
:10B0700094F85280AF8C94F85830B8F1000F71D02A
:10B08000002B58D108F1FF385FFA88F804F1520319
:10B0900003EB880804F14E094A463946286A03F052
:10B0A0008FF909F1040968B19DF84030049A0392C0
:10B0B00043F004038DF840300123D1460A93DDF8B4
:10B0C00008A0E4E6C845E7D1D146DDF808A0DEE6F1
:10B0D00094F84330A98C002B3FF4D5AE94F842305D
:10B0E000286A04F1220203F02FF900283FF4CBAEC6
:10B0F0009DF84030049A039243F010030B9A0A9093
:10B1000004928DF84030BEE60C9A4B46D146DDF8ED
:10B1100008A00292AFE603220D9292460522022178
:10B12000002001230C9204220B9104930A9089467B
:10B130000390029270E604F14E0B4FF0000903E019
:10B140005FFA83F9C845AFD05A463946286A03F0FA
:10B1500037F90BF1040B09F101030028F0D1C845C0
:10B16000B2D1A1E7002BAFD09EE700BF06F0EEB949
:10B170002DE9F041058ACF1C043D2F440646B7FB5C
:10B18000F5F706F0FFF9002834D0FFB24FF48073D2
:10B19000013F0446C580066083802CD08046002590
:10B1A00009E06379AF4203F101036371C8F800005D
:10B1B000066080461FD0304606F0E4F901350028CD
:10B1C000EFD194F805802768B8F1010316D03D4609
:10B1D000013083422D68FBD1B8F1000F0AD0002660
:10B1E00001E03C463F6821460136284606F0F2F968
:10B1F000B045F6D800242046BDE8F0812146384607
:10B2000006F0E8F9F6E700BF0430012103F03ABB8D
:10B210002DE9F04101210446043003F03FFBC0B2A8
:10B2200008B1BDE8F08194F805802568B8F1010304
:10B2300014D02E46013083423668FBD1B8F1000F9E
:10B24000EFD0002701E02C462D682146013730461B
:10B2500006F0C0F9B845F6D8BDE8F0812146284689
:10B26000BDE8F04106F0B6B92DE9F8430546C688B9
:10B270004079144606FB00F2043A04EB030C1F1D50
:10B28000624538BFD41ABE428846B7FBF6F106FBCA
:10B29000117002D801392D68FCD1371AA74228BF96
:10B2A00027469CB14FF000090430E41B28443A467D
:10B2B00008EB090108F0C2FFA642B9442D683746E1
:10B2C0004FF0000028BF2746002CEDD1BDE8F883E1
:10B2D0002DE9F8430546C6884079144606FB00F27E
:10B2E000043A04EB030C1F1D624538BFD41ABE425A
:10B2F0008846B7FBF6F006FB107102D801382D68BE
:10B30000FCD1771AA74228BF27469CB14FF000090D
:10B3100004312944E41B3A4608EB090008F08EFF8B
:10B32000A642B9442D6837464FF0000128BF274692
:10B33000002CEDD1BDE8F88308B5034A034B04485F
:10B34000392108F0FDFE00BF205C0300385C0300DB
:10B35000685C03002DE9F04186B000248DF81740A9
:10B3600005460E46174698469DF8304006F04AFBC3
:10B37000052815D9114B1B681B021DD50D9B0DF11E
:10B38000170CCDE90043284643463A463146CDF8EE
:10B3900008C005F073FA9DF8170006B0BDE8F0810B
:10B3A0000D9B3A46CDE90043314643462846FCF71B
:10B3B00063F906B0BDE8F081FFF7BEFF00E100E0F1
:10B3C00010B582B0002304468DF8073006F01AFB52
:10B3D00005280CD9094B1B681B020DD520460DF121
:10B3E000070105F09BFA9DF8070002B010BD20464A
:10B3F000FCF76AFA02B010BDFFF79EFF00E100E023
:10B4000001F01F024B09012100EB8300914003F082
:10B4100021BA00BF01F01F0201234909934000EB4C
:10B420008100D94303F022BA4B0901F01F0150F803
:10B430002300C84000F00100704700BFB0DF704734
:10B4400066DF704760B159B10378DE2B0AD00B6814
:10B450004360DE224FF6FF73027043800020704786
:10B460000E2070470820704738B10378DE2B02D1D8
:10B47000418000207047082070470E20704700BFB1
:10B4800091B188B10B78DE2B0ED130B505464B88D3
:10B490008088984285B00C4642D02A88012A32D052
:10B4A000512A04D005B030BD70476388A888834214
:10B4B000F8D1AB79022BF5D1AA7B02F0FD0104296A
:10B4C00044D0052AEED100226946C1E90222009249
:10B4D0004A608DF80030FFF7B1FF0028E2D06368C2
:10B4E0009847DFE70021FFF7ABFF034660B3112861
:10B4F00029D0636898472B88112B1CD0512BD4D0AE
:10B50000012BCFD1A8882B7A012BCBD16288824224
:10B51000C8D123720021FFF793FF20BB2072C1E73F
:10B520000A7A002ADED12A88112A08D0512ABED0F0
:10B53000012AB7D1E7E7AA8863889A42B2D14FF6C9
:10B54000FF736380AEE701232372D4E769460022CC
:10B550004FF4C0754A600092C1E902228DF80030B4
:10B56000ADF80450B7E71128B9D123729AE700BFAC
:10B5700029DF704728DF7047034B187A0122B0FAA1
:10B5800080F05A74400970476435002030B55D4C36
:10B59000237A87B0002B39D05B4B1B6802222272C2
:10B5A0001A79002A3DD0012A24D019688A68C2B1CC
:10B5B000002268460092C0E902220325026101953B
:10B5C0009A6805921A79002A57D0012A07D10222D7
:10B5D0008DF80020DA68120302925B6904938B688D
:10B5E0009847002349494A482372636004F008FEE3
:10B5F00007B030BDD3E903021044FFF7BBFF20B30F
:10B600001128D2D10123237207B030BD3F494048F1
:10B6100004F0C6FD3C4A034610600028BED16060BD
:10B62000E6E7D3E90525521BB2F5805F28BF4FF44A
:10B630008052D3E903109208012A38BF012229441D
:10B640002844FFF795FF0028DAD1227C002ACFD1C9
:10B65000227A002ACCD0022A0AD1E0601A79DAB123
:10B66000012A05D1D3E9042101328A421A611FD08F
:10B67000637C73B9FFF78AFFBAE701228DF80020D7
:10B680001A690292DA6803925B6904938B6898479F
:10B69000A7E7FEF74FF9ABE7D3E90512881AB0F533
:10B6A000805F94BF121802F5805291429A61DFD1F7
:10B6B0000022227219688868A8B168460092C0E921
:10B6C0000122C0E903229A6805921A7982B1012AFF
:10B6D00007D102228DF80020DA68120302925B691A
:10B6E00004938B6898470949094804F089FDBFE72E
:10B6F00001228DF800201A690292DA6803925B69D0
:10B700000493EEE7643500207C3500207835002076
:10B710005435002000F0FD03012B00D07047A0F14C
:10B720000100044BB0FA80F04009002218745A74EA
:10B73000FFF72CBF64350020831E012B3FD810B5C6
:10B74000334C237A86B0002B37D0022B31D103281B
:10B750003AD0304B00221B68E2601A79002A40D0B0
:10B76000012A26D1D3E9042101328A421A6120D16B
:10B770000020207219688A68BAB10022CDE903223C
:10B78000029200929A68019005921A79002A35D0A7
:10B79000012A07D1DA685B6904931303022202933A
:10B7A0008DF800208B68684698471B491B4804F0B9
:10B7B00027FD637C23B9FFF7E9FE06B010BD704793
:10B7C000FEF7B8F806B010BDE3680133082B01D8C6
:10B7D000E360EEE70F4B00221B68E26022720D204F
:10B7E000C8E7D3E90512881AB0F5805F94BF121834
:10B7F00002F5805291429A61DBD1B9E701221869C2
:10B800008DF80020DA685B690493CDE90202C9E78C
:10B81000643500207C350020783500205435002028
:10B82000044A137923B901211060918018467047AA
:10B830008520704780350020074B1A68D20704D452
:10B84000C021012283F800131A604FF080430122C7
:10B85000C3F81825704700BF00E100E0044B012247
:10B860001A604FF08042D2F81834DB03FBD47047E3
:10B870000C000040074B01221A604FF08042D2F8C2
:10B880000C3403F00113B3F1011FF8D0024B002276
:10B890005A717047040000408035002010B5154BE8
:10B8A0001A6882B062B10021134A19601B6850798E
:10B8B00000934FF080410123009CC1F80833A8B1E8
:10B8C0000E4B1A6882B100221A601B6801934FF078
:10B8D00080420221084B0198C2F808131B6801201E
:10B8E00002B0BDE81040184702B010BD1168537196
:10B8F0008847E5E700010040803500200401004052
:10B90000014B1B68184700BF88350020114B984237
:10B910001DD130B583B000230DF107008DF807303D
:10B920000D4605F08FFE0C4B1C794CB901229DF899
:10B9300007001D601A7105F0ABFE204603B030BD54
:10B940009DF8070005F0A4FE112003B030BD0020D3
:10B95000704700BF0020004088350020034B98420C
:10B9600003D1034B00221A601A7170470020004077
:10B9700088350020826800239360826813618268A2
:10B9800053618268D3608268536082681360704735
:10B990002DE9F04182B0002858D0002A68D0D0F8B4
:10B9A00000C0BCF1000F68D01C4673B34768D7F8DD
:10B9B0000480B3FBF8F708FB1737002F37D18F0748
:10B9C0003AD112F0030F3CD1C768B94211D23348C3
:10B9D000334C344B344A3549001BC0081024000452
:10B9E00040F00100009404F097F9204602B0BDE851
:10B9F000F0814D1E06692C44B442E8D8DCF80C40B6
:10BA0000A44602B0BDE8F04160472448244C254BD1
:10BA1000274A2649001BC0080924000440F0010001
:10BA2000009404F079F9204602B0BDE8F0811B488B
:10BA30001B4C1C4B1F4AECE71848194C194B1E4A6B
:10BA4000C9E71648164C174B1C4AC4E71348144C58
:10BA5000144B1B4A1549001BC0080E24000440F07B
:10BA60000100009404F058F9204602B0BDE8F081CE
:10BA70000A480B4C0B4B134AECE7094C0748094B9F
:10BA8000114A0A49001BC0080824000440F00100C4
:10BA9000009404F041F92046A8E700BF387703007E
:10BAA000F0760300CC5C0300705E0300745D03005D
:10BAB000B05D0300085E0300345E03004C5E0300CB
:10BAC0006C5D0300005E0300F45D0300F0B583B01D
:10BAD000002843D0D0F800C0BCF1000F4ED03AB3DC
