:1000000000000420B5020000DD020000DF02000055
:10001000E1020000E3020000E50200000000000031
:10002000000000000000000000000000E7020000E7
:10003000E902000000000000EB020000ED020000F9
:10004000B9490000A9290000D50B0000EF0200000B
:10005000EF020000EF020000715B0000EF02000001
:10006000EF020000EF020000EF020000EF020000CC
:10007000EF020000EF020000EF020000EF020000BC
:10008000EF020000C9050000EF020000EF020000CF
:1000900069060000EF020000EF020000EF0200001E
:1000A000EF020000EF020000EF020000EF0200008C
:1000B000EF020000EF02000000000000000000005E
:1000C000EF020000EF020000EF020000EF0200006C
:1000D0009D740000EF020000EF020000EF0200003C
:1000E000EF020000EF020000EF020000000000003D
:1000F00000000000EF02000000000000EF0200001E
:1001000000000000000000000000000000000000EF
:1001100000000000000000000000000000000000DF
:1001200000000000000000000000000000000000CF
:1001300000000000000000000000000000000000BF
:1001400000000000000000000000000000000000AF
:10015000000000000000000000000000000000009F
:10016000000000000000000000000000000000008F
:10017000000000000000000000000000000000007F
:10018000000000000000000000000000000000006F
:10019000000000000000000000000000000000005F
:1001A000000000000000000000000000000000004F
:1001B000000000000000000000000000000000003F
:1001C000000000000000000000000000000000002F
:1001D000000000000000000000000000000000001F
:1001E000000000000000000000000000000000000F
:1001F00000000000000000000000000000000000FF
:1002000010B5054C237833B9044B13B10448AFF350
:1002100000800123237010BDA80000200000000012
:10022000ECAF000008B5034B1BB103490348AFF323
:10023000008008BD00000000AC000020ECAF000012
:10024000154B002B08BF134B9D46A3F5803A0021A8
:100250008B460F461348144A121A08F087FB0F4BBF
:10026000002B00D098470E4B002B00D09847002061
:10027000002104000D000D48002802D00C48AFF307
:10028000008008F033FB2000290008F039FA08F05C
:1002900007FB00BF00000800000004200000000071
:1002A00000000000A8000020A813002000000000AB
:1002B000000000000649074A074B9B1A03DD043B78
:1002C000C858D050FBDC08F039F9FFF7B9FF00003F
:1002D0004CB0000000000020A8000020FEE7FEE770
:1002E000FEE7FEE7FEE7FEE7FEE7FEE7FEE7FEE7E6
:1002F000704700BFD2B207F03FBA00BF07F058BA4C
:10030000DBB207F073BA00BF07F08CBA07F08CBA03
:1003100007F08CBA07F08CBA07F08CBA704700BFB0
:1003200002F0DCB910B49DF8044001945DF8044B70
:1003300002F014BA02F05EBA02F0CCBA30B5C3884B
:1003400083B004460D4613BB217A05291DD0637A7C
:10035000A08873B9124B53F82140002105F0D6FE56
:10036000104903462246284603B0BDE8304005F058
:10037000EDB805F0F7FE0C4B0C4953F82020284649
:1003800005F0E4F8217AA088E4E703B030BD084A1C
:1003900000920849084A284605F0D8F8D4E700BF7B
:1003A000189E00000C9E0000A49D0000089E000006
:1003B000009E0000E89D0000E09D00002DE9F04354
:1003C00085B01D460C9C002381460E46174694F8C6
:1003D0000C80237321462846FFF7B0FF062F09D86B
:1003E000DFE807F0042E343B444F1F004946204607
:1003F00005F0ACF82B7A052B05D06B7A5BB9274951
:10040000204605F0A3F8204605F094F884F80C8007
:1004100005B0BDE8F083224A2249204605F096F84F
:10042000EDE7D6E90413F2680393B3680291CDE9CE
:1004300000324946D6E90023204605F087F8D9E77F
:1004400032684946204605F081F8D3E74946D6E9A7
:100450000023204605F07AF8CCE7B36800934946BC
:10046000D6E90023204605F071F8C3E7D6E9023249
:10047000019200934946D6E90023204605F066F82C
:10048000B8E7D6E90321B3680291CDE900324946C5
:10049000D6E90023204605F059F8ABE7DC9D0000C3
:1004A000009E0000089E0000082900D970472DE931
:1004B000F04F1D4683B000241B7B2C7307460E466D
:1004C0001046294691460193DFF8C8A0DFF8C8809E
:1004D000FFF734FF05E03A5D013405F037F8082CEA
:1004E00009D0A64241462846F5D85146013405F0C8
:1004F0002DF8082CF5D12249DFF8A0A0214CDFF817
:10050000A080284605F022F84FF0000B0EE012F80C
:10051000081011F0970F08BF2E22214628460BF134
:10052000010B05F013F8BBF1080F10D05E4505D99B
:1005300017F80B207E2AEAD92E22EEE751462846EC
:100540000BF1010B05F002F8BBF1080FEED199F8A1
:100550000830052B02D099F809305BB90A492846C2
:1005600004F0F4FF284604F0E5FF019B2B7303B071
:10057000BDE8F08F054A0649284604F0E7FFEDE79D
:10058000D49D0000D89D0000DC9D0000009E00006E
:10059000089E0000D09D0000C89D0000149E000031
:1005A00053AE000000B585B000230390194601AAA0
:1005B00044F20100CDE9013304F064F905B05DF8BF
:1005C00004FB00BF704700BFF8B52049204B002452
:1005D000C1F84041C1F84441C1F84841C1F84C411B
:1005E000C1F80041C1F804411B6833B31948D1F880
:1005F000045501681A686D1A25F07F45AA422746FE
:100600000DD8197CDE69AD1A144419B11F74D3E9F1
:10061000052090471EB133461A68AA42F1D90E4907
:100620000E4A0B7812789A4208D00D490D4A41F8CB
:1006300023404FF48013C2F80031F8BD531CDBB2E5
:10064000022B08BF00230B70EFE700BF0010014032
:10065000E4010020E0010020DD010020DC01002099
:10066000D401002000E100E02DE9F04FB14AB24989
:1006700013780978B14E994285B0356800F08981C8
:100680000133DBB2022B08BF0023AD491370AD4A22
:10069000D1F800C052F823200CEB020323F07F4373
:1006A0000B60002D00F0C2812B689A42C0F0C0811F
:1006B00000273846BE4603E00B68934200F26C8187
:1006C000EC68C5F800E0D21A1844E9693CB10CEBBB
:1006D000000323F07F43C5E90134EF612F460D4647
:1006E0000029E9D1316000254FF0010A964B974966
:1006F000DFF86C9243F0010301934FF00008002FE4
:1007000033D0D7E901BE3C46FF698D4B90481A684B
:10071000ABEB020323F07F43834200F20181734479
:10072000236000203268E061C4E9010001202074E8
:10073000002A00F0F3801068984208D3DFE0DEF86A
:1007400000C0DC4580F0E08072465B466046D2F82F
:100750001CE0A3EB000BBEF1000FF0D1C4F800B019
:10076000C4F81CE0D461002FCBD191F801E00878E7
:1007700070454AD084460CEB4C0C8B7801EBCC0CCA
:10078000421CD0B283429CF80430087004BF0020A1
:100790000870022BDCF8084025D0032B19D0012B60
:1007A000E6D1237C002BE3D1DCF80CB0C4F804B014
:1007B000DCF810E0C4F808E0DCF81420E26099F8F6
:1007C0000020DCF81800A061002A9ED063609B46E0
:1007D0009BE73368002BCBD000221A74DB69002B17
:1007E000FBD13360C1E733685BB19C4200F0BA8053
:1007F0009B4602E0944261D09346DBF81C20002A1D
:10080000F8D1002323747045B4D13668B8F1000FD5
:1008100001D1B5422CD086B3494A4E4B1468D3F867
:100820000475DFF83881366898F800203D1B25F004
:100830007F450335002A00F0B680AE422CBFA419D4
:100840006419444A24F07F44C2F84045D2F8043584
:10085000DB1BE41B23F07F4324F07F440333A342DC
:1008600000F2BA80002389F8003005B0BDE8F08FAF
:10087000BAF1000FF6D0002ECED1364D364A324CAA
:100880004FF400314FF480330127C2F880103C430D
:10089000C5F848334FF43C60C5F808336F60A04793
:1008A000274BAF604FF43C601E60A0472B4B1E707F
:1008B000002389F8003005B0BDE8F08F5C4553D0C7
:1008C000E069D4F800E0CBF81C0000285BD09C461F
:1008D000026872440260634518BF4FF001080023AC
:1008E000087891F801E023748DE732680023012035
:1008F000C4E90033A360E36120747AB11068346006
:10090000C31A1360E261FAE66044C31ACEF80030FD
:10091000C4F800B0C4F81CE0D46124E73460EEE60B
:10092000A2EB0B0222F07F427245DED2AEEB020355
:100930002360F6E6DC010020DD010020E401002058
:10094000E0010020D4010020909E0000C40000209F
:10095000FEFF7F000010014000E100E0D101002017
:10096000D0010020A3462246D3F81CC0C6F800C020
:10097000BCF1000F45D0D069D2F800E0CBF81C00E4
:100980000028A5D1A7E70023087891F801E0237497
:1009900039E70027BA46A9E631600D469B1A0B607D
:1009A0004FF0010AA2E62449244A4FF48030C3F8EC
:1009B00044034FF0010AC3F804034FF40030C1F8B8
:1009C000800142F001020860C3F800A04FF43C60CF
:1009D000904788F800A030E7184BD2F80415C2F809
:1009E000401543F001034FF43C609847124B4FF41D
:1009F0000032C3F80021002389F8003005B0BDE8BB
:100A0000F08FCDE902320E4BDFF83CE00120986018
:100A1000019B89F80000CEF800C04FF43C60984775
:100A2000D6F800C00749DDE90232A4E72F465AE6AE
:100A300029460027B2E700BF00E100E0909E0000D9
:100A400000100140C4000020E001002030B585B056
:100A5000047845688DF80040D0E90240064A074B0B
:100A6000039053F8213001958DF8084052F8211079
:100A70006846984705B030BDE8010020F00100202D
:100A800030B585B0047845688DF80040D0E9024063
:100A9000064A074B039053F8213001958DF8084022
:100AA00052F821106846984705B030BDE801002093
:100AB000F00100202DE9F043DFF8748006784B7FC9
:100AC00008F806300D46074696460FCD89B06C46AD
:100AD0000FC495E80F003D78DFF85890DFF858C054
:100AE00018F8055049F826E084E80F004CF8260075
:100AF000049665B1BEF1000F0B4A694607F1040088
:100B000008BF002203F0DAFB09B0BDE8F083BEF1B4
:100B1000000F064A694607F10C0008BF002206F0E4
:100B20006BFF09B0BDE8F0834D0A0000810A0000A8
:100B30005C0B0020F0010020E8010020704700BF9E
:100B4000142070470A4B185C1F288ABF09494FF0D0
:100B5000A04100F01F00D1F804350122824022EAB2
:100B600003001340C1F80805C1F80C35704700BFF9
:100B7000AC9E000000030050C20730B40ED48307BF
:100B80000AD54FF0A0430C22C3F82C27C3F8302716
:100B9000C3F86027C3F8642730BC70474FF0A04308
:100BA0000322C3F834274FF40055C3F838274FF415
:100BB0008044C3F83C274FF40041C3F840274FF46A
:100BC0008032C3F80855C3F80845C3F80815C3F8C0
:100BD0000825D4E7014B1B68184700BFF801002027
:100BE00038B50C4B984213D100200D4604F0DCFDC3
:100BF000094B1C7924B1002004F0DEFD112038BD22
:100C0000012220461D601A7104F0D6FD204638BD31
:100C1000002038BD00200040F8010020034B98421E
:100C200003D1034B00221A601A7170470020004064
:100C3000F8010020F8B5084C084B06460D4604F1B3
:100C40000C0729463046984728B1BC4203D054F8D7
:100C5000043B002BF5D1F8BDB89E00009D4F00006D
:100C600005F03ABFF8B5084C084B06460D4604F1AE
:100C7000080729463046984728B1BC4203D054F8AB
:100C8000043B002BF5D1F8BDC89E0000CD4F0000FD
:100C900070B5074C074B054604F1080628469847EF
:100CA00028B1B44203D054F8043B002BF6D170BDF8
:100CB000D49E00005550000006F0CEBC05F030BFB9
:100CC000704700BF0B4BD3F8042522F00302C3F892
:100CD0000425D3F8082542F00302C3F80825D3F809
:100CE000102522F00F0242F004020121C3F8102562
:100CF0001960704700800040014B01221A60704764
:100D0000108000400048704748800040054B064A6C
:100D1000064901201860D2F84435013B0B60C2F847
:100D200048357047448000400080004000020020A9
:100D300008B5094BD3F8483538B1084A12689A42C9
:100D400016BF03600020012008BD054B054A064878
:100D50007E2107F087FD00BF0080004000020020D8
:100D6000009F0000DC9E0000149F000000487047B8
:100D70004C800040014BD3F84C0570470080004088
:100D800010B50446FFF7DCFE10F11D0F0ADB10F171
:100D9000090F04DB0A2808DC0134E0B210BD02347C
:100DA000E0B210BD0334E0B210BD1E2807DD3228CA
:100DB00007DD4628D4BF023C033CE0B210BD20460C
:100DC00010BD013CE0B210BD10B50446FFF7B8FEFF
:100DD00010F11D0F0ADB10F1090F04DB0A2808DCF3
:100DE000013CE0B210BD023CE0B210BD033CE0B2F9
:100DF00010BD1E2807DD322807DD4628D4BF023487
:100E00000334E0B210BD204610BD0134E0B210BD85
:100E100010B50446FFF794FE10F11D0F0ADB10F128
:100E2000090F04DB0A2808DC013CE0B210BD023CDB
:100E3000E0B210BD033CE0B210BD1E2807DD322831
:100E400007DD4628D4BF02340334E0B210BD20468B
:100E500010BD0134E0B210BD10B50446FFF770FEBE
:100E600010F11D0F0ADB10F1090F04DB0A2808DC62
:100E7000013CE0B210BD023CE0B210BD033CE0B268
:100E800010BD1E2807DD322807DD4628D4BF0234F6
:100E90000334E0B210BD204610BD0134E0B210BDF5
:100EA0002DE9F041058ACF1C043D2F440646B7FBCF
:100EB000F5F702F07FFB002834D0FFB24FF48073C7
:100EC000013F0446C580066083802CD08046002503
:100ED00009E06379AF4203F101036371C8F80000D0
:100EE000066080461FD0304602F064FB01350028C2
:100EF000EFD194F805802768B8F1010316D03D467C
:100F0000013083422D68FBD1B8F1000F0AD00026D2
:100F100001E03C463F6821460136284602F070FB5E
:100F2000B045F6D800242046BDE8F0812146384679
:100F300002F066FBF6E700BF0430012103F0E4BCD9
:100F40002DE9F04101210446043003F0E9FCC0B270
:100F500008B1BDE8F08194F805802568B8F1010377
:100F600014D02E46013083423668FBD1B8F1000F11
:100F7000EFD0002701E02C462D682146013730468E
:100F800002F03EFBB845F6D8BDE8F0812146284680
:100F9000BDE8F04102F034BB2DE9F8430546C688B0
:100FA0004079144606FB00F2043A04EB030C1F1DC3
:100FB000624538BFD41ABE428846B7FBF6F106FB3D
:100FC000117002D801392D68FCD1371AA74228BF09
:100FD00027469CB14FF000090430E41B28443A46F0
:100FE00008EB090107F0B4FCA642B9442D68374666
:100FF0004FF0000028BF2746002CEDD1BDE8F88354
:101000002DE9F8430546C6884079144606FB00F2F0
:10101000043A04EB030C1F1D624538BFD41ABE42CC
:101020008846B7FBF6F006FB107102D801382D6830
:10103000FCD1771AA74228BF27469CB14FF0000980
:1010400004312944E41B3A4608EB090007F080FC10
:10105000A642B9442D6837464FF0000128BF274605
:10106000002CEDD1BDE8F88310B5204C82B001A86A
:1010700002F04CFCD4F86C269DF8043022F00702F4
:10108000C4F86C26D4F86C261343C4F86C369DF86B
:101090000500FFF7E1FED4F86C3623F47F43C4F873
:1010A0006C36D4F86C3643EA0020C4F86C06D4F8E9
:1010B0006C269DF8061022F47F02C4F86C26D4F842
:1010C0006C3643EA0143C4F86C36D4F86C269DF8BC
:1010D000071022F07F42C4F86C26D4F86C3643EA3D
:1010E0000163C4F86C3602B010BD00BF00100040B0
:1010F00008B5034A034B044840F2D71107F0B2FB8E
:1011000058A0000064A0000084A0000070B51F4B30
:10111000402282B0C3F8082520B1A3F5F033522253
:10112000C3F800221A4B194A1A481B491B4D1C4C84
:1011300001261E608023C2F80435037823F00703DC
:10114000037000230B600968019118210198C5F80C
:101150006015236023680093402300991148C2F86A
:10116000043502F09DFAD5F8503513F0FF0F07D182
:1011700000BF00BF00BF00BF00BF00BF23680BB1AE
:1011800002B070BD084B1E6002B070BD00F001409F
:10119000109000400C020020281100400010004078
:1011A0003C71014030110040101000402B4B1B7867
:1011B00003B9704770B5044684B0AE2003F0C2FD99
:1011C00000283AD02648274D2749284A4FF4205373
:1011D000C0F8003200232B602D680195019D0B6043
:1011E000096802914FF4C021029DC0F804131360F6
:1011F000116803911E4B1F491F4D039EC3F84825DC
:10120000C3F84C55C3F82C19A1F5FF4105F58675B7
:101210004839C3F84055C3F84415D3F8001841F0D5
:101220008001C3F8001880254021C3F80455C3F895
:10123000041524B9114B01221A6004B070BDD0F816
:10124000503513F0FF0FF8D100BF00BF00BF00BF43
:1012500000BF00BF1368002BECD0EEE70D020020AA
:101260000010004048110040441100403C71014012
:1012700000F0014004F00140041000401010004054
:10128000324B1B7803B9704770B5314E82B00446BB
:10129000356803F073FDB0F5C07F45D3C009EB0995
:1012A000821E9A4298BFA5EBC2152A492A4A94BFCA
:1012B000C31E0025356000204FF40045C3F314031E
:1012C000C2F86436C2F8005208600B68009301F55A
:1012D000B031009BC2F804530860086801901F4BAE
:1012E0001F48204D019EC3F84815C3F84C55C3F85C
:1012F0002C09A0F5FF4005F586754838C3F8405520
:10130000C3F84405D3F8000840F08000C3F8000893
:1013100080254020C3F80455C3F804053CB9124B9E
:1013200001221A6002B070BD356002B070BDD2F803
:10133000503513F0FF0FF5D100BF00BF00BF00BF55
:1013400000BF00BF0B68002BE9D0EBE70D020020C7
:10135000080200203C1100400010004000F0014055
:1013600004F0014004100040101000402DE9F0414D
:10137000594A5A4E137823F00703137084B0074676
:1013800002F0B2FA564AC0B2C2F80C053368002B1C
:1013900000F09E8093F88010002978D0C2F80435C0
:1013A000504A4FF001084E4D4F4BC5F80022002126
:1013B0001822C5F8602519601A680092009A43F84F
:1013C0000C1C0C3B49481B680193019B016003689E
:1013D0000293474A029C474C4FF45053C5F80433DC
:1013E000D2F800C2444B4CF4A06CC2F800C24FF0DB
:1013F000010CC2F840C54FF0820CC2F844C54FF052
:10140000830CC2F848C52160216803910CF1804C1F
:101410000CF6817C3949DDF80CE0C3F84845C3F887
:101420004CC5C3F82C19C3F85045C3F85425D3F85C
:101430000028DFF8D4E0A1F5EF31F43942F0800262
:10144000C3F800284FF0800CC3F8401540224FF439
:101450008071C3F844E5C3F804C5C3F80415C3F8A4
:10146000042502F01DF9AFB1D5F8503513F0FF0F88
:1014700007D100BF00BF00BF00BF00BF00BF23688F
:1014800043B1B8F1000F0BD004B0BDE8F08188463D
:10149000522288E71A4B01221A60B8F1000FF3D1EB
:1014A00002F060FA30600028EED090F88030002B17
:1014B000EAD00B4B0B4AC3F80405C3F80022D3F85B
:1014C0005035DBB2022BDFD10E4B01221A60DBE775
:1014D0009846522267E700BF0C0200201402002049
:1014E000001000405200080034110040301100404C
:1014F000009000403C71014000F0014004F00140C8
:1015000010100040081000403C7001407E4B1B78DA
:101510001B0740F1C480F0B57C4D2B685C78C4F3A8
:10152000401485B0002C76D0794E3368002B00F043
:10153000A48093F88020002A00F09F80754A7648A6
:1015400076494027C0F80875C2F8001293F8801059
:10155000002908BF0023C2F8043504F037FA002838
:1015600000F099806E4B6F4A002119601B6803934D
:10157000039B4FF00A0C67496B4BC1F8082300200E
:1015800018601F68644B0197684ADDF804E0C1F8F1
:1015900004C34FF40077C3F80875DFF8B8C1644F8F
:1015A000C3F84825C3F84CC5C3F82C7910601768F8
:1015B00002976048DDF808E08027C3F804754FF013
:1015C000400C0627C3F804C50770D1F8503513F056
:1015D000FF0F08D100BF00BF00BF00BF00BF00BFAA
:1015E0001368002B5CD0002C5FD02B689B7803F035
:1015F0003003202B0DD0504B464A0021196028683B
:101600001968C37800911B0643F400730099C2F86F
:10161000443605B0F0BD404B484E40218022C3F80F
:101620000815C3F808254FF400714FF48072C3F811
:101630000815C3F80825D3F8002822F08002C3F863
:101640000028C3F82C493378002B4AD1394B0222A9
:101650001A703378002B40D12C6803F095FE204699
:10166000FFF7FEFA002320461A461946FEF748FE09
:1016700005B0BDE8F04003F0CDBE2749254B402022
:101680001222C1F80805C3F80022002404F09EF9D4
:1016900000287FF467AF2A4A4FF0020C6BE77047CF
:1016A000284B01221A60002C9FD102F05BF93060B8
:1016B00000289AD090F88030002B96D0154B174A0E
:1016C000C3F80405C3F80022D3F85035DBB2022B6F
:1016D0008BD11D4B01221A6087E70120FFF746FEE0
:1016E000BAE704F073F90F4B18490A4A184F00285B
:1016F00014BF184608461349C2F808030123C2F86C
:1017000000423B600B60A1E70C02002018020020A1
:10171000140200200010004000F0014012000800F8
:101720000C11004002000408041100403C7101400B
:1017300004F001400E0200205C1100400D02002068
:101740000200040010100040081000400A000400CD
:101750003010004004100040F0B5664B1B7887B095
:10176000ABB103F0FF06037844780133A4064FEAD7
:10177000431354BFCE3303F22E4317460D4604469F
:1017800049B103F1A80003F0DDFA002876D1002664
:10179000304607B0F0BD184603F0D4FA0028F6D062
:1017A00002F0A2F8544BC0B2C3F80C05C3F80445CC
:1017B00004F00CF9514B002808BF18464E4B18BFD7
:1017C0004FF4A010C3F8000204F000F900286CD117
:1017D0004B4B4C4C18601B680493049B0A21002D52
:1017E0006DD04948494A4A49434D00230360006887
:1017F000039003981360126808780192454ADDF857
:1018000004C063F3C3000870C5F804431360136891
:101810000293A2F5B032029BA2F59C723E4B3D4969
:10182000C3F848153D48C3F84C253D4C3D4AC3F824
:101830002C49C3F84005C3F84425D3F8002842F0EA
:101840008002C3F8002880204022C3F80405C3F8B2
:101850000425002F47D0284BD3F8503513F0FF0F45
:1018600008D100BF00BF00BF00BF00BF00BF0B68B2
:10187000002B38D03E46304607B0F0BD02F034F8B9
:101880001D4BC0B2C3F80C05C3F8044504F09EF824
:10189000254B264A002814BF18461046164BC3F89D
:1018A000000204F093F8002892D0214B2149224CE9
:1018B00000221A601B680593059B002D91D1134BE4
:1018C00013481D601B68047801930B4A114BDDF827
:1018D00004C065F3C3040470C2F804131D601B68E0
:1018E0000293029B9AE7154B012230461A6007B01B
:1018F000F0BD00BF0D0200200010004002000400F7
:101900000C1100400A00040048110040041100407E
:101910000C0200203C71014000F001401011004019
:1019200004F001403C70014000381400023804000B
:101930006C11004002000008020004081010004072
:101940002DE9F0474E4C4F4D4F4FDFF864813E6814
:10195000522218234FF0400984B0C5F80895C4F806
:101960000022C4F8603504F031F8DFF848C1474A76
:10197000474900284FF0000308BF0A22C4F8082393
:10198000CCF80030DCF800200392039A0B600A6860
:1019900040480292029A036001683F4A01914FF069
:1019A000010A4FF45051DDF804C0C4F80413C2F822
:1019B00000A04FF40072C5F808258022C5F8042560
:1019C000C8F80030D8F800300093009BC5F80495A3
:1019D00001F066FED4F8503513F0FF0F09D100BFB7
:1019E00000BF00BF00BF00BF00BFD8F80030002B11
:1019F0003DD03B68002283F8802001F0B3FF3860BF
:101A000068B190F8803053B11D4B244AC3F80405E7
:101A1000C3F80022D3F85035DBB2022B2BD0204A7A
:101A20002049137823F0070313700220087003F095
:101A3000ABFC134BD3F8480500F07F00FFF7A0F98B
:101A400033783344044613F8010CFFF7BDF902B2B2
:101A50009200FF2A28BFFF22614252B249B23046AB
:101A6000FEF748FC04B0BDE8F04703F0D3BC0E4BD2
:101A7000C3F800A0BDE70D4B01221A60CFE700BFFD
:101A80000010004000F00140140200200200000895
:101A90002811004030110040109000405200080012
:101AA0000C0200200E020020101000400810004020
:101AB0003C71014034110040F0B5B24B1B7885B049
:101AC000092B00F2E981DFE813F01E00EF00680047
:101AD000A500260026002D00FA0029010A00AA4BC5
:101AE000AA4A40208021C3F80805C3F808151378D6
:101AF00003F0FF04002B00F04081A54B01221A6087
:101B0000204605B0F0BD022900F03781042001F025
:101B100087FF0124F4E7002840F04A81044620466C
:101B200005B0F0BD0028F9D0974B984C80204FF4B9
:101B300080714025C3F80855C3F80805C3F8081597
:101B4000D3F80018002021F08001C3F80018C3F872
:101B50002C0923787BB18F4B8F498D4C0A25C3F814
:101B600008530125C3F800022560C3F84406086045
:101B70000B680393039B002A00F0FF80874B1D68CE
:101B800006212846FFF76EF80446002800F0F5808D
:101B900028460621FEF7B8FBB2E7814B1B78C3F35A
:101BA0008003002B00F048810028B7D0764B7D4E93
:101BB0007D48764D4021C3F808158021C3F80815EB
:101BC0004FF48071C3F80815D3F8001821F0800194
:101BD000C3F8001800240121C3F82C493160D0F863
:101BE000003223F4A063C0F800322B7853B1A0F583
:101BF000FF40684B70384FF45055C3F80853C3F892
:101C000000420160002A00F0B88006201446FEF76A
:101C100075FB75E7002881D05B4B624F62485B4ED5
:101C20004021C3F808158021C3F808154FF48071CE
:101C3000C3F80815D3F80018002521F0800101240D
:101C4000C3F80018C3F82C593C60D0F8003223F4D4
:101C5000A063C0F800323378002B40F0DD80002A0A
:101C600000F08B8051494B4B0D680192002185F8A3
:101C70008010D3F8480500F07F00FFF781F82B783B
:101C8000019A2B44064613F8010C1446FFF79CF802
:101C900002B29200FF2A28BFFF22714252B22846A8
:101CA00049B2FEF727FB2BE7384B1B7803F0FF0404
:101CB000002B62D0374B1022C3F8082320E70028FE
:101CC0003FF42CAF304B314C80204FF480714025D5
:101CD000C3F80855C3F80805C3F80815D3F8001869
:101CE000002021F08001C3F80018C3F82C092378E4
:101CF00073B12849264C05F180454FF4004305F6A1
:101D0000E875C1F808330123C1F800022B60236095
:101D10009AB301201446FEF7FBFAF1E600283FF4DF
:101D2000FDAE194B194C80204FF480714025C3F84B
:101D30000855C3F80805C3F80815D3F800180020A3
:101D400021F08001C3F80018C3F82C09237873B17F
:101D500010490F4C05F180454FF4C02305F57F6510
:101D6000C1F808330123C1F800022B60236022B1BF
:101D700001201446FEF7D0FAC2E60124204605B041
:101D8000F0BD00BF0E02002000F001400D02002057
:101D900010100040001000405C11004018020020AC
:101DA0000C0200201090004000900040140200201F
:101DB0003D4B3E484021C3F808154FF400744FF4E2
:101DC00080718025C3F80855C3F80845C3F8081585
:101DD000D3F80018002421F08001C3F80018C3F8DC
:101DE0002C490378002B3FF4C6AE019203F0EEFDC0
:101DF0002F4E304B304905F18045A04208BF334695
:101E000005F57B652D48C1F808330123C1F8004270
:101E10002B600360019AAEE6019203F0D7FD2649DC
:101E2000274BA842254808BF0A23C1F80833C1F848
:101E300000520460019A12E71B4A224D22481B4CB3
:101E40004021C2F808158021C2F808154FF48071AE
:101E5000C2F80815D2F8001821F08001C2F8001865
:101E60000121C2F82C392960D0F8002222F4A062A6
:101E7000C0F80022227802F0FF04002A3FF47DAF70
:101E8000A0F5FF400C4A70384FF45055C2F8085383
:101E9000C2F80032016033E60C4B0D4A0D4840F2A7
:101EA0001D5106F0DFFC00BF00F001400D020020D4
:101EB0000A00040002000408001000401010004056
:101EC000020000081090004000900040D4A00000E4
:101ED000B49F000084A00000F0B583B0164605460C
:101EE0000F46FEF7A7FE0446002848D09E4B1B78FD
:101EF000092B00F2D981DFE813F057005D0069007B
:101F0000A500AC00AC000A00DD000A014500002D70
:101F100000F09B80954B96484022C3F8082580210D
:101F20004FF48072C3F80815C3F80825D3F80028C9
:101F3000002122F08002C3F80028C3F82C1903788E
:101F40007BB18C4B8C4A8D480A25C3F80853012578
:101F5000C3F800120560C3F84416116013680193BA
:101F6000019B66B1864B1D6806212846FEF77AFE66
:101F7000034620B1284606211C46FEF7C5F9204637
:101F800003B0F0BD794B7A4A40208021C3F80805A0
:101F9000C3F80815137803F0FF02002BEFD0774B3E
:101FA000012114461960EAE7022FE8D0042001F06D
:101FB00037FDE4E76E4B1B7803F0FF02002BDED009
:101FC0006C4B10211446C3F80813D8E76D4B1B78EF
:101FD000C3F38003002B00F02A81002D35D0634B22
:101FE000694F6A49624D4022C3F808258022C3F830
:101FF00008254FF48072C3F80825D3F8002822F092
:102000008002C3F8002800200122C3F82C093A609E
:10201000D1F8003223F4A063C1F800322B7853B119
:10202000A1F5FF41534B70394FF45055C3F8085395
:10203000C3F800020A60002EA1D006203446FEF745
:102040005DF99CE7002D40F0AB802C46204603B0A4
:10205000F0BD002DF9D0454B454940208022C3F802
:102060000805C3F808254FF400704FF48072C3F8D8
:102070000805C3F80825D3F80028002522F08002BF
:10208000C3F80028C3F82C590B78002B3FF469AF34
:1020900003F09CFC3E493F4B364A3F4FA84208BFE5
:1020A0000B463649C2F808330123C2F800523B60A0
:1020B0000B6056E7002DC8D02C4B2D484022C3F8AA
:1020C000082580214FF48072C3F80815C3F808254D
:1020D000D3F80028002122F08002C3F80028C3F8BA
:1020E0002C1903785BB1234B2C48244A4FF400454C
:1020F000C3F80853C3F80012012303601360002ED5
:102100003FF43DAF01203446FEF702F937E7002DDA
:102110009BD0164B16484022C3F8082580214FF467
:102120008072C3F80815C3F80825D3F800280021E9
:1021300022F08002C3F80028C3F82C1903785BB1A1
:102140000C4B15480D4A4FF4C025C3F80853C3F88B
:102150000012012303601360002E3FF410AF012032
:102160003446FEF7D9F80AE70E02002000F00140DD
:102170000D020020001000405C11004010100040D3
:10218000180200200C020020109000400090004037
:102190000A0004000200040830100040281000402B
:1021A000454BDFF828C1454945484022C3F808257A
:1021B0008022C3F808254FF48072C3F80825D3F8AD
:1021C0000028002722F080020125C3F80028C3F868
:1021D0002C79CCF80050D1F8003223F4A063C1F878
:1021E00000320378002B51D1002E3FF4C8AE354A9F
:1021F000354B1568002285F88020D3F8480500F09B
:102200007F00FEF7BDFD2B782B44074613F8010C29
:10221000FEF7DAFD02B29200FF2A28BFFF227942C0
:1022200052B2284649B23446FEF764F8A7E6224A7D
:10223000264D22484021C2F808158021C2F8081511
:102240004FF48071C2F80815D2F8001821F080010F
:10225000C2F800180121C2F82C392960D0F80022F8
:10226000174D22F4A062C0F800222A7802F0FF0085
:10227000002A3FF484AE144A154D4FF45056C2F86C
:1022800008630446C2F80032296078E603F09EFB3A
:102290000D4A0F490F4BB84208BF0A23C2F8083352
:1022A000C2F800720D609FE70B4B0C4A0C4840F2DD
:1022B0001D5106F0D7FA00BF00F001400090004029
:1022C0000D02002014020020001000401090004079
:1022D0001010004002000008D4A00000B49F0000CD
:1022E00084A00000F0B583B050B102F047FD3B2858
:1022F00004D9CE4D2B7803F0FF065BB103B0F0BDDF
:10230000CA4D2B78002B40F0A38003B0BDE8F0400D
:1023100002F016BDC64CC74AC4F8FC6F01270F2354
:10232000C4F8FC7FC4F81035D4F8143523F00F033B
:10233000C4F81435D4F8143543F00803C4F8143540
:10234000D4F8143523F04073C4F81435D4F8143598
:1023500043F00073C4F81435D4F8143523F08063C7
:10236000C4F81435D4F8143543F08063C4F8143538
:10237000D4F8183523F0FF03C4F81835D4F818350D
:1023800043F07F03C4F81835D4F8503623F0010326
:10239000C4F85036D4F850363B43C4F85036D4F81D
:1023A000343523F00303C4F83435D4F8343543F01E
:1023B0000203C4F83435D4F8343523F44073C4F838
:1023C0003435D4F8343543F40073C4F83435C4F8E4
:1023D0003825FEF749FE984BC4F84466C4F84836E1
:1023E00001F074FAA0F10B03DBB20F2B00F21C8199
:1023F000924B0A3800EB80000222C4F8080583F8EB
:102400000163C3F88021D4F80032002B40F005812D
:102410008B4C2378002B40F0F0802378092B00F2BE
:10242000F58001A252F823F0FD2200000D260000E5
:10243000E72500000D260000DD250000CB2500006B
:102440000D260000BF250000B32500007325000005
:102450007A4B0226C3F880600446C3F8806183F893
:102460000103BFF34F8FBFF36F8F714B0127C3F889
:10247000FC0FC3F8FC7F287001F00AF9314638469A
:10248000FEF7D8FB30B96F4B6F4A704840F2CE610F
:1024900006F0E8F9224631463846FFF70DFB0028E2
:1024A000F1D0674C2378092B00F2E88001A252F8A2
:1024B00023F000BF0B23000061250000472500002A
:1024C000FD240000DD240000DD240000DD240000E8
:1024D0000B2300000B2300000B23000002232370BA
:1024E00002F052FF5A4B1C6804212046FEF7BAFB4B
:1024F000002840F0868002F08DFF06E7554B1D68EE
:10250000002385F880300223237002F03DFF484B02
:10251000D3F8480500F07F00FEF732FC2B782B44FF
:10252000044613F8010CFEF74FFC02B29200FF2A9A
:1025300028BFFF22614252B2284649B2FDF7DAFEB7
:1025400002F068FFE1E6444B1B785B077FF5DDAEE8
:1025500002F01AFF0520FDF7D1FE02F05BFFD4E682
:102560000026267001F094F8304601F059FA2E70DA
:10257000CBE62B78002B3FF4C1AE384A384B2C48C1
:102580003849394E394D0024146014680194019C77
:10259000C3F848258024C3F84C0501224020C3F825
:1025A0004065C3F84455C3F80445C3F804050A6000
:1025B000A4E6002003B0BDE8F040FEF7F7BD002020
:1025C00003B0BDE8F040FEF75BBE214B0022186867
:1025D000114603B0BDE8F040FFF7BEB81C4B002227
:1025E00018680121F5E72B78002B3FF487AE002017
:1025F00003B0BDE8F040FEF7B9BE2F7001F03AF825
:102600000BE720460421FDF77FFE74E7184B194ABB
:102610000E4840F2B76106F025F9174B154A0B48F2
:1026200040F28F6106F01EF9FEF762FD0D020020F8
:102630000010004021100100000700FF00E100E051
:102640000E02002050A10000E49F000084A00000C2
:1026500018020020140200200C0200203C710140EE
:1026600000F0014010100040101100403C7001408B
:10267000D4A00000D09F000028A10000034B044A12
:10268000044840F2F96106F0EDF800BFD4A0000064
:10269000E49F000084A000000D480E490E4B00226C
:1026A00002700A70D3F8042522F00302C3F804254F
:1026B000D3F8082522F00302C3F80825D3F8102523
:1026C00022F00F0242F00402C3F8102504F052BFBA
:1026D0000E0200200D020020009000402DE9F0477E
:1026E000074688461446994602F0F0FC054600B3BA
:1026F000184E3378022B14D03378032B11D0DFF827
:1027000058A09AF80030D3B94A4641463846FFF7F8
:10271000E3FBC0B1022333709AF8003003F0FF06E8
:102720009BB90CB12846A04702F06AFD2846BDE8D7
:10273000F087002CFAD0A0472846BDE8F08702F0C9
:102740001DFB3B28E0D80025EBE70120FEF70EFE3D
:102750003546E6E70E0200200D0200202DE9F84381
:10276000099C9DF8209005460E4690461F4602F0B3
:10277000ADFC80B31C4B1B783BBB31462846FEF7B3
:1027800059FA78B3284631460122FFF795F90546F4
:1027900040B3164E164B0222327040460122394693
:1027A000C3F80080FEF7D8FFB9F1000F00D0C8B120
:1027B000002F14BF0423052333700CB12846A04713
:1027C00002F01EFD2846BDE8F88302F0D7FA3B2848
:1027D000D3D802F015FD0CB10020A04700252846F3
:1027E000BDE8F8830025E8E70D0200200E02002076
:1027F0001802002038B5044602F068FCC0B12A4D2A
:102800002B787BB92B78012284F8802033B1274BB9
:102810001B78DBB2022B24D0062B0ED002F0F0FC8A
:10282000012038BD02F0AAFA3B28EBD802F0E8FC00
:10283000012384F88030012038BD1D49D1F850357E
:10284000DBB2022BEAD1D1F80032122B24D1194D80
:10285000194B1A482C60C1F80445C1F800021A60EF
:10286000DCE71349D1F85035DBB2022BD6D1D1F8D1
:102870000032522B09D10F4D0F4B11482C60C1F87B
:102880000445C1F800021A60C8E70E4B0E4A0F4813
:1028900040F69F3105F0E6FF0D4B0B4A0B4840F622
:1028A000AE3105F0DFFF00BF0D0200200E02002058
:1028B0000010004014020020081000401200080020
:1028C00052000800DCA0000034A0000084A000003A
:1028D00000A1000038B502F0F9FB0446A0B12E4D6E
:1028E0002B7853B92D4B1B78023B072B1DD8DFE803
:1028F00003F0200D0D0D0D1C0D3D02F03FFA3B289D
:10290000F0D802F07DFC0024204638BD2B7863B15E
:1029100000F0DCFFA0F10B03DBB20F2B3AD80A3832
:102920001F4B00EB8000C3F8080502F069FC20464D
:1029300038BD2B7863B100F0C9FFA0F10B03DBB207
:102940000F2B27D80A38164B00EB8000C3F8080578
:10295000012211460020FFF7BFFA0028E5D02B78AE
:10296000002BE2D00120FEF701FDDEE72B78002BE3
:10297000DBD000F0ABFFA0F10B03DBB20F2B09D8CB
:102980000A380749074B00EB80000122C1F808050F
:102990001A60CAE7FEF7ACFB0D0200200E02002011
:1029A00000100040101000402DE9F0439BB002F0F1
:1029B000F1FB8A4BD3F80833980720D5884B1A6867
:1029C000EAB100221A601A68864B0992099A1B78AC
:1029D000033B032B00F2C985DFE813F01A03040060
:1029E00004001703804E34682046FEF751F9002892
:1029F00040F075847D4A137843F008031370774CD8
:102A0000D4F80833590538D5794B1A68002A34D0E0
:102A100000221A601A68734B0892089A1B78022BDE
:102A200040F08785D4F86055C5F3C705022D8DF8B1
:102A3000505040F285856F4B1B68F3B96B4E33786D
:102A4000DA0740F187839F0717D4DFF8BC81D8F8F5
:102A5000003018785B7801309D064FEA401000F195
:102A6000A783A03002F06EF9002800F03D8433788F
:102A700043F002033370FEF71FF9584BD3F80833C5
:102A8000980416D55B4B1A689AB1002018601A6832
:102A9000544B0792079A1C78E4B2022C40F01F8531
:102AA000FEF734FB02F070FC2046FDF727FC02F035
:102AB000B1FC4A4ED6F80833D9045AD54E4B1A68A1
:102AC000002A56D000221A601B68464C0693069BCB
:102AD0002378022B40F01F85444DDFF82C812B78A2
:102AE000D8F80070DA0740F120833B465B789E06F9
:102AF00000F1A3820120FEF709FB7B7803F00703B6
:102B0000022B00F06F82D8F80030002283F880207A
:102B100000F028FFC8F8000070B190F880305BB179
:102B20002E4B364AC3F80405C3F80022D3F85035BB
:102B3000DBB2022B00F0388302F026FC274BD3F8DF
:102B4000480500F07F00FEF71BF93B783B44044644
:102B500013F8010CFEF738F902B29200FF2A28BFE1
:102B6000FF22614252B249B23846FDF7C3FB02F080
:102B700051FC02F02BFFA0B1184BD3F808331D0114
:102B80000FD51F4B1A6862B100221A601A68154BE4
:102B90000592059A1B78DBB2032B40F0BE82FEF74C
:102BA000CFFE0E4BD3F808331C0740F19980154B2C
:102BB0001A68002A00F0948000221A601B68094CF1
:102BC0000493049B2378033B032B00F2C784DFE8C4
:102BD00013F02C02240224021D0000BF001000404C
:102BE000041100400E020020180200200C020020F8
:102BF00028110040341100403011004052000800FC
:102C00006C1100400C11004014020020BB4BBC4E64
:102C10001B68002B40F0B7823068837803F03003E4
:102C2000202B00F0D1834FF000084746B54BB64D3E
:102C30004022C3F8082580214FF48072C3F808159C
:102C4000C3F80825D3F80028002022F08002C3F83A
:102C50000028C3F82C092B78ABB1AC4BA74A01F183
:102C600080414FF00A0C01F57961C3F808C34FF0B9
:102C7000010CC3F80002C1F800C0C3F8440610609C
:102C800013681493149B022323702B7813B1012033
:102C9000FEF76CFBB8F1000F00F09C829B4BD3F861
:102CA000480500F07F00FEF76BF83B783B44054693
:102CB00013F8010CFEF788F8366800B2840002F0C1
:102CC00063FB3046FDF7CCFFFF2C28BFFF246A4290
:102CD00063B252B230463946FDF712FB02F09AFB5E
:102CE0008A4BD3F80823D0061AD5894A1168B9B19E
:102CF000002111601268874C0E920E9A2278012AE8
:102D000040F00284804D2A7812B11022C3F80823C3
:102D10000026267000F0BCFC304600F081FE2E70CC
:102D20007A4BD3F8082391033BD57B4A11680029DD
:102D300037D0002010601268764C0392039A2278F4
:102D4000082A40F0DA836F4A6F4D4021C2F8081517
:102D50008021C2F808154FF48071C2F80815D2F826
:102D6000001821F08001C2F80018C2F82C092A7856
:102D700052B16A496A4A4FF4C026C3F80863C3F8DF
:102D8000000201230B601360022323702B78002BB9
:102D900040F01D8102F0F8FA0120FDF7BBFA02F0C5
:102DA00039FB5A4ED6F808335A033AD55D4B1A68A8
:102DB000002A36D000271F601B68564C0293029BE6
:102DC0002378DBB2042BC0F0AD83052B40F2CE801C
:102DD000082B40F0A7834B4B4B4D4022C3F80825EE
:102DE0008022C3F808254FF48072C3F80825D3F871
:102DF000002822F08002C3F80028C3F82C792B7831
:102E0000002B40F07E81022323702B7813B1012028
:102E1000FEF7ACFA02F0B8FA0020FDF77BFA02F0F8
:102E2000F9FA3A4ED6F808331B0461D53E4B1A68BE
:102E3000002A5DD000251D601B68364C0193019B64
:102E40002378072B40F04483384FD6F868363A7819
:102E5000DFF8E090DBB29342D9F8008038BF134628
:102E60003B70B8F1000F67D100F030FDA0F10B030B
:102E7000DBB20F2B00F22A83224B234D0A3840226B
:102E800000EB8000C6F80805C3F808258022C3F8C7
:102E900008254FF48072C3F80825D3F8002822F0E3
:102EA0008002C3F80028C3F82C892B7853B14FF463
:102EB00000431F491A4AC6F808330123C6F80082A6
:102EC0000B601360022323702B7813B10120FEF7EF
:102ED0004DFA3878FDF79CFF00B2840002F054FAF6
:102EE000FF2C28BFFF24E0B2FDF710FA02F092FA9F
:102EF00002F086F91BB0BDE8F08300BF5C11004012
:102F00001802002000F001400D02002000100040D7
:102F1000101100400E02002044110040301000400B
:102F200010100040481100403C11004004020020F5
:102F3000281000400802002001F020FFB0F5C07FFB
:102F4000C0F00081C009821E4FEAD8139A429CBF8C
:102F5000A8EBC215C31EB24AB248C9F80050C3F369
:102F600014030121C0F864361160C1E7AE4BAF4DC8
:102F70004022C3F808258022C3F808254FF40072C8
:102F8000C3F808254FF48072C3F80825D3F8002849
:102F900022F08002C3F80028C3F82C792B78002B8C
:102FA00040F02A81022323702B7813B10120FEF711
:102FB000DDF902F0E9F99E4B1C6801212046FDF77E
:102FC00051FE002840F0138102F024FA29E7012085
:102FD000FEF7CCF902F0D8F90120FDF79BF902F0D9
:102FE00019FADEE600F05AFC00287FF48CAD8D4B18
:102FF000904AC3F80022D3F85035DBB2022B7FF49D
:10300000B8AD8D4B01221A60B3E5FDF757FEF6E42B
:103010008A4B186804F096FBF1E402F0D7FC002814
:103020007FF45EAEFEF772FA5AE602F0CFFC00289B
:103030007FF456AEFEF784FC52E600F037FC002821
:103040003FF458ADD8F8000004F09CFA7B4B1860B0
:1030500000283FF44FAD734EDFF80892C6F8040520
:1030600002F0B4FC7649774A6F4BDFF8FCE1DFF8F9
:10307000F0C1002818BF4FF4A0120020C6F80022AB
:1030800008600A680D924FF4007501200D9AC3F88C
:103090005895C3F85C65C3F80455CEF80000DCF819
:1030A0004CE5DCF8442596450ED300BF00BF00BFB9
:1030B00000BF00BF00BFD6F85025D2B2092A03D006
:1030C0000A68002A00F0CE81564B03214FF450527B
:1030D0002170C3F8082302F079FC002800F0BB81BE
:1030E000594B5A4A002119601B680C930C9B584B92
:1030F0004C49002018601B680A930A9BC1F80423FE
:1031000037E54FF4C0235349534AC6F80833012327
:10311000C6F800720B60136075E6C0F0E781052BFE
:1031200000F2E481FEF7F2F93BE500F0B7FB00287E
:1031300000F0A0802B78DB0748BFD8F800303FF5BF
:10314000D5ACD7E4384BC9F800804FF48072C3F88F
:103150000825CDE6DFF8148143F00403D8F8000019
:10316000337014A902F034FC074620B3092800F09C
:10317000EB8000F093FB002800F0E68033789C079A
:103180003FF57BAC63E4274BD3F80034DBB2012B73
:103190007FF442ADDFF8D480D8F80070002387F8C0
:1031A00080304FF0010841E5234B01221A60C3E44F
:1031B00000F5307056E49DF8503032789D42C2F3ED
:1031C000400100F04081DB00C4F8603500297FF445
:1031D00054AC3CE402F0D8F8346802212046FDF7F4
:1031E00041FD002840F02A8102F014F978E52046DC
:1031F0000121FDF789F8E7E602F0E8FB174BDFF85D
:1032000070C01449144A002814BF184660460123B0
:10321000C6F80803C6F800720B601360C2E600BF70
:10322000241000400010004000F001400D0200207A
:103230001802002052000800081000401002002070
:1032400054110040020004006C110040020000080C
:10325000041100403010004010100040020004082B
:1032600000900040449100404C9000401402002027
:103270000A000400C04BC14CC149C24D4022C3F8F2
:1032800008258022C3F808254FF48072C3F808256A
:10329000D3F8002822F08002C3F800280122C3F8E6
:1032A0002C092260D1F8003223F4A063C1F8003267
:1032B0002B783BB1B44B4FF45051C6F80813C6F805
:1032C00000021A602B7813B10120FEF74FF802F0CC
:1032D0005BF80420FDF712F802F09CF849E4204660
:1032E00004F068FAFFF786BBA34BA44DA449A54C94
:1032F0004022C3F808258022C3F808254FF48072C5
:10330000C3F80825D3F8002822F08002C3F800286B
:103310000122C3F82C092A60D1F8003223F4A063FB
:10332000C1F80032237853B1A1F5FF41974B7039B2
:103330004FF45054C3F80843C3F800020A60052054
:10334000FCF7DCFFFFF799BB8B4B8C4C8C498D4D08
:103350004022C3F808258022C3F808254FF4807264
:10336000C3F80825D3F8002822F08002C3F800280B
:1033700000200122C3F82C092260D1F8003223F486
:10338000A063C1F800322B7843B1804B7E494FF4E3
:103390005054C3F80843C3F800020A602B7813B1F5
:1033A0000120FDF7E3FFD8F800305B7803F0070356
:1033B000022B3FF462AB01F0E7FF3846FCF79EFFBB
:1033C00002F028F8FFF759BBDFF8E481D8F8005085
:1033D000AB7803F03003202B7FF425AC6B7803F03F
:1033E0000703022B7FF41FAC684BD3F80034DBB229
:1033F000012B7FF418AC0EA902F00AF9002800F0A6
:10340000A680284614A902F003F900283FF40BAC6B
:10341000119800283FF407AC159900293FF403AC3C
:103420009DF84D309DF864209A427FF4FCAB05F086
:1034300081FA00283FF4B0AEFFF7F5BB2046022129
:10344000FCF762FFD0E642F00102327000297FF4FF
:1034500014ABFFF7FCBA4E4B18601B680B930B9B29
:103460000A2244E6D8F80010444C81F8802040211C
:10347000C3F80855C3F8081580254FF48071C3F8C8
:103480000855C3F80815D3F800183E4D21F0800107
:10349000C3F80018C3F82C292060DCF8003223F4AC
:1034A000A063CCF800322B783BB1374B4FF450512E
:1034B000C6F80813C6F8002218602B78002B3FF4DA
:1034C0003BAB0120FDF752FFFFF736BBFDF710FEC7
:1034D000304B314A314840F6A82105F0C3F92D4B55
:1034E0002D4A2E4840F6062105F0BCF9294B2A4A00
:1034F0002A4840F6332105F0B5F9264B264A2748DD
:1035000040F67D2105F0AEF9224B234A234840F6D0
:103510006A2105F0A7F91F4B1F4A204840F61A21DF
:1035200005F0A0F91B4B1C4A1C4840F6952105F0FC
:1035300099F9184B184A19484FF41F6105F092F990
:10354000174B184A154840F2317105F08BF9164BAC
:10355000164A124840F6561105F084F90D4B0E4AF2
:103560000E4840F6572105F07DF90A4B0A4A0B48F0
:1035700040F6DB1105F076F900F0014010900040B4
:10358000009000400D02002010100040001000408C
:103590000C110040D4A0000028A0000084A000006E
:1035A0007C9F0000F89F0000A49F000010A0000076
:1035B0001402002038B50446002002F0F5F8D4E9E2
:1035C00000311A688A4215D9511E19602168A36812
:1035D0000868258A12F8012CE4681B1A0879DBB206
:1035E000984205FB024400D20B71002002F0E4F87F
:1035F000204638BD0024002002F0DEF8204638BD09
:1036000038B5054600200C4602F0CEF82A6813684B
:10361000591C1160E9682A8A641AB4FBF2F41C7020
:103620000020BDE8384002F0C7B800BF0E4A0F497D
:1036300010B5002313700B60FDF742FB03F01EFF73
:103640000446FDF75FFB0A4B4FF40052C3F8784580
:10365000C3F87C05C3F80425D3F8042842F480425B
:10366000C3F8042810BD00BF200200201C02002067
:1036700000F0014008B5054B00221A70FDF722FB4F
:10368000FDF744FBBDE8084003F02EBD2C020020EE
:1036900008B5FDF731FBBDE8084003F0DBBE00BF15
:1036A00010B50446FDF762FB054B0649C3F880459B
:1036B0000122C3F88405C3F848199A6010BD00BF01
:1036C00000F001400CF001402DE9F84F002851D0E6
:1036D0002B4B1B7803F0FF0613B93046BDE8F88F7B
:1036E0000546284FFDF746FB274B7C681B78041BDB
:1036F00033B3264B1968CB1711F5800AA4FB018957
:1037000043F1000B11F5800FACBF0021012104FB38
:103710000399B1EBD97F4FEADB7119D01AEB0102A3
:103720004BF10003500840EAC370B8EB00004FEAC9
:10373000630152465B4669EB010106F06DF900E05A
:1037400018463B681C44241A2C603046BDE8F88FAC
:103750001AEB01024BF10003500840EAC37010EB72
:1037600008004FEA630152465B4641EB090106F04F
:1037700053F9E6E7064B074A07489D2105F072F822
:103780002C02002024020020200200201C02002025
:10379000009F000058A1000080A1000070B582B019
:1037A00001A8FDF7C5FA002843D02B4D2B4C03F0A0
:1037B00069FE2B780090DBB9294E00232B70BFF3F4
:1037C0005F8F02AB13E9030084E80300BFF35F8F50
:1037D00001232B70FDF79AFA33782068002B14BF71
:1037E0004FF080514FF4800103F04EFD02B070BDE8
:1037F000D4E90023019EC2F500113244D31A0144DA
:10380000174E8A0D1B1A4BBFA3EB520303EB520357
:1038100093FBF2F3B3FBF2F3327882B111490A68F9
:10382000C2EBC202D3180FD51A1F12D4D2100A60ED
:1038300007E0FDF76BFA03F057FC02B070BD094AD0
:10384000136001233370B8E71A1D48BF03F10B0260
:10385000ECE7DA1CEAE700BF2C020020240200207B
:10386000200200201C02002038B50A4C5A230222F4
:10387000FF21601C6374FE2505F078F8FF23601DAE
:10388000082200212371E57005F070F8024BC4F89E
:103890000D3038BD3002002000141402024B587C59
:1038A00000F00100704700BF30020020024B587C3E
:1038B000C0F34000704700BF30020020024B587C2C
:1038C000C0F38000704700BF30020020014B587CDD
:1038D000C008704730020020024B5A7C60F3C702D8
:1038E0005A74704730020020014B93F90000704772
:1038F0003002002000487047310200200048704725
:10390000350200200048704733020020042201499C
:1039100005F01EB83D020020114B012283F88020E3
:1039200083F8012183F8822183F8032283F884221B
:1039300083F8052383F8862383F8072483F88824F3
:1039400083F8092583F88A2583F80B2683F88C26CB
:1039500083F80D2783F88E2783F80F28704700BF60
:10396000600B00202A4B93F880206ABB93F801215A
:103970007ABB93F8822182BB93F803227ABB93F837
:10398000842272BB93F805236ABB93F8862362BB3B
:1039900093F807245ABB93F8882452BB93F809255F
:1039A0004ABB93F88A2542BB93F80B263ABB93F89F
:1039B0008C2682B993F80D271ABB93F88E2712BB79
:1039C00093F80F0808BB7047002000EBC0101844A4
:1039D00070470120F9E70C20F7E70220F5E7032004
:1039E000F3E70420F1E70520EFE70620EDE70720E5
:1039F000EBE70820E9E70920E7E70A20E5E70B20E5
:103A0000E3E70D20E1E70E20DFE70F20DDE700BF51
:103A1000600B0020014BFF221A7070474202002009
:103A200001F0C4B810B582B0044601F04FFB0D4A56
:103A300010B11378FF2B0DD0D2E84F3FDBB28DF8D9
:103A400007309DF80730C2E8434F002BF4D120B96E
:103A500002B010BD2046FEF745FC02B0BDE81040A4
:103A600001F0CEBB42020020704700BF064AFF2390
:103A7000D2E84F0FC2E8413F0029F9D1C0B2FF2878
:103A800000D17047FEF72EBC42020020024B18788E
:103A9000FF3818BF01207047420200202DE9F84F7F
:103AA00088469045164605461F46DDE90AB177D39C
:103AB00043464FF00109B3FBF6F39E4209F10109B9
:103AC000F9D9B94538BFB94611F0010AAA6802D13F
:103AD000BBF1000F45D1012402E0013F06FB04F4D5
:103AE000012FFAD8B8FBF4F18E42F7D92E4F07E038
:103AF000B442B4FBF6F315D3B8FBF3F1AA681C4645
:103B0000531CAB602B68785C9854D5E901329A421B
:103B100004FB1188ECD3284601F00CFDB4FBF6F34E
:103B2000B442E9D2BAF1000F15D0BBF1000F12D0A8
:103B3000CB4510D92024AB682A68591CA960D454FD
:103B4000D5E901329A420BF1FF3B06D2BBF1000FDF
:103B500001D0CB45EFD1BDE8F88F284601F0EAFC53
:103B6000F4E78B0717D42024CB45B4D92B68511C1C
:103B7000A9609C54D5E901329A420BF1FF3B05D272
:103B8000BBF1000FA7D0CB45F0D1A4E7284601F048
:103B9000D1FCAA68F4E7002F0CBF30242024E3E70F
:103BA0004FF001098DE700BFD8A10000002900F007
:103BB00042822DE9F04F054683B093460C460B78C0
:103BC00001E0237893B1013483B1252B15D0AA6885
:103BD0002968501CA8608B54D5E901329A42F0D371
:103BE000284601F0A7FC2378002BECD12B7B002B7F
:103BF00040F0198103B0BDE8F08F2146002711F88D
:103C0000012B2D2A00F0E580302A00F0E6802B2AD7
:103C100000F0D6802A2A00F0E480A2F13006F3B248
:103C2000092B03D903E2A3F130060146084606EB4F
:103C3000860310F8012BA2F13004092C02EB430398
:103C4000F1D92E2A00F0D9804FF0000802F0FB03D2
:103C5000682B01F1010405D114F8012B02F0FB03DC
:103C6000682BF9D0253A532AABD801A353F822F098
:103C70004F3E0000C33B0000C33B0000C33B0000BD
:103C8000C33B0000C33B0000C33B0000C33B00003C
:103C9000C33B0000C33B0000C33B0000C33B00002C
:103CA000C33B0000C33B0000C33B0000C33B00001C
:103CB000C33B0000C33B0000C33B0000C33B00000C
:103CC000C33B0000C33B0000C33B0000C33B0000FC
:103CD000C33B0000C33B0000C33B0000C33B0000EC
:103CE000C33B0000C33B0000C33B0000C33B0000DC
:103CF000C33B0000C33B0000C33B0000C33B0000CC
:103D0000C33B0000C33B0000C33B0000C33B0000BB
:103D1000C33B0000C33B0000C33B0000C33B0000AB
:103D2000C33B0000C33B0000C33B0000C33B00009B
:103D3000C33B0000C33B0000C33B0000693E0000E2
:103D4000C33B0000C33B0000C33B0000C33B00007B
:103D5000C33B0000C33B0000C33B0000C33B00006B
:103D6000C33B0000C33B0000853E0000A73E0000AF
:103D7000C33B0000C33B0000C33B0000C33B00004B
:103D8000A73E0000C33B0000C33B0000C33B000054
:103D9000C33B0000C33B0000C33B0000353F0000B5
:103DA000C33B0000C33B0000AF3F0000C33B00002B
:103DB000333E0000C33B0000C33B0000693E0000EF
:103DC00047F004070C46214611F8012B2D2A7FF4F9
:103DD0001BAF47F001070C46F5E747F002070C461A
:103DE000F1E7DBF800301A1DCBF8002062781E687E
:103DF0002E2A04F102007FF427AF4A78A2F13003A3
:103E0000092B01464FF000083FF620AF08EB880869
:103E100002EB480811F8012FA2F13003092BA8F199
:103E20003008F3D912E7284603B0BDE8F04F01F09F
:103E300081BBDBF800301A1DCBF800201968019710
:103E4000434600960A222846FFF728FEB9E6AB68EB
:103E50002A68591CA9604FF02501D154D5E90132D7
:103E60009A42FFF4AEAEBBE6DBF800301A1DCBF889
:103E70000020196801974346009610222846FFF754
:103E80000DFE9EE6DBF80020131DCBF80030AB687A
:103E900029681278581CA860CA54D5E901329A42A0
:103EA000FFF48FAE9CE6DBF800301A1DCBF8002043
:103EB000D3F8009089EAE972A2EBE972092A4FF07F
:103EC000010A01DC09E01A46B14B632AA3FB021385
:103ED0000AF1010A4FEAD303F5DCC24538BFC246F6
:103EE00007F00203002E40F0A780002B40F0FA807C
:103EF0000026B9F1000FC0F2E2807A070CD5AA685B
:103F00002B68501C2B21A8609954D5E901329A42A4
:103F100002D3284601F00EFB07F00303022B00F04A
:103F20000A81CDE90067434649460A222846FFF741
:103F3000B5FD46E6DBF80020131DCBF80030AB687A
:103F400029681768581C3022A860CA54D5E9012393
:103F5000934280F012812A68581C7821A860D154BD
:103F6000D5E90123934280F003810F2F03D93A460C
:103F700012090F2AFCD84FF0805606E00F2E4FEAA8
:103F800016137FF61EAE1E46AB682968B7FBF6F225
:103F9000581CA8607F48805CC854D5E9013199421B
:103FA00006FB1277EAD3284601F0C4FAE6E7DBF80D
:103FB00000301A1DCBF80020D3F80080FB075FD536
:103FC00098F80020002A00F0E180AB684746C8F16D
:103FD00001092968581CA860CA54D5E901239342F5
:103FE00009EB07081AD217F8012F002AF1D146452C
:103FF0007FF6E7AD202702E046453FF4E2ADAB682F
:104000002A68591CA960D754D5E901329A4206F1B1
:10401000FF36F1D3284601F08DFAEDE7284601F08E
:1040200089FA17F8012F002AE1D0AB68D1E70846DA
:104030000026214605E67047B9F1000F01DB78073D
:1040400000D5013E002B48D1F9073FF552AF002EB5
:104050003FF44EAFB245BFF44CAF2021AA682B68A5
:10406000501CA8609954D5E901329A4206F1FF36F6
:1040700041D2002E3FF43CAFB245EFD1564638E76F
:10408000B8F1000F35D0404604F088FF0746BE4225
:1040900036D9AEB34FF0200901E0BE4230D0AB6854
:1040A0002A68591CA96002F80390D5E901329A42A6
:1040B00006F1FF36F1D3284601F03CFAEDE7AA6895
:1040C0002B68501C2D21A8609954D5E901329A42E1
:1040D000C9F10009FFF420AF1BE7B8F1000F3FF46E
:1040E00008AFB1E7B8F1000F4ED0FB073FF501AFC5
:1040F000FEE64746CBE7284601F01CFA2021B8E748
:1041000098F80020002A3FF45CADAB682968581C81
:10411000A860CA54D5E90123934204D218F8012FAC
:10412000002AF3D14DE5284601F004FA18F8012FD2
:10413000002AEAD145E5B8F1000F7FF4F2AE0EB3E4
:10414000B245BFF4EEAE3021AA682B68501CA860BF
:104150009954D5E901329A4206F1FF3603D28EB165
:10416000B245F1D1DDE6284601F0E4F93021F6E769
:10417000284601F0DFF9AB68F7E6284601F0DAF9E6
:10418000AB68E8E60026CCE64646B2E690462EE767
:10419000CDCCCCCCD8A10000F0B5464BD3F824212F
:1041A00089B0002A55D00021C3F82411D3F8242166
:1041B000029202228DF81020029AD3F880043E4A1F
:1041C000C3F880040790D3F83C05D3680690C2E991
:1041D000061105931168536804A89847354BD3F826
:1041E00044214AB10021344AC3F84411D3F84401B0
:1041F000916901900198D9B92E4BD3F82021AAB129
:104200000021C3F82011D3F820012B4A0090009818
:10421000506958B1D3F84C05936806908DF810108A
:104220005161059304A8D2E90013984709B0F0BD85
:10423000D3F83C35D168069300240025012305916D
:104240008DF81030C2E90645D2E9001304A898475A
:10425000D2E7D3F810110029C0D0C3F81021D3F849
:1042600010111548039103998169D3F83C458C429C
:10427000B4D1C569C768D0E900168DB1D3F800C2C2
:1042800085612CF02005C261C3F800520369C36048
:104290000122CDE905748DF8102004A8B0479DE7F0
:1042A00001238561CDE905748DF8103004A8B0476D
:1042B00094E700BF00200040480200202DE9F043B1
:1042C0000779794E4FEAC70808EB070306EB83032B
:1042D00085B093F82030002B40F0A8800D460446AE
:1042E000724900689146FCF77BFC002840F09A80F8
:1042F0002B68591C19D01F2B4FF001028ABF6C4943
:104300004FF0A04103F01F0302FA03F3C1F8083590
:104310002B681F2B86BF03F01F03654A4FF0A04296
:1043200003F5E073032142F823106B685A1C0BD08D
:104330001F2B86BF03F01F035D4A4FF0A04203F519
:10434000E073002142F823102368AA69C3F82425EA
:10435000297D6A7D23680A43C3F86C25D5E90031BD
:104360002268C2F80C35C2F814152B7D012B67D0DA
:1043700008EB07029200B318C3F804902B69B350FE
:10438000B9F1000F3DD021682B7F4A4D0022C1F8C2
:104390001021D1F8101100912168DDF800C0C1F89A
:1043A0002021D1F8201101912168DDF804C0C1F865
:1043B0002421D1F8241102912168DDF808C0C1F848
:1043C0004421D1F84411226803910399C2F804539F
:1043D0002268120B51B25B010029DBB22ADB01F12A
:1043E000604101F5614181F800332368324D1B0BB8
:1043F0005AB2520903F01F03012101FA03F345F8F1
:1044000022304744226806EB870600230124082156
:10441000C2F8001586F82040C6E90633736105B07E
:10442000BDE8F083112005B0BDE8F083082005B099
:10443000BDE8F083214902F00F0211440B76D4E766
:10444000AB68591C0BD01F2B86BF03F01F03184904
:104450004FF0A04103F5E073002241F82320EB6800
:104460005A1C1AD01F2B8ABF11494FF0A04103F0EC
:104470001F03012202FA03F3C1F80835EB681F2B72
:1044800088BF03F01F0303F5E0738CBF08494FF0AA
:10449000A041032241F82320EB682268A968C2F8F2
:1044A0000835C2F8101563E7480200209941000062
:1044B000000300501003020000E100E0FCEC00E00B
:1044C000F8B507793A4C0268FE00F31904EB830350
:1044D00000215B68C2F8001583B10368354AC3F850
:1044E00008230368344D1B0B5AB25209203203F0E3
:1044F0001F03012101FA03F345F8223003684FF04E
:10450000FF3ED3F80CC5D3F81455D3F80825D3F8DB
:104510001015C3F80CE5C3F814E50368F445C3F8B7
:1045200008E5C3F810E50DD0BCF11F0F86BF0CF0F5
:104530001F0C224B4FF0A0430CF5E07C4FF0020E15
:1045400043F82CE06B1C0CD01F2D86BF05F01F0517
:104550001A4B4FF0A04305F5E0754FF0020C43F8FD
:1045600025C04D1C0BD01F2986BF01F01F01134B26
:104570004FF0A04301F5E071022543F82150531C90
:104580000BD01F2A86BF02F01F020C4B4FF0A04336
:1045900002F5E072022143F822103E4404EB860447
:1045A0000068FCF73BFB002384F820306360F8BD13
:1045B000480200201003020000E100E00003005068
:1045C00001F06043B3F1005F2DD1F0B40579244EC2
:1045D000EF007C1906EB840482B06369002B39D1AB
:1045E0006261A1600268C2F82031D2F820C102687D
:1045F000CDF804C0DDF804C0C2F85831D2F8582113
:1046000000920268DDF800C0D4F814C0C2F8441566
:10461000C2F848C502680121916062682AB1184653
:1046200002B0F0BC704710207047036800E0AAB9E0
:10463000D3F82011D3F858210029F8D0002A14BF4C
:104640000F2000207B1906EB830300225A6102B081
:10465000F0BC7047112002B0F0BC70470F20F1E7AA
:10466000480200200379054A03EBC30302EB8303EE
:104670005869003018BF0120704700BF4802002071
:1046800001F06043B3F1005F76D1F0B40579464C98
:10469000EB005E1904EB860682B0766826B10768E7
:1046A0004FF4047CC7F808C32B4404EB83039D69D3
:1046B000002D42D19A61DD61D9600368C3F81051C1
:1046C000D3F8106103680196019EC3F84451D3F8F2
:1046D000445103680095009DC3F83415C3F838258C
:1046E000036801221A6005790368EE00721904EB71
:1046F000820252685AB14FF40472C3F804230020B6
:1047000002B0F0BC7047002940D1002844D1D3F852
:104710001021D3F84411D3F82401002AF3D03544F2
:1047200000284FF0000304EB850414BF0320184653
:104730009942A36118BF0F20E2E7DD69F5B919615D
:10474000DA610368C3F81051D3F810610368019669
:10475000019EC3F84451D3F8445103680095009D6D
:10476000C3F83415C3F838250268D2F8003243F094
:104770002003C2F80032B6E71020704796B10368F4
:104780004FF40472C3F804231120B9E7354404EB55
:1047900085040F20A261B3E7354404EB85040320B0
:1047A000A161ADE71120ABE748020020704700BFD0
:1047B000F0B595B0002415460F4608461E46FCF796
:1047C000BBFB384623460895082205A91A9D099681
:1047D0000D950A948DF82C400C94FCF711FC9DF873
:1047E00014308DF81140DDE9061003F00302012AB0
:1047F000CDE9020127D0022A04D03846FCF7A0FBFD
:1048000015B0F0BDBDF81650C3F3C2038DF81030DB
:10481000AD090826082D2C4628BF08243346224619
:104820000EA93846FCF7ECFB2D1B214608AB02AA6B
:104830000EA82644FBF738FE002DEBD13846FCF7D6
:104840007FFB15B0F0BDBDF81460059DC6F383165F
:10485000C3F3C204B2000EA9384608238DF81040F5
:10486000C5F39525FCF7CCFB08AB324628460EA9CC
:10487000009302ABFBF7A2FD3846FCF761FB15B0D5
:10488000F0BD00BF10B572B601F064FF01F080FC0E
:104890000028FBD1104B114C1149E41AE408240400
:1048A00044F0010001F082FE0E4B1B68DB0700D5CF
:1048B00000BE44F002000C4901F078FEBFF34F8FB8
:1048C0000A490B4BCA6802F4E0621343CB60BFF3A2
:1048D0004F8F00BFFDE700BFF0AF000010B0000039
:1048E000F0A10000F0ED00E0FCA1000000ED00E010
:1048F0000400FA0550E8002F0B4640E8003C9CF00D
:10490000000FF7D11046704750E8003F03EB01025B
:1049100040E8002C9CF0000FF6D11046704700BF15
:1049200050E8003FA3EB010240E8002C9CF0000F90
:10493000F6D11046704700BF012350E8002F42EA2D
:10494000030C40E800C191F0000FF6D160467047BB
:10495000002350E800CF0CEA030240E8002191F068
:10496000000FF6D1604670474FF08042094910B4FD
:10497000012340240220C2F8183581F80043C1F811
:1049800080310B60C2F80433C2F804035DF8044BB5
:10499000704700BF00E100E0054B064A002182B0ED
:1049A00019601B68019301990123136002B07047DD
:1049B000040100400800004000B50F4B1A6883B0A6
:1049C0002AB90E4B1A686AB903B05DF804FB0022DD
:1049D0001A601B680093009B00F02AFA074B1A68C4
:1049E000002AF1D000221A601B680193019B02F09B
:1049F0004FFD03B05DF804FB0001004004010040DE
:104A000070B5161E07DD0C468D1914F8010B00F069
:104A100061F8A542F9D1304670BD00BF10B50C4613
:104A2000204600F029F80528FAD0012010BD00BF6B
:104A300000B5074B93E8030083B006220090ADF861
:104A400004100448694603F083FF03B05DF804FBDB
:104A50000CA200006C02002010B5064CC378E37075
:104A600000F0C6FE002814BF122302236370204604
:104A700010BD00BF6C02002070B5114C01461148FA
:104A8000267802F0BBFD05460EB9284670BD0E48DB
:104A90000E4A0378D35C0022227053B10430012205
:104AA0000B49FFF7EDFD0028EFD0FBF77BFD284613
:104AB00070BD012206490C3003F07EF9F3E700BF18
:104AC0008402002074020020080000205C0B0020FB
:104AD0009802002070B50146154802F077FD0446A3
:104AE00008B1204670BD134D134E2B78F35CA3B173
:104AF000281DFFF7B7FD0028F3D110490C4802F03C
:104B00007DFD0028EDD12B780C49F35C01224BB1DF
:104B10000B48BDE87040FFF753BD05F10C0003F0F2
:104B20003FF9E8E70748BDE8704003F0D3B800BF9D
:104B300088020020080000205C0B00209C0200205E
:104B40000C0000201400002008B5034A034B044861
:104B5000962103F087FE00BF14A2000068A20000A7
:104B6000A8A20000F8B503F0C7F9094F094A0A499D
:104B70000A4D0B480B4E0C4C00233B700B702B70F6
:104B800081F8203003701370537033702370F8BDB8
:104B9000E5020020A0020020A4020020E70200207D
:104BA000E4020020A2020020E90200202DE9F04FDB
:104BB0005A4E87B082463070BFF35F8F584F594DC1
:104BC000DFF874B1012302E0C7E8443F44B3D7E8FB
:104BD0004F2F12F0FF0FF7D0BFF32F8F2B78013339
:104BE000DBB22B70504F514C514D4FF0010903E097
:104BF000C7E8439F002B64D0D7E84F3F13F0FF0F67
:104C0000F6D0BFF32F8F23780133DBB22370BAF1D4
:104C1000000F02D1474B83F800A007B0BDE8F08F2A
:104C2000BFF35F8F2A789BF800300293D3B20193D1
:104C300003F03AFADFF80481039008F14009D8F84C
:104C40000410D8F808200591049203F02FFA98F880
:104C50000030A342DDE9042123D808F12008C8452B
:104C6000EDD133789C4238BF1C46029BA3420FD043
:104C70008BF80040002C4DD1DFF8B48098F800305C
:104C800088F8004003F056F998F8013088F80140A0
:104C9000BFF35F8F00233B702B78019A9A4291D12A
:104CA000A0E7C0F17F4000F57F0000F57E40D430E2
:104CB0000244039803F0FCF90028CED198F8004094
:104CC000CBE7BFF35F8F94F800802B78032B98BF5E
:104CD0002B786A7894BFDBB204239A4238BF6B7892
:104CE00032785FFA88F838BFDBB23AB1114A1178EE
:104CF000994203D018461370FEF794FEBFF35F8FFE
:104D000000233B70237898457FF476AFBAF1000F0B
:104D100083D17FE703F0F6F8BAE700BFA2020020D4
:104D2000E7020020E8020020E5020020E602002061
:104D3000A0020020E4020020E9020020A4020020DA
:104D400003F00EB903F00EB9012808B506D8074BD9
:104D5000185C884234BF0020012008BD044B054A7E
:104D600005484FF4E27103F07DFD00BFA002002072
:104D700050A200002CA20000A8A2000003F006B977
:104D80002DE9F041244B1B784BB1244B1A78042AAF
:104D900040D004221A70597891423BD05A70204F6B
:104DA000204C1E4D4FF0010802E0C7E8438F63B16D
:104DB000D7E84F3F13F0FF0FF7D0BFF32F8F2378C3
:104DC0000133DBB22370BDE8F081BFF35F8F26783B
:104DD0002B78032B98BF2B786A7894BFDBB204231F
:104DE0009A42114A38BF6B781278F6B238BFDBB2FC
:104DF0003AB10E4A1178994203D018461370FEF763
:104E000011FEBFF35F8F00233B7023789E42CFD10A
:104E1000BDE8F081FFF798FEE9020020A002002023
:104E2000E5020020E6020020A2020020E4020020A9
:104E30002DE9F041224B1B782BB1224B1A78042A22
:104E40003CD004221A70204F204C1E4D4FF0010818
:104E500002E0C7E8438F63B1D7E84F3F13F0FF0F7D
:104E6000F7D0BFF32F8F23780133DBB22370BDE877
:104E7000F081BFF35F8F26782B78032B98BF2B78B8
:104E80006A788CBF0423DBB29342114A88BF6B78E7
:104E90001278F6B288BFDBB23AB10E4A1178994265
:104EA00003D018461370FEF7BDFDBFF35F8F0023DC
:104EB0003B7023789E42CFD1BDE8F081FFF744FEDE
:104EC000E9020020A0020020E5020020E602002006
:104ED000A2020020E402002070B5214C237882B0A9
:104EE0000BB902B070BD1F4A1F4B1268019301231A
:104EF000009303210020FBF715FA0028F1D1237855
:104F0000002BEED019491A4D0B782A780133042A68
:104F1000DBB29CBF01322A70032B0B7002D9002335
:104F20002370DEE704F006F82A78124D124BAB60CE
:104F300001239340002690FBF3F4EE6004FB13047E
:104F400003F0B2F8E3B203EB83039B012860314620
:104F500028466B6002B0BDE8704003F0CBB800BFDC
:104F6000EB020020040300207D4F0000EC02002033
:104F7000EA020020F0020020D94E000018B9054BCB
:104F80001B78022B00D87047034B01211868FBF7F0
:104F9000BBB900BFEC02002004030020012906D8A1
:104FA00008B530B9074B187880F0010008BD012022
:104FB0007047054803F092F9024B00221A70012055
:104FC00008BD00BFEB020020F00200201B4B1B6855
:104FD000834201D001207047194A10780028F9D087
:104FE00070B5184C184D2378297801330429DBB2A9
:104FF0009CBF01312970032B237002D90023137049
:1050000070BD124E03F096FF2A78114BB360012356
:105010009340002490FBF3F5F46005FB130503F0C7
:1050200043F8EBB203EB83039B013060214630462B
:10503000736003F05FF8204670BD00BF04030020DA
:10504000EB020020EC020020EA020020F002002027
:10505000D94E000008B50A4B1B68834201D00120DD
:1050600008BD084803F0E0F918B9074B1870012093
:1050700008BD064B064A0748F82103F0F3FB00BFC2
:1050800004030020F0020020EB0200209CA300009B
:1050900000A300003CA3000008B5034A034B0448EA
:1050A00040F2171103F0DEFB54A400008CA40000B2
:1050B000C0A400000349044B0020FF2208701A70AE
:1050C000704700BF0B0300200A03002008B5294ADF
:1050D000137813BBD2E84F3FDBB2FF2B42D0013332
:1050E000DBB2C2E8413F0029F4D1FEF7BDFC01F07C
:1050F00009FE01210846FFF727FE18B11E4B0222C8
:10510000C3F88020BFF34F8FBFF36F8F1B4A137814
:105110000133DBB21370012008BD19484168C1F3A7
:105120000803EBB111F4F87F22D0103BDBB259B287
:1051300000290EDB01F1604101F5614191F8003376
:105140005B095BB20F49097849B29942C2D000208D
:1051500008BD03F00F03043B03441B7E5B09F0E72B
:105160007F23EFE7084B094A09487B2103F07AFBCC
:10517000FFF792FF0B03002000E100E0090300208D
:1051800000ED00E00A0300201CA50000CCA30000F5
:10519000C0A4000008B5144AD2E84F3FDBB2FF2B91
:1051A0001CD00133DBB2C2E8413F0029F4D1FEF745
:1051B0005BFC01F0A7FD01210846FFF7C5FD18B112
:1051C0000A4B0222C3F88020BFF34F8FBFF36F8FCB
:1051D000074A13780133DBB2137008BD054B064A4A
:1051E00006487B2103F03EFB0B03002000E100E0BA
:1051F000090300201CA50000CCA30000C0A40000EF
:105200002DE9F843524D2B78002B00F09A8003F0E3
:10521000FF04671E4F4EFFB296F80080012C5FFA24
:1052200088F80CD0D5E84F3FDBB29C4223D1C5E8CB
:10523000437F002BF6D1012C23D0BDE8F883DFF8A3
:10524000449199F80030002B73D189F80040FEF7A3
:105250000DFC21462046FFF777FD10B13E4B0222A0
:105260001A6001F05FFD002389F80030D5E84F3F58
:10527000DBB29C42DBD0394B394A3A48AC2103F0CF
:10528000F1FAFEF703FC10B933789845D5D02B78A6
:1052900003BBD5E84F3FDBB2FF2B44D00133DBB279
:1052A000C5E8423F002AF4D1FEF7DEFB01F02AFDFB
:1052B00001210846FFF748FD18B1274B0222C3F829
:1052C0008020BFF34F8FBFF36F8F33780133DBB292
:1052D0003370A1E724494A68C2F308030BB312F400
:1052E000F87F2CD0103BDBB25AB2002A12DB02F15D
:1052F000604303F5614393F800335B095BB21B4ADB
:10530000127852B29A42C4D0194B154A1548B921A5
:1053100003F0A8FA03F00F03043B0B441B7E5B0968
:10532000ECE77F23EBE7134B134A0E487B2103F096
:1053300099FA124B0A4A0B489E2103F093FAFFF7A1
:10534000ABFE0F4B064A0748952103F08BFA00BFCE
:105350000B0300200903002000E100E048A5000045
:10536000E4A30000C0A4000000ED00E00A03002058
:1053700050A100001CA50000CCA3000034A5000033
:105380002CA500000803002008B51B490B78FF2B53
:1053900029D11A4B1B7803B319484268C2F308039A
:1053A000C3B112F4F87F24D0103BDBB25AB2002A0A
:1053B00009DB02F1604202F5614292F800335B09B9
:1053C0005BB20B7008BD03F00F03043B03441B7E6C
:1053D0005B09F5E77F230B7008BD0A4B0A4A0B48AF
:1053E000F82103F03FFA0A4B074A0848F72103F077
:1053F00039FAFFF751FE00BF0A0300200B0300201B
:1054000000ED00E0B8A50000FCA30000C0A400006F
:105410005CA5000008B50C4B1A78120605D40B4A9F
:1054200012784AB1FF221A7008BD094B094A0A488E
:105430004FF4807103F016FA084B064A064840F212
:10544000011103F00FFA00BF0A0300200B03002034
:10545000E0A5000028A40000C0A40000B8A500003A
:10546000002863D02DE9F047314CD4E94653002998
:1054700018BF1D4604F16E0606BF4FF00B0E264600
:105480004FF0110E002D92462F4630DB6B109D42DF
:105490002DD9E1B1D0F80080002103FB0EFC06EB12
:1054A0000C0956F80CC0C44529D831D3D9F804C02A
:1054B0004268944523D82BD303EB0311631876314C
:1054C00093F87E308AF800306018BDE8F087B0F8B5
:1054D00000C003FB0EF0305A84450ED31AD9591C74
:1054E0007B1A8F4201EB630301DB9D42F1D800235D
:1054F0008AF800301846BDE8F0875F1EF0E75F1EAF
:105500007B1AB94201EB6303F1DC9D42C5D8EEE79B
:10551000591CF5E703EB830003EB4003E11802336A
:10552000897A8AF80010E018BDE8F087704700BF5C
:105530000C030020826842B110B50446436901683B
:10554000006998470023A36010BD70470EB400B5F2
:1055500082B0039921B104AB01AA0193FEF726FBA7
:1055600002B05DF804EB03B0704700BF807800F034
:10557000C000A0F1C000B0FA80F04009704700BF41
:10558000807800F0C000A0F18000B0FA80F04009FF
:10559000704700BF807800F00100704770B48278D7
:1055A00002F030011F2920D902F00103002B15BFA2
:1055B000052606260324042402F00C05134B5B5D2C
:1055C000FF2B0FD0407841B1102906D00C2D4FEAA7
:1055D000A01002F0C0020BD07AB1002D18BF3446E3
:1055E0002344DBB2184670BC704706260424E3E768
:1055F000C02A09D042B13446F2E72DB900F00100CB
:10560000002818BF3446EBE7C043F7E710A60000B8
:10561000F0B48478437804F030051F2D04F00C07B3
:1056200004F0C00C4FEAA3123ED914F0010F14BFCE
:10563000032304230C2F72D0BCF1000F7DD03E1C3D
:1056400018BF0126D24302F00102002E3FD0C41839
:105650009D1C0C60EBB2857815F00C053DD0C5188B
:105660004D6085784F4F05F00C057D5D0D752B4421
:10567000FF2DDBB26AD0002A33D0C2188A6082784C
:10568000023312F0C002DBB233D0C218CA60827893
:1056900002F0C002802A63D0C02A66D052B3FF2332
:1056A00000204B75F0BC70470DB1102D77D13E1C1A
:1056B00018BF01266DB3102D2BD00C2F4FF0040313
:1056C00047D0BCF1000FBDD10022002EBFD134461F
:1056D0000C60857815F00C05C1D14D600D75002A60
:1056E000CBD1002E08BF34468C60827812F0C00205
:1056F000CBD1CA604A758B754278C2F3C00222B121
:1057000018440861F0BC0120704701200A61F0BC18
:1057100070470423BCF1000F94D10022D5E7BCF1FF
:10572000C00F33D0BCF1000F24D065B3102D2AD0A8
:105730000126BCF1000FC7D084E702F00106002F5C
:10574000C2D0D44304F0010662467EE70020F0BCDC
:105750007047BCF1C00FB7D0BCF1000FB4D071E7F7
:1057600002330222DBB24A75C5E708330822DBB2F6
:105770004A75C0E7D24302F00106002DA4D0102DD7
:10578000A2D1624661E7D24301265CE7D24302F030
:105790000106002D3FF457AF102D95D153E7042398
:1057A00048E700BF10A6000072B6024A1368013332
:1057B000136070472C040020034A1368013B1360F8
:1057C00003B962B6704700BF2C04002005480649A3
:1057D000064A10B40023012404700B7013705DF8A6
:1057E000044B70479804002030040020310400204E
:1057F0003B4B1A78002A36D02DE9F041837803F02C
:105800000C0108292CD00C2927D100F10E04417875
:1058100003F0C003490658BF0234802B36D0C02B9A
:105820001BD1304B1E784FFA86FCBCF1000F2BDBEE
:105830004FEA6C01B142CBB226DAD4F800802A4D8F
:10584000002055F831E0C64505EBC10144D80DD321
:1058500049686768B9423FD808D31046BDE8F0816F
:1058600000F10804D3E7012210467047013358B213
:10587000ACEB000303EBD37300EB6303DBB28445B3
:1058800059B201DBB142DCDB0022E6E7174B1D78A1
:1058900068B20028F8DB4110A942CBB2F4DA144E0A
:1058A000278836F811108F424FF0000411D3D4D955
:1058B00001335CB2031B03EBD37304EB6303DBB272
:1058C000A04259B2E0DBA942DEDA36F811108F426D
:1058D000EDD2013B58B2EDE7013B4FFA83FCC7E73D
:1058E00098040020300400203404002031040020FB
:1058F00084040020704700BF00B583B0044B0093C0
:10590000044A4023FEF754FF03B05DF804FB00BFD8
:10591000195900009C04002038B50E480E4D03783C
:105920000E4CEB5C0025D2B2257053B10430FEF76B
:1059300047FE58B90A4B1B7813B12378002BFCD0D3
:1059400038BD0C3002F0C6F90028F3D0FAF72AFE71
:10595000F0E700BF1C0000205C0B0020DC040020EE
:105960009904002030B51448144A0378D35C89B0F8
:10597000BBB10430FEF7A4FD114D0FCD6C460FC432
:1059800095E80F00062584E80F00002269460A48C2
:105990000095FBF78FF840B90A4B00221A7009B046
:1059A00030BD0C3002F018F9E6E7FAF7FBFD054BC5
:1059B00000221A7009B030BD1C0000205C0B0020D2
:1059C00020A6000099040020704700BF0020704707
:1059D00030B50B784478032B8DB004F007041FD149
:1059E0000378053B7A2B05464BD8837803F03002C9
:1059F000072C12D8DFE804F004040404116606063C
:105A0000302A0AD00120A04010F02F0006D0102A22
:105A10005AD0202A72D0002A56D001200DB030BDB5
:105A200006A9FFF7F5FD0028F7D0069DDDB1FDF7CB
:105A300061FF02220146284602F07CFF98B1484BE4
:105A4000284602221D88ADF8105004A902F072FF0A
:105A500048B114BBFDF74EFF022203A9ADF80C506C
:105A600002F068FFC8B99DF82C50022D1DD0082DFA
:105A70000AD0ADB13B4B3C4A3C484FF4D97102F0DF
:105A8000F1FE09200DB030BD079CFDF737FF2A4617
:105A90000146204602F04EFF88B103200DB030BD14
:105AA000FDF70CFF58B954B1F7E7079CFDF72AFF43
:105AB0002A460146204602F03DFF00283FD1002043
:105AC0000DB030BD002AA8D103F00C03082B43D041
:105AD0000C2B40D0002BA0D10191FDF7EFFE0199D6
