:020000022000DC
:10600000A82B0120B5620200DD620200DF620200FF
:10601000E1620200E3620200E562020000000000AB
:10602000000000000000000000000000E762020025
:10603000E962020000000000EB620200ED62020073
:10604000B5D30200EF62020019D40200EF62020031
:10605000EF620200EF62020041980200EF6202006C
:10606000EF620200EF620200EF620200EF620200E4
:10607000EF620200EF620200EF620200EF620200D4
:10608000EF620200E5140300EF620200EF6202001B
:1060900085150300EF620200A5AF020099780300A6
:1060A000EF620200EF620200EF620200EF620200A4
:1060B000EF620200EF62020000000000000000003A
:1060C000EF620200EF620200EF620200EF62020084
:1060D0002DA60200EF620200EF620200EF620200F2
:1060E000EF620200EF620200F1E90300000000002D
:1060F00000000000EF62020000000000EF620200FA
:10610000000000000000000000000000000000008F
:10611000000000000000000000000000000000007F
:10612000000000000000000000000000000000006F
:10613000000000000000000000000000000000005F
:10614000000000000000000000000000000000004F
:10615000000000000000000000000000000000003F
:10616000000000000000000000000000000000002F
:10617000000000000000000000000000000000001F
:10618000000000000000000000000000000000000F
:1061900000000000000000000000000000000000FF
:1061A00000000000000000000000000000000000EF
:1061B00000000000000000000000000000000000DF
:1061C00000000000000000000000000000000000CF
:1061D00000000000000000000000000000000000BF
:1061E00000000000000000000000000000000000AF
:1061F000000000000000000000000000000000009F
:1062000010B5054C237833B9044B13B10448AFF3F0
:1062100000800123237010BDF0AF002000000000BB
:106220008CAD040008B5034B1BB103490348AFF321
:10623000008008BD00000000F4AF00208CAD040019
:10624000154B002B08BF134B9D46A3F5803A002148
:106250008B460F461348144A121A1CF075FB0F4B5D
:10626000002B00D098470E4B002B00D09847002001
:10627000002104000D000D48002802D00C48AFF3A7
:1062800000801CF0FFFA2000290015F053FD1CF0DF
:10629000D3FA00BF00000800A82B01200000000076
:1062A00000000000F0AF0020F8080120000000000E
:1062B000000000000649074A074B9B1A03DD043B18
:1062C000C858D050FBDC04F06FFCFFF7B9FF0000AA
:1062D00048AF0400A8AB0020F0AF0020FEE7FEE7C7
:1062E000FEE7FEE7FEE7FEE7FEE7FEE7FEE7FEE786
:1062F00008B500F04BF80421034810F097F9034B60
:1063000001225A7108BD00BF30AF0400A8AB0020C5
:10631000704700BF00B583B0044B0093044A40238C
:1063200001F006FD03B05DF804FB00BF3563020019
:1063300010B0002002B32DE9F843114B114E8846EE
:10634000144643F0010903270025224608EB050106
:10635000002014F059F903461D444FF47A40E41A22
:1063600023B9337833B1C847013F06D001233370D6
:10637000002CEAD1BDE8F88370473770BDE8F88398
:10638000003E04000CB00020704700BF14F0FAB9C2
:1063900009F01AB910B5204C82B001A80DF004FC28
:1063A000D4F86C269DF8043022F00702C4F86C265D
:1063B000D4F86C261343C4F86C369DF8050002F03F
:1063C00077FED4F86C3623F47F43C4F86C36D4F8E7
:1063D0006C3643EA0020C4F86C06D4F86C269DF8AD
:1063E000061022F47F02C4F86C26D4F86C3643EA17
:1063F0000143C4F86C36D4F86C269DF8071022F0DF
:106400007F42C4F86C26D4F86C3643EA0163C4F8C2
:106410006C3602B010BD00BF0010004008B5034A42
:10642000034B044840F2D7111CF0E8F9143E040075
:10643000883E0400A83E04002B4B1B7803B970472C
:1064400070B5044684B0AE200DF0EEFF00283AD0BF
:106450002648274D2749284A4FF42053C0F80032D8
:1064600000232B602D680195019D0B600968029146
:106470004FF4C021029DC0F804131360116803910A
:106480001E4B1F491F4D039EC3F84825C3F84C55AA
:10649000C3F82C19A1F5FF4105F586754839C3F8F5
:1064A0004055C3F84415D3F8001841F08001C3F8F3
:1064B000001880254021C3F80455C3F8041524B9F9
:1064C000114B01221A6004B070BDD0F8503513F0A2
:1064D000FF0FF8D100BF00BF00BF00BF00BF00BF6B
:1064E0001368002BECD0EEE759B0002000100040FC
:1064F00048110040441100403C71014000F001404F
:1065000004F001400410004010100040324B1B7892
:1065100003B9704770B5314E82B0044635680DF04E
:106520009FFFB0F5C07F45D3C009EB09821E9A4298
:1065300098BFA5EBC2152A492A4A94BFC31E00255D
:10654000356000204FF40045C3F31403C2F86436ED
:10655000C2F8005208600B68009301F5B031009B4F
:10656000C2F804530860086801901F4B1F48204D73
:10657000019EC3F84815C3F84C55C3F82C09A0F583
:10658000FF4005F586754838C3F84055C3F8440503
:10659000D3F8000840F08000C3F8000880254020B0
:1065A000C3F80455C3F804053CB9124B01221A6024
:1065B00002B070BD356002B070BDD2F8503513F036
:1065C000FF0FF5D100BF00BF00BF00BF00BF00BF7D
:1065D0000B68002BE9D0EBE759B0002054B0002045
:1065E0003C1100400010004000F0014004F0014068
:1065F00004100040101000402DE9F041594A5A4E55
:10660000137823F00703137084B007460DF0C6FA21
:10661000564AC0B2C2F80C053368002B00F09E80C9
:1066200093F88010002978D0C2F80435504A4FF012
:1066300001084E4D4F4BC5F8002200211822C5F825
:10664000602519601A680092009A43F80C1C0C3BF4
:1066500049481B680193019B016003680293474A04
:10666000029C474C4FF45053C5F80433D2F800C293
:10667000444B4CF4A06CC2F800C24FF0010CC2F8BD
:1066800040C54FF0820CC2F844C54FF0830CC2F8ED
:1066900048C52160216803910CF1804C0CF6817C87
:1066A0003949DDF80CE0C3F84845C3F84CC5C3F8D8
:1066B0002C19C3F85045C3F85425D3F80028DFF847
:1066C000D4E0A1F5EF31F43942F08002C3F800289C
:1066D0004FF0800CC3F8401540224FF48071C3F88E
:1066E00044E5C3F804C5C3F80415C3F8042513F042
:1066F0004BFEAFB1D5F8503513F0FF0F07D100BFF7
:1067000000BF00BF00BF00BF00BF236843B1B8F1A6
:10671000000F0BD004B0BDE8F0818846522288E714
:106720001A4B01221A60B8F1000FF3D10DF09AF95B
:1067300030600028EED090F88030002BEAD00B4B70
:106740000B4AC3F80405C3F80022D3F85035DBB276
:10675000022BDFD10E4B01221A60DBE79846522252
:1067600067E700BF58B000205CB000200010004078
:1067700052000800341100403011004000900040E9
:106780003C71014000F0014004F001401010004055
:10679000081000403C700140F0B5664B1B7887B094
:1067A000ABB103F0FF06037844780133A4064FEA47
:1067B000431354BFCE3303F22E4317460D4604460F
:1067C00049B103F1A8000DF02FFE002876D1002674
:1067D000304607B0F0BD18460DF026FE0028F6D072
:1067E0000DF0DCF9544BC0B2C3F80C05C3F80445F6
:1067F00002F014FC514B002808BF18464E4B18BF3E
:106800004FF4A010C3F8000202F008FC00286CD17D
:106810004B4B4C4C18601B680493049B0A21002DC1
:106820006DD04948494A4A49434D002303600068F6
:10683000039003981360126808780192454ADDF8C6
:1068400004C063F3C3000870C5F804431360136801
:106850000293A2F5B032029BA2F59C723E4B3D49D9
:10686000C3F848153D48C3F84C253D4C3D4AC3F894
:106870002C49C3F84005C3F84425D3F8002842F05A
:106880008002C3F8002880204022C3F80405C3F822
:106890000425002F47D0284BD3F8503513F0FF0FB5
:1068A00008D100BF00BF00BF00BF00BF00BF0B6822
:1068B000002B38D03E46304607B0F0BD0DF06EF9E3
:1068C0001D4BC0B2C3F80C05C3F8044502F0A6FB8B
:1068D000254B264A002814BF18461046164BC3F80D
:1068E000000202F09BFB002892D0214B2149224C50
:1068F00000221A601B680593059B002D91D1134B54
:1069000013481D601B68047801930B4A114BDDF896
:1069100004C065F3C3040470C2F804131D601B684F
:106920000293029B9AE7154B012230461A6007B08A
:10693000F0BD00BF59B0002000100040020004006C
:106940000C1100400A0004004811004004110040EE
:1069500058B000203C71014000F00140101100408F
:1069600004F001403C70014000381400023804007B
:106970006C110040020000080200040810100040E2
:10698000F0B5B24B1B7885B0092B00F2E981DFE846
:1069900013F01E00EF006800A500260026002D0061
:1069A000FA0029010A00AA4BAA4A40208021C3F814
:1069B0000805C3F80815137803F0FF04002B00F056
:1069C0004081A54B01221A60204605B0F0BD022986
:1069D00000F0378104200DF09DF80124F4E7002831
:1069E00040F04A810446204605B0F0BD0028F9D0A9
:1069F000974B984C80204FF480714025C3F8085580
:106A0000C3F80805C3F80815D3F80018002021F0D2
:106A10008001C3F80018C3F82C0923787BB18F4B91
:106A20008F498D4C0A25C3F808530125C3F800028D
:106A30002560C3F8440608600B680393039B002A93
:106A400000F0FF80874B1D68062128460BF0D8F820
:106A50000446002800F0F580284606210CF020FCB2
:106A6000B2E7814B1B78C3F38003002B00F0488111
:106A70000028B7D0764B7D4E7D48764D4021C3F837
:106A800008158021C3F808154FF48071C3F8081564
:106A9000D3F8001821F08001C3F800180024012168
:106AA000C3F82C493160D0F8003223F4A063C0F859
:106AB00000322B7853B1A0F5FF40684B70384FF48B
:106AC0005055C3F80853C3F800420160002A00F093
:106AD000B880062014460CF0E1FB75E7002881D051
:106AE0005B4B624F62485B4E4021C3F80815802122
:106AF000C3F808154FF48071C3F80815D3F80018CF
:106B0000002521F080010124C3F80018C3F82C5996
:106B10003C60D0F8003223F4A063C0F80032337830
:106B2000002B40F0DD80002A00F08B8051494B4B58
:106B30000D680192002185F88010D3F8480500F017
:106B40007F0002F06DFA2B78019A2B44064613F869
:106B5000010C144602F088FA02B29200FF2A28BF04
:106B6000FF22714252B2284649B20CF095FB2BE746
:106B7000384B1B7803F0FF04002B62D0374B1022F8
:106B8000C3F8082320E700283FF42CAF304B314CEA
:106B900080204FF480714025C3F80855C3F80805DC
:106BA000C3F80815D3F80018002021F08001C3F8BD
:106BB0000018C3F82C09237873B12849264C05F135
:106BC00080454FF4004305F6E875C1F8083301230A
:106BD000C1F800022B6023609AB3012014460CF028
:106BE00061FBF1E600283FF4FDAE194B194C802003
:106BF0004FF480714025C3F80855C3F80805C3F861
:106C00000815D3F80018002021F08001C3F80018FF
:106C1000C3F82C09237873B110490F4C05F1804556
:106C20004FF4C02305F57F65C1F808330123C1F88F
:106C300000022B60236022B1012014460CF034FBCB
:106C4000C2E60124204605B0F0BD00BF5AB00020C6
:106C500000F0014059B0002010100040001000402A
:106C60005C11004060B0002058B00020109000403F
:106C7000009000405CB000203D4B3E484021C3F8EE
:106C800008154FF400744FF480718025C3F808553F
:106C9000C3F80845C3F80815D3F80018002421F0FC
:106CA0008001C3F80018C3F82C490378002B3FF487
:106CB000C6AE019202F0B2F92F4E304B304905F1C9
:106CC0008045A04208BF334605F57B652D48C1F8D5
:106CD00008330123C1F800422B600360019AAEE63D
:106CE000019202F09BF92649274BA842254808BF8C
:106CF0000A23C1F80833C1F800520460019A12E770
:106D00001B4A224D22481B4C4021C2F80815802105
:106D1000C2F808154FF48071C2F80815D2F80018AF
:106D200021F08001C2F800180121C2F82C39296035
:106D3000D0F8002222F4A062C0F80022227802F0EB
:106D4000FF04002A3FF47DAFA0F5FF400C4A7038E5
:106D50004FF45055C2F80853C2F80032016033E6D0
:106D60000C4B0D4A0D4840F21D511BF047FD00BF72
:106D700000F0014059B000200A000400020004089D
:106D80000010004010100040020000081090004069
:106D900000900040F83E0400203E0400A83E04009D
:106DA000F0B583B0164605460F460AF013FF0446B9
:106DB000002848D09E4B1B78092B00F2D981DFE8D0
:106DC00013F057005D006900A500AC00AC000A009C
:106DD000DD000A014500002D00F09B80954B964890
:106DE0004022C3F8082580214FF48072C3F80815AB
:106DF000C3F80825D3F80028002122F08002C3F848
:106E00000028C3F82C1903787BB18C4B8C4A8D4831
:106E10000A25C3F808530125C3F800120560C3F81A
:106E20004416116013680193019B66B1864B1D687F
:106E3000062128460AF0E4FE034620B12846062132
:106E40001C460CF02DFA204603B0F0BD794B7A4A6F
:106E500040208021C3F80805C3F80815137803F013
:106E6000FF02002BEFD0774B012114461960EAE7AF
:106E7000022FE8D004200CF04DFEE4E76E4B1B78A7
:106E800003F0FF02002BDED06C4B10211446C3F838
:106E90000813D8E76D4B1B78C3F38003002B00F079
:106EA0002A81002D35D0634B694F6A49624D4022DB
:106EB000C3F808258022C3F808254FF48072C3F870
:106EC0000825D3F8002822F08002C3F8002800200B
:106ED0000122C3F82C093A60D1F8003223F4A063F0
:106EE000C1F800322B7853B1A1F5FF41534B7039F3
:106EF0004FF45055C3F80853C3F800020A60002E3F
:106F0000A1D0062034460CF0C9F99CE7002D40F0D2
:106F1000AB802C46204603B0F0BD002DF9D0454B88
:106F2000454940208022C3F80805C3F808254FF4DE
:106F300000704FF48072C3F80805C3F80825D3F831
:106F40000028002522F08002C3F80028C3F82C593D
:106F50000B78002B3FF469AF02F060F83E493F4BDD
:106F6000364A3F4FA84208BF0B463649C2F808339D
:106F70000123C2F800523B600B6056E7002DC8D0D9
:106F80002C4B2D484022C3F8082580214FF48072F5
:106F9000C3F80815C3F80825D3F80028002122F00B
:106FA0008002C3F80028C3F82C1903785BB1234B87
:106FB0002C48244A4FF40045C3F80853C3F8001284
:106FC000012303601360002E3FF43DAF01203446DF
:106FD0000CF068F937E7002D9BD0164B164840227D
:106FE000C3F8082580214FF48072C3F80815C3F850
:106FF0000825D3F80028002122F08002C3F80028D9
:10700000C3F82C1903785BB10C4B15480D4A4FF4AB
:10701000C025C3F80853C3F80012012303601360AE
:10702000002E3FF410AF012034460CF03DF90AE782
:107030005AB0002000F0014059B00020001000407C
:107040005C1100401010004060B0002058B00020DB
:1070500010900040009000400A0004000200040864
:107060003010004028100040454BDFF828C145494A
:1070700045484022C3F808258022C3F808254FF46C
:107080008072C3F80825D3F80028002722F0800278
:107090000125C3F80028C3F82C79CCF80050D1F8AA
:1070A000003223F4A063C1F800320378002B51D1E1
:1070B000002E3FF4C8AE354A354B1568002285F8DE
:1070C0008020D3F8480500F07F0001F0A9FF2B785D
:1070D0002B44074613F8010C01F0C6FF02B29200E0
:1070E000FF2A28BFFF22794252B2284649B23446CD
:1070F0000CF0D2F8A7E6224A264D22484021C2F8D9
:1071000008158021C2F808154FF48071C2F80815DF
:10711000D2F8001821F08001C2F800180121C2F84D
:107120002C392960D0F80022174D22F4A062C0F853
:1071300000222A7802F0FF00002A3FF484AE144AAD
:10714000154D4FF45056C2F808630446C2F8003299
:10715000296078E601F062FF0D4A0F490F4BB842F3
:1071600008BF0A23C2F80833C2F800720D609FE717
:107170000B4B0C4A0C4840F21D511BF03FFB00BF6B
:1071800000F001400090004059B000205CB00020A9
:107190000010004010900040101000400200000855
:1071A000F83E0400203E0400A83E0400F0B583B081
:1071B00050B10DF055F93B2804D9CE4D2B7803F092
:1071C000FF065BB103B0F0BDCA4D2B78002B40F039
:1071D000A38003B0BDE8F0400DF024B9C64CC74A07
:1071E000C4F8FC6F01270F23C4F8FC7FC4F81035E6
:1071F000D4F8143523F00F03C4F81435D4F814353B
:1072000043F00803C4F81435D4F8143523F0407360
:10721000C4F81435D4F8143543F00073C4F81435A9
:10722000D4F8143523F08063C4F81435D4F8143539
:1072300043F08063C4F81435D4F8183523F0FF0305
:10724000C4F81835D4F8183543F07F03C4F818355E
:10725000D4F8503623F00103C4F85036D4F8503631
:107260003B43C4F85036D4F8343523F00303C4F854
:107270003435D4F8343543F00203C4F83435D4F847
:10728000343523F44073C4F83435D4F8343543F43A
:107290000073C4F83435C4F83825FFF77BF8984BF1
:1072A000C4F84466C4F848360CF072FCA0F10B0335
:1072B000DBB20F2B00F21C81924B0A3800EB8000EE
:1072C0000222C4F8080583F80163C3F88021D4F8CA
:1072D0000032002B40F005818B4C2378002B40F0CE
:1072E000F0802378092B00F2F58001A252F823F0F8
:1072F000C5710200D5740200AF740200D57402009B
:10730000A574020093740200D57402008774020011
:107310007B7402003B7402007A4B0226C3F8806043
:107320000446C3F8806183F80103BFF34F8FBFF3B6
:107330006F8F714B0127C3F8FC0FC3F8FC7F2870D7
:1073400013F01AF8314638460AF044FC30B96F4B56
:107350006F4A704840F2CE611BF050FA2246314627
:107360003846FFF70DFB0028F1D0674C2378092B36
:1073700000F2E88001A252F823F000BFD3710200AE
:10738000297402000F740200C5730200A573020085
:10739000A5730200A5730200D3710200D37102002D
:1073A000D37102000223237013F06EFD5A4B1C6848
:1073B000042120460AF024FC002840F0868013F0C7
:1073C000A9FD06E7554B1D68002385F88030022390
:1073D000237013F059FD484BD3F8480500F07F00A7
:1073E00001F01EFE2B782B44044613F8010C01F02B
:1073F0003BFE02B29200FF2A28BFFF22614252B236
:10740000284649B20BF048FF13F084FDE1E6444BF7
:107410001B785B077FF5DDAE13F036FD05200BF022
:107420003DFF13F077FDD4E60026267012F0A4FF8E
:1074300030460CF06FFB2E70CBE62B78002B3FF420
:10744000C1AE384A384B2C483849394E394D0024A2
:10745000146014680194019CC3F848258024C3F883
:107460004C0501224020C3F84065C3F84455C3F8D9
:107470000445C3F804050A60A4E6002003B0BDE893
:10748000F040FEF7D9BF002003B0BDE8F040FFF7A1
:107490003DB8214B00221868114603B0BDE8F0400A
:1074A000FFF77AB91C4B002218680121F5E72B7809
:1074B000002B3FF487AE002003B0BDE8F040FFF79B
:1074C0009BB82F7012F04AFF0BE7204604210BF007
:1074D000E7FE74E7184B194A0E4840F2B7611BF0FB
:1074E0008DF9174B154A0B4840F28F611BF086F956
:1074F000FEF794FF59B00020001000402110010059
:10750000000700FF00E100E05AB00020743F0400D3
:10751000503E0400A83E040060B000205CB0002093
:1075200058B000203C71014000F0014010100040B4
:10753000101100403C700140F83E04003C3E040045
:107540004C3F0400034B044A044840F2F9611BF02D
:1075500055F900BFF83E0400503E0400A83E040068
:107560002DE9F04182B0064613F066FB0446A0B157
:10757000294D2B787BB12B78012B0CD0274F3B78F2
:1075800003F0FF086BB9012230461146FFF708FCF3
:107590000646D0B9044613F0B3FB204602B0BDE85E
:1075A000F0810CF05DFF3B28EDD81D4B0026012239
:1075B000C3F8FC6FC3F8FC2F2E7012F0DDFE3046CE
:1075C0000CF0A8FA44463E70E5E701232B703B78A7
:1075D00003F0FF08A3B1134A114B00211160126898
:1075E000019210220199C3F80423D3F8501511F029
:1075F000FF0FD0D1397809B1C3F808230026DBE7A3
:1076000085F8008012F0B8FE40460CF083FA34464C
:1076100087F80080BFE700BF5AB0002059B00020B3
:1076200000100040101100402DE9F0470746884641
:107630001446994613F000FB054600B3184E337804
:10764000022B14D03378032B11D0DFF858A09AF80E
:107650000030D3B94A4641463846FFF7A1FBC0B1D6
:10766000022333709AF8003003F0FF069BB90CB187
:107670002846A04713F044FB2846BDE8F087002CBD
:10768000FAD0A0472846BDE8F0870CF0E9FE3B2879
:10769000E0D80025EBE70120FEF7AEFF3546E6E730
:1076A0005AB0002059B000202DE9F843099C9DF8FC
:1076B000209005460E4690461F4613F0BDFA80B353
:1076C0001C4B1B783BBB314628460AF083FA78B343
:1076D000284631460122FFF753F9054640B3164EBE
:1076E000164B02223270404601223946C3F8008010
:1076F000FFF752F8B9F1000F00D0C8B1002F14BF46
:107700000423052333700CB12846A04713F0F8FA80
:107710002846BDE8F8830CF0A3FE3B28D3D813F02D
:10772000EFFA0CB10020A04700252846BDE8F883F9
:107730000025E8E759B000205AB0002060B00020D2
:1077400070B505460E4613F077FA0446D8B1164BCD
:107750001B78FBB9012128460AF03CFAA8B10122A6
:1077600028461146FFF70CF9044670B10F4A10493C
:10777000104B16600725002201200D701A70FEF7CD
:10778000C5FE13F0BDFA204670BD002413F0B8FA10
:10779000204670BD0CF064FE3B28DBD8002413F0BB
:1077A000AFFA204670BD00BF59B0002054B0002091
:1077B0005AB0002050B0002038B5054613F03CFA0E
:1077C0000446B0B1134B1B78D3B9012128460AF007
:1077D00001FA80B1012228461146FFF7D1F804468C
:1077E00048B10D4B082201201A70FEF725FE13F058
:1077F00087FA204638BD002413F082FA204638BDAF
:107800000CF02EFE3B28E0D8002413F079FA204635
:1078100038BD00BF59B000205AB00020F0B585B087
:10782000044613F009FA002840D02B4D2B78002B8A
:107830003ED1012120460AF0CDF9002841D0012295
:1078400020461146FFF79CF800283AD0234B092226
:107850001A702B7803F0FF0623B3214A214B2249EB
:10786000224D0024146014680394214C039FC3F834
:107870004825C3F84C15C3F84055C3F84445802546
:107880004024C3F80455C3F80445D1F8503513F02B
:10789000FF0F07D100BF00BF00BF00BF00BF00BF88
:1078A0001368A3B1019013F02BFA019805B0F0BD55
:1078B0000CF0D6FD3B28BCD813F022FA002005B00E
:1078C000F0BD0020019013F01BFA0198EEE7094B80
:1078D000012230461A60E5E759B000205AB0002076
:1078E0003C71014000F001400010004010110040C8
:1078F0003C7001401010004038B5044613F09CF96C
:10790000C0B12A4D2B787BB92B78012284F88020D6
:1079100033B1274B1B78DBB2022B24D0062B0ED0C1
:1079200013F0EEF9012038BD0CF09AFD3B28EBD89E
:1079300013F0E6F9012384F88030012038BD1D4999
:10794000D1F85035DBB2022BEAD1D1F80032122B3C
:1079500024D1194D194B1A482C60C1F80445C1F8BF
:1079600000021A60DCE71349D1F85035DBB2022B74
:10797000D6D1D1F80032522B09D10F4D0F4B1148FF
:107980002C60C1F80445C1F800021A60C8E70E4B2C
:107990000E4A0F4840F69F311AF030FF0D4B0B4A4C
:1079A0000B4840F6AE311AF029FF00BF59B0002055
:1079B0005AB00020001000405CB0002008100040C9
:1079C0001200080052000800003F0400643E04005A
:1079D000A83E0400243F040038B513F02DF90446F6
:1079E000A0B12E4D2B7853B92D4B1B78023B072BA2
:1079F0001DD8DFE803F0200D0D0D0D1C0D3D0CF022
:107A00002FFD3B28F0D813F07BF90024204638BD29
:107A10002B7863B10CF0BCF8A0F10B03DBB20F2B99
:107A20003AD80A381F4B00EB8000C3F8080513F062
:107A300067F9204638BD2B7863B10CF0A9F8A0F1A6
:107A40000B03DBB20F2B27D80A38164B00EB800054
:107A5000C3F80805012211460020FFF7A1F900280C
:107A6000E5D02B78002BE2D00120FEF7C5FDDEE744
:107A70002B78002BDBD00CF08BF8A0F10B03DBB2E2
:107A80000F2B09D80A380749074B00EB8000012269
:107A9000C1F808051A60CAE7FEF7C0FC59B000201B
:107AA0005AB00020001000401010004038B513F00C
:107AB000C3F8044630B10A4D2B782BB92B7863B943
:107AC00013F01EF9204638BD0CF0CAFC3B28F5D84F
:107AD000002413F015F9204638BDFEF75BFCEFE7F4
:107AE00059B000204ADF70472DE9F8431F4B1B783F
:107AF00073B31F4B1A7892BB01251E4C1D7023785F
:107B000003F0FF070BB1BDE8F883DFF884801A4E5D
:107B1000DFF88090194BD8F80020A9F800203046F3
:107B2000102239461F801AF00FFFB9F80030D8F83C
:107B30000420B360304640F20113F26037702570C4
:107B4000B380FFF7CFFF0028DDD02770BDE8F883B2
:107B50000B4B0C4A0C4840F2FD211AF04FFE0B4B28
:107B6000084A094840F2FE211AF048FE79B0002088
:107B700078B0002092B000207CB000208EB00020B1
:107B8000E83F04007C3F04006C400400F83F040020
:107B900064B0002090B0002030B51C4B1B7883B03F
:107BA00063B31B4A137813B31A4B1B78DBB2022B57
:107BB00003D00023137003B030BD17494FF4807019
:107BC000C1F88000BFF34F8FBFF36F8F1348144C81
:107BD000012505600020206024680194019C10703C
:107BE000BFF35F8FC1F800310B6003B030BD0D4BA8
:107BF0000D4A0E484FF444711AF000FE0C4B0A4A2D
:107C00000A4840F20F311AF0F9FD00BF79B00020A8
:107C100078B0002092B0002000E100E00480004035
:107C200040810040D83F04009C3F04006C400400A9
:107C3000E83F0400704700BF38B51F4B1A7802F0C8
:107C4000FF037AB11D4B1A78022A0DD11B78022B43
:107C50000DD000231A4A1278012A25D1834294BFFD
:107C600000230123184638BD0023184638BD154BA4
:107C70001549D3F84425D3F80435C989013AD21AF5
:107C800022F07F4243F6095340F2FF140025E3FB44
:107C90000245630A43EAC5538A1C9A42D9D29B1A09
:107CA000B3F5965FDAD2D5E7084B094A09484FF495
:107CB0004E711AF0A3FD00BF78B0002092B00020F2
:107CC0008CB0002000B0004064B0002010400400E0
:107CD000BC3F04006C400400124B1B78022B01D007
:107CE0000020704730B4104A1049D2F84435D2F819
:107CF0000425C989013B9B1A23F07F4343F60952AF
:107D000040F2FF140025E2FB0345600A40EAC5503B
:107D10008B1C834202D3002030BC7047C01A30BC99
:107D2000704700BF92B0002000B0004064B0002057
:107D3000F0B595B0002415460F4608461E4604F0DF
:107D4000E5FE384623460895082205A91A9D09969E
:107D50000D950A948DF82C400C9404F03BFF9DF88F
:107D600014308DF81140DDE9061003F00302012AFA
:107D7000CDE9020127D0022A04D0384604F0CAFE19
:107D800015B0F0BDBDF81650C3F3C2038DF8103026
:107D9000AD090826082D2C4628BF08243346224664
:107DA0000EA9384604F016FF2D1B214608AB02AA87
:107DB0000EA8264409F0E8FA002DEBD1384604F06D
:107DC000A9FE15B0F0BDBDF81460059DC6F383167D
:107DD000C3F3C204B2000EA9384608238DF8104040
:107DE000C5F3952504F0F6FE08AB324628460EA9E9
:107DF000009302AB09F052FA384604F08BFE15B03E
:107E0000F0BD00BF9BDF70479DDF70479EDF70476E
:107E1000F0B590F85A32314C03EB830303EB830344
:107E200025689B009BB0C618EDB12D4CB678A7789D
:107E3000B74240D0012D16D9A779B74241D0022DC3
:107E400011D0A77AB74242D0032D0CD0A77BB742FE
:107E50000BD0042D07D0A77CB74220D0052D02D02F
:107E6000A57DB54221D01BB0F0BDB4F80CC0C75AF7
:107E7000BC45EED11B4B1E68002EF4D015460C46B7
:107E80006822002168461AF05FFD01236846ADF8BC
:107E9000025001948DF80030B0471BB0F0BDB4F82B
:107EA00010C0C75ABC45D9D1E4E7A48AC35A9C4242
:107EB000E0D01BB0F0BD30F803C02788BC45B9D175
:107EC000D8E7B4F804C0C75ABC45B8D1D2E7B4F873
:107ED00008C0C75ABC45B7D1CCE700BF9CB0002052
:107EE0002CB3002094B000202DE9F04F90F85AC236
:107EF0004B4F0CEB8C0303EB83033D689B0083B07B
:107F0000C6181DB3474CB67894F80280B04571D0BE
:107F1000012D1BD994F806E0B64572D0022D15D07C
:107F200094F80AE0B64573D0032D0FD094F80EE014
:107F3000B6450ED0042D09D094F812E0B6454BD0CA
:107F4000052D03D094F816E0B6454CD003B0BDE83B
:107F5000F08FB4F80C8030F803E0F045EAD1324BF2
:107F6000D3F800B0BBF1000FF0D0DFF8C490D9F81F
:107F70000060052EEAD82D4C4FF06C0A0AFB06FA79
:107F800004EB0A03964664228846A3F802E002FB4B
:107F90000C01181D01931AF0AFFC0136B8F1000F67
:107FA000019BC9F8006014BF00220222AE42C3F850
:107FB00068B004F80A20C9D10025A36E204698476E
:107FC0003B6801359D4204F16C04F6D30023C9F8E7
:107FD000003003B0BDE8F08FB4F8108030F803E053
:107FE000F045ADD1BBE7A48AC35A9C42B7D003B0D9
:107FF000BDE8F08FB4F8008030F803E0F04587D199
:10800000ADE730F80380B4F804E0F04586D1A6E788
:10801000B4F8088030F803E0F04585D19FE700BF51
:108020009CB000202CB3002094B00020A0B0002011
:1080300028B300202DE9F04390F85A8290F8593285
:1080400008EB880808EB88084FEA880500EB050E66
:1080500003EBC3049EF8047005EB440403F1010C28
:1080600004F10A06BC4583B006443DD0BB4233D27E
:1080700000F11C080444A84407F1FF3C35899C45E5
:1080800005F1010610D0658CAE4217D0013DADF868
:108090000650ADF8046000230B70104601A9FFF7ED
:1080A000B5FE03B0BDE8F083BEF80860AE4219D05B
:1080B0000135ADF80450ADF80660ECE703EBC306FC
:1080C00008EB46065D1C5FFA85F94F452B4680F8A4
:1080D000595204F11204D1D8012300200B7003B0CF
:1080E000BDE8F0830026EDE73389BEF8080083423F
:1080F000F2D00133ADF80430ADF80600CBE700BF95
:1081000068B130B4074C0849084A094D1060002393
:10811000236001240C702B60184630BC70470E237E
:10812000184670479CB0002098B0002094B0002002
:1081300028B300200349044A044B00200860107053
:10814000186070479CB0002098B0002028B3002031
:10815000002857D02D4B1B782BB370B42C4C2D4BD3
:108160002268002A50D081789D788D421DD0012A46
:1081700034D99D798D4222D0022A31D09D7A8D4208
:1081800022D0032A2CD09D7B8D4222D0042A27D0D6
:108190009D7C8D422CD0052A22D09D7D8D422CD0F5
:1081A000042070BC7047082070471E880588AE42C6
:1081B000DDD11949096889B1002070BC70479E88DB
:1081C0000588AE42D8D1F4E71E890588AE42D8D1E1
:1081D000EFE79E890588AE42D8D1EAE7052ADFD8C5
:1081E000511C006843F822002160002070BC7047D9
:1081F0001E8A0588AE42CED1DBE79D8A01888D427A
:10820000CED1D6E70E2070470121EAE798B00020D2
:108210009CB000202CB3002094B00020B0B31C4BC5
:108220001B7843B31B4B1B682BB370B590F85B52A4
:10823000044615BB0E464FF4187229461AF084FB0B
:10824000154A164B10682060A4F85E6284F85D52EF
:1082500084F85A5284F859522246304601211D6052
:10826000FFF7D0FD11280AD020B9012384F85C0261
:1082700084F85B3270BD08207047112070BD012367
:1082800084F85B3284F85C32284670BD0E2070475B
:1082900098B000209CB000202CB3002028B3002010
:1082A00090B389B36E4B1B7873B32DE9F04F0388FD
:1082B000113B9FB004460D46222B00F29580DFE86B
:1082C00013F0D10193009300930093009300930067
:1082D0009300930093009300930093009300930006
:1082E00093009300930093009300930093009300F6
:1082F00093009300930093009300930093009300E6
:1083000024009300D700A30070478688B1F85E323E
:108310009E4240F0B781C388002B40F0208291F844
:108320005A62016906EB860303EB830305EB8302C4
:10833000C2F8061095F859328088002B00F0488268
:10834000013BDBB2642103EBC30301FB06F101EB4C
:1083500043032B445B8A01339BB21289ADF8122090
:1083600004A9ADF81030FFF74FFD064600283BD0BA
:1083700095F85A223B4902EB820202EB820200236B
:10838000086885F85B329200A918A78840B3364B7D
:10839000897893F802C08C4500F0E08301281FD94A
:1083A00093F806C08C4500F0F683022818D093F8A5
:1083B0000AC08C4500F00784032811D093F80EC042
:1083C0008C4500F0108404280AD093F812C08C4524
:1083D00000F01184052803D0987D884200F01384B2
:1083E000224B03225F801A7095F85C324BB12388D0
:1083F000303B1F2B05D8A688B5F85E329E4200F0B0
:1084000089811FB0BDE8F08F8288B1F85E329A4250
:10841000EAD1C18895F85AC295F85962002940F00E
:1084200048814389002B00F04481642000FB0CF05C
:1084300006EBC60300EB430028442246D389A3F58C
:108440002453082B00F26481DFE813F060015C0123
:10845000590162016201620162016201220100BFF1
:1084600098B000209CB000202CB30020A0B00020C9
:108470008688B1F85E329E4240F00481C388002BAA
:1084800040F0C68091F85A92867A09EB890707EB8B
:108490008707BF0001EB070898F804A05644052E93
:1084A00000F38881F6B288F804603346CDF8049072
:1084B0009A45514680F0A682A646CB00642000FB78
:1084C00009F003EB0A0C5EF80C2F98F80460DEF854
:1084D000049000EB4C0CAC440AF10108CCF80A20E3
:1084E000CCF80E90BEF808E0ACF812E00022B045DF
:1084F000ACF81420ACF81620ACF81820ACF81A2010
:1085000078D2A6464FEAC80303EB080C5EF816BF04
:1085100000EB4C0CAC44DEF804A0CCF80EA0CCF878
:108520000AB001F10209BEF808E0ACF812E04E45CD
:10853000ACF81420ACF81620ACF81820ACF81A20CF
:1085400040F25E82A6464FEAC90303EB090C5EF8CF
:1085500020BF00EB4C0CAC44DEF804A0CCF80EA01D
:10856000CCF80AB001F10308BEF808E0ACF812E05C
:108570004645ACF81420ACF81620ACF81820ACF83E
:108580001A2040F2D782A6464FEAC80303EB080C34
:108590005EF82ABF00EB4C0CAC44DEF804A0CCF82B
:1085A0000EA0CCF80AB00431BEF808E0ACF812E036
:1085B0008E42ACF81420ACF81620ACF81820ACF8B9
:1085C0001A2040F21D82A446CB0003EB010E5CF89A
:1085D000349F00EB4E002844DCF80480C0F80E8085
:1085E000C0F80A90BCF808C0A0F812C08282C2820B
:1085F000028342830B440199642205EB430302FB8F
:1086000001F21F44AB18798A1F89B942C0F0E28099
:10861000002785F85972A2880DF10F012846FFF74F
:1086200009FD0646002840F000819DF80F30002B20
:108630003FF4DAAEA28801212846FFF755FC95F8F1
:108640005D32A64AA78812680133DBB2934285F8EF
:108650005D32C0F04882A24B85F85B6203225F80E6
:108660001A70C1E68288B1F85E329A427FF4C9AED0
:1086700000234FF6FF7281F85B3281F85C32A1F87B
:108680005E22BEE695F85C22002A7FF4B7AEB8E61B
:108690009789838A47832BB1C38A1BB1038B0BB1A4
:1086A000438B33B963890131994202F10602FFF429
:1086B000C5AE642303FB0C5301361B7900279E4291
:1086C0008DF80F7064D101238DF80F30A28801213D
:1086D0002846FFF709FC95F85D32804AA6881268A3
:1086E0000133DBB2934285F85D32C0F0CE817C4B22
:1086F000032100225E80197085F85B2274E693895D
:108700008382C8E793890383838AC4E79389C382FA
:10871000838AC0E74FF41872002128461AF014F932
:10872000704B714C186828600023A5F85E6285F8CC
:108730005D32304685F85A3285F859322A46012191
:108740002360FFF75FFB112800F0C78100287FF44A
:1087500058AE012385F85C0285F85B3251E632465B
:1087600000212846FFF7C0FB95F85D325B4AA788D9
:1087700016680133DBB2B34285F85D32C0F0BA80CF
:10878000574B032100225F80197085F85B222BE68E
:1087900085F85962A2880DF10F012846FFF74AFCBF
:1087A0000646002840F032819DF80F30002B3FF440
:1087B0001BAE8BE7DFF838B1BBF802200523012A96
:1087C00088F8043000F201811E46CDF804906FE66F
:1087D000D388C2E5052E3FF41BAF85F85962A08807
:1087E000002E00F0B181731EDBB203EBC30302EB7A
:1087F00043032B445B8A01339BB204A9ADF81030CC
:10880000ADF81270FFF700FB00283FF4EDAD002338
:1088100085F85B320146A2882846FFF7F9FA304B0B
:10882000A2885A8003221A70DEE595F85A222B4B53
:1088300085F85B7202EB820202EB82021868A7885D
:108840009200A91800283FF4CBAD264B897893F805
:1088500002C08C4500F0708101287FF6C1AD93F80D
:1088600006C08C4500F0728102283FF4B9AD93F840
:108870000AC08C4500F0978103283FF4B1AD93F80E
:108880000EC08C4500F0978104283FF4A9AD93F801
:1088900012C08C4500F09F8105283FF4A1AD987D62
:1088A00088427FF49DAD998AAB5A99427FF498AD86
:1088B0000E4BD3F80080B8F1000F3FF491AD682261
:1088C000002104A81AF040F80123ADF8127004A8A2
:1088D00005968DF81030C047A78881E59CB0002030
:1088E000A0B000202CB3002028B3002094B00020BA
:1088F00038AF002095F85A22D64B0132D2B202EBA3
:10890000820101EB8101890005EB010C53F8220083
:1089100085F85A224FF0000885F85982624668505F
:108920008CF8048001213846FFF76CFA8146002854
:108930003FF45AAD95F85A2285F85B8202EB820229
:1089400002EB82029200A91898788978884200F098
:10895000A081012E3FF444AD9879884200F09281C5
:10896000022E3FF43DAD987A884200F0A781032E95
:108970003FF436AD987B884200F09981042E3FF495
:108980002FAD987C884200F08B81052E3FF428ADF6
:10899000987D88427FF424AD998AAB5A99427FF43E
:1089A0001FADAD4B1E68002E3FF41AAD04A868221F
:1089B000002119F0C9FF012304A8ADF81270CDF809
:1089C00014908DF81030B0470AE5A44BA44ECA5B52
:1089D000A449F61AF608360446F0020630460DF0B1
:1089E0006DFCBBF80230012B03D930469E490DF0D7
:1089F00045FD98F8046095F85A320193334657E5DF
:108A00004146F7E50AF1FF31CB00F3E595F85A222C
:108A1000964B85F85B7202EB820202EB82021968C8
:108A2000A7889200A81800293FF4DAAC894B807817
:108A300093F802C0844500F0EC8001297FF6D0ACA9
:108A400093F806C0844500F0EC8002293FF4C8ACDE
:108A500093F80AC0844500F0EC8003293FF4C0ACD1
:108A600093F80EC0844500F0EC8004293FF4B8ACC4
:108A700093F812C0844500F0FD8005293FF4B0ACA6
:108A8000997D81427FF4ACAC0DE795F85A3271487C
:108A90000133DBB203EB830202EB82029200A918DE
:108AA00050F8230085F85A32002385F85932A8502F
:108AB0000A460B7130460121FFF7A4F900283FF464
:108AC00093AC85F85B32014632462846FFF7A0F9A1
:108AD000674B03225E801A7086E4012385F85B32BF
:108AE00085F85C328DE495F85A325A4885F8596217
:108AF0000133DBB203EB830202EB82029200A9187E
:108B000050F8230085F85A32A8500A460E713846AC
:108B10000121FFF777F900283FF466AC01463A4699
:108B200085F85B622846FFF773F9514B03225F809B
:108B30001A7059E449465DE5B3F800E035F802C023
:108B4000E6457FF489AEB3E6DB8856E635F802E009
:108B5000B3F804C0E6457FF487AEA9E635F802E035
:108B6000B3F800C0E6457FF419AC3B4BD3F8008066
:108B7000B8F1000F3FF434AC6822002104A819F0CA
:108B8000E3FE0123ADF81270059604A88DF81030AD
:108B9000C047A78824E435F802E0B3F804C0E645EE
:108BA0007FF403ACE1E7B3F808E035F802C0E6452E
:108BB0007FF462AE7CE6B3F80CE035F802C0E6451F
:108BC0007FF462AE74E635F802E0B3F808C0E6451B
:108BD0007FF4F2ABC9E7B3F810E035F802C0E64520
:108BE0007FF45AAE64E635F802E0B3F80CC0E6450F
:108BF0007FF4E9ABB9E735F802E0B3F810C0E64519
:108C00007FF4E8ABB1E7998AAB5A99427FF4E8ABBD
:108C1000ABE7B3F800E035F802C0E6457FF40DAFEE
:108C200046E6B3F804E035F802C0E6457FF40DAF40
:108C30003EE6B3F808E035F802C0E6457FF40DAF34
:108C400036E6B3F80CE035F802C0E6457FF40DAF28
:108C50002EE600BF2CB3002094B0002058AE0400D4
:108C6000A0AE0400D8400400204104009CB00020C5
:108C7000A0B00020B3F810E035F802C0E6457FF45C
:108C8000FCAE15E635F802C0988884457FF468AEDE
:108C900087E635F802C0188884457FF45AAE80E62E
:108CA00035F802C0188A84457FF46FAE79E635F84E
:108CB00002C0988984457FF461AE72E635F802C03F
:108CC000188984457FF453AE6BE600BF75DF7047AB
:108CD00076DF70477ADF70477BDF704730B51B4B1C
:108CE0001A8884B2A24283B011D1194D187A297B17
:108CF00088420ED32A7C00211972DAB96B6933B12C
:108D00000022ADF806408DF8042001A8984703B072
:108D100030BD104603F10A01FFF7D8FF28B1112832
:108D2000F5D0AB69002BF1D1F1E71A7A01321A7252
:108D300003B030BD3B212046FFF7CAFF30F00803E7
:108D4000DCD0AB69002BD9D09847D7E760B30020BF
:108D500044B300202DE9F0410388112B82B0044672
:108D600075D00BD9122B49D0502B04D1714EC2882B
:108D7000F3899A427ED002B0BDE8F081102BFAD17F
:108D8000C37B012BF7D16C4D29884FF6FF729142BE
:108D900040F0B280694F8288664E2A8003CFC5F8C2
:108DA0000A00C5F80E10618A6F89F0894FF0000C37
:108DB0008F4285F808C000F29280AF898F42C0F0E0
:108DC0008E80E989A78A40F2F314A14294BF4C1A1D
:108DD0000C1BBC4200F2838001F2F311B9427ED336
:108DE0006B720028C7D17369002BC4D00121ADF884
:108DF00006208DF8041001A89847BCE74E4D8288E4
:108E00002B889342B7D141896889884258D8A8896C
:108E1000884255D3E989A48940F2F310814294BF76
:108E2000481A081AA0424BD801F2F311A14247D3C5
:108E3000404A52694FF480712981002A9BD0012158
:108E4000ADF806308DF8041001A8904793E73A4D2D
:108E500082882B889A428ED1686808F041FE18B14A
:108E6000344B9B6903B198474FF6FF732B8002B0D8
:108E7000BDE8F081038A022B7FF47DAF2E4DB0F860
:108E800004802F8847457FF476AF123012F0B4FA91
:108E9000002839D06B7A002B3DD1D6E901132C7A0A
:108EA00068683A46002C18BF194608F0C3FD002830
:108EB0003FF461AFB369002B3FF45DAF98475AE7C9
:108EC0001C4E2C7A6868D6E90113002C18BF19468D
:108ED00000236B7208F0AEFD0028EBD14BE70023B6
:108EE0006B7200287FF447AF6868716808F0A2FDD4
:108EF00000283FF440AFDDE70E4B9B69002B3FF4A9
:108F00003AAF0420984736E7686808F0E9FD002882
:108F10003FF431AFCEE7736900222A72002B3FF491
:108F20002AAF0122ADF806808DF8042001A89847E9
:108F300021E700BF44B3002060B3002074B30020D9
:108F400070B3F8B5054606460FCD164F3C460FC424
:108F5000844695E80700144B3B6084E80700BCF1A9
:108F6000000F17D06046FFF7B5FE90B93268106861
:108F7000516803C30D4B0E490E4A18464FF6FF7455
:108F800040F8041F1C80002108F042FD002818BF93
:108F90000320F8BD1846FFF79FFE0028EAD0F8BD71
:108FA0000E20704744B3002074B3002060B300204B
:108FB0007CB30020DD8C0200054A137833B10549EB
:108FC0000023097801701370184670470520704718
:108FD0009DB300209CB3002010B50D4B0D4C1A78AA
:108FE0000D49A25C087052B1181D012206F09EFFC7
:108FF00011280BD0002814BF0320002010BD03F15E
:109000000C00012207F012F81128F3D1042010BD42
:10901000B0AB0020F4F40020A0B300200020704783
:1090200010B504460FF09CF910F11D0F0ADB10F18A
:10903000090F04DB0A2808DC0134E0B210BD023459
:10904000E0B210BD0334E0B210BD1E2807DD3228A7
:1090500007DD4628D4BF023C033CE0B210BD2046E9
:1090600010BD013CE0B210BD10B504460FF078F918
:1090700010F11D0F0ADB10F1090F04DB0A2808DCD0
:10908000013CE0B210BD023CE0B210BD033CE0B2D6
:1090900010BD1E2807DD322807DD4628D4BF023464
:1090A0000334E0B210BD204610BD0134E0B210BD63
:1090B00010B504460FF054F910F11D0F0ADB10F142
:1090C000090F04DB0A2808DC013CE0B210BD023CB9
:1090D000E0B210BD033CE0B210BD1E2807DD32280F
:1090E00007DD4628D4BF02340334E0B210BD204669
:1090F00010BD0134E0B210BD81DF704784DF7047DE
:1091000070B5254B82B093F881034025019518B1C5
:109110001124204602B070BD204C214E20703070CA
:10912000204B214A214922480EF0F8FC044688B120
:10913000204B5B88002BECD01F48204B2049C01AE5
:10914000C008000440F0010022460DF0B7F82046A8
:1091500002B070BD01AA1B4912480EF045FD04463D
:1091600038B1144B5B88002BD3D01348134B1649EE
:10917000E5E7144A0D482B4611460EF05FFD044604
:1091800038B10C4B5B88002BC3D00B480B4B0F49FD
:10919000D5E701233370BCE710BB0020C8BA00201C
:1091A000A4BA0020CCC1002094BE0020046B0400AF
:1091B00058B7002044AF0020B8AE040058AE0400F9
:1091C000B0410400D0BA0020E8410400204204006D
:1091D00010B54FF461720021104819F0B5FB0BF087
:1091E00029F8044620B10E4B5B884BB9204610BDD0
:1091F0000C4A0D4B10701870BDE81040FFF780BF8F
:109200000A4B0B480B49C01AC008000440F001008B
:1092100022460DF053F8204610BD00BF10BB0020C1
:1092200044AF0020A1B30020A4BA002058AE04002F
:10923000B8AE04008841040010B50A4B1C781CB974
:10924000094B588810B910BD084810BD084B094893
:109250000949C01AC008000440F001000DF00EF9E1
:10926000204610BDA4BA002044AF0020D0BA002090
:1092700058AE0400B8AE0400C84204002F4B1B785F
:10928000002B54D130B52E4C94F8800385B030B308
:109290002C4B1B7820250395002B43D094F8813369
:1092A000FBB9294D6B88012B09D92848284B29493E
:1092B000C01AC008000440F002000DF0DFF82021C1
:1092C00025480EF0E5FF002833D16B88022B1DD80E
:1092D00021490020FFF710FF0023A4F8803305B0D8
:1092E00030BD03AB00931D491B4B1D48224606F0C1
:1092F00003FF0028D5D1184A1A482B4611460EF014
:109300009DFCB0B9104D6B88022BE1D9104B0F4872
:109310001549C01AC008000440F0030000220CF0F8
:10932000CDFFD5E70320A4F8803305B030BD03207E
:1093300070470023A4F88033D1E700BFA1B3002019
:1093400010BB0020A4BA002044AF0020B8AE040037
:1093500058AE04000C430400A8BA002094BE0020BC
:10936000CCB30020046B04004043040070B50388B4
:109370008588112B90B015D0182B11D1037BDB07FA
:10938000044639D4A1683D486A4640230EF056FC95
:1093900090B13B4B5B88002B4BD13A4B01221A70AA
:1093A00010B070BD384A4FF4617303FB05250023EC
:1093B000A5F8803310B070BD334E30484FF461745F
:1093C00004FB05646A46214640230EF0E3FB60B3CC
:1093D0002B4B5B88002B44D14FF4617303FB056377
:1093E000002283F881234FF4617303FB0565012399
:1093F00085F8803310B070BD244B254A1B78126865
:10940000244E002B08BF002612B128469047024682
:1094100031462846FFF772FE0028B3D0184B5B8810
:109420009BB9184B01221A70ACE7012384F88133F1
:10943000D9E7194A194B1A499B1ADB081B04024643
:1094400043F001000CF03AFFA7E7134A134B15490C
:109450009B1ADB081B04024643F001000CF02EFFB0
:10946000DFE70D4A0D4B10499B1ADB081B0402462F
:1094700043F001000CF022FFAEE700BF046B0400D4
:1094800044AF0020A1B3002010BB0020C8BA0020C8
:10949000CCBA0020A4B3002058AE0400B8AE04003B
:1094A00020420400584204008C420400F0B5224CD3
:1094B00094F86A5083B0002D3AD14FF0FF334FF04B
:1094C000FF364FF0FF372946062204F16400C4E955
:1094D0000033C4E90233C4E90433C4E90633C4E900
:1094E0000833C4E90A332366C4E90C67C4E90E678C
:1094F000C4E91067C4E91267C4E91467C4E91667D0
:1095000019F022FA0D4A0E4B0E491D60C02082F858
:109510000603402010601B68019301984FF0004340
:109520000122284684F86A20C1F8043303B0F0BD54
:10953000082003B0F0BD00BF50C5002000E100E0EE
:109540007C61004000600040034B93F86A000030EB
:1095500018BF0120704700BF50C50020F0B5704B08
:109560001C1894F93050002D63DA8E78C6F340064B
:109570009646002E57D01D68013500F0C3800124A7
:10958000082553F82470013756D004F1010C53F824
:109590002C7001374FD0A71CAF4242D253F827207E
:1095A000013200F0AD8004F1030CAC4539D253F820
:1095B0002C7001373FD004F1040CAC4531D253F884
:1095C0002C70013737D004F1050CAC4529D253F883
:1095D0002C7001372FD004F1060CAC4521D253F882
:1095E0002C70013727D004F1070CAC4519D253F881
:1095F0002C7001371FD004F1080CAC4511D253F880
:109600002C70013717D004F1090CAC4509D253F87E
:109610002C7001370FD00A34AC4202D2DC6A01341C
:109620006CD00420F0BD1D6A013571D009240C25D1
:10963000A7E70820F0BD64461F1865B243F824E090
:1096400087F8305016B91C4484F858008A785407BB
:109650001AD4D60741D41F284C7887BF314E00F06A
:109660001F0202464FF0A04602F5E072A40046F841
:1096700022402D4EC40800F0070C375D012202FA8B
:109680000CF23A4332558A78097812F002021AD065
:10969000AB0003F1804303F5C0430202D3F8100589
:1096A00020F44F3020F44070C3F810050904D3F8BB
:1096B000100501F4403102F47C520A430243C3F81E
:1096C00010250020F0BD083D2B44104693F8602083
:1096D00042EA811183F86010F0BD1F2887BF114A4C
:1096E00000F01F0404464FF0A04202EB8402D2F8BF
:1096F000004724F00204C2F80047BAE70B249BE7B6
:109700003C4699E70025C3F800E084F830509DE717
:10971000082684F830601A623546344693E700BF65
:1097200050C5002000030050B4C5002070B4394C6F
:10973000251883B095F93030072B10DD234493F8BA
:1097400058309B09032B34D0012B0CBF4FF4003150
:109750004FF440311F284CD84FF0A04339E0DAB223
:10976000072A23D8980000F1804000F5C04003F19B
:1097700040029200D0F8106592B202F1804202F5E8
:10978000C04246F00106C0F8106500201060126863
:109790000192019A51B195F9302054F822202AB152
:1097A00001221D4902FA03F3C1F8043303B070BC6F
:1097B00070471F2820D9194BD3F8103500F01F002F
:1097C000C34013F0010F14BF4FF440314FF4003188
:1097D000124B03EB8000D0F8002722F44032C0F88F
:1097E0000027D0F800370B43C0F8003703B070BC37
:1097F000704700F01F00EBE74FF0A0421346D2F88D
:109800001025C24012F0010F0CBF4FF400314FF48D
:109810004031DEE750C500200060004000030050EA
:109820001F288ABF054B4FF0A04300F01F00D3F85C
:10983000103523FA00F000F00100704700030050DB
:109840002DE9F047002388B0CDE90233C84A1168FA
:10985000012900F047821E46C64B1A68012A00F013
:109860003382C54B1A68012A00F02082C34B1A6864
:10987000012A00F00D82C24B1A68012A00F0FA8119
:10988000C04B1A68012A00F0E781BF4B1A68012A11
:1098900000F0D481BD4B1A68012A08D0BC4B1A686D
:1098A000012A00F02B820EBB08B0BDE8F087B94A50
:1098B000D2F804231706F1D500221A601968009126
:1098C000603319680098012946F080060ED11A60AD
:1098D0001B6801934FF0A042019BD2F81025AE4BBC
:1098E0000292D3F81035039346F00046AB4F0024A4
:1098F0000125A30003F180432E4203F5C0434FEA44
:1099000045050BD0D3F8100557F82420D3F81015CF
:10991000C0F30520C1F3014102B190470134082C86
:10992000E7D1002EC0DA0DF110089C4C9A4F0023AD
:10993000C8F80430049394F960304FF0FF304FF0D2
:10994000FF315D1CCDE906014FF0010600F0F58006
:109950005FFA83FC2CF0C00008AB4FEAD00903EBA0
:10996000090E0CF007031EF8082C06FA03F312EA9E
:10997000030521D022184FEA9C1192F9302054F8A7
:109980002220002A00F03481032900F033811F28AF
:1099900000F2E98005464FF0A04C0CEB850C1EF858
:1099A000185CDCF800E71D40CEF3014E40F0CF809C
:1099B000BEF1030F00F0B48194F96130581C32D02D
:1099C000DBB223F0C00008AA4FEAD00E02EB0E0C67
:1099D00003F007011CF8082C06FA01F912EA090F36
:1099E00021D02218990992F9302054F82220002A17
:1099F00000F01081032900F010811F2800F2F4808C
:109A000003464FF0A04E0EEB83031CF818ECD3F87E
:109A100000C71EEA090FCCF3014C40F0D980BCF11D
:109A2000030F00F08F8194F96230591C32D0DBB201
:109A300023F0C00008AA4FEAD00E02EB0E0C03F090
:109A400007011CF8082C06FA01F912EA090F21D0C7
:109A50002218990992F9302054F82220002A00F0A7
:109A6000CF80032900F0CF801F2800F2A580034695
:109A70004FF0A04E0EEB83031CF818ECD3F800C790
:109A80001EEA090FCCF3014C40F08A80BCF1030FB1
:109A900000F06C8194F963305A1C33D0DBB223F0B0
:109AA000C00008AA4FEAD00E02EB0E0C03F007022A
:109AB0001CF8081C06FA02F2114223D004EB00093C
:109AC000990999F9309054F82990B9F1000F00F0F4
:109AD000AB80032900F0AB801F288BBFBE464FF040
:109AE000A04E03F01F0303460EEB83031CF818EC93
:109AF000D3F800C71EEA020FCCF3014C60D1BCF1D1
:109B0000030F1CD0002D3FF4CFAE4FF0A042029BBC
:109B1000D2F81015D7F810058B4203D1039B83426E
:109B20003FF4C2AEDDE90423CDE9062394F96030A9
:109B30005D1CCDE902107FF40BAF00253CE7032943
:109B400000F02881B9F1000FDCD0C847DAE7BEF198
:109B5000020FF2D1032900F038810025002A3FF4DA
:109B60002BAF904728E70CF01F05BC4615E700BF58
:109B70000061004004610040086100400C61004049
:109B80001061004014610040186100401C610040F9
:109B90007C610040006000400003005050C5002080
:109BA000BCF1020F7FF476AF032900F00B81002A8D
:109BB0003FF470AF90476DE703F01F03BE4659E7CF
:109BC000BCF1020F9ED10329BCD14FF4403CE3E02D
:109BD000BCF1020F7FF427AF032900F0F080002AC8
:109BE0003FF421AF90471EE703F01F03BE460AE78C
:109BF0000329A2D118F809501D4308F80950C6E6F8
:109C000003297FF447AF18F80EA04AEA090A08F8BA
:109C10000EA029E703297FF406AF18F80EA04AEA40
:109C2000090A08F80EA0E8E603297FF46BAF18F8DC
:109C30000EA04AEA020A08F80EA04DE7644AD2F8DC
:109C4000042352067FF526AE00221A601B6800939B
:109C5000009B46F040061DE65D4AD2F804239106BB
:109C60007FF513AE00221A601B680093009B46F03C
:109C700020060AE6564AD2F80423D0067FF500AE45
:109C800000221A601B680093009B46F01006F7E55F
:109C90004F4AD2F8042314077FF5EDAD00221A6075
:109CA0001B680093009B46F00806E4E5484AD2F89A
:109CB000042355077FF5DAAD00221A601B68009374
:109CC000009B46F00406D1E5414AD2F804239707E9
:109CD0007FF5C7AD00221A601B680093009B46F019
:109CE0000206BEE53A49D1F8046316F001063FF4D6
:109CF000B3AD136013680093009BADE500221A60BA
:109D00001B6801934FF0A042019BD2F81025314B04
:109D10000292D3F810350393002E3FF404AEE3E52E
:109D200003297FF41BAF4FF40035DCF8003723F430
:109D30004033CCF80037DCF800372B43CCF8003741
:109D400001250BE703297FF44AAF4FF4003ED3F817
:109D500000C72CF4403CC3F800C7D3F800C7013556
:109D60004EEA0C0CEDB2C3F800C738E703297FF4C4
:109D70001EAF4FF4003ED3F800C72CF4403CC3F8AC
:109D800000C7D3F800C701354EEA0C0CEDB2C3F89A
:109D900000C70CE74FF4003CD3F8002722F4403210
:109DA000C3F80027D3F80027013542EA0C02EDB2D0
:109DB000C3F80027B9F1000F7FF4C7AEA5E64FF452
:109DC000403EC4E74FF4403ED5E74FF44035ACE7A2
:109DD000006000400003005070B52C4A82B00121A1
:109DE00002E0C2E8431FDBB1D2E84F3FDBB28DF89F
:109DF00003309DF80330002BF3D0BFF32F8F244B9B
:109E00001B682BB1234B18680230400802B070BDAC
:109E1000204B1A68D207F6D41868400802B070BD0B
:109E20001D4C0225C4F80853BFF35F8F1848016822
:109E300051B9184B1868C4F8045301304008BFF3F7
:109E40005F8F117002B070BD12490E6801360E604E
:109E5000BFF35F8F03600068019001980868C4F841
:109E6000045301304008BFF35F8F13700B68DC07A9
:109E700004D50B6801330B6002B070BD074B084A74
:109E800008484FF4867118F0B9FC00BFC0C5002027
:109E900004410240C4C500200040024028440400A0
:109EA000AC43040040440400054B5B68DB0602D56C
:109EB000044B01221A60024B1022C3F88420704721
:109EC00000E100E0BCC50020044B1A6822B1044A3E
:109ED0000020102118605160704700BFBCC50020F1
:109EE00000E100E0F0B583B0FFF776FFBFF35F8FCE
:109EF000374BD3F80465BFF35F8F364A012102E088
:109F0000C2E8441F6CB3D2E84F3FDBB28DF8033098
:109F10009DF80330002BF3D0BFF32F8F2E4B1B681F
:109F2000C3B12E4B1B6802335B08984218BF284A06
:109F30002B4818BFD2F8046540F2FF1443F60952CB
:109F40000025E2FB0645620A42EAC55203FB0020F7
:109F500003B0F0BD214B1A68D207E3D41B685B083D
:109F6000E3E71B4D0227C5F80873BFF35F8F1A4B59
:109F7000196849B9194B1B68C5F8047301335B08AC
:109F8000BFF35F8F1170D0E71449D1F800C00CF116
:109F9000010CC1F800C0BFF35F8F1C601B68019308
:109FA000019B0B68C5F8047301335B08BFF35F8F37
:109FB00014700A68D40703D50A6801320A60B4E74E
:109FC000084B094A09484FF4867118F017FC00BF86
:109FD00000400240C0C5002004410240C4C500202A
:109FE0000080841E28440400AC4304004044040064
:109FF0001F2070472DE9F04F85B006468B46FFF7CE
:10A00000EBFE8146BFF35F8FDFF83C82D8F8047522
:10A01000BFF35F8FFFF7E0FE814518BFD8F80475E6
:10A020008649DFF824C243F6095340F2FF184FF087
:10A030000009E3FB07894FEA582242EAC9524FEA76
:10A040005923E1FB002396424FF48031CCF80813EA
:10A050001046CCF8441303D9B11A0029C0F2D180BC
:10A060008642C0F0C6809A461BEB06084FF00001FE
:10A070004FF0000C41F1000918EB0C0E49EB0A0AF5
:10A080006F494FEA5E3848EACA48A8FB01894FEA9F
:10A090005A3001FB00994FEA187141EA09114FEA61
:10A0A000197848014FEA4816401A46EAD16666EB2D
:10A0B00008064FEA86194FEA801B49EA9069BBEB14
:10A0C000000069EB0606F6004FEAC00946EA507642
:10A0D00019EB010046EB0806BEEB00046AEB06052F
:10A0E0004FEA48204FF00009DFF87081A94508BF0A
:10A0F000A04540EAD1504FEA4121C0F09880DFF8F6
:10A100006081504E40F2314E0EFB04FE08FB05EE1E
:10A11000A4FB0889F1444FF0FF3E18EB0E0E47F602
:10A12000FF7444EB0905ED0B69184CEB00084D0179
:10A130004FEA4814B5EB010C44EAD16464EB080023
:10A1400084014FEA8C15B5EB0C0544EA9C6464EB82
:10A150000004E400E80044EA557440F2FF1C45188E
:10A1600044EB0804002015EB0C0540EB04044FEA17
:10A17000552A4AEAC45A4FEA542BC6E900AB324C7E
:10A18000C4F84015D4F80415B9421ED0FFF724FED8
:10A190000746BFF35F8FD4F80455BFF35F8FFFF717
:10A1A0001BFE874218BFD4F80455244943F60954CE
:10A1B00040F2FF120023E4FB0523520AD6E900AB6C
:10A1C00042EAC3525B0AE1FB002312F13E0143F174
:10A1D000000300910193DDE900345C4508BF53455D
:10A1E00013D2194B4FF48032C3F8042305B0BDE8F5
:10A1F000F08F801B0028BFF636AF111C43F1010A17
:10A2000032E7111C43F1FF3A2EE7104A0E4B0021B2
:10A2100011601268039203994FF48032C3F8482307
:10A22000C3F8082305B0BDE8F04F06F0CFB9084BDE
:10A23000084A0948832118F0E1FA00BF0080841E13
:10A24000D07B6308C8C50020004002404041024066
:10A25000C443040090430400D4430400452C16007A
:10A260007B2DE8BD074A084B4FF480310020C2F82F
:10A27000481382B0C2F8081318601B680193019B51
:10A2800002B0704700400240404102402DE9F84FC3
:10A290005D4CDFF88CB1DFF88CA1FFF79DFD8046A7
:10A2A000BFF35F8FD4F80455BFF35F8FFFF794FDC2
:10A2B000804518BFD4F80455544943F6095340F279
:10A2C000FF184FF00009E3FB05894FEA582242EAE4
:10A2D000C9524FEA5923E1FB002312F13E0C43F12E
:10A2E00000004FEA5C3242EAC042A2FB0B23410B62
:10A2F0000BFB0133110F41EA03111A0F4FEA411E04
:10A300005301BEEB010E43EAD16363EB02084FEA4F
:10A3100088134FEA8E1943EA9E63B9EB0E0E63EB86
:10A320000803DB004FEACE0843EA5E7318EB010E28
:10A3300042EB0303BCEB0E0660EB0307DFF8E8809B
:10A340004FF00009B9454FEA422E4FF4003008BFE4
:10A35000B0454EEAD15EC4F808034FEA41214FF000
:10A360000002C4F8440348D340F2314303FB06F330
:10A37000A6FB0A890AFB073399444FF0FF3318EB19
:10A38000030347F6FF7349EB0303DB0B591842EB5A
:10A390000E0C4B014FEA4C12B3EB010E42EAD162B4
:10A3A00062EB0C084FEA8E134FEA8812B3EB0E03F0
:10A3B00042EA9E6262EB0802D2004FEAC30EC4F882
:10A3C000441542EA5372C4F804031EEB010340F241
:10A3D000FF1142EB0C02D4F804055B1842F10002B5
:10A3E0005B0A0B4943EAC253A8424FEA5222C1E931
:10A3F00002327FF452AFBDE8F88F064B064A074899
:10A40000832118F0FBF900BF004002400080841E49
:10A41000C8C50020C443040090430400D443040092
:10A42000D07B63087B2DE8BD452C16002DE9F84F45
:10A4300006468846FFF7D0FC8246BFF35F8FDFF801
:10A440009891D9F80475BFF35F8FFFF7C5FC82457B
:10A4500018BFD9F804755F4943F6095340F2FF1A53
:10A460004FF0000BE3FB07AB4FEA5A2242EACB5214
:10A470004FEA5B23E1FB0023574F10461946864203
:10A480004FF40033C7F808330246C7F8443303D902
:10A49000331A002BC0F293809642C0F0888018EBEC
:10A4A000060A4FF000094FF0000249F1000B1AEBC9
:10A4B00002064BEB0107494B4FEA563848EAC748BA
:10A4C000A8FB0389790B03FB01994FEA187141EA54
:10A4D00009114FEA197C48014FEA4C13B0EB010E09
:10A4E00043EAD16363EB0C084FEA8E104FEA8813FE
:10A4F000B0EB0E0043EA9E6363EB0803DB004FEA18
:10A50000C00E43EA50731EEB010043EB0C03341AF8
:10A5100067EB0305324E0027AF424FEA4C2C08BFD1
:10A52000A6424CEAD15C4FEA41214CD32D4E2E4835
:10A5300040F2314303FB04F306FB0533A4FB06455D
:10A540001D444FF0FF33E31847F6FF7345EB030359
:10A55000DB0B591842EB0C0C4B014FEA4C125C1A06
:10A5600042EAD16262EB0C05AA01A3011B1B42EA7D
:10A57000946262EB0502DC00D20042EA5372631877
:10A5800040F2FF1442EB0C0200251B1945EB0202BE
:10A590005B0A43EAC253520A0F4CC0E902324FF43D
:10A5A0000035C4F84415C4F80453BDE8F88F921B75
:10A5B000002ABFF674AF003041F101016FE70030AF
:10A5C00041F1FF316BE7094B094A0A48832118F032
:10A5D00015F900BF0080841E00400240D07B630854
:10A5E000452C16007B2DE8BDC8C50020C4430400DF
:10A5F00090430400D4430400074A084B4FF4003151
:10A600000020C2F8481382B0C2F8081318601B6813
:10A610000193019B02B07047004002404441024058
:10A62000014B9868704700BFC8C50020F0B52F4B9C
:10A630001B6883B08BB92E4CD4F80433D90302D5F0
:10A640002C4B1A68FAB92A4BD3F80423920302D58B
:10A65000294A116841B903B0F0BD254B0222C3F865
:10A660000823FFF7B9FBE6E70021116012680092AA
:10A670004FF400320099C3F84823C3F808230FF0C1
:10A6800001FF03B0F0BD00221A601B680193019B1B
:10A69000FFF7A2FB0546BFF35F8FD4F80465BFF355
:10A6A0005F8FFFF799FB854218BFD4F80465134FFD
:10A6B000134943F6095340F2FF140025E3FB064516
:10A6C000620A42EAC5526B0AD7E90045E1FB002362
:10A6D000AB4208BFA242B6D3054B4FF48032C3F859
:10A6E0004823C3F8082305F071FFACE7044102409A
:10A6F000004002404041024044410240C8C50020A1
:10A700000080841EAFDF7047B1DF7047B2DF704753
:10A71000B3DF7047F0B5284B284C93E8030023883B
:10A7200089B04FF6FF756E46AB4286E8030007D14D
:10A730002BE020880DF00EFDA8420346208024D097
:10A740001846002231460DF087FC07460028F0D05D
:10A75000002322881128CDE90233CDE90433CDE965
:10A760000633ADF80C2010D0862821D0144B5B881E
:10A770006BB90497104607238DF8083009F090FC58
:10A78000ADF80A0002A803F045F809B0F0BD0FF0DB
:10A79000DFFE0C4D0C4A23880C49541BE4082404AA
:10A7A000024644F001000BF0B5F9BDF80C20E0E7DB
:10A7B00010460623E0E700BFAC440400D8C50020E3
:10A7C00060AF002058AE0400F0AE0400084604005C
:10A7D000044B1A884FF6FF739A4200D17047FFF777
:10A7E00099BF00BFD8C50020024B4FF6FF721A80F8
:10A7F00000207047D8C500202DE9F04782B00746F9
:10A8000009F07EFB4FF6FF73984261D0334A344B18
:10A81000DFF8D090DFF8D0A0A3EB02084FEAD80809
:10A820004FEA0848064648F0010801226B46082115
:10A830003046541C0EF076FB05460320A4B20346B6
:10A84000B5BB019A911D42F8040B3846FFF75EFF35
:10A850000821034698B30C2B304612D10EF05AFC57
:10A8600008B92246E2E7B9F80230002BF9D00FF020
:10A870006FFE32460346514640460BF04BF92246E6
:10A88000D4E70821052B18BF1D460EF043FC58B134
:10A89000144B5B883BB10FF05BFE32460346124916
:10A8A00040460BF037F90325284602B0BDE8F08793
:10A8B000072D08BF0C25284602B0BDE8F0873246B8
:10A8C00030460EF08BFC0546284602B0BDE8F08706
:10A8D00043F20205284602B0BDE8F08758AE0400F6
:10A8E000F0AE040060AF0020344504002DE9F043D1
:10A8F00083B0804609F004FB4FF6FF7398422DD1D8
:10A9000000273E4603254FF001092B463A463146C3
:10A910004046FFF7F9FE042804460BD008280BD068
:10A920000B280BD0B9F1000F08BF0B24204603B051
:10A93000BDE8F0831124F5E70024F3E715F00205E4
:10A9400004D13EB12F462E46032500E001254FF0ED
:10A950000009DAE76FB137460325F8E76A460821B0
:10A960000EF0DCFA0028CBD1019EB7883568063698
:10A97000C9E7084B5B88002BD8D0074B074808492C
:10A98000C01AC0080004424640F001000BF096FCDB
:10A99000CCE700BF60AF002058AE0400F0AE04006A
:10A9A000BC44040000B585B00DF10703039309F022
:10A9B000A7FA02AA01210EF0B1FA20B9039B187878
:10A9C00005B05DF804FB002005B05DF804FB00BF96
:10A9D00038B5154D03462846FFF79AFE78B9298801
:10A9E00043F203044FF6FF721846FFF78BFEA042B6
:10A9F00000D038BD2988013189B22980F2E70B4B9C
:10AA00005B880BB9032038BD0FF0A2FD084A094B43
:10AA100009499B1ADB081B04024643F001000BF0B6
:10AA20004DFC032038BD00BFDAC5002060AF002018
:10AA300058AE0400F0AE0400B445040010B5074B56
:10AA4000044693E8030082B06B4683E803000022CB
:10AA5000194620460DF000FB02B010BDB4440400BE
:10AA600008B5094B5A78022A01D0012008BD0028F8
:10AA7000FCD0002205485A7005F002FD0A2008F0BB
:10AA80000DFC012008BD00BFDCC50020E0C5002092
:10AA900008B5034A034B044840F2BD1117F0AEFE5F
:10AAA00074460400743F04009046040008B590F812
:10AAB00080301BB902F006F938B108BD044B054AD5
:10AAC000054840F2B71117F099FEFFF7E1FF00BF0C
:10AAD000DC460400744604009046040070B582B061
:10AAE000044601A80D4616460FF062FC50B1019BCA
:10AAF000002B08BF0123324629462046FFF7D6FF28
:10AB000002B070BD0346324629462046FFF7CEFF0D
:10AB100002B070BD704700BF41B108B591F88030F8
:10AB2000084633B902F0CEF808B108BD7047FFF708
:10AB3000AFFF034B034A044840F2B71117F05EFE23
:10AB4000DC4604007446040090460400F0B5054657
:10AB500085B016461F460C4689B103A80FF028FCA5
:10AB600040B900903B46324621462846FFF7D4FFC5
:10AB700005B0F0BD0398002808BF0120F1E70846A2
:10AB8000EFE700BF704700BF704700BF704700BFCE
:10AB9000704700BF704700BF03689868704700BFE8
:10ABA000036800229A60704710B44FF080414FF064
:10ABB00080520020C1F80C015E4BC1F81001C1F8B1
:10ABC0003805D2F80414C3F82015D2F80814C3F8D5
:10ABD0002415D2F80C14C3F82815D2F81014C3F8B1
:10ABE0002C15D2F81414C3F83015D2F81814C3F881
:10ABF0003415D2F81C14C3F84015D2F82014C3F849
:10AC00004415D2F82414C3F84815D2F82814C3F810
:10AC10004C15D2F82C14C3F85015D2F83014C3F8E0
:10AC20005415D2F83414C3F86015D2F83814C3F8A8
:10AC30006415D2F83C04C3F86805D2F840043E49D4
:10AC4000C3F86C050968D2F84424C3F870250829B4
:10AC500024D04FF08043D3F80024D20744BF6FF0D4
:10AC60000102C3F80024354AD2F8883043F4700357
:10AC7000C2F88830BFF34F8FBFF36F8F4FF01023B0
:10AC8000D3F80022002A23DBD3F80432002B1FDB89
:10AC90002B4B2C4A1A605DF8044B70472A4B1B68FB
:10ACA000002BD6D129482A4A2A4C04602A492B4B2A
:10ACB000FB20C2F818050A681B68294822F00F0219
:10ACC00003F00F0313434FF400720B600260C0E700
:10ACD000244A0123C2F80435D2F80034002BFBD0FB
:10ACE0004FF0102312211F4AC3F80012D2F800348B
:10ACF000002BFBD04FF0102312211A4AC3F8041284
:10AD0000D2F80034002BFBD000231649C2F80435DA
:10AD1000D1F80034002BFBD0BFF34F8F0749124B03
:10AD2000CA6802F4E0621343CB60BFF34F8F00BFE9
:10AD3000FDE700BF00C000403001001000ED00E062
:10AD4000C4AB00200090D003340100108C560040AA
:10AD500000F0004048810300E40E0040580200105B
:10AD60004096024000E001400400FA0510DF704701
:10AD700011DF704770B53D4D2B7884B0002B66D144
:10AD80003B4E3C49012302A8337001F019FE039B9E
:10AD90002BB90EE002A801F01DFE039B4BB1D3E9D5
:10ADA0000021002090470028F4D10446204604B03A
:10ADB00070BD314902A801F003FE039B4BB1D3E9FA
:10ADC00000210020904702A801F004FE039B002B05
:10ADD000F5D12A4A002312688DF8083002A80192A2
:10ADE0000FF0DEFE264901A8FFF7C0FFB0FA80F39E
:10ADF00004465B099DF808002B700FF0F7FE002C4D
:10AE0000D4D1204B20491C70347091F81623EC23C8
:10AE100052091341DB071ED51C4B9A6812B31A68FE
:10AE200042F480021A60144902A801F0C9FD039B94
:10AE3000002BBBD0D3E900210120904702A801F0EC
:10AE4000C9FD039B002BF5D1204604B070BD08243A
:10AE5000204604B070BD0E4AA12142F2020004F067
:10AE60001BFBE0E74FF480030B60DCE7F5C5002037
:10AE7000F4C500204847040060470400F44604007D
:10AE800001B40300F6C5002000E100E080FD0020D1
:10AE9000F8460400F0B5324D2B7883B0002B55D026
:10AEA000304E314901236846337001F089FD019B22
:10AEB0002BB90EE0684601F08DFD019B4BB1D3E943
:10AEC0000021012090470028F4D10446204603B019
:10AED000F0BD2649684601F073FD019B4BB1D3E9F3
:10AEE000002102209047684601F074FD019B002B71
:10AEF000F5D1002768468DF800700FF051FEFFF77E
:10AF000037FF04469DF800002F700FF06FFE002CF5
:10AF1000DCD1174B34709A68E2B9164B4FF48002BB
:10AF2000C3F880201149684601F04AFD019B002BBF
:10AF3000CCD0D3E9002103209047684601F04AFDB8
:10AF4000019B002BF5D1204603B0F0BD082420461C
:10AF500003B0F0BD1A6822F480021A60E2E700BF75
:10AF6000F5C50020F4C500204847040060470400F0
:10AF700080FD002000E100E0054B1B7833B1054B5C
:10AF80001B780BB1FFF786BFFFF7F4BE08207047B0
:10AF9000F4C50020F5C50020014B1878704700BFAC
:10AFA000F5C5002000B583B06846084901F008FDEA
:10AFB000019B43B1D3E900209047684601F00AFDA8
:10AFC000019B002BF6D103B05DF804FB544704004D
:10AFD0002DE9F04102230B80846801342DD000F567
:10AFE000805508305AB3304F9E464FF6FF764FF0EB
:10AFF000010C4388DC1C00EB8404A54247D3848801
:10B00000B4424BD00488002C48D08468D7F8008024
:10B01000444503D93C60B1F800E0438873440333EE
:10B020001FFA83FEA1F800E04488033400EB84009B
:10B03000854202D904680134DBD1BDE8F0811A4CA5
:10B040009E464FF6FF764388DA1C00EB820295425B
:10B050001FD38288B24209D002883AB18268276839
:10B06000974203D22260B1F800E04388734403336F
:10B070001FFA83FEA1F800E04288033200EB820051
:10B080008542DAD903680133DDD1BDE8F0810123BF
:10B0900013704FF480630B80BDE8F08182F800C02C
:10B0A000B1F800E04388B9E730C60020F0B5374C6E
:10B0B000374D67886268BE00F31905EB830383B0E0
:10B0C000596801F58050002A5CD05388033302EBA5
:10B0D0008302904228D91368013325D05388033363
:10B0E00002EB830398421FD34FF6FF7EB2F804C0F1
:10B0F000F44517D0B2F800C0BCF1000F12D0626066
:10B100005388244D2448AE882968033300259BB218
:10B1100000959B0001EB86010325257002F006FED9
:10B1200003B0F0BD98420DD83E4405EB8605EB68B0
:10B13000D3B9194804250122257003B0BDE8F040B9
:10B1400002F0BABE1A6801321A46EDD0B3F802C056
:10B150000CF1030C03EB8C039842C7D23E4405EB81
:10B160008605EB68002BE4D00A4B0B4819680222D5
:10B170009A80052500230122257003B0BDE8F04028
:10B1800002F09ABE01F10802A3E700BF1CC600202E
:10B1900038C60020F0C6002000AF0020F0B443689D
:10B1A0001BB1374AD468A34246D20023354F0B80E7
:10B1B0007A684FF0010C02F580544FF6FF760832A2
:10B1C00094420ED8BCF1020FA1F800C007F1140799
:10B1D00054D07A6802F58054083294424FF0020C41
:10B1E000F0D913680133EDD05388033302EB8303A6
:10B1F0009C42E7D39588B5420AD0158845B1956839
:10B2000003689D4211D05388033302EB8302D7E7D2
:10B210009C42D7D91A6801321A46D3D05D880335CB
:10B2200003EB85039C42E5D2CCE7174B42601B89B8
:10B2300003810120F0BC704712699342B5D813F026
:10B240000305B2D1104A048912899442ADD1046831
:10B250009A689442A9D10B484268934203D902F5F7
:10B260008052934207D38269934207D902F58052F4
:10B27000934203D201250D800120DBE70020D9E7AE
:10B2800000AF002038C600201CC600202DE9F04F7A
:10B29000AE4E89B004464FF6FF773568002D00F0BA
:10B2A000C0802A78531E052B00F2F180DFE803F0FE
:10B2B0003D4A4A1E1E03002C40F0BA80DFF8B0C29F
:10B2C0009CF80C209CF80030002A00F07081013BB3
:10B2D0008CF80C40062B00F2DA80DFE813F0E6036E
:10B2E0000C032002F801D8001E030F03002C40F0CD
:10B2F0009F802B79012B00F08081002B00F064816E
:10B300000DF10C08022B0394C8E90244C8F8104060
:10B3100040F0C580204604902B78023B042B36D8A1
:10B32000DFE803F06F5B4F2F7B00002C40F08A803A
:10B330002B79032B00F2E680DFE813F0FB002001FD
:10B34000F000C100B5F81490A97D002C40F0868073
:10B350004FEA8904DFF8208204EB090308EB83033A
:10B36000B3F808A05B6803EB8A0A062900F2C583DC
:10B37000DFE811F06A027902420255020102260258
:10B38000E90104238DF80C30EB88ADF81830704CCF
:10B3900004F1100554F8043B404603B19847A54218
:10B3A000F8D16C496C48002434600BF0EFFD0121AA
:10B3B0006A4808F00FFF00287FF46FAF09B0BDE8BE
:10B3C000F08F03238DF80C30EB88ADF818302B8903
:10B3D000ADF81A30EB680593D9E702238DF80C30ED
:10B3E0002B89ADF81830AB88ADF81A30EB680593AF
:10B3F000AB7DA3F10603B3FA83F35B098DF81C3030
:10B40000C5E701238DF80C302B89ADF81830AB88D7
:10B41000ADF81A30EB680593B9E705238DF80C30C9
:10B42000B5E74C494C480BF081FD0546306038E7E4
:10B430000DF10C080023C8F808300393C8E9033362
:10B44000012068E70DF10C08454A0023536003937F
:10B45000C8E90233C8F8103001205CE70229EA8805
:10B460001FD8DFF814814FEA890404EB090108EBC7
:10B4700081010DF10C084B89033B9B1A00224B8183
:10B48000C8F808200392C8E90322012043E70023FB
:10B490000DF10C08C8E90333C8F8083003930F20F6
:10B4A00039E74FEA8904DFF8D08004EB090108EBA3
:10B4B0008101D31C0A8913440B81EA88D5E7294C02
:10B4C000294A21682948DFF8B0804FF0000985F843
:10B4D00004900823CDF8009002F028FC244B256846
:10B4E0005B88A18803EB830308EB830208F82390B1
:10B4F00053682360022355601181A38000283FF424
:10B500005DAF3568164A0DF10C08002353600393B4
:10B51000C8E90233C8F810300E20FCE6114A13487F
:10B520001168002302242B719480012202F0C4FCD4
:10B53000E4E70C4B0F4A19680C4801232B710023D8
:10B540000093082302F0F2FBD8E700BF34C60020C6
:10B5500004C600202CC60020C8AB0020ECC600208A
:10B5600014C60020F0C600207847040000AF002079
:10B570001CC600208047040038C60020DFF828835E
:10B5800098F80030022B00F0A68298F81430022BB5
:10B5900000F0B182BD4B0DF10C08002001221A70A1
:10B5A00003905860C8E90200C8F81000B3E6072B02
:10B5B00000F23082DFE813F000022E022E02940126
:10B5C000EC01A201A201C60102232B71CDE90444C2
:10B5D0000DF10C08EB68039340460DF10A01FFF7EB
:10B5E000DDFD002840F062810A200023C8E9003315
:10B5F000C8E90233C8F810308DE6A44B1B78002B45
:10B6000000F03E82DFF888C2BCF80430012B12D86B
:10B61000DFF8948203EB8302994608EB82021378E9
:10B62000C3B109F1010399B201299946ACF804307C
:10B6300002F11402F3D90DF10C08082200219448FC
:10B6400017F082F90020C8F808000390C8E9030049
:10B65000356860E65368DCF8001003F5805E03F19E
:10B66000080A002900F0F1814B88033301EB8301C4
:10B670008E4540F2E7810B68013300F0E3814B888F
:10B68000033301EB83039E45C0F0DC818888B84218
:10B6900000F0D681B1F800B0BBF1000F00F0D0810E
:10B6A000EB88CCF800108342DBD100230093794A69
:10B6B0007948042302F03AFB002840F0078209EBA6
:10B6C000890308EB8308012388F8103076E6BCF87C
:10B6D0000230DFF8D48103EB830308EB8308D8F84A
:10B6E0000C30002B40F0BF8104228CF80020D8F8E9
:10B6F00004106948012202F0DFFB00283FF45EAE2F
:10B7000035680DF10C08002341F61D52C8F80830C9
:10B710000393C8E90333904208BF1846FBE5DCF801
:10B7200004205E485388848801685B4801EB8401EB
:10B730000333002400949BB203249B008CF8004048
:10B7400002F0F4FAD9E7EA88AC4641F61D5004EB62
:10B75000090108EB8101D31C0A8913440B81EA8893
:10B7600065464C4408EB8408B8F80A30033B9B1A42
:10B77000A8F80A30C5E74A4BAA694A491A604FF04F
:10B78000000B1846C3F804B0FFF708FD002800F0CE
:10B790008F810223AB7504235146CDF800B0EA181F
:10B7A0003D4802F0C3FA00283FF408AEAB7DD6F85E
:10B7B00000C0EA88022B00F2878165460E20D0E7A0
:10B7C000384B374AB3F800A051683348314A002358
:10B7D0004FF0060C85F816C00093042302F0A6FA79
:10B7E0000028E3D10AEB8A0A08EB8A08012388F8CB
:10B7F000103009B0BDE8F08F2B692748002B14BF2B
:10B80000032301230022AB750AF1080100920423EF
:10B8100005F10C0202F08AFA0028C7D1CEE5EB88C8
:10B820002A691D484FF0010C85F816C04FF0000C36
:10B830000AF10C019B00CDF800C002F077FA002855
:10B84000B4D109B0BDE8F08F02230022AB75042308
:10B8500000925146EA18104802F068FA0028A5D173
:10B8600009B0BDE8F08F032A0CBF05230623002290
:10B87000AB750AF104010092042305F108020648A1
:10B8800002F054FA002891D198E500BF14C60020B8
:10B8900000C700207447040000AF0020F0C600205D
:10B8A000F8C50020FCC6002038C600200499954A3F
:10B8B0008B88EB800B882B81934800940423BDF880
:10B8C0000A4002F033FA002840F0FB808F4B04EB73
:10B8D000840403EB84040123237409B0BDE8F08FD2
:10B8E0008B4ADCF804109388498803330B44022107
:10B8F00093808CF80010FFF7D9FBFEE6844B854A55
:10B900001968814800230093CCF8043007238CF891
:10B910000030082302F00AFAEFE6BCF80220DFF854
:10B92000EC819300134408EB830806200023D8F829
:10B930000410794A00938CF800000823724802F042
:10B94000F5F9DAE601238CF800309CF80A304BB1A7
:10B95000DFF8B881D8F80C3000228CF80A20002BD0
:10B9600000F09D809CF80B30002B43D0DFF89C81C9
:10B97000D8F8203000228CF80B20002B3AD198F810
:10B980002430BBB30123ACF80230FFF78FFBB4E6E1
:10B99000BCF80220DFF874815D4C9300991808EB25
:10B9A000810120684D68B4F804E0486002202560F9
:10B9B000A1F808E0A080B5E7DFF85081BCF80810D6
:10B9C00098F8142098F80030B2FA82F25209013146
:10B9D000B3FA83F35B098CF80B20ACF80810002253
:10B9E00001218CF80A30ACF802208CF80C208CF87D
:10B9F0000010ACE70DF10C080020C8F808008CF826
:10BA00000000ACF80200CCF804000390C8E9030081
:10BA1000356880E4013B062B3FF639AD01A252F8B0
:10BA200023F000BFABBA0200F7B802001FB7020054
:10BA3000CFB602008FB402001BB90200FDB80200AD
:10BA40009E4504D8CCF80040EBE5514610E6196855
:10BA500001311946F6D05888033003EB80039E4528
:10BA6000BFF414AEEEE72A4B2748196802229A80E9
:10BA700005228CF800200023012202F01DFA3CE68A
:10BA80000DF10C0808222146244816F05DFF0394AE
:10BA9000C8E90244C8F81040356802203BE498F831
:10BAA0001020002A3FF45EAF6DE79CF80A304EE7A5
:10BAB0000DF10C080390C8E90200C8F810000A2034
:10BAC00029E435680E2090E50E2040E635680E200A
:10BAD0000DF10C0889E500239A001A4408EB820353
