:1000000000000420B5020000DD020000DF02000055
:10001000E1020000E3020000E50200000000000031
:10002000000000000000000000000000E7020000E7
:10003000E902000000000000EB020000ED020000F9
:10004000A51E0000EF020000091F0000EF020000E3
:10005000AD260000EF020000EF020000EF020000FA
:10006000EF020000EF020000EF020000EF020000CC
:10007000EF02000009200000EF020000EF02000084
:10008000EF020000F1050000EF020000EF020000A7
:10009000C5060000EF020000EF020000EF020000C2
:1000A000EF020000EF020000EF020000EF0200008C
:1000B000EF020000EF02000000000000000000005E
:1000C000EF020000EF020000EF020000EF0200006C
:1000D000EF020000EF020000EF020000EF0200005C
:1000E000EF020000EF020000EF020000000000003D
:1000F00000000000EF02000000000000EF0200001E
:1001000000000000000000000000000000000000EF
:1001100000000000000000000000000000000000DF
:1001200000000000000000000000000000000000CF
:1001300000000000000000000000000000000000BF
:1001400000000000000000000000000000000000AF
:10015000000000000000000000000000000000009F
:10016000000000000000000000000000000000008F
:10017000000000000000000000000000000000007F
:10018000000000000000000000000000000000006F
:10019000000000000000000000000000000000005F
:1001A000000000000000000000000000000000004F
:1001B000000000000000000000000000000000003F
:1001C000000000000000000000000000000000002F
:1001D000000000000000000000000000000000001F
:1001E000000000000000000000000000000000000F
:1001F00000000000000000000000000000000000FF
:1002000010B5054C237833B9044B13B10448AFF350
:1002100000800123237010BD880000200000000032
:100220000865000008B5034B1BB103490348AFF351
:10023000008008BD000000008C0000200865000060
:10024000154B002B08BF134B9D46A3F5803A0021A8
:100250008B460F461348144A121A05F0A3F90F4BA8
:10026000002B00D098470E4B002B00D09847002061
:10027000002104000D000D48002802D00C48AFF307
:10028000008005F04FF92000290005F02BF905F05A
:1002900035F900BF00000800000004200000000045
:1002A0000000000088000020180F0020000000005F
:1002B000000000000649074A074B9B1A03DD043B78
:1002C000C858D050FBDC04F075FAFFF7B9FF000006
:1002D0009C6500000000002088000020FEE7FEE78B
:1002E000FEE7FEE7FEE7FEE7FEE7FEE7FEE7FEE7E6
:1002F00030B5C38883B004460D4613BB217A052967
:100300001DD0637AA08873B9124B53F821400021A5
:1003100002F090FC104903462246284603B0BDE88F
:10032000304001F0B5BF02F0B1FC0C4B0C4953F862
:100330002020284601F0ACFF217AA088E4E703B032
:1003400030BD084A00920849084A284601F0A0FF3B
:10035000D4E700BF6456000058560000F055000076
:10036000545600004C560000345600002C56000035
:100370002DE9F04385B01D460C9C002381460E46B6
:10038000174694F80C80237321462846FFF7B0FFE8
:10039000062F09D8DFE807F0042E343B444F1F0036
:1003A0004946204601F074FF2B7A052B05D06B7A65
:1003B0005BB92749204601F06BFF204601F05CFF46
:1003C00084F80C8005B0BDE8F083224A224920461B
:1003D00001F05EFFEDE7D6E90413F2680393B3681A
:1003E0000291CDE900324946D6E90023204601F0CA
:1003F0004FFFD9E732684946204601F049FFD3E76D
:100400004946D6E90023204601F042FFCCE7B36815
:1004100000934946D6E90023204601F039FFC3E79F
:10042000D6E90232019200934946D6E900232046DC
:1004300001F02EFFB8E7D6E90321B3680291CDE9B8
:1004400000324946D6E90023204601F021FFABE700
:10045000285600004C56000054560000082900D9C8
:1004600070472DE9F04F1D4683B000241B7B2C7391
:1004700007460E461046294691460193DFF8C8A06C
:10048000DFF8C880FFF734FF05E03A5D013401F082
:10049000FFFE082C09D0A64241462846F5D8514611
:1004A000013401F0F5FE082CF5D12249DFF8A0A0B7
:1004B000214CDFF8A080284601F0EAFE4FF0000B47
:1004C0000EE012F8081011F0970F08BF2E222146F7
:1004D00028460BF1010B01F0DBFEBBF1080F10D039
:1004E0005E4505D917F80B207E2AEAD92E22EEE7C1
:1004F000514628460BF1010B01F0CAFEBBF1080F73
:10050000EED199F80830052B02D099F809305BB983
:100510000A49284601F0BCFE284601F0ADFE019BC9
:100520002B7303B0BDE8F08F054A0649284601F059
:10053000AFFEEDE7205600002456000028560000CC
:100540004C560000545600001C5600001456000083
:10055000605600000164000030B482B001248DF8C0
:100560000740144B9DF80750186044F20104A04264
:1005700059609A6013D044F20201884206D1DA60D1
:10058000DA6812889A61DA685268DA6172B69DF8A0
:100590000730002BFBD162B602B030BC70471A6145
:1005A0001A6992685A611A6912689A611A695268DE
:1005B000DA61EBE7A400002001600B6843604A6841
:1005C000934204BF00234360704700BF082910B561
:1005D000044605D0054A40F27311002002F0FCFAEF
:1005E000D4E90030BDE81040184700BFD8560000DD
:1005F0002DE9F0432A492B4B0024C1F84041C1F8B2
:100600004441C1F84841C1F84C41C1F80041C1F82A
:1006100004411B6883B02BB32348D1F8045501680B
:100620001A68224FDFF898806D1A25F07F45AA429C
:10063000A14609D8197CDE69AD1A1444A9B91EB1C6
:1006400033461A68AA42F5D919491A4A0B78127822
:100650009A421DD01849194A41F823404FF480139B
:10066000C2F8003103B0BDE8F08383F81090D3E9FD
:1006700005320821019268463A46009303F09CF93E
:100680000028DCD0424640F2871102F0A5FAD6E7F6
:10069000531CDBB2022B08BF00230B70DAE700BF4C
:1006A00000100140E4010020E0010020CD05000021
:1006B000DD010020DC010020D401002000E100E089
:1006C000D85600002DE9F04FB14AB24913780978A5
:1006D000B14E994285B0356800F089810133DBB2B3
:1006E000022B08BF0023AD491370AD4AD1F800C0FA
:1006F00052F823200CEB020323F07F430B60002D04
:1007000000F0C2812B689A42C0F0C08100273846B1
:10071000BE4603E00B68934200F26C81EC68C5F8BA
:1007200000E0D21A1844E9693CB10CEB000323F055
:100730007F43C5E90134EF612F460D460029E9D119
:10074000316000254FF0010A964B9749DFF86C9213
:1007500043F0010301934FF00008002F33D0D7E995
:1007600001BE3C46FF698D4B90481A68ABEB020313
:1007700023F07F43834200F2018173442360002011
:100780003268E061C4E9010001202074002A00F011
:10079000F3801068984208D3DFE0DEF800C0DC4543
:1007A00080F0E08072465B466046D2F81CE0A3EB26
:1007B000000BBEF1000FF0D1C4F800B0C4F81CE08B
:1007C000D461002FCBD191F801E0087870454AD070
:1007D00084460CEB4C0C8B7801EBCC0C421CD0B259
:1007E00083429CF80430087004BF00200870022B7C
:1007F000DCF8084025D0032B19D0012BE6D1237C4F
:10080000002BE3D1DCF80CB0C4F804B0DCF810E045
:10081000C4F808E0DCF81420E26099F80020DCF865
:100820001800A061002A9ED063609B469BE7336856
:10083000002BCBD000221A74DB69002BFBD1336074
:10084000C1E733685BB19C4200F0BA809B4602E08E
:10085000944261D09346DBF81C20002AF8D1002393
:1008600023747045B4D13668B8F1000F01D1B54298
:100870002CD086B3494A4E4B1468D3F80475DFF880
:100880003881366898F800203D1B25F07F450335F8
:10089000002A00F0B680AE422CBFA4196419444A65
:1008A00024F07F44C2F84045D2F80435DB1BE41B3A
:1008B00023F07F4324F07F440333A34200F2BA8045
:1008C000002389F8003005B0BDE8F08FBAF1000FC1
:1008D000F6D0002ECED1364D364A324C4FF4003190
:1008E0004FF480330127C2F880103C43C5F84833E9
:1008F0004FF43C60C5F808336F60A047274BAF60EA
:100900004FF43C601E60A0472B4B1E70002389F8FB
:10091000003005B0BDE8F08F5C4553D0E069D4F8F5
:1009200000E0CBF81C0000285BD09C4602687244B3
:100930000260634518BF4FF001080023087891F862
:1009400001E023748DE7326800230120C4E90033FD
:10095000A360E36120747AB110683460C31A136035
:10096000E261FAE66044C31ACEF80030C4F800B081
:10097000C4F81CE0D46124E73460EEE6A2EB0B027D
:1009800022F07F427245DED2AEEB02032360F6E630
:10099000DC010020DD010020E4010020E001002056
:1009A000D4010020D0560000C4000020FEFF7F00CC
:1009B0000010014000E100E0D1010020D001002042
:1009C000A3462246D3F81CC0C6F800C0BCF1000FF5
:1009D00045D0D069D2F800E0CBF81C000028A5D1A2
:1009E000A7E70023087891F801E0237439E700278E
:1009F000BA46A9E631600D469B1A0B604FF0010A1A
:100A0000A2E62449244A4FF48030C3F844034FF04F
:100A1000010AC3F804034FF40030C1F8800142F02A
:100A200001020860C3F800A04FF43C60904788F8CA
:100A300000A030E7184BD2F80415C2F8401543F077
:100A400001034FF43C609847124B4FF40032C3F857
:100A50000021002389F8003005B0BDE8F08FCDE912
:100A600002320E4BDFF83CE001209860019B89F8D0
:100A70000000CEF800C04FF43C609847D6F800C0A4
:100A80000749DDE90232A4E72F465AE62946002746
:100A9000B2E700BF00E100E0D056000000100140C6
:100AA000C4000020E00100202DE9F8431F4D204E36
:100AB000204FDFF898804FF480334FF400324FF02E
:100AC00001090024C6F8802047EA0907C5F8483321
:100AD0004FF43C60C5F80833C5F80490B847C5F832
:100AE00008904FF43C60C8F80040B847124A134BD6
:100AF00013491C601470134B134A0C700B211470B3
:100B00001C8099704FF48012C023C6F8802186F8AB
:100B100014333260C5F8084586F81133D5F804352A
:100B2000C8F800302046BDE8F88300BF001001403F
:100B300000E100E0D0560000D1010020E4010020D7
:100B4000DC010020C4000020DD010020E0010020C5
:100B5000074B9B783BB142B138B10368187C10B9A0
:100B600059745A617047082070470720704700BFCA
:100B7000C40000202DE9F843224CA378002B35D087
:100B8000002833D0042934D943697BB3437C06461B
:100B9000012B4FF000000CBF88468046174689465F
:100BA00001F0C4FF6378A17822785D1CEDB2A94200
:100BB00008BF0025AA421FD003EB430304EBC30385
:100BC0000121114A9E601971D2F80425DA600020D3
:100BD000C3E904989F61657001F0B0FF0B4B4FF4BF
:100BE0008012C3F800210020BDE8F8830820BDE88A
:100BF000F8830720BDE8F883002001F09FFF042060
:100C0000F2E700BFC40000200010014000E100E056
:100C100008B500F0ABFE0421034802F0EBFD034BE6
:100C200001225A7108BD00BF5C6500000000002071
:100C300030B50478012C83B026D0B4B1022C12D187
:100C4000384B394D1A78C168AA5C01918DF8004083
:100C5000002A35D0181D0122344903F0BDF9344B68
:100C600068461B68984703B030BD3249324802F0ED
:100C7000A3FF002833D02E4B03221B688DF80020E1
:100C80006846984703B030BD43682C4D1978284614
:100C900002F07AFFD8B9AA68EB689A4205D0244BD3
:100CA0008DF800001B6868469847A968EB68AA8819
:100CB0005B1A9A421ED2224B01221A7003B030BD39
:100CC00003F10C000122194903F0D4FCC7E7184BCB
:100CD00001908DF800401B6868469847E5E7114889
:100CE000114A0378D35CB3B101221249043003F0F6
:100CF00013F9B8E70B480C4A0378D35C2BB10122F7
:100D00000A49043003F068F9ADE7012207490C30C5
:100D100003F0B0FCA7E7012206490C3003F038FCD1
:100D2000A1E700BF08000020E00E00201002002014
:100D3000E80100201402002000020020EC01002045
:100D4000FC0100202DE9F045324C89B022600029D9
:100D500054D00C4680468A882F4809689A4602F08B
:100D600003FF10B109B0BDE8F085A289A1682B4846
:100D700002F0FAFE0028F5D1294D98F810C0294E4E
:100D8000D8F814700FCD6C460FC495E80F0098F892
:100D900011501CF1000C18BF4FF0010C002D84E81D
:100DA0000F00D8F80850D8F80C40D8F8043006974F
:100DB00014BF0E2200228DF81520D8F800701A4AB0
:100DC0008DF81CA0694630468DF814C00197CDE916
:100DD0000245009300F03EFF0028C3D1D8F8003050
:100DE000124A01331070BDD0114A3378D35C4BB135
:100DF000301D01220F4903F0EFF8B3E7072009B0D7
:100E0000BDE8F08506F10C0001220A4903F032FC2E
:100E1000A8E700BFE8010020EC010020000200204C
:100E20003857000008000020310C0000FC010020B1
:100E3000E00E00201002002008B5054802F0D2FEA6
:100E400000B108BD0348BDE8084002F0CBBE00BFBA
:100E5000EC0100200002002070B5124C014612483F
:100E6000267802F0A9FE05460EB9284670BD0F4847
:100E70000F4A0378D35C0022227063B10430012250
:100E80000C4903F0A9F80028EFD00B4ACE2101F05D
:100E9000A3FE284670BD012206490C3003F0EAFB90
:100EA000F1E700BFFC010020EC0100200800002059
:100EB000E00E0020100200205857000070B50146D7
:100EC000154802F061FE044608B1204670BD134D7E
:100ED000134E2B78F35CA3B1281D03F06FF80028A4
:100EE000F3D110490C4802F067FE0028EDD12B78B1
:100EF0000C49F35C01224BB10B48BDE8704003F094
:100F00000BB805F10C0003F0A9FBE8E70748BDE8C2
:100F1000704003F03DBB00BF00020020080000202D
:100F2000E00E0020140200200C000020140000201D
:100F30002DE9F84F88469045164605461F46DDE9DF
:100F40000AB177D343464FF00109B3FBF6F39E4253
:100F500009F10109F9D9B94538BFB94611F0010ABB
:100F6000AA6802D1BBF1000F45D1012402E0013F84
:100F700006FB04F4012FFAD8B8FBF4F18E42F7D93E
:100F80002E4F07E0B442B4FBF6F315D3B8FBF3F1F0
:100F9000AA681C46531CAB602B68785C9854D5E952
:100FA00001329A4204FB1188ECD3284601F064F91F
:100FB000B4FBF6F3B442E9D2BAF1000F15D0BBF19D
:100FC000000F12D0CB4510D92024AB682A68591CD9
:100FD000A960D454D5E901329A420BF1FF3B06D205
:100FE000BBF1000F01D0CB45EFD1BDE8F88F28460B
:100FF00001F042F9F4E78B0717D42024CB45B4D98C
:101000002B68511CA9609C54D5E901329A420BF11E
:10101000FF3B05D2BBF1000FA7D0CB45F0D1A4E731
:10102000284601F029F9AA68F4E7002F0CBF302404
:101030002024E3E74FF001098DE700BFA857000027
:10104000002900F042822DE9F04F054683B0934617
:101050000C460B7801E0237893B1013483B1252B42
:1010600015D0AA682968501CA8608B54D5E90132B4
:101070009A42F0D3284601F0FFF82378002BECD1F8
:101080002B7B002B40F0198103B0BDE8F08F214687
:10109000002711F8012B2D2A00F0E580302A00F0FE
:1010A000E6802B2A00F0D6802A2A00F0E480A2F104
:1010B0003006F3B2092B03D903E2A3F1300601464F
:1010C000084606EB860310F8012BA2F13004092C28
:1010D00002EB4303F1D92E2A00F0D9804FF000082B
:1010E00002F0FB03682B01F1010405D114F8012B78
:1010F00002F0FB03682BF9D0253A532AABD801A3A1
:1011000053F822F0E31200005710000057100000BF
:101110005710000057100000571000005710000033
:101120005710000057100000571000005710000023
:101130005710000057100000571000005710000013
:101140005710000057100000571000005710000003
:1011500057100000571000005710000057100000F3
:1011600057100000571000005710000057100000E3
:1011700057100000571000005710000057100000D3
:1011800057100000571000005710000057100000C3
:1011900057100000571000005710000057100000B3
:1011A00057100000571000005710000057100000A3
:1011B0005710000057100000571000005710000093
:1011C0005710000057100000571000005710000083
:1011D000FD120000571000005710000057100000CB
:1011E0005710000057100000571000005710000063
:1011F000571000005710000057100000191300008E
:101200003B1300005710000057100000571000005B
:10121000571000003B13000057100000571000004B
:101220005710000057100000571000005710000022
:10123000C9130000571000005710000043140000AD
:1012400057100000C7120000571000005710000090
:10125000FD12000047F004070C46214611F8012B4F
:101260002D2A7FF41BAF47F001070C46F5E747F046
:1012700002070C46F1E7DBF800301A1DCBF800201E
:1012800062781E682E2A04F102007FF427AF4A78A4
:10129000A2F13003092B01464FF000083FF620AFC2
:1012A00008EB880802EB480811F8012FA2F130037F
:1012B000092BA8F13008F3D912E7284603B0BDE89E
:1012C000F04F00F0D9BFDBF800301A1DCBF800203A
:1012D00019680197434600960A222846FFF728FE20
:1012E000B9E6AB682A68591CA9604FF02501D154B2
:1012F000D5E901329A42FFF4AEAEBBE6DBF800302E
:101300001A1DCBF800201968019743460096102259
:101310002846FFF70DFE9EE6DBF80020131DCBF8F4
:101320000030AB6829681278581CA860CA54D5E907
:1013300001329A42FFF48FAE9CE6DBF800301A1DB2
:10134000CBF80020D3F8009089EAE972A2EBE972A9
:10135000092A4FF0010A01DC09E01A46B14B632A61
:10136000A3FB02130AF1010A4FEAD303F5DCC245DD
:1013700038BFC24607F00203002E40F0A780002BC2
:1013800040F0FA800026B9F1000FC0F2E2807A073F
:101390000CD5AA682B68501C2B21A8609954D5E95C
:1013A00001329A4202D3284600F066FF07F0030399
:1013B000022B00F00A81CDE90067434649460A2224
:1013C0002846FFF7B5FD46E6DBF80020131DCBF8F5
:1013D0000030AB6829681768581C3022A860CA54CE
:1013E000D5E90123934280F012812A68581C7821A4
:1013F000A860D154D5E90123934280F003810F2FD7
:1014000003D93A4612090F2AFCD84FF0805606E05D
:101410000F2E4FEA16137FF61EAE1E46AB682968E4
:10142000B7FBF6F2581CA8607F48805CC854D5E929
:101430000131994206FB1277EAD3284600F01CFFDF
:10144000E6E7DBF800301A1DCBF80020D3F8008067
:10145000FB075FD598F80020002A00F0E180AB6818
:101460004746C8F101092968581CA860CA54D5E943
:101470000123934209EB07081AD217F8012F002A1B
:10148000F1D146457FF6E7AD202702E046453FF41F
:10149000E2ADAB682A68591CA960D754D5E901327E
:1014A0009A4206F1FF36F1D3284600F0E5FEEDE75B
:1014B000284600F0E1FE17F8012F002AE1D0AB68C2
:1014C000D1E708460026214605E67047B9F1000F2E
:1014D00001DB780700D5013E002B48D1F9073FF525
:1014E00052AF002E3FF44EAFB245BFF44CAF2021B7
:1014F000AA682B68501CA8609954D5E901329A4219
:1015000006F1FF3641D2002E3FF43CAFB245EFD199
:10151000564638E7B8F1000F35D0404604F052F88F
:101520000746BE4236D9AEB34FF0200901E0BE42B5
:1015300030D0AB682A68591CA96002F80390D5E93D
:1015400001329A4206F1FF36F1D3284600F094FEAC
:10155000EDE7AA682B68501C2D21A8609954D5E9A5
:1015600001329A42C9F10009FFF420AF1BE7B8F13C
:10157000000F3FF408AFB1E7B8F1000F4ED0FB0702
:101580003FF501AFFEE64746CBE7284600F074FE84
:101590002021B8E798F80020002A3FF45CADAB6842
:1015A0002968581CA860CA54D5E90123934204D283
:1015B00018F8012F002AF3D14DE5284600F05CFE13
:1015C00018F8012F002AEAD145E5B8F1000F7FF4A1
:1015D000F2AE0EB3B245BFF4EEAE3021AA682B686E
:1015E000501CA8609954D5E901329A4206F1FF36A1
:1015F00003D28EB1B245F1D1DDE6284600F03CFEC3
:101600003021F6E7284600F037FEAB68F7E62846BB
:1016100000F032FEAB68E8E60026CCE64646B2E6CD
:1016200090462EE7CDCCCCCCA8570000064B1A5CD8
:101630001F2A86BF02F01F0204494FF0A041012378
:101640009340C1F808357047B857000000030050B8
:10165000064B1A5C1F2A86BF02F01F0204494FF096
:10166000A04101239340C1F80C357047B8570000E2
:10167000000300500A4B185C1F288ABF09494FF02D
:10168000A04100F01F00D1F804350122824022EA77
:1016900003001340C1F80805C1F80C35704700BFBE
:1016A000B857000000030050C10709D4830741BFA9
:1016B0004FF0A0430C22C3F82C27C3F80027704733
:1016C0004FF0A0431249032270B4C1F830274FF401
:1016D0008056C3F834274FF40055C3F838274FF429
:1016E0008044C3F83C274FF40042C1F80C65C3F8AE
:1016F0000C55C3F80C45C3F80C25820706D54FF0EE
:10170000A0430C22C3F82C27C3F8002770BC7047F5
:10171000000300502DE9F04F4400DFF870B12618A7
:101720000BEBC60683B0F76A012F80468A469146C6
:1017300042D0002F63D0022F39D100F1010808EB0D
:101740004808756A4FEAC8080027B36A346AAB4292
:1017500003F1FF329CBF1B1903F1FF33A4EB050417
:101760008CBF531B5B1B0BEB08024C4528BF4C4640
:101770009C42506828BF1C4628445146224603F02C
:1017800003FF336A25449D422744A9EB0409A24480
:1017900007D07562B9F1000FD7D1384603B0BDE864
:1017A000F08F00257562B9F1000FCED1F5E7002763
:1017B000384603B0BDE8F08FD6E90835B76AAF42C6
:1017C00098BFFF18461C013F06EB46067F1B0BEB3C
:1017D000C606974228BF17467068A3EB05094F4518
:1017E00028442DD23A4603F0CFFEA0440BEBC80BA1
:1017F0003D443846CBF8245003B0BDE8F08FB36ABF
:10180000756AAB429CBF316A5B18013B5B1B9A4215
:10181000C3D8044400F101080BEBC40408EB4808EA
:101820000BEBC80B236ADBF804005E1BB2422844B2
:1018300015441BD2514603F0A7FE4F466562ACE744
:101840004A46019303F0A0FE019B7068ED1A3D44E7
:101850000AEB09012A4603F097FEA0440BEBC80BE4
:101860003846CBF8245003B0BDE8F08FED1A32466D
:10187000514603F089FE0AEB0601DBF804002A4614
:1018800003F082FE4F46656287E700BF680E0020C6
:1018900038B5114C114B1248E36110254FF4007319
:1018A000104A11492362E06400232565E01D0225EA
:1018B000A3626362E362A3656365E365A261A264F8
:1018C000C4E9045503F076FE2046084903F072FE91
:1018D0002023A37138BD00BF680E0020280200201D
:1018E00018020020BC570000C8570000CC57000069
:1018F000704700BF00B583B0044B0093044A4023F7
:1019000000F0ECF903B05DF804FB00BF151900000E
:101910002C04002002B32DE9F843114B114E8846E8
:10192000144643F0010903270025224608EB050170
:101930000020FFF7EFFE03461D444FF47A40E41AFF
:1019400023B9337833B1C847013F06D00123337040
:10195000002CEAD1BDE8F88370473770BDE8F88302
:10196000E057000028040020704700BFFFF790BF39
:1019700000F0E4B82DE9F041058ACF1C043D2F4466
:101980000646B7FBF5F700F0F5F8002834D0FFB2B3
:101990004FF48073013F0446C580066083802CD0DD
:1019A0008046002509E06379AF4203F101036371CA
:1019B000C8F80000066080461FD0304600F0DAF814
:1019C00001350028EFD194F805802768B8F10103AC
:1019D00016D03D46013083422D68FBD1B8F1000F8F
:1019E0000AD0002601E03C463F68214601362846E1
:1019F00000F0E6F8B045F6D800242046BDE8F081B6
:101A00002146384600F0DCF8F6E700BF043001213B
:101A100000F0E2B92DE9F04101210446043000F064
:101A2000E7F9C0B208B1BDE8F08194F805802568F7
:101A3000B8F1010314D02E46013083423668FBD141
:101A4000B8F1000FEFD0002701E02C462D682146A9
:101A50000137304600F0B4F8B845F6D8BDE8F0815B
:101A600021462846BDE8F04100F0AAB82DE9F84328
:101A70000546C6884079144606FB00F2043A04EB9A
:101A8000030C1F1D624538BFD41ABE428846B7FBFF
:101A9000F6F106FB117002D801392D68FCD1371A16
:101AA000A74228BF27469CB14FF000090430E41B31
:101AB00028443A4608EB090103F066FDA642B94402
:101AC0002D6837464FF0000028BF2746002CEDD187
:101AD000BDE8F8832DE9F8430546C68840791446E9
:101AE00006FB00F2043A04EB030C1F1D624538BFED
:101AF000D41ABE428846B7FBF6F006FB107102D836
:101B000001382D68FCD1771AA74228BF27469CB11F
:101B10004FF0000904312944E41B3A4608EB090060
:101B200003F032FDA642B9442D6837464FF000015C
:101B300028BF2746002CEDD1BDE8F883B8B130B4FA
:101B4000D0E90112521A0468D2B2531E2160DBB2EE
:101B500042B101680A685C1E551C0D601370E3B247
:101B6000FF2BF6D103680020187130BC70470E209F
:101B7000704700BF38B50446002000F0D7FFD4E915
:101B800000311A688A4215D9511E19602168A3686C
:101B90000868258A12F8012CE4681B1A0879DBB260
:101BA000984205FB024400D20B71002000F0C6FFF2
:101BB000204638BD0024002000F0C0FF204638BD7C
:101BC00038B5054600200C4600F0B0FF2A681368BF
:101BD000591C1160E9682A8A641AB4FBF2F41C707B
:101BE0000020BDE8384000F0A9BF00BF30B585B087
:101BF000047845688DF80040D0E90240064A074B5A
:101C0000039053F8213001958DF8084052F82110C7
:101C10006846984705B030BD6C040020740400206D
:101C200030B585B0047845688DF80040D0E90240B1
:101C3000064A074B039053F8213001958DF8084070
:101C400052F821106846984705B030BD6C0400205A
:101C5000740400202DE9F043DFF8748006784B7F90
:101C600008F806300D46074696460FCD89B06C46FB
:101C70000FC495E80F003D78DFF85890DFF858C0A2
:101C800018F8055049F826E084E80F004CF82600C3
:101C9000049665B1BEF1000F0B4A694607F10400D6
:101CA00008BF002202F036F809B0BDE8F083BEF1AB
:101CB000000F064A694607F10C0008BF002202F037
:101CC00077FB09B0BDE8F083ED1B0000211C00008C
:101CD000E00E0020740400206C040020F0B595B0E4
:101CE000002415460F4608461E46FFF78FFE38466D
:101CF00023460895082205A91A9D09960D950A9470
:101D00008DF82C400C94FFF7E5FE9DF814308DF80B
:101D10001140DDE9061003F00302012ACDE90201BA
:101D200027D0022A04D03846FFF774FE15B0F0BD64
:101D3000BDF81650C3F3C2038DF81030AD09082664
:101D4000082D2C4628BF0824334622460EA93846C3
:101D5000FFF7C0FE2D1B214608AB02AA0EA82644A1
:101D6000FEF77CFB002DEBD13846FFF753FE15B094
:101D7000F0BDBDF81460059DC6F38316C3F3C2041D
:101D8000B2000EA9384608238DF81040C5F39525FA
:101D9000FFF7A0FE08AB324628460EA9009302AB1F
:101DA000FEF7E6FA3846FFF735FE15B0F0BD00BF86
:101DB00050E8002F0B4640E8003C9CF0000FF7D1A4
:101DC0001046704750E8003F0A4640E8002C9CF05F
:101DD000000FF7D11046704750E8003F03EB0102B7
:101DE00040E8002C9CF0000FF6D11046704700BF71
:101DF00050E8003FA3EB010240E8002C9CF0000FEC
:101E0000F6D11046704700BF012350E8002F42EA88
:101E1000030C40E800C191F0000FF6D16046704716
:101E2000002350E800CF0CEA030240E8002191F0C3
:101E3000000FF6D160467047044A137923B9012197
:101E40001060918018467047852070477C04002000
:101E5000074B1A68D20704D4C021012283F800136B
:101E60001A604FF080430122C3F81825704700BF65
:101E700000E100E010B4094B094A0021196083B069
:101E80001B680193019C4FF0804102200123C1F89F
:101E90000403136003B05DF8044B70470401004075
:101EA0000800004010B5154B1A6882B062B10021DD
:101EB000134A19601B68507900934FF08041012349
:101EC000009CC1F80833A8B10E4B1A6882B10022F9
:101ED0001A601B6801934FF080420221084B019861
:101EE000C2F808131B68012002B0BDE81040184773
:101EF00002B010BD116853718847E5E7000100404A
:101F00007C04002004010040014B1B68184700BFFF
:101F10008404002038B50C4B984213D100200D46A4
:101F200000F004FE094B1C7924B1002000F006FEED
:101F3000112038BD012220461D601A7100F0FEFDFF
:101F4000204638BD002038BD002000408404002019
:101F5000826800239360826813618268536182689B
:101F6000D36082685360826813607047134A1378A5
:101F70000BBB30B40378124CDB07216006D5114946
:101F8000D1F8043543F00103C1F804350D4C0E4976
:101F9000D4F8003223F00103C4F8003243785B0127
:101FA0004FF400550124DBB281F80D330D6014703D
:101FB000002030BC70478520704700BF900400208F
:101FC0008C04002000D0004000E100E0064A074BEE
:101FD0000021116082B01268019201990122C3F8B8
:101FE00004231A6002B0704700D1004000D00040C6
:101FF0000349044A0123C1F808331360704700BF46
:1020000000D0004004D00040074B0849084A002097
:10201000186082B01B680193019BD1F80805136812
:10202000C0B202B0184700BF00D1004000D000404D
:102030008C04002000B583B00DF107018DF8070076
:10204000074802F06DF8064802F05CF810B903B0DA
:102050005DF804FBFFF7CCFF03B05DF804FB00BFA5
:102060008065000038B50E4C2278AAB90D4A0E4999
:102070000346002808BF134620461B8820F8013F6E
:10208000FFF774FF054608B1284638BDFFF79EFFED
:1020900001232370284638BD8525284638BD00BF5A
:1020A000E4040020045800003520000030B585B05D
:1020B000047885888DF800408468ADF804508DF868
:1020C0000640C568074A084B8DF80750D0E904045C
:1020D00053F8213052F82110CDE9020468469847A0
:1020E00005B030BDE8040020F00400202DE9F04FD9
:1020F000814607785B4D5C4845F827300C46497BA4
:1021000040F8272083B0924669B9584ABAF1000FC7
:102110003B46214609F1040008BF002203B0BDE898
:10212000F04F00F0ABBB2268514DDFF848814FF013
:10213000A04302F5E07240F20C6143F8221062689D
:1021400002F5E072012643F8221021681F2984BF9E
:1021500001F01F0103F5407301228A40C3F80825EE
:1021600063681F2B8ABF434A4FF0A04203F01F034E
:1021700006FA03F3C2F8083523684FF0A04B03F5C5
:10218000E07340F20D624BF82320636803F5E073BF
:1021900035434BF823204FF48070A847CDF804B0A6
:1021A0004FF0000B63681F2B8ABF40464FF0A040E2
:1021B00003F01F0CD0F8100598BF9C4620FA0CF0D5
:1021C000C2074FF0A04148D423681F2B84BF41466B
:1021D00003F01F0306FA03F3C1F80C354FF48070C7
:1021E000A847236803F01F011F2B06FA01F106FA26
:1021F00003F24FF4807024D9C8F808150BF1010BD5
:10220000A847BBF1090FCDD163681F2B8ABF1949BD
:102210004FF0A04103F01F03012202FA03F3C1F8BB
:102220000C354FF48070A84762681F2A86BF02F001
:102230001F0210494FF0A04101239340C1F8083517
:1022400063E7019B4FF48070C3F808250BF1010B85
:10225000A847BBF1090FA5D1D6E7BBF1000FD4D138
:1022600053E700BFE8040020F0040020AD20000088
:102270001058000000030050826842B110B50446B7
:1022800043690168006998470023A36010BD704747
:102290000EB400B582B0039921B104AB01AA019339
:1022A000FEF7CEFE02B05DF804EB03B0704700BF4E
:1022B0002DE9F0438FB0774C00940024C1F804411D
:1022C000D1F804510495049DC1F82441D1F824515A
:1022D0000395039DC1F81C41D1F81C510295029D44
:1022E000C1F80841D1F808510195012B446380F8E9
:1022F0002E400CBF02240124019DC1F8004201249C
:102300000C620C6005684DB140F2862383608368DF
:10231000C1F8043300200FB0BDE8F083009E002E0A
:102320003DDD264603F1FF394FF0020C16E0D1F8EF
:102330002471D0F83480002F59D0C1F82441D1F84D
:1023400024410A940A9C4E6180F82E6043451BD0BC
:10235000009C013C0094009C002C20DD90F82E4055
:10236000002CE4D0C1F82451D1F824410B940B9CEB
:10237000C1F81C51D1F81C410C940C9CC1F80851B7
:10238000D1F808410D940D9CD1F80441002CDFD008
:102390000023C1F80431D1F804310593059B90F86E
:1023A0002E30C3B1D1F8C434C1F8C4349BB113F09A
:1023B000010F18BF4FF4024048F2012208BF03206A
:1023C00013F0020F18BF104648F2022213F0040F58
:1023D00018BF104600E00020009B002B9BDC002271
:1023E0000523C1F800250320C1F8003593E7D1F893
:1023F0001C4194B1C1F81C71D1F81C410994099C8D
:10240000D1F824412CBB446BA3423ED9145DC1F8E2
:102410001C45446B0134446398E7D1F808E1BEF1F0
:10242000000F93D0C1F80841D1F808E1CDF81CE0C5
:10243000DDF81CE0D1F824E1BEF1000F13D0C1F8A3
:102440002441D1F824410694069C4E6180F82E6008
:102450007CE7C1F82471D1F824410894089C4E61AE
:1024600080F82E6072E7446BA3427FF66FAFD1F81D
:1024700018E502F804E0446B01344C45446306D08F
:10248000A3423FF463AF0E6260E74E615EE7C1F8BE
:1024900000C2F8E7A08601002DE9F0438FB0824C1E
:1024A00000940024C1F80441D1F804510495049D1E
:1024B000C1F82441D1F824510395039DC1F81C4172
:1024C000D1F81C510295029DC1F80841D1F808517C
:1024D00001950125019EC1F80042446380F82E4019
:1024E0000D628D60446B9DF85870A34211D9145D44
:1024F000C1F81C45446B2C444463056885B140F227
:10250000862383608368C1F8043300200FB0BDE8E0
:10251000F083002F40F0A0804D610568002DEED1C2
:10252000009C002C3EDD03F1FF3C01264FF0020E23
:1025300017E0D1F82481D0F83490B8F1000F59D0C9
:10254000C1F82441D1F824410A940A9C4E6180F8D4
:102550002E604B451BD0009C013C0094009C002C3D
:1025600020DD90F82E40002CE3D0C1F82451D1F8A2
:1025700024410B940B9CC1F81C51D1F81C410C94C4
:102580000C9CC1F80851D1F808410D940D9CD1F86C
:102590000441002CDFD00023C1F80431D1F804310C
:1025A0000593059B90F82E30C3B1D1F8C434C1F81F
:1025B000C4349BB113F0010F18BF4FF4024048F22E
:1025C000012208BF032013F0020F18BF104648F283
:1025D000022213F0040F18BF104600E00020009BF9
:1025E000002B93DC00220523C1F800250320C1F84D
:1025F00000358BE7D1F81C4194B1C1F81C81D1F8AA
:102600001C410994099CD1F824413CBB446BA34272
:1026100040D9145DC1F81C45446B0134446398E70C
:10262000D1F80881B8F1000F93D0C1F80841D1F872
:102630000881CDF81C80DDF81C80D1F82481B8F128
:10264000000F15D0C1F82441D1F824410694069C0E
:102650004E6180F82E607CE7CD614EE7C1F82481A1
:10266000D1F824410894089C4E6180F82E6070E7F0
:10267000446BA3427FF66DAFD1F8188502F8048051
:10268000446B0134644544630AD0A3423FF461AF14
:102690000E625EE70FB94E615BE70123CB6181E714
:1026A000C1F800E2F4E700BFA0860100F0B5714C6C
:1026B00094F82E2093B04FF040239AB9D3F8241108
:1026C000A56A606B00294AD0C3F82421D3F82421DD
:1026D00008920122089984F82E205A61854214D06C
:1026E00013B0F0BD0022C3F82421D3F824110991BE
:1026F0000999C3F81C21D3F81C110A910A99C3F84F
:102700000821D3F808310B930B9B4FF04023D3F8EB
:102710000421002AE4D00022C3F80421D3F80431B4
:102720000393039B94F82E30276A002B52D1217B10
:102730008B1E012B66D9504E0FCE0DAD0FC53368E1
:102740002B6000238DF830300023790784F82F3078
:10275000C6D4D4E900310CA8984713B0F0BDD3F823
:102760001C21666AB2B1C3F81C11D3F81C21079270
:10277000079AD3F8242194F82C70002A56D0C3F875
:102780002411D3F8242106920122069984F82E20E0
:102790005A61A3E7D3F8081100299FD0C3F8082194
:1027A000D3F8081105910599D3F82411002943D1D4
:1027B000854293D9D3F818253254626B691E0132D1
:1027C0008A42626351D095428AD04FF04023012261
:1027D0001A6285E7284E0FCE0DAD0FC533682B600A
:1027E0004FF04022D2F8C434C2F8C4349A0703D55B
:1027F00001238DF83030A7E7580744BF02238DF836
:102800003030A1E7626AA3699A4294D1E2696369B0
:10281000C7F34017032984F82C70C4E909231BD09F
:102820004FF040211348FFF743FD59E785420DD88B
:102830000122C7B95A6151E7C3F82421D3F82421F2
:1028400004920122049984F82E20F3E7325CC3F845
:102850001C250130606343E700974FF04021054895
:10286000FFF71AFE3CE7DA615CE70222C3F80022B8
:10287000ABE700BFF8040020040500202DE9F04F6D
:1028800090F804A0DFF80C814FEA0A19A9EB0A07B7
:10289000BF0008EB070683B096F82D50002D62D1DB
:1028A0000C4605463749006801939346FFF732FB13
:1028B000002862D148F807B0019BB060736086F8C9
:1028C0002F0086F83000637B86F8383023681F2B92
:1028D00086BF03F01F032C494FF0A04103F5E073BE
:1028E00040F20C6641F8236063681F2B86BF03F03B
:1028F0001F0325494FF0A04103F5E07340F20C6639
:1029000041F82360D4E900362968C1F80835C1F8D8
:102910000C65A368C1F82435BBF1000F19D02A68F3
:10292000237B120B51B25B010029DBB21FDB01F1EB
:10293000604101F5614181F800332B68134C1B0B9A
:102940005AB2520903F01F03012101FA03F344F8BC
:102950002230A9EB0A0908EB8908012388F82D30F9
:1029600003B0BDE8F08F082003B0BDE8F08F084940
:1029700002F00F0211440B76DFE7112003B0BDE82F
:10298000F08F00BFAD2600000003005000E100E022
:10299000FCEC00E0F80400200379064A0168C3EB70
:1029A000031302EB83030220052283F82D00C1F8F4
:1029B00000257047F80400202DE9F04F0479DFF876
:1029C000B090D0F800A02948CAF808038DB0C4EB35
:1029D00004184FEA880809EB08059DF858B095F8E7
:1029E0002F6004950020BBF1000F2C4614BF20245B
:1029F00004460394CDE90700CDE909000B906EBBB6
:102A00008DF81D1008930A9207AC9C4617468E4617
:102A10000FCC05F10C060FC6246805940123039C16
:102A200085F82F30CAF888E5CDF800B02C62059CF7
:102A3000049885F82CB063463A465146C5E9097CAE
:102A40003460FFF729FD59F8083013B10DB0BDE827
:102A5000F08F85F82F300DB0BDE8F08FAB68CAF865
:102A6000043311200DB0BDE8F08F00BF8642040092
:102A7000F80400202DE9F04F0579DFF8AC90D0F88C
:102A800000E02848CEF80803C5EB05184FEA88088F
:102A900009EB080489B094F82F6000940020CDF869
:102AA0001200CDF80E00CDF81600CDF81A00ADF8E2
:102AB0001E0086BB9C464FF0010B06F0FF0A8DF806
:102AC0000D10CDF810C006928DF80CB003AE17466D
:102AD00001910FCE04F10C050FC53668019B84F8F7
:102AE0002FB03A46CEF88835714663460098C4F850
:102AF00020A0C4E9097C84F82CA02E60FFF7D8FB45
:102B000059F8083013B109B0BDE8F08F84F82F30C0
:102B100009B0BDE8F08FA368CEF80433112009B0E6
:102B2000BDE8F08F86420400F804002072B6024A25
:102B3000136801331360704734050020034A13689B
:102B4000013B136003B962B6704700BF3405002033
:102B500030B41F49A1F58C728B1ADB1003EBD373D1
:102B60005B10DD0052F83330984202EB050420D2AE
:102B7000A24218D2ED1005EBD5756D1002EBC50120
:102B800052F83530984205D310E052F8333098426D
:102B90000FD221468B1ADB1003EBD3735B108A42F2
:102BA00002EBC304F1D30B4830BC704722460C46FD
:102BB0001146984204D904F108028A42CCD3F2E7C4
:102BC0006068044B30BC002808BF1846704700BF3F
:102BD000485900001C58000000B583B002900091D5
:102BE000019244F2010071466A4602F071F903B0A5
:102BF00000BD00BF38B50C4B0C4800240025002256
:102C0000FF21C3E90045C3F81824996083F8202404
:102C1000C3F81424FEF7ACFE044610B90448FFF7CD
:102C200097F9204638BD00BF080600206C650000FB
:102C3000085D0000A9B1124B12495B1ADB081AD0DB
:102C400030B4114C2288824217D0002203E034F8BD
:102C5000225085420AD001329342F8D1002030BC84
:102C60007047084A02EBC0021068704701EBC202CD
:102C7000106830BC7047184670470A46F8E700BF36
:102C80005C6500000C65000088000020094B0139DC
:102C900003EBC00003290BD8DFE801F002080604AB
:102CA00002207047407970470079704704207047D0
:102CB000002070470C6500002DE9F04F9D4CD4E9D1
:102CC00000239A4289B000F030810023C4F8183400
:102CD000BFF34F8FD4E9013503EA0501CA1C04EBA9
:102CE000820614F8222050071BD52768327802F09C
:102CF0000302012A00F00781022A03D172880233FD
:102D000003EB921303EA0501D4F81804CA1C04EB80
:102D1000820630B99F4240F2048114F82220520703
:102D2000E4D404EB81015A1CC96802912A4004EBE7
:102D3000820201F00301D2680392022903F1020624
:102D400000F00281012900F06581D4F810543DB1F2
:102D50002B6828469B689847EB681D68002DF7D1C3
:102D6000754A764BD4F808809B1ADB080020019343
:102D7000FFF7DCFED4E90132D4F8009013440133AC
:102D8000A3EB0903012B00F294816D4D2F1FA5F1D8
:102D9000080601212846FFF71FF83846FFF734F8E8
:102DA0003046FFF731F8D4E9013E03EA0E01C81CB2
:102DB00004EB800214F8200010F0040000F0A08062
:102DC00003F1020C92F800B00BF0030BBBF1010F02
:102DD000E24600F09080BBF1020F7CD0CA1C04EBED
:102DE00082020028EED104EB81010133CA6805920A
:102DF00003EA0E0304EB830302F00302012AD968FD
:102E000000F08780022A5CD1BDF816309B0903339D
:102E10004FEA114B0AEB930A3046FFF701F8594687
:102E2000002856D02846C4F804A0FEF7D5FFD4E900
:102E300001322168134401335B1A012BA9D90A40DE
:102E4000033205230231002044F822302160FFF7CD
:102E500075FE00213A48FEF7ABFF80F3100009F140
:102E6000010303EA0803BDF8042004EB830308EA26
:102E7000090808F1030842EA0042DA6054F8282001
:102E8000304B63F39F2222F47F7323F0030343F05C
:102E9000110344F8282024F8283094F820343BB952
:102EA000D4E90030C01A18BF012009B0BDE8F08F86
:102EB000FFF702FF0028F3D0FFF7FEFE0028F7D14E
:102EC000EEE73046FEF7ACFF4FF0000B5946002806
:102ED000A8D12846A9E753880CEB93130EEA030107
:102EE000CA1C03F1020C14F82200E24604EB820231
:102EF00000F0040075E71388C3F383136344EDE720
:102F000003F1020A6FE732880233C2F383121344DB
:102F1000F8E6BDF81430C3F383134FEA114B9A441B
:102F20007AE7676009B0BDE8F08F002009B0BDE81E
:102F3000F08F00BF080600200C6500003C65000013
:102F4000240A0020145D0000BDF80A305F484FEAF3
:102F50009319B9F1500FC84628BF4FF0500868F3D5
:102F60008F1308F10801ADF80A30FEF703FD07469C
:102F700000283FF4EAAEFEF749FD082200230DEBDE
:102F800002013846FEF772FD25EA060301339B0075
:102F900098457BD9002B00F08E8005EA0601A8EB4E
:102FA0000308DDB2033104EB81012A4608233846C9
:102FB0005FFA88F8FEF75AFD424605F108034449D6
:102FC0003846FEF753FD09F1030906EB9909D4F8D9
:102FD0001834002B69D1D4F8105465B1EB685A79D4
:102FE00028463946002A5CD02B681B689847EB6856
:102FF0001D68002DF2D13846FEF70CFD0020FFF7CA
:1030000095FDD4F818340BB9C4F804900020FFF7EC
:1030100095FD45E7BDF808202C48C2F38313062B25
:1030200028BF062363F3891202339900ADF8082004
:10303000FEF7A0FC074600283FF487AEFEF7E6FC4B
:10304000082200230DEB02013846FEF70FFDBDF804
:10305000083013F4707F36D04FF0000805EA0601FF
:103060004FEA88030331083304EB81010422384618
:10307000FEF7FCFCBDF8083008F10108C3F3831328
:1030800006F1010943454E46E8D8A0E705EA0601E6
:10309000033104EB8101424608233846FEF7E6FC83
:1030A00091E71D68002D99D1A5E73846FEF7B2FCDF
:1030B000F6E64946C3E65FFA88F208230449384633
:1030C000FEF7D4FC7FE7B14681E700BF6C650000E6
:1030D000140600202DE9F04F654C87B08046002093
:1030E0000191A568FFF722FDD4E9012326681A445F
:1030F0000132921B012A00F2B88004F21C4704F24C
:10310000144901213846FEF767FE5A48FEF77CFE57
:103110004846FEF779FED4E9013E03EA0E00C21CE0
:1031200004EB820114F8222012F0040200F09A80CD
:1031300003F1020C91F800B00BF0030BBBF1010F8F
:10314000E24600F08A80BBF1020F00F1030B74D05D
:1031500004EB8B01002AEDD104EB80000133C2683F
:10316000039203EA0E0304EB830302F00302012A35
:10317000D9685AD0022A55D1BDF80E309B090333C5
:103180004FEA114B0AEB930A4846FEF749FE5946AF
:10319000002845D03846C4F804A0FEF71DFED4E947
:1031A0000113226819440131891A0129A9D9134050
:1031B000033302320521002044F823102260FFF778
:1031C000BDFC00212C48FEF7F3FD80F31000731CBA
:1031D0002B4004EB830300043540033540EA1840DC
:1031E000D86014F8253068F3C50304F82530019B36
:1031F00054F8252063F39F2222F4717323F0030314
:1032000043F0010344F8252024F8253094F82034B5
:103210001BB1FFF751FD0028FBD107B0BDE8F08FCF
:103220003846BAE74FF0000BAEE7BDF80C30C3F3F9
:1032300083134FEA114B9A44A6E74B880CEB931388
:103240000EEA0300C11C03F1020C14F82120E2462F
:1032500004EB810102F004027CE70B88C3F38313C3
:103260006344EDE703F1020A76E732469FE700BFC9
:1032700008060020200A0020240A00202DE9F04F33
:10328000684C87B080460020CDE90012A568FFF7A2
:103290004DFCD4E9012326681A440132921B022A0C
:1032A00000F2BE8004F21C4704F2144901213846A2
:1032B000FEF792FD5C48FEF7A7FD4846FEF7A4FD29
:1032C000D4E9013E03EA0E00C21C04EB820114F8AB
:1032D000222012F0040200F0A08003F1020C91F809
:1032E00000B00BF0030BBBF1010FE24600F0908041
:1032F000BBF1020F00F1030B7AD004EB8B01002A23
:10330000EDD104EB80000133C268039203EA0E039F
:1033100004EB830302F00302012AD96860D0022A79
:103320005BD1BDF80E309B0903334FEA114B0AEB1A
:10333000930A4846FEF774FD594600284BD038469C
:10334000C4F804A0FEF748FDD4E90113226819442B
:103350000131891A0229A9D91340033303324521C7
:10336000002044F823102260FFF7E8FBB31C2B4039
:1033700004EB8303019A2D48DA600021FEF718FD63
:1033800080F31000731C2B4004EB830300043540D2
:10339000033540EA1840D86014F8253068F3C503B7
:1033A00004F82530009B54F8252063F39F2222F473
:1033B000717323F0030343F0410344F8252024F8FC
:1033C000253094F820341BB1FFF776FC0028FBD1A0
:1033D00007B0BDE8F08F3846B4E74FF0000BA8E720
:1033E000BDF80C30C3F383134FEA114B9A44A0E7A6
:1033F0004B880CEB93130EEA0300C11C03F1020C83
:1034000014F82120E24604EB810102F0040276E781
:103410000B88C3F383136344EDE703F1020A70E7FB
:10342000324699E708060020200A0020240A0020DE
:103430002DE9F04F6C4C89B080460020CDE9011297
:103440000393A568FFF772FBD4E9012326681A44A9
:103450000132921B032A00F2C58004F21C4704F2D9
:10346000144901213846FEF7B7FC6048FEF7CCFC52
:103470004846FEF7C9FCD4E9013E03EA0E00C21C2F
:1034800004EB820114F8222012F0040200F0A7805D
:1034900003F1020C91F800B00BF0030BBBF1010F2C
:1034A000E24600F09780BBF1020F00F1030B00F041
:1034B000818004EB8B01002AECD104EB8000013306
:1034C000C268059203EA0E0304EB830302F00302D1
:1034D000012AD96866D0022A61D1BDF816309B094D
:1034E00003334FEA114B0AEB930A4846FEF798FC68
:1034F0005946002851D03846C4F804A0FEF76CFCA9
:10350000D4E90113226819440131891A0329A8D981
:103510001340033304328521002044F82310226035
:10352000FFF70CFBB21C2A40F31C2B4004EB820279
:1035300004EB8303029FD7600021039A2C48DA60D2
:10354000FEF736FC80F31000731C2B4004EB830362
:1035500000043540033540EA1840D86014F825309F
:1035600068F3C50304F82530019B54F8252063F364
:103570009F2222F4717323F0030343F0810344F884
:10358000252024F8253094F820341BB1FFF794FB54
:103590000028FBD109B0BDE8F08F3846AEE74FF008
:1035A000000BA2E7BDF81430C3F383134FEA114BAD
:1035B0009A449AE74B880CEB93130EEA0300C11C64
:1035C00003F1020C14F82120E24604EB810102F021
:1035D000040270E70B88C3F383136344EDE703F140
:1035E000020A6AE7324693E708060020200A002014
:1035F000240A00202DE9F04F8BB0DDE914677A4CE6
:1036000006938046169B05920020CDE90767099333
:103610000191A568FFF78AFAD4E9012326681A44C4
:103620000132921B062A00F2DD8004F21C4704F2EC
:10363000144901213846FEF7CFFB6C48FEF7E4FB46
:103640004846FEF7E1FBD4E9013E03EA0E00C21C46
:1036500004EB820114F8222012F0040200F0BF8073
:1036600003F1020C91F800B00BF0030BBBF1010F5A
:10367000E24600F0AF80BBF1020F00F1030B00F057
:10368000998004EB8B01002AECD104EB800001331C
:10369000C268029203EA0E0304EB830302F0030202
:1036A000012AD9687ED0022A79D1BDF80A309B0957
:1036B00003334FEA114B0AEB930A4846FEF7B0FB7F
:1036C0005946002869D03846C4F804A0FEF784FBA8
:1036D000D4E90113226819440131891A0629A8D9AD
:1036E00013400333073240F24511002044F8231001
:1036F0002260FFF723FA06F1020C0CEA050CF71C16
:103700002F4004EB8C0C321D0598CCF80C002A409D
:1037100004EB87070698F86004EB82020798D060F4
:10372000711DDDE908022940B31D04EB81012B4026
:1037300004EB8303C86000212D48DA60FEF738FBF4
:1037400080F31000731C2B4004EB8303000435400E
:10375000033540EA1840D86014F8253068F3C503F3
:1037600004F82530019B54F8252063F39F2222F4AE
:10377000717323F0030343F4A07343F0010344F88F
:10378000252024F8253094F820341BB1FFF794FA53
:103790000028FBD10BB0BDE8F08F384696E74FF01C
:1037A000000B8AE7BDF80830C3F383134FEA114BCF
:1037B0009A4482E74B880CEB93130EEA0300C11C7A
:1037C00003F1020C14F82120E24604EB810102F01F
:1037D000040258E70B88C3F383136344EDE703F156
:1037E000020A52E732467BE708060020200A002042
:1037F000240A0020F0B41B4ED6F810340746002BE4
:103800002DD0DC6825790021A942084617D023462F
:1038100003E0DB681A798A4211D01B68002BF8D1CB
:10382000FB681871D6F810349BB1DA68FB6812682F
:103830001A60D6F81034DB681F60F0BC70470929A5
:1038400001F1010301D01946DEE74FF0FF30F0BC73
:103850007047C6F81074FA681360F0BC70471846D9
:10386000DEE700BF0806002038B5094BD3F8104446
:10387000012583F820544CB1E3685D71236820462C
:103880005B689847E3681C68002CF5D138BD00BF21
:103890000806002010B568B90E4CA36801226270BA
:1038A0003BB1D3E900230020A2609847A368002B16
:1038B000F7D110BD0128FCD1064C2369A070002B64
:1038C000F7D0D3E900230120226198472369002B18
:1038D000F7D110BDC40A002038B50A4C237813B1C3
:1038E0008525284638BD08486360A3602361E360EE
:1038F000FEF7A2FA0546FEF7ABFA0123237028462D
:1039000038BD00BFC40A00209538000038B5154DF9
:10391000AB78044673B110B143680120984700208A
:10392000FFF704F9EB680133EB600020BDE8384095
:10393000FFF704B903F0FF00FFF7F8F864B12A6954
:1039400042B1944208D0134601E09C4204D01B6867
:10395000002BFAD122602C61EB68002BE2D1FEF73C
:1039600089FADFE7C40A0020F0B412F0030412D190
:103970004B1CDB000A4D0B4E0B4F34709BB21344B3
:103980002B600A4E0A4D0B4B28803470198020465C
:103990003A60F0BC704707242046F0BC704700BF77
:1039A000DC0A0020D80A0020E00A0020E80A0020F3
:1039B000E40A0020E60A00202DE9F047294F3B8861
:1039C0008B4202D20920BDE8F0870546002016464A
:1039D0000C46FFF7ABF8244B244A25481978137896
:1039E0000088DBB2834238BF0133C9B234BFDBB2D7
:1039F000002399422FD092F800801378DFF8789056
:103A0000DBB2984286BF0133DBB200235FFA88F84D
:103A100000201370FFF792F8D9F800300FFA88F2FF
:103A20004FEAC20A43F83260534405B11CB9002082
:103A30009880BDE8F0870F4B38881B68294608FB43
:103A40000030224601F0A0FDD9F800309A44002051
:103A5000AAF80440B7E70020FFF770F80420BDE89B
:103A6000F08700BFE40A0020E80A0020D80A0020FE
:103A7000E60A0020DC0A0020E00A00202DE9F84FC9
:103A80001B4C1C4D22782B789A4226D0DFF86CA074
:103A9000DFF86C90184FDFF86CB04FF00008237817
:103AA000DAF800203888D9F80060DBB20FFA83FE1C
:103AB00002EBCE0103FB0060898852F83E30984744
:103AC0002378BBF80010DBB25A1C9942D2B206D957
:103AD000227023782A789A42E1D1BDE8F88F84F8E1
:103AE000008022782B789A42D9D1BDE8F88F00BFA8
:103AF000E80A0020D80A0020E40A0020E00A00209A
:103B0000DC0A0020E60A0020064A074B10B5002414
:103B100014701C60BFF35F8F04490548FCF74CFD2F
:103B2000204610BDF40A0020F80A0020345D000091
:103B3000EC0A002008B50020FEF7F8FFF1EE103A7D
:103B400023F09F03E1EE103ABFF35F8F054B402255
:103B5000C3F884210020FEF7F1FF20BF40BF20BF43
:103B600008BD00BF00E100E059B142B1531E1A4048
:103B700005D1826001608380C260104670470920D1
:103B800070470E20704700BF10B48468C2680346B7
:103B90008088121B904203D204205DF8044B7047CA
:103BA000DA681C6802400020A154DA680132DA6049
:103BB0005DF8044B704700BF03468068DA689042A6
:103BC0000DD010B498689A881C6802400020A25C4E
:103BD0000A709A6801329A605DF8044B70470520BC
:103BE000704700BF03460020DA689A60704700BF44
:103BF000F0B5464BD3F8242189B0002A55D00021D6
:103C0000C3F82411D3F82421029202228DF8102047
:103C1000029AD3F880043E4AC3F880040790D3F890
:103C20003C05D3680690C2E90611059311685368F4
:103C300004A89847354BD3F844214AB10021344AAF
:103C4000C3F84411D3F84401916901900198D9B99E
:103C50002E4BD3F82021AAB10021C3F82011D3F8AC
:103C600020012B4A00900098506958B1D3F84C05B8
:103C7000936806908DF810105161059304A8D2E95D
:103C80000013984709B0F0BDD3F83C35D1680693CE
:103C900000240025012305918DF81030C2E9064566
:103CA000D2E9001304A89847D2E7D3F810110029ED
:103CB000C0D0C3F81021D3F810111548039103990F
:103CC0008169D3F83C458C42B4D1C569C768D0E955
:103CD00000168DB1D3F800C285612CF02005C261B9
:103CE000C3F800520369C3600122CDE905748DF861
:103CF000102004A8B0479DE701238561CDE9057434
:103D00008DF8103004A8B04794E700BF00200040B1
:103D1000000B00202DE9F0430779794E4FEAC708E0
:103D200008EB070306EB830385B093F82030002BE4
:103D300040F0A8800D460446724900689146FEF79F
:103D4000E9F8002840F09A802B68591C19D01F2BE5
:103D50004FF001028ABF6C494FF0A04103F01F03EE
:103D600002FA03F3C1F808352B681F2B86BF03F056
:103D70001F03654A4FF0A04203F5E073032142F8A8
:103D800023106B685A1C0BD01F2B86BF03F01F0338
:103D90005D4A4FF0A04203F5E073002142F8231082
:103DA0002368AA69C3F82425297D6A7D23680A430C
:103DB000C3F86C25D5E900312268C2F80C35C2F889
:103DC00014152B7D012B67D008EB07029200B31866
:103DD000C3F804902B69B350B9F1000F3DD02168AE
:103DE0002B7F4A4D0022C1F81021D1F8101100910B
:103DF0002168DDF800C0C1F82021D1F8201101911F
:103E00002168DDF804C0C1F82421D1F82411029101
:103E10002168DDF808C0C1F84421D1F844112268B6
:103E200003910399C2F804532268120B51B25B014B
:103E30000029DBB22ADB01F1604101F5614181F823
:103E400000332368324D1B0B5AB2520903F01F0393
:103E5000012101FA03F345F822304744226806EBBA
:103E60008706002301240821C2F8001586F82040A7
:103E7000C6E90633736105B0BDE8F083112005B0D3
:103E8000BDE8F083082005B0BDE8F083214902F0C9
:103E90000F0211440B76D4E7AB68591C0BD01F2BD3
:103EA00086BF03F01F0318494FF0A04103F5E073EC
:103EB000002241F82320EB685A1C1AD01F2B8ABF1E
:103EC00011494FF0A04103F01F03012202FA03F34E
:103ED000C1F80835EB681F2B88BF03F01F0303F5FB
:103EE000E0738CBF08494FF0A041032241F8232022
:103EF000EB682268A968C2F80835C2F8101563E7B4
:103F0000000B0020F13B00000003005010030200F2
:103F100000E100E0FCEC00E001F06043B3F1005F81
:103F20002DD1F0B40579244EEF007C1906EB840402
:103F300082B06369002B39D16261A1600268C2F866
:103F40002031D2F820C10268CDF804C0DDF804C0E9
:103F5000C2F85831D2F8582100920268DDF800C04A
:103F6000D4F814C0C2F84415C2F848C5026801214B
:103F7000916062682AB1184602B0F0BC7047102008
:103F80007047036800E0AAB9D3F82011D3F858218C
:103F90000029F8D0002A14BF0F2000207B1906EB5F
:103FA000830300225A6102B0F0BC7047112002B0B6
:103FB000F0BC70470F20F1E7000B00200379054AA1
:103FC00003EBC30302EB83035869003018BF0120E1
:103FD000704700BF000B002001F06043B3F1005FA9
:103FE00076D1F0B40579464CEB005E1904EB8606F9
:103FF00082B0766826B107684FF4047CC7F808C31E
:104000002B4404EB83039D69002D42D19A61DD614D
:10401000D9600368C3F81051D3F8106103680196A2
:10402000019EC3F84451D3F8445103680095009DA4
:10403000C3F83415C3F83825036801221A600579DE
:104040000368EE00721904EB820252685AB14FF411
:104050000472C3F80423002002B0F0BC70470029AA
:1040600040D1002844D1D3F81021D3F84411D3F81B
:104070002401002AF3D0354400284FF0000304EB5C
:10408000850414BF032018469942A36118BF0F206E
:10409000E2E7DD69F5B91961DA610368C3F8105127
:1040A000D3F8106103680196019EC3F84451D3F818
:1040B000445103680095009DC3F83415C3F83825B2
:1040C0000268D2F8003243F02003C2F80032B6E7AB
:1040D0001020704796B103684FF40472C3F80423AC
:1040E0001120B9E7354404EB85040F20A261B3E742
:1040F000354404EB85040320A161ADE71120ABE753
:10410000000B00200368826818685B68934234BF24
:1041100001330023C01AB0FA80F04009704700BF95
:10412000F8B5044600200E46FEF700FD2368A5689A
:1041300019685A68AA4234BF01320022914213D052
:104140005F685A6895420CD800225A60E26860683D
:10415000531E072B40D8DFE803F039353F313F3F8E
:104160003F1801325A60F1E7227C002A3AD15F6899
:1041700059688D422DD85A602268A16813688B4215
:1041800034BF013300231360E0E7D6E9002300EBDE
:10419000C700C0E900232268136851688B4282BFC0
:1041A000A06801300918CB1A9168994238BF936012
:1041B00000240020FEF7C2FC2046F8BD336840F81A
:1041C0002730E8E7338820F81730E4E73378C35521
:1041D000E1E701315960CFE7314607FB020001F00A
:1041E000D3F9D8E704240020FEF7A8FC2046F8BD48
:1041F00030B56D4AD2F8043399058BB066D5D2F844
:104200002431002B62D00023C2F82431D2F82431AB
:1042100003934FF40171654B0398C2F8081393F8A8
:10422000291009B9012151605F4902228DF8182037
:10423000D1F88024C1F880249869D96809920022B5
:10424000CDE90710C3E90622D3E9001406A8A04768
:10425000554AD2F81C31C3B1544B186A5969884287
:1042600069D293F8280000F0FF04002863D1C2F857
:104270001C41D2F81C11029102999C68186A196AB3
:10428000205C01311962C2F81C05474AD2F844315A
:10429000D3B10021454BC2F84411D2F8440193F840
:1042A00029100090009800295AD19A6962B1002221
:1042B000586AD9689A610122CDE907108DF8182053
:1042C00006A8D3E9001290470BB030BD364AD2F8A9
:1042D00004335B07BCD5D2F80831002BB8D0334B80
:1042E000996900293FD00021C2F80811D2F80811BD
:1042F00004910499D868596AD2F8182542545A6A28
:10430000996901325A625A6A8A42A1D1DA691968F6
:10431000002A31D0D8685D6A1C699A610790002232
:104320000120DC60DA615A628DF8180008955B683C
:1043300006A898478CE71C4A0020C2F81C01D2F856
:104340001C210192019A00299FD09A688DF81800CB
:1043500008915861079206A8D3E90012904794E7A4
:1043600001211160A1E7C2F80811D2F808010590F7
:104370000598D2F81825C6E793F8292012B90A4AF9
:1043800001205060084A4FF40170C2F80803586ACF
:10439000DA6808900024012007928DF818005A6806
:1043A0009C6106A8904753E700200040240B0020A2
:1043B0002DE9F041DFF8D48107792C2606FB07862A
:1043C00082B096F82A30002B40F098800C460546C3
:1043D000694900681646FDF79DFD002840F08A8077
:1043E0002368591C19D01F2B4FF001028ABF634963
:1043F0004FF0A04103F01F0302FA03F3C1F80835A0
:1044000023681F2B86BF03F01F035C4A4FF0A042B6
:1044100003F5E073032142F8231063685A1C0BD0A4
:104420001F2B86BF03F01F03544A4FF0A04203F531
:10443000E073002142F823102B68A269C3F82425F9
:10444000217D637D2A680B43C2F86C35D4E90012E4
:104450002B68C3F81425C3F80C15237D012B57D006
:104460002C2303FB07F308EB03025660226948F88C
:10447000032066B32A68237F414C0021C2F81C1137
:10448000D2F81C2100922A68009EC2F84411D2F88A
:1044900044112A6801910199C2F804432A68120B59
:1044A00051B25B010029DBB22CDB01F1604101F567
:1044B000614181F800332B68324C1B0B5AB2520910
:1044C00003F01F03012101FA03F344F822302C23E7
:1044D0002C6803FB0783002204250121C4F8005542
:1044E00083F82A10C3E9062283F829205A6102B012
:1044F000BDE8F081112002B0BDE8F081082002B0D3
:10450000BDE8F081204902F00F0211440B76D2E79A
:10451000A368591C0BD01F2B86BF03F01F0317493C
:104520004FF0A04103F5E073002241F82320E36837
:104530005A1C1AD01F2B8ABF10494FF0A04103F01C
:104540001F03012202FA03F3C1F80835E3681F2BA9
:1045500088BF03F01F0303F5E0738CBF07494FF0DA
:10456000A041032241F82320E3682A68A168C2F829
:104570000835C2F8101573E7F14100000003005040
:104580008000020000E100E0FCEC00E0240B0020D1
:10459000F0B5314E05792C2303FB056385B05C69CA
:1045A000002C4DD11C62996083F828405A61026842
:1045B000C2F81C41D2F81C11026802910121029F2D
:1045C00091600268D3F808C0C2F81C41D2F81C11EF
:1045D00001910199D3F820E0196A5F681CF80EE098
:1045E00001311962C2F81CE517B1204605B0F0BDD3
:1045F0001A6A5C690168944203D819E093F828208C
:104600000ABBD1F81C21002AF8D0C1F81C71D1F8DE
:104610001C210392039AD3F820E01A6A1CF80EE0DA
:1046200001321A62C1F81CE51A6AA242E9D3016894
:10463000D1F81C31002BFBD00123CB60002003E01C
:10464000112005B0F0BD0F202C2303FB05650023CE
:104650006B6105B0F0BD00BF240B00200379044A54
:104660002C2101FB03235869003018BF012070473B
:10467000240B0020F0B44E4F06792C2303FB067365
:1046800086B05D6825B103684FF40174C3F8084330
:104690002C2303FB06739C692CBB93F829509A6169
:1046A000D9605C62DC6185B90368C3F82451D3F832
:1046B000242103680192019AC3F80851D3F8082114
:1046C00003680292012202991A602C2303FB0673ED
:1046D0000268596869B14FF40173C2F804330020CD
:1046E00006B0F0BC7047DC69002C57D11961DA6163
:1046F000EBE7C2F84411D2F844210392039A02680E
:10470000D2F82441D2F80851D2F8441155B9002901
:1047100036D1002CF4D02C2303FB06760023B361A2
:104720000320DDE7002CF6D161BB9C6994B1C2F88F
:104730000811D2F8081104910499DC68596AD2F87A
:10474000182562545A6A996901325A625A6A91422A
:10475000D5D808E0C2F80841D2F8081105910599AA
:10476000D2F818255B6A2C2303FB0676002296F804
:104770002930B2616BB10368012110461960AFE7BF
:10478000002CC8D12C2303FB06760023B3610F2035
:10479000A6E70268012118465160A1E735B1036818
:1047A0004FF40172C3F80423112099E7112097E711
:1047B000240B002010B44FF080414FF080520020B5
:1047C000C1F80C015E4BC1F81001C1F83805D2F8F0
:1047D0000414C3F82015D2F80814C3F82415D2F82D
:1047E0000C14C3F82815D2F81014C3F82C15D2F8FD
:1047F0001414C3F83015D2F81814C3F83415D2F8CD
:104800001C14C3F84015D2F82014C3F84415D2F88C
:104810002414C3F84815D2F82814C3F84C15D2F85C
:104820002C14C3F85015D2F83014C3F85415D2F82C
:104830003414C3F86015D2F83814C3F86415D2F8EC
:104840003C04C3F86805D2F840043E49C3F86C053F
:104850000968D2F84424C3F87025082924D04FF001
:104860008043D3F80024D20744BF6FF00102C3F89D
:104870000024354AD2F8883043F47003C2F88830F7
:10488000BFF34F8FBFF36F8F4FF01023D3F8002289
:10489000002A23DBD3F80432002B1FDB2B4B2C4ADE
:1048A0001A605DF8044B70472A4B1B68002BD6D169
:1048B00029482A4A2A4C04602A492B4BFB20C2F87B
:1048C00018050A681B68294822F00F0203F00F033D
:1048D00013434FF400720B600260C0E7244A0123C7
:1048E000C2F80435D2F80034002BFBD04FF010236F
:1048F00012211F4AC3F80012D2F80034002BFBD05B
:104900004FF0102312211A4AC3F80412D2F80034CF
:10491000002BFBD000231649C2F80435D1F800342F
:10492000002BFBD0BFF34F8F0749124BCA6802F42C
:10493000E0621343CB60BFF34F8F00BFFDE700BFC2
:1049400000C000403001001000ED00E01C0000201D
:104950000090D003340100108C56004000F000405D
:1049600048810300E40E00405802001040960240C7
:1049700000E001400400FA0538B5094C094A0A482C
:104980000225072368212570FEF774F800B938BDA9
:10499000064A4FF4B871BDE83840FEF71DB900BFB4
:1049A000740B0020F00E00205463000044630000EC
:1049B00030B50E4C85B0237800228DF80C200BB159
:1049C00005B030BD03F0FF01012500912B4603AA7D
:1049D000682107482570FDF7EFFF0028F0D0054A51
:1049E0004FF4BC71FEF7F8F805B030BD740B002031
:1049F000546300004463000008B5054B0022022008
:104A00001A70FCF737FE0320BDE80840FCF732BE01
:104A1000740B002030B5114C2378032B85B001D0E6
:104A200005B030BD002507220D498DF808500DF165
:104A3000090000F0A9FD009502AA042508236821B9
:104A400008482570FDF7B8FF0028E9D0064A40F273
:104A50008511FEF7C1F805B030BD00BF740B002012
:104A6000F00E00205463000044630000007840B959
:104A70000A4B1978C9B2022907D0042909D00129A3
:104A800000D07047064AFEF797BF064A0121FEF79D
:104A900093BF054A0121FEF78FBF00BF740B0020B2
:104AA00079490000694C0000F949000008B501216E
:104AB0000B48FDF791F90B4BA3FB00135B09C3EB0C
:104AC0000313B0EB830306D11846074A0121BDE862
:104AD0000840FEF771BFBDE8084000F039BC00BFD8
:104AE000500B002089888888B1490000374B9842D4
:104AF000F0B563D9DFF8ECC001246246CCF10A07B7
:104B000001E0D82C54D0D37A157B567B917A1B04C4
:104B100043EA0523334309060B4398425FFA84FEB8
:104B2000254607EB020604F1010402F10702E8D86A
:104B3000834230D8EC006644254BF278B7781143B5
:104B40007278244E41EA072141EA0241401AA3FB50
:104B50000023214A1B0C02FB1300A6FB0026F60AC9
:104B60004FF4616202FB16001C4A651BA2FB001297
:104B70001CF805401A495209AC44C2EB02154C71AD
:104B800001339CF80140CB70A0EB85000C718E7056
:104B90004A700870F0BD0EF1FF35EDB2EC00631BFA
:104BA00063440726D978032316FB05360906C2E7B6
:104BB0002546A646002140F2EB56B9E70025AE4651
:104BC0004FF0BC410326DFF81CC0B1E760350C5E36
:104BD00007452EC2C5B3A2918051010089888888FB
:104BE000E80E00205C5D0000F0B41D4A1D4B1678F5
:104BF00010795478517997789279350905EB8505C4
:104C000006F00F0606EB45061E70060906EB860643
:104C100000F00F00250900EB46000E0904F00F0418
:104C200006EB860605EB850501F00F0104EB450553
:104C300001EB4601C7F30114160907F00F0706EB55
:104C4000860604EB840402F00F0207EB440402EB37
:104C500046025D709C70D87019715A71F0BC704733
:104C6000F00E0020E80E0020F8B5284B284D002457
:104C70001C70FFF7B9FF27482146467901E0D82983
:104C80003ED0C1EBC1040A462F5DB742CBB201F161
:104C90000101F4D12C4402F10B06617804798C42B5
:104CA00003D10AE04978A14207D00133DBB2C3EB5C
:104CB000C301B34229441A46F4DD4178847803786D
:104CC000C078C2EBC202C1EB01112A4489004FF443
:104CD000616505FB0411104C9679D5781944431E83
:104CE00004FB03133344147951790C4803EB056337
:104CF00003EB044303EB0121BDE8F840FDF762B884
:104D00000B460A46E3260021C8E700BF740B0020CB
:104D10005C5D0000E80E002080510100500B002077
:104D20002DE9F0412449254B0A784E788D78CC78CE
:104D300008794979A3FB02C7FF0807EB870CA2EBB0
:104D40004C0242EA0717A3FB06EC1D4A4FEADC0CB3
:104D500017700CEB8C07A3FB058EA6EB470646EA03
:104D60000C164FEADE0E56700EEB8E06A3FB047C8B
:104D7000A5EB4605A3FB00874FEADC0C45EA0E15C0
:104D8000A3FB0183FF0895700CEB8C05DB08A4EBFB
:104D9000450407EB8705A0EB450003EB8305A1EB7A
:104DA000450144EA0C1440EA071041EA0313147168
:104DB00050719371BDE8F081E80E0020CDCCCCCCD1
:104DC000F00E002000210148FDF706B8500B00202E
:104DD00030B5144C83B00422002321460DEB0200B1
:104DE000019300F0C3FB78B90F4B1868FFF77EFE04
:104DF000FFF796FF0D4B0E4A0324012100201C7083
:104E0000FEF7DAFD03B030BDA078E578217862784E
:104E1000054B000400EB0560084400EB022018601D
:104E2000E4E700BFE40E0020F80E0020740B002021
:104E3000154A0000D0B584B000224FF0CC71039227
:104E400013461B261A2702240291194A19488DF885
:104E50000C406946CDE90067FDF748F9B0B916483E
:104E6000FDF79AFD154A16480121FBF771FEC8B9F6
:104E700000224FF400411348FBF77CFE60B9124A50
:104E800001210020FEF798FD04B0D0BD0F4A4FF479
:104E9000D971FDF7A1FEE2E70C4A4FF4E371FDF78B
:104EA0009BFEECE7094A4FF4E271FDF795FEDFE760
:104EB0006D4A00005063000054630000AD4A0000DA
:104EC00060630000540B0020B149000044630000FF
:104ED0002DE9F041054684B00F46164672B6FEF73E
:104EE000C3FCFDF7E9FE0028FBD11E4B1E4CE41A63
:104EF000E40844F2010324049D4244F0010416D066
:104F000044F202039D42204626D133887268174935
:104F1000FEF78EFA164B1B68DB0700D500BE324643
:104F20003946284604B0BDE8F041FBF715BBD6F87A
:104F300008804046FDF70CFE33680E49CDE9013785
:104F400073680093424603462046FEF753FB204613
:104F50000949FEF7BFF8DDE73A460849FEF78EF942
:104F6000D8E700BF0C6500003C65000064630000EA
:104F7000F0ED00E080630000A8630000BC63000067
:104F800010B50B4C2378092B02D90023237010BDD8
:104F9000084AD05CFBF792FF23780748013323705F
:104FA000002240F6CD41BDE81040FBF7E3BD00BF55
:104FB000FC0E0020040F0020480C0020024A0121B2
:104FC0000020FEF7F9BC00BF01500000024A012199
:104FD0000020FEF7F1BC00BF814F00000378022BD8
:104FE00002D0012B05D070474068044A1B21FDF711
:104FF000F3BD4068014A1E21FDF7EEBDF4630000D9
:10500000F0B5002283B04FF4A4719148914DFBF7A5
:10501000B1FD2860002840F0EA800DF10700FBF7A1
:105020001BFF2860002840F0DD808B4C2178072989
:1050300000F2DA804B1CDBB2884A9DF807605654B8
:10504000082B237040F0CE801378854EA3F13007F3
:10505000FFB2092F30600BD9A3F16101052940F29D
:10506000D380A3F14101052900F2E580373BDFB28F
:105070005178A1F1300C5FFA8CFCBCF1090F3B4672
:105080000CD9A1F16100052840F2CA80A1F14100CC
:10509000052800F2CF8037395FFA81FC9178A1F1C1
:1050A0003000C0B209284CEA07130BD9A1F1610006
:1050B000052840F2BC80A1F14100052800F2BA8029
:1050C0003739C8B2D178A1F13007FFB2092F40EAD1
:1050D00003130BD9A1F16100052840F2A580A1F1CD
:1050E0004100052800F2A6803739CFB21179A1F12D
:1050F0003000C0B2092847EA03130BD9A1F16100BF
:10510000052840F28A80A1F14100052800F2928032
:105110003739C8B25179A1F13007FFB2092F40EAFF
:10512000031309D9A1F16100052873D9A1F1410048
:1051300005287FD83739CFB29179A1F13000C0B2BC
:10514000092847EA031309D9A1F1610005285ED9AE
:10515000A1F1410005286DD83739C8B2D179A1F144
:105160003002D2B2092A40EA031306D9A1F1610242
:10517000052A41D8A1F15702D2B242EA03131A0E0E
:105180005F2A33604FF000000BD0FCF761FA01207A
:10519000FCF74CFA0220FCF75BFA0320FCF758FA04
:1051A000FEE7FCF755FA0120FCF752FA0220FCF763
:1051B0004FFA0320FCF73AFA3E20FBF77FFE042269
:1051C00028600021274800F0EDF9274B316819606D
:1051D000264A01210020FEF7EFFB254A012100238A
:1051E0001170237003B0F0BD207003B0F0BD214AF0
:1051F0006B21FDF7F1FC10E7A1F14102052A19D856
:10520000A1F13702D2B2B8E7573BDFB230E75739E6
:10521000C8B2A3E75739CFB28EE75739C8B279E79A
:1052200057395FFA81FC39E75739CFB25EE7573912
:10523000C8B247E733600020FCF70AFA0120FCF708
:1052400007FA0220FCF704FA0320FCF701FAFEE754
:10525000280C0020000F0020FC0E0020040F00206E
:10526000100F0020E40E0020F80E0020D14D0000A9
:10527000140F0020F463000030B583B0FFF7A2FDE7
:105280002F4C304920600622684600F07DF99DF8D9
:1052900002202D4B02F00F0109294FEA121294BF90
:1052A00030315731092A197094BF02F1300102F1EF
:1052B00057019DF80320597002F00F0109294FEAA8
:1052C000121294BF30315731092A997094BF02F1FC
:1052D000300102F157019DF80420D97002F00F014E
:1052E00009294FEA121294BF30315731092A197136
:1052F00094BF02F1300102F157019DF80520597168
:1053000002F00F0109294FEA12124FF0000020604D
:1053100094BF303157310A20092A94BF02F130047A
:1053200002F15704587299710D25002240F6CD41C3
:1053300006481D72DC71FBF71DFC03B030BD00BFD9
:10534000100F0020E80E0020040F0020480C002061
:10535000024B1B7803B97047FFF78EBF140F002074
:1053600070B501208AB0FCF79FF90020FCF75EF9C8
:105370000120FCF75BF90220FCF758F94C4D4D4E2B
:105380000320FCF753F94C4B00930FCD04AC0FC432
:1053900095E80300494A84E803004FF48075072329
:1053A000694604A80195CDE90265FBF7CBFC444CA6
:1053B0002060002847D10023424A18464FF400419C
:1053C0001370FDF717FC206000286CD1FBF720FC60
:1053D000FEF782FA2060002860D10020FEF796FADE
:1053E0000020FCF73FFE2060002852D1FEF78CFB26
:1053F0002060002848D1344A0A210820FEF7B4FA78
:1054000000283CD1FBF750FB2060002832D12F4A06
:105410002F480021FBF79CFB206030BB2D4A2E4813
:105420000021FBF795FB2060D0B9FBF705FD0022BA
:105430004FF480412948FBF79DFB206040B9FFF7FE
:10544000F9FC0AB070BD264AC221FDF7C5FBB2E7E0
:10545000234ADF21FDF7C0FBFFF7ECFC0AB070BD6B
:105460001F4ADA21FDF7B8FBDFE71D4AD621FDF719
:10547000B3FBD3E71A4AD221FDF7AEFBC7E7184AC0
:10548000D021FDF7A9FBBDE7154ACE21FDF7A4FB0E
:10549000B1E7134ACB21FDF79FFBA7E7104AC821CC
:1054A000FDF79AFB99E70E4AC521FDF795FB8DE7BD
:1054B000D4630000680D0020680C0020DD4F000060
:1054C000000F0020FC0E0020780B0020BD4F0000D4
:1054D000EC630000CD4F0000F0630000280C0020BA
:1054E000F463000008B5FFF73BFFFEF7C7FAFDF7CE
:1054F000E3FB0028FBD1FEF71DFBF6E708B5074BE1
:10550000044613B10021AFF30080054B1868836A8D
:1055100003B19847204600F05DF800BF000000008E
:105520000465000070B50D4D0D4C641BA4100026E1
:10553000A64209D10B4D0C4C00F04EF8641BA41090
:105540000026A64205D170BD55F8043B98470136A8
:10555000EEE755F8043B98470136F2E7800000205B
:1055600080000020800000208400002030B5013938
:105570000024A24201D1002005E0035D01340D5D4D
:10558000AB42F6D0581B30BD0A44914200F1FF33C4
:1055900000D1704710B511F8014B03F8014F91424B
:1055A000F9D110BD02440346934200D1704703F87D
:1055B000011BF9E7034611F8012B03F8012B002A20
:1055C000F9D17047034613F8012B002AFBD1181AB2
:1055D00001387047FEE700BFF8B500BFF8BC08BC53
:1055E0009E467047F8B500BFF8BC08BC9E467047A1
:1055F0004C560000785600002C56000080560000E3
:10560000885600009056000098560000A0560000F2
:10561000A85600002025303278000000202020000D
:105620007C000000256300000D0A00001B5B313B7D
:1056300033316D0025734C6F67732064726F707027
:105640006564202825642925730D0A001B5B306DD5
:1056500000000000257300003C25733E2025733AAE
:105660002000000000000000B0560000B856000006
:10567000C0560000C85600001B5B313B33306D0044
:105680001B5B313B33326D001B5B313B33336D00B1
:105690001B5B313B33346D001B5B313B33356D009D
:1056A0001B5B313B33366D001B5B313B33376D0089
:1056B0006572726F720000007761726E696E6700CA
:1056C000696E666F00000000646562756700000027
:1056D0000338FDD8704700002F686F6D652F68652F
:1056E000726D616E2F4465736B746F702F6E5246CE
:1056F00035323834302F53444B31352E332F636FCE
:105700006D706F6E656E74732F6C69627261726911
:1057100065732F74696D65722F6170705F74696D48
:1057200065722E63000000007274745F6C6F675FB7
:105730006261636B656E6400FFFFFFFFFFFFFFFFA9
:10574000FFFFFFFFFFFFFFFF000000000000000061
:105750000000D601060100002F686F6D652F686597
:10576000726D616E2F4465736B746F702F6E52464D
:1057700035323834302F53444B31352E332F636F4D
:105780006D706F6E656E74732F6C69627261726991
:1057900065732F756172742F6170705F75617274BB
:1057A0005F6669666F2E63003031323334353637C9
:1057B00038394142434445462C0D0E0F5465726DF5
:1057C000696E616C00000000525454005345474715
:1057D0004552000000000000000000000000000032
:1057E0000338FDD870470000F51800006919000063
:1057F000F1180000434C4F434B000000505253003F
:10580000524E470001060000726E67000000000063
:105810000338FDD87047000054574900556E6B6E31
:105820006F776E206572726F7220636F646500001F
:105830000000000048590000010000005459000019
:105840000200000074590000030000009859000095
:1058500004000000AC59000005000000C059000021
:1058600006000000D459000007000000EC590000B9
:1058700008000000045A0000090000001C5A000043
:105880000A000000385A00000B000000505A0000C7
:105890000C000000685A00000D0000007C5A000057
:1058A0000E000000905A00000F000000A05A0000F7
:1058B00010000000B45A000011000000CC5A000093
:1058C00080000000DC5A000081000000005B000046
:1058D000820000001C5B000083000000385B0000B9
:1058E00084000000585B0000850000007C5B000025
:1058F00086000000A45B000090000000BC5B00007C
:1059000091000000DC5B000092000000FC5B0000E6
:1059100000820000145C000001820000345C000082
:1059200002820000505C0000008400006C5C0000FB
:1059300001840000905C000002840000BC5C000058
:1059400003840000E45C00004E52465F535543431D
:10595000455353004E52465F4552524F525F535685
:10596000435F48414E444C45525F4D495353494E65
:10597000470000004E52465F4552524F525F534F10
:1059800046544445564943455F4E4F545F454E414A
:10599000424C4544000000004E52465F4552524F73
:1059A000525F494E5445524E414C00004E52465FA4
:1059B0004552524F525F4E4F5F4D454D0000000023
:1059C0004E52465F4552524F525F4E4F545F464FC4
:1059D000554E44004E52465F4552524F525F4E4F15
:1059E000545F535550504F52544544004E52465FF9
:1059F0004552524F525F494E56414C49445F5041C7
:105A000052414D004E52465F4552524F525F494EF1
:105A100056414C49445F5354415445004E52465FF1
:105A20004552524F525F494E56414C49445F4C4596
:105A30004E475448000000004E52465F4552524FB8
:105A4000525F494E56414C49445F464C41475300D2
:105A50004E52465F4552524F525F494E56414C4955
:105A6000445F4441544100004E52465F4552524FFC
:105A7000525F444154415F53495A45004E52465F7C
:105A80004552524F525F54494D454F555400000006
:105A90004E52465F4552524F525F4E554C4C00009D
:105AA0004E52465F4552524F525F464F5242494412
:105AB00044454E004E52465F4552524F525F494E4A
:105AC00056414C49445F4144445200004E52465FA7
:105AD0004552524F525F4255535900004E52465F55
