:020000022000DC
:1060000000000420B5620200DD620200DF620200CF
:10601000E1620200E3620200E562020000000000AB
:10602000000000000000000000000000E762020025
:10603000E962020000000000EB620200ED62020073
:106040008DC20200EF620200F1C20200EF620200A4
:10605000EF620200EF620200B9990200EF620200F3
:10606000EF620200EF620200EF620200EF620200E4
:10607000EF62020069250300EF620200EF62020096
:10608000E9E5020029EA0200EF620200EF62020085
:10609000C9EA0200EF620200CDB00200251C030035
:1060A000EF620200EF620200EF620200EF620200A4
:1060B000EF620200EF62020000000000000000003A
:1060C000EF620200EF620200EF620200EF62020084
:1060D000CDA80200EF620200EF620200EF62020050
:1060E000EF620200EF620200FD48030000000000C2
:1060F00000000000EF62020000000000EF620200FA
:10610000000000000000000000000000000000008F
:10611000000000000000000000000000000000007F
:10612000000000000000000000000000000000006F
:10613000000000000000000000000000000000005F
:10614000000000000000000000000000000000004F
:10615000000000000000000000000000000000003F
:10616000000000000000000000000000000000002F
:10617000000000000000000000000000000000001F
:10618000000000000000000000000000000000000F
:1061900000000000000000000000000000000000FF
:1061A00000000000000000000000000000000000EF
:1061B00000000000000000000000000000000000DF
:1061C00000000000000000000000000000000000CF
:1061D00000000000000000000000000000000000BF
:1061E00000000000000000000000000000000000AF
:1061F000000000000000000000000000000000009F
:1062000010B5054C237833B9044B13B10448AFF3F0
:1062100000800123237010BD682C002000000000C6
:106220007889030008B5034B1BB103490348AFF35A
:10623000008008BD000000006C2C0020788903005D
:10624000154B002B08BF134B9D46A3F5803A002148
:106250008B460F461348144A121A0EF0ABFF0F4B31
:10626000002B00D098470E4B002B00D09847002001
:10627000002104000D000D48002802D00C48AFF3A7
:1062800000800EF04FFF200029000DF095FB0EF06E
:1062900023FF00BF000008000000042000000000F1
:1062A00000000000682C002074A000200000000006
:1062B000000000000649074A074B9B1A03DD043B18
:1062C000C858D050FBDC04F0EDFCFFF7B9FF00002C
:1062D0009C8A0300882B0020682C0020FEE7FEE744
:1062E000FEE7FEE7FEE7FEE7FEE7FEE7FEE7FEE786
:1062F00038B50A4D00F0EAF8042128460BF00CF9F5
:10630000074B01245C7106F011FB05F1100004211C
:106310000BF002F9034B5C7138BD00BF748A0300B7
:10632000882B0020902B002005480649064A10B40F
:106330000023012404700B7013705DF8044B704748
:10634000EC2C0020842C0020852C00203B4B1A785C
:10635000002A36D02DE9F041837803F00C0108299A
:106360002CD00C2927D100F10E04417803F0C00392
:10637000490658BF0234802B36D0C02B1BD1304B7E
:106380001E784FFA86FCBCF1000F2BDB4FEA6C0144
:10639000B142CBB226DAD4F800802A4D002055F85D
:1063A00031E0C64505EBC10144D80DD349686768A3
:1063B000B9423FD808D31046BDE8F08100F1080487
:1063C000D3E7012210467047013358B2ACEB00030B
:1063D00003EBD37300EB6303DBB2844559B201DBFB
:1063E000B142DCDB0022E6E7174B1D7868B20028DB
:1063F000F8DB4110A942CBB2F4DA144E278836F804
:1064000011108F424FF0000411D3D4D901335CB284
:10641000031B03EBD37304EB6303DBB2A04259B25B
:10642000E0DBA942DEDA36F811108F42EDD2013BF3
:1064300058B2EDE7013B4FFA83FCC7E7EC2C002094
:10644000842C0020882C0020852C0020D82C0020B3
:10645000704700BF00B583B0044B0093044A40234B
:1064600003F016F903B05DF804FB00BF7564020089
:10647000F02C002002B32DE9F843114B114E884651
:10648000144643F0010903270025224608EB0501C5
:1064900000200BF0BDFE03461D444FF47A40E41A81
:1064A00023B9337833B1C847013F06D00123337095
:1064B000002CEAD1BDE8F88370473770BDE8F88357
:1064C00060660300ED2C0020704700BF0BF05EBF3C
:1064D000704700BF704700BF014806F063BB00BFB4
:1064E000982B002006F09CBB06F0C8BB014806F0C4
:1064F00001BB00BF982B002006F034BB08B528B1C3
:10650000012800D008BD04F0DBF908BD09F0D4FB78
:1065100008BD00BF10B5204C82B001A809F09CF85E
:10652000D4F86C269DF8043022F00702C4F86C26DB
:10653000D4F86C261343C4F86C369DF8050003F0BC
:1065400017FAD4F86C3623F47F43C4F86C36D4F8C9
:106550006C3643EA0020C4F86C06D4F86C269DF82B
:10656000061022F47F02C4F86C26D4F86C3643EA95
:106570000143C4F86C36D4F86C269DF8071022F05D
:106580007F42C4F86C26D4F86C3643EA0163C4F841
:106590006C3602B010BD00BF0010004008B5034AC1
:1065A000034B044840F2D7110EF078FD74660300E7
:1065B000246703004467030070B51F4B402282B07C
:1065C000C3F8082520B1A3F5F0335222C3F8002206
:1065D0001A4B194A1A481B491B4D1C4C01261E60B8
:1065E0008023C2F80435037823F0070303700023E7
:1065F0000B600968019118210198C5F860152360A6
:1066000023680093402300991148C2F804350BF029
:10661000D5FCD5F8503513F0FF0F07D100BF00BFF0
:1066200000BF00BF00BF00BF23680BB102B070BD48
:10663000084B1E6002B070BD00F001401090004099
:10664000382D002028110040001000403C7101400E
:1066500030110040101000402B4B1B7803B97047DD
:1066600070B5044684B0AE2009F064FA00283AD030
:106670002648274D2749284A4FF42053C0F80032B6
:1066800000232B602D680195019D0B600968029124
:106690004FF4C021029DC0F80413136011680391E8
:1066A0001E4B1F491F4D039EC3F84825C3F84C5588
:1066B000C3F82C19A1F5FF4105F586754839C3F8D3
:1066C0004055C3F84415D3F8001841F08001C3F8D1
:1066D000001880254021C3F80455C3F8041524B9D7
:1066E000114B01221A6004B070BDD0F8503513F080
:1066F000FF0FF8D100BF00BF00BF00BF00BF00BF49
:106700001368002BECD0EEE7392D0020001000407C
:1067100048110040441100403C71014000F001402C
:1067200004F001400410004010100040324B1B7870
:1067300003B9704770B5314E82B00446356809F030
:1067400015FAB0F5C07F45D3C009EB09821E9A4205
:1067500098BFA5EBC2152A492A4A94BFC31E00253B
:10676000356000204FF40045C3F31403C2F86436CB
:10677000C2F8005208600B68009301F5B031009B2D
:10678000C2F804530860086801901F4B1F48204D51
:10679000019EC3F84815C3F84C55C3F82C09A0F561
:1067A000FF4005F586754838C3F84055C3F84405E1
:1067B000D3F8000840F08000C3F80008802540208E
:1067C000C3F80455C3F804053CB9124B01221A6002
:1067D00002B070BD356002B070BDD2F8503513F014
:1067E000FF0FF5D100BF00BF00BF00BF00BF00BF5B
:1067F0000B68002BE9D0EBE7392D0020342D002069
:106800003C1100400010004000F0014004F0014045
:1068100004100040101000402DE9F041594A5A4E32
:10682000137823F00703137084B0074608F0EAFEDC
:10683000564AC0B2C2F80C053368002B00F09E80A7
:1068400093F88010002978D0C2F80435504A4FF0F0
:1068500001084E4D4F4BC5F8002200211822C5F803
:10686000602519601A680092009A43F80C1C0C3BD2
:1068700049481B680193019B016003680293474AE2
:10688000029C474C4FF45053C5F80433D2F800C271
:10689000444B4CF4A06CC2F800C24FF0010CC2F89B
:1068A00040C54FF0820CC2F844C54FF0830CC2F8CB
:1068B00048C52160216803910CF1804C0CF6817C65
:1068C0003949DDF80CE0C3F84845C3F84CC5C3F8B6
:1068D0002C19C3F85045C3F85425D3F80028DFF825
:1068E000D4E0A1F5EF31F43942F08002C3F800287A
:1068F0004FF0800CC3F8401540224FF48071C3F86C
:1069000044E5C3F804C5C3F80415C3F804250BF027
:1069100055FBAFB1D5F8503513F0FF0F07D100BFCD
:1069200000BF00BF00BF00BF00BF236843B1B8F184
:10693000000F0BD004B0BDE8F0818846522288E7F2
:106940001A4B01221A60B8F1000FF3D108F076FD5E
:1069500030600028EED090F88030002BEAD00B4B4E
:106960000B4AC3F80405C3F80022D3F85035DBB254
:10697000022BDFD10E4B01221A60DBE79846522230
:1069800067E700BF382D0020402D00200010004098
:1069900052000800341100403011004000900040C7
:1069A0003C71014000F0014004F001401010004033
:1069B000081000403C7001407E4B1B781B0740F1E3
:1069C000C480F0B57C4D2B685C78C4F3401485B06E
:1069D000002C76D0794E3368002B00F0A48093F819
:1069E0008020002A00F09F80754A7648764940272B
:1069F000C0F80875C2F8001293F88010002908BF8B
:106A00000023C2F8043502F045FF002800F0998009
:106A10006E4B6F4A002119601B680393039B4FF074
:106A20000A0C67496B4BC1F80823002018601F68E7
:106A3000644B0197684ADDF804E0C1F804C34FF4E1
:106A40000077C3F80875DFF8B8C1644FC3F848256C
:106A5000C3F84CC5C3F82C791060176802976048DA
:106A6000DDF808E08027C3F804754FF0400C0627D6
:106A7000C3F804C50770D1F8503513F0FF0F08D1E3
:106A800000BF00BF00BF00BF00BF00BF1368002BE6
:106A90005CD0002C5FD02B689B7803F03003202B58
:106AA0000DD0504B464A0021196028681968C378F8
:106AB00000911B0643F400730099C2F8443605B0F8
:106AC000F0BD404B484E40218022C3F80815C3F862
:106AD00008254FF400714FF48072C3F80815C3F80D
:106AE0000825D3F8002822F08002C3F80028C3F854
:106AF0002C493378002B4AD1394B02221A70337853
:106B0000002B40D12C680CF035F8204608F052FBE1
:106B1000002320461A46194608F05EFC05B0BDE881
:106B2000F0400CF06DB82749254B40201222C1F8E7
:106B30000805C3F80022002402F0ACFE00287FF410
:106B400067AF2A4A4FF0020C6BE77047284B0122CF
:106B50001A60002C9FD108F071FC306000289AD098
:106B600090F88030002B96D0154B174AC3F80405D7
:106B7000C3F80022D3F85035DBB2022B8BD11D4B6A
:106B800001221A6087E70120FFF746FEBAE702F00C
:106B900081FE0F4B18490A4A184F002814BF1846A7
:106BA00008461349C2F808030123C2F800423B60BB
:106BB0000B60A1E7382D0020442D0020402D00203F
:106BC0000010004000F00140120008000C110040CD
:106BD00002000408041100403C71014004F001402F
:106BE0003A2D00205C110040392D002002000400E5
:106BF00010100040081000400A000400301000404F
:106C000004100040F0B5664B1B7887B0ABB103F0C1
:106C1000FF06037844780133A4064FEA431354BFB8
:106C2000CE3303F22E4317460D46044649B103F115
:106C3000A80008F07FFF002876D10026304607B074
:106C4000F0BD184608F076FF0028F6D008F0DAFC10
:106C5000544BC0B2C3F80C05C3F8044502F01AFE49
:106C6000514B002808BF18464E4B18BF4FF4A010D8
:106C7000C3F8000202F00EFE00286CD14B4B4C4CC6
:106C800018601B680493049B0A21002D6DD04948AD
:106C9000494A4A49434D0023036000680390039822
:106CA0001360126808780192454ADDF804C063F366
:106CB000C3000870C5F80443136013680293A2F57B
:106CC000B032029BA2F59C723E4B3D49C3F8481579
:106CD0003D48C3F84C253D4C3D4AC3F82C49C3F808
:106CE0004005C3F84425D3F8002842F08002C3F8D9
:106CF000002880204022C3F80405C3F80425002F93
:106D000047D0284BD3F8503513F0FF0F08D100BF00
:106D100000BF00BF00BF00BF00BF0B68002B38D012
:106D20003E46304607B0F0BD08F06CFC1D4BC0B2CB
:106D3000C3F80C05C3F8044502F0ACFD254B264A08
:106D4000002814BF18461046164BC3F8000202F084
:106D5000A1FD002892D0214B2149224C00221A602B
:106D60001B680593059B002D91D1134B13481D60A3
:106D70001B68047801930B4A114BDDF804C065F3DE
:106D8000C3040470C2F804131D601B680293029BC5
:106D90009AE7154B012230461A6007B0F0BD00BFDC
:106DA000392D002000100040020004000C110040AA
:106DB0000A0004004811004004110040382D002052
:106DC0003C71014000F001401011004004F001400E
:106DD0003C70014000381400023804006C1100407F
:106DE0000200000802000408101000402DE9F047DE
:106DF0004E4C4F4D4F4FDFF864813E6852221823AE
:106E00004FF0400984B0C5F80895C4F80022C4F8D2
:106E1000603502F03FFDDFF848C1474A4749002886
:106E20004FF0000308BF0A22C4F80823CCF8003052
:106E3000DCF800200392039A0B600A684048029233
:106E4000029A036001683F4A01914FF0010A4FF432
:106E50005051DDF804C0C4F80413C2F800A04FF488
:106E60000072C5F808258022C5F80425C8F800304E
:106E7000D8F800300093009BC5F804950BF09EF8FD
:106E8000D4F8503513F0FF0F09D100BF00BF00BF89
:106E900000BF00BF00BFD8F80030002B3DD03B68DA
:106EA000002283F8802008F0C9FA386068B190F8B1
:106EB000803053B11D4B244AC3F80405C3F80022A7
:106EC000D3F85035DBB2022B2BD0204A204913785F
:106ED00023F007031370022008700BF04BFE134BD6
:106EE000D3F8480500F07F0002F0D6FC3378334435
:106EF000044613F8010C02F0F3FC02B29200FF2AE0
:106F000028BFFF22614252B249B2304608F060FA0F
:106F100004B0BDE8F0470BF073BE0E4BC3F800A001
:106F2000BDE70D4B01221A60CFE700BF0010004003
:106F300000F00140402D0020020000082811004010
:106F4000301100401090004052000800382D002001
:106F50003A2D002010100040081000403C71014004
:106F600034110040F0B5B24B1B7885B0092B00F20C
:106F7000E981DFE813F01E00EF006800A50026009D
:106F800026002D00FA0029010A00AA4BAA4A402037
:106F90008021C3F80805C3F80815137803F0FF042F
:106FA000002B00F04081A54B01221A60204605B05D
:106FB000F0BD022900F03781042008F09DFA012479
:106FC000F4E7002840F04A810446204605B0F0BDB1
:106FD0000028F9D0974B984C80204FF480714025C1
:106FE000C3F80855C3F80805C3F80815D3F8001806
:106FF000002021F08001C3F80018C3F82C09237881
:107000007BB18F4B8F498D4C0A25C3F8085301255E
:10701000C3F800022560C3F8440608600B680393B8
:10702000039B002A00F0FF80874B1D68062128463D
:1070300008F0C2F80446002800F0F5802846062132
:1070400008F0CCF9B2E7814B1B78C3F38003002B27
:1070500000F048810028B7D0764B7D4E7D48764DB4
:107060004021C3F808158021C3F808154FF480713A
:10707000C3F80815D3F8001821F08001C3F80018F0
:1070800000240121C3F82C493160D0F8003223F4E8
:10709000A063C0F800322B7853B1A0F5FF40684BD5
:1070A00070384FF45055C3F80853C3F800420160DC
:1070B000002A00F0B8800620144608F08BF975E726
:1070C000002881D05B4B624F62485B4E4021C3F881
:1070D00008158021C3F808154FF48071C3F808150E
:1070E000D3F80018002521F080010124C3F800180E
:1070F000C3F82C593C60D0F8003223F4A063C0F8E8
:1071000000323378002B40F0DD80002A00F08B80C5
:1071100051494B4B0D680192002185F88010D3F83E
:10712000480500F07F0002F0B7FB2B78019A2B4452
:10713000064613F8010C144602F0D2FB02B292008C
:10714000FF2A28BFFF22714252B2284649B208F0F6
:107150003FF92BE7384B1B7803F0FF04002B62D07C
:10716000374B1022C3F8082320E700283FF42CAF48
:10717000304B314C80204FF480714025C3F80855C6
:10718000C3F80805C3F80815D3F80018002021F04B
:107190008001C3F80018C3F82C09237873B128497B
:1071A000264C05F180454FF4004305F6E875C1F81B
:1071B00008330123C1F800022B6023609AB3012039
:1071C000144608F00FF9F1E600283FF4FDAE194B24
:1071D000194C80204FF480714025C3F80855C3F83E
:1071E0000805C3F80815D3F80018002021F0800125
:1071F000C3F80018C3F82C09237873B110490F4C59
:1072000005F180454FF4C02305F57F65C1F80833CB
:107210000123C1F800022B60236022B10120144633
:1072200008F0E4F8C2E60124204605B0F0BD00BF36
:107230003A2D002000F00140392D002010100040B0
:10724000001000405C110040442D0020382D00202B
:107250001090004000900040402D00203D4B3E48E3
:107260004021C3F808154FF400744FF48071802555
:10727000C3F80855C3F80845C3F80815D3F8001833
:10728000002421F08001C3F80018C3F82C490378CA
:10729000002B3FF4C6AE019202F0FCFA2F4E304BA9
:1072A000304905F18045A04208BF334605F57B65AE
:1072B0002D48C1F808330123C1F800422B60036058
:1072C000019AAEE6019202F0E5FA2649274BA84260
:1072D000254808BF0A23C1F80833C1F800520460EA
:1072E000019A12E71B4A224D22481B4C4021C2F84A
:1072F00008158021C2F808154FF48071C2F80815EE
:10730000D2F8001821F08001C2F800180121C2F85B
:107310002C392960D0F8002222F4A062C0F80022A3
:10732000227802F0FF04002A3FF47DAFA0F5FF4071
:107330000C4A70384FF45055C2F80853C2F8003266
:10734000016033E60C4B0D4A0D4840F21D510DF023
:10735000A5FE00BF00F00140392D00200A00040006
:107360000200040800100040101000400200000855
:107370001090004000900040946703008066030076
:1073800044670300F0B583B0164605460F4607F084
:10739000FBFE0446002848D09E4B1B78092B00F2C8
:1073A000D981DFE813F057005D006900A500AC004B
:1073B000AC000A00DD000A014500002D00F09B80B2
:1073C000954B96484022C3F8082580214FF48072DF
:1073D000C3F80815C3F80825D3F80028002122F0C7
:1073E0008002C3F80028C3F82C1903787BB18C4BBA
:1073F0008C4A8D480A25C3F808530125C3F80012AA
:107400000560C3F84416116013680193019B66B1CF
:10741000864B1D680621284607F0CEFE034620B1A4
:10742000284606211C4607F0D9FF204603B0F0BDD0
:10743000794B7A4A40208021C3F80805C3F8081523
:10744000137803F0FF02002BEFD0774B0121144695
:107450001960EAE7022FE8D0042008F04DF8E4E7CD
:107460006E4B1B7803F0FF02002BDED06C4B10211B
:107470001446C3F80813D8E76D4B1B78C3F3800399
:10748000002B00F02A81002D35D0634B694F6A49EB
:10749000624D4022C3F808258022C3F808254FF426
:1074A0008072C3F80825D3F8002822F08002C3F8C0
:1074B000002800200122C3F82C093A60D1F80032DC
:1074C00023F4A063C1F800322B7853B1A1F5FF413A
:1074D000534B70394FF45055C3F80853C3F80002AA
:1074E0000A60002EA1D00620344607F073FF9CE707
:1074F000002D40F0AB802C46204603B0F0BD002D9F
:10750000F9D0454B454940208022C3F80805C3F80F
:1075100008254FF400704FF48072C3F80805C3F8D3
:107520000825D3F80028002522F08002C3F800289F
:10753000C3F82C590B78002B3FF469AF02F0AAF97D
:107540003E493F4B364A3F4FA84208BF0B4636499B
:10755000C2F808330123C2F800523B600B6056E7C3
:10756000002DC8D02C4B2D484022C3F8082580217F
:107570004FF48072C3F80815C3F80825D3F8002823
:10758000002122F08002C3F80028C3F82C190378E8
:107590005BB1234B2C48244A4FF40045C3F80853F1
:1075A000C3F80012012303601360002E3FF43DAFC7
:1075B0000120344607F016FF37E7002D9BD0164B0D
:1075C00016484022C3F8082580214FF48072C3F882
:1075D0000815C3F80825D3F80028002122F08002FE
:1075E000C3F80028C3F82C1903785BB10C4B15487D
:1075F0000D4A4FF4C025C3F80853C3F80012012305
:1076000003601360002E3FF410AF0120344607F0F2
:10761000EDFE0AE73A2D002000F00140392D002050
:10762000001000405C11004010100040442D00206C
:10763000382D002010900040009000400A00040007
:10764000020004083010004028100040454BDFF8CD
:1076500028C1454945484022C3F808258022C3F87F
:1076600008254FF48072C3F80825D3F800280027B6
:1076700022F080020125C3F80028C3F82C79CCF849
:107680000050D1F8003223F4A063C1F8003203782F
:10769000002B51D1002E3FF4C8AE354A354B15684A
:1076A000002285F88020D3F8480500F07F0002F022
:1076B000F3F82B782B44074613F8010C02F010F96D
:1076C00002B29200FF2A28BFFF22794252B2284616
:1076D00049B2344607F07CFEA7E6224A264D2248EE
:1076E0004021C2F808158021C2F808154FF48071B6
:1076F000C2F80815D2F8001821F08001C2F800186D
:107700000121C2F82C392960D0F80022174D22F44B
:10771000A062C0F800222A7802F0FF00002A3FF49D
:1077200084AE144A154D4FF45056C2F8086304460F
:10773000C2F80032296078E602F0ACF80D4A0F4931
:107740000F4BB84208BF0A23C2F80833C2F80072D0
:107750000D609FE70B4B0C4A0C4840F21D510DF099
:107760009DFC00BF00F0014000900040392D00203A
:10777000402D0020001000401090004010100040EC
:10778000020000089467030080660300446703005A
:10779000F0B583B050B108F0E9F93B2804D9CE4DDB
:1077A0002B7803F0FF065BB103B0F0BDCA4D2B7818
:1077B000002B40F0A38003B0BDE8F04008F0B8B95A
:1077C000C64CC74AC4F8FC6F01270F23C4F8FC7FDE
:1077D000C4F81035D4F8143523F00F03C4F8143569
:1077E000D4F8143543F00803C4F81435D4F814352C
:1077F00023F04073C4F81435D4F8143543F0007303
:10780000C4F81435D4F8143523F08063C4F8143563
:10781000D4F8143543F08063C4F81435D4F818351F
:1078200023F0FF03C4F81835D4F8183543F07F036C
:10783000C4F81835D4F8503623F00103C4F8503694
:10784000D4F850363B43C4F85036D4F8343523F0DE
:107850000303C4F83435D4F8343543F00203C4F8D4
:107860003435D4F8343523F44073C4F83435D4F8BF
:10787000343543F40073C4F83435C4F83825FEF7C2
:1078800049FE984BC4F84466C4F8483607F0ACFE8D
:10789000A0F10B03DBB20F2B00F21C81924B0A38D4
:1078A00000EB80000222C4F8080583F80163C3F8E6
:1078B0008021D4F80032002B40F005818B4C2378D6
:1078C000002B40F0F0802378092B00F2F58001A214
:1078D00052F823F0A9770200B97A0200937A0200E5
:1078E000B97A0200897A0200777A0200B97A020036
:1078F0006B7A02005F7A02001F7A02007A4B02263E
:10790000C3F880600446C3F8806183F80103BFF3C5
:107910004F8FBFF36F8F714B0127C3F8FC0FC3F874
:10792000FC7F28700AF042FB3146384607F02CFCF9
:1079300030B96F4B6F4A704840F2CE610DF0AEFB2C
:10794000224631463846FFF70DFB0028F1D0674C40
:107950002378092B00F2E88001A252F823F000BF3F
:10796000B77702000D7A0200F3790200A9790200CC
:10797000897902008979020089790200B7770200CB
:10798000B7770200B7770200022323700BF0F2F8FA
:107990005A4B1C680421204607F00EFC002840F0DA
:1079A00086800BF02DF906E7554B1D68002385F8FE
:1079B0008030022323700BF0DDF8484BD3F84805E4
:1079C00000F07F0001F068FF2B782B44044613F889
:1079D000010C01F085FF02B29200FF2A28BFFF22AE
:1079E000614252B2284649B207F0F2FC0BF008F9A6
:1079F000E1E6444B1B785B077FF5DDAE0BF0BAF890
:107A0000052007F0E7FC0BF0FBF8D4E60026267013
:107A10000AF0CCFA304607F06FFD2E70CBE62B78DB
:107A2000002B3FF4C1AE384A384B2C483849394E08
:107A3000394D0024146014680194019CC3F8482552
:107A40008024C3F84C0501224020C3F84065C3F8E8
:107A50004455C3F80445C3F804050A60A4E60020B1
:107A600003B0BDE8F040FEF7F7BD002003B0BDE86D
:107A7000F040FEF75BBE214B00221868114603B0B0
:107A8000BDE8F040FFF7BEB81C4B0022186801218A
:107A9000F5E72B78002B3FF487AE002003B0BDE85C
:107AA000F040FEF7B9BE2F700AF072FA0BE72046DD
:107AB000042107F093FC74E7184B194A0E4840F272
:107AC000B7610DF0EBFA174B154A0B4840F28F6186
:107AD0000DF0E4FAFEF762FD392D002000100040A1
:107AE00021100100000700FF00E100E03A2D002016
:107AF00048680300B066030044670300442D00207B
:107B0000402D0020382D00203C71014000F0014044
:107B100010100040101100403C70014094670300B9
:107B20009C66030020680300034B044A044840F2AB
:107B3000F9610DF0B3FA00BF94670300B06603006B
:107B4000446703000D480E490E4B002202700A7074
:107B5000D3F8042522F00302C3F80425D3F808253E
:107B600022F00302C3F80825D3F8102522F00F02F3
:107B700042F00402C3F810250BF04ABA3A2D002057
:107B8000392D0020009000400B4B1B7833B10B4B7C
:107B900000210122C3F8FC1FC3F8FC2F084B02226E
:107BA0000021C3F88020C3F8802183F80113BFF3BC
:107BB0004F8FBFF36F8F7047392D002000100040AA
:107BC00000E100E02DE9F04182B006460AF074FEC3
:107BD0000446A0B1294D2B787BB12B78012B0CD01A
:107BE000274F3B7803F0FF086BB90122304611465E
:107BF000FFF7C8FB0646D0B904460AF0F7FE204658
:107C000002B0BDE8F08107F0B1FF3B28EDD81D4B75
:107C100000260122C3F8FC6FC3F8FC2F2E700AF077
:107C2000C5F9304607F068FC44463E70E5E701239D
:107C30002B703B7803F0FF08A3B1134A114B0021CE
:107C400011601268019210220199C3F80423D3F83D
:107C5000501511F0FF0FD0D1397809B1C3F80823BE
:107C60000026DBE785F800800AF0A0F9404607F01F
:107C700043FC344687F80080BFE700BF3A2D002060
:107C8000392D002000100040101100402DE9F04770
:107C900007468846144699460AF00EFE054600B38C
:107CA000184E3378022B14D03378032B11D0DFF821
:107CB00058A09AF80030D3B94A4641463846FFF7F3
:107CC00061FBC0B1022333709AF8003003F0FF0665
:107CD0009BB90CB12846A0470AF088FE2846BDE8AB
:107CE000F087002CFAD0A0472846BDE8F08707F0BF
:107CF0003DFF3B28E0D80025EBE70120FEF78CFD97
:107D00003546E6E73A2D0020392D00202DE9F843CD
:107D1000099C9DF8209005460E4690461F460AF0A5
:107D2000CBFD80B31C4B1B783BBB3146284607F08C
:107D30002BFA78B3284631460122FFF713F905469E
:107D400040B3164E164B022232704046012239468D
:107D5000C3F80080FEF756FFB9F1000F00D0C8B19C
:107D6000002F14BF0423052333700CB12846A0470D
:107D70000AF03CFE2846BDE8F88307F0F7FE3B28F2
:107D8000D3D80AF033FE0CB10020A04700252846C6
:107D9000BDE8F8830025E8E7392D00203A2D0020C2
:107DA000442D002070B505460E460AF085FD0446B8
:107DB000D8B1164B1B78FBB90121284607F0E4F92E
:107DC000A8B1012228461146FFF7CCF8044670B14D
:107DD0000F4A1049104B16600725002201200D7034
:107DE0001A70FEF7A3FC0AF001FE204670BD0024C5
:107DF0000AF0FCFD204670BD07F0B8FE3B28DBD83A
:107E000000240AF0F3FD204670BD00BF392D00208C
:107E1000342D00203A2D0020302D002038B50546A5
:107E20000AF04AFD0446B0B1134B1B78D3B90121C7
:107E3000284607F0A9F980B1012228461146FFF72C
:107E400091F8044648B10D4B082201201A70FEF744
:107E500003FC0AF0CBFD204638BD00240AF0C6FD25
:107E6000204638BD07F082FE3B28E0D800240AF007
:107E7000BDFD204638BD00BF392D00203A2D002021
:107E8000F0B585B004460AF017FD002840D02B4D10
:107E90002B78002B3ED10121204607F075F90028F0
:107EA00041D0012220461146FFF75CF800283AD065
:107EB000234B09221A702B7803F0FF0623B3214AC3
:107EC000214B2249224D0024146014680394214C54
:107ED000039FC3F84825C3F84C15C3F84055C3F8B1
:107EE000444580254024C3F80455C3F80445D1F81F
:107EF000503513F0FF0F07D100BF00BF00BF00BF18
:107F000000BF00BF1368A3B101900AF06FFD019894
:107F100005B0F0BD07F02AFE3B28BCD80AF066FD8C
:107F2000002005B0F0BD002001900AF05FFD01982F
:107F3000EEE7094B012230461A60E5E7392D0020B3
:107F40003A2D00203C71014000F00140001000403B
:107F5000101100403C7001401010004038B504463C
:107F60000AF0AAFCC0B12A4D2B787BB92B780122EC
:107F700084F8802033B1274B1B78DBB2022B24D04E
:107F8000062B0ED00AF032FD012038BD07F0EEFDC1
:107F90003B28EBD80AF02AFD012384F88030012029
:107FA00038BD1D49D1F85035DBB2022BEAD1D1F8EA
:107FB0000032122B24D1194D194B1A482C60C1F8EC
:107FC0000445C1F800021A60DCE71349D1F85035C6
:107FD000DBB2022BD6D1D1F80032522B09D10F4D92
:107FE0000F4B11482C60C1F80445C1F800021A601B
:107FF000C8E70E4B0E4A0F4840F69F310DF04EF881
:108000000D4B0B4A0B4840F6AE310DF047F800BF60
:10801000392D00203A2D002000100040402D002076
:10802000081000401200080052000800D467030046
:108030000067030044670300F867030038B50AF0DF
:108040003BFC0446A0B12E4D2B7853B92D4B1B7829
:10805000023B072B1DD8DFE803F0200D0D0D0D1C92
:108060000D3D07F083FD3B28F0D80AF0BFFC00244B
:10807000204638BD2B7863B107F0B6FAA0F10B03A8
:10808000DBB20F2B3AD80A381F4B00EB8000C3F845
:1080900008050AF0ABFC204638BD2B7863B107F029
:1080A000A3FAA0F10B03DBB20F2B27D80A38164B2B
:1080B00000EB8000C3F80805012211460020FFF7FD
:1080C00061F90028E5D02B78002BE2D00120FEF7E3
:1080D000A3FBDEE72B78002BDBD007F085FAA0F1BD
:1080E0000B03DBB20F2B09D80A380749074B00EB0B
:1080F00080000122C1F808051A60CAE7FEF74EFAAF
:10810000392D00203A2D00200010004010100040B2
:1081100038B50AF0D1FB044630B10A4D2B782BB9A3
:108120002B7863B90AF062FC204638BD07F01EFDCB
:108130003B28F5D800240AF059FC204638BDFEF74C
:10814000E9F9EFE7392D00202DE9F0439BB00AF063
:1081500017FC8A4BD3F80833980720D5884B1A6848
:10816000EAB100221A601A68864B0992099A1B78B4
:10817000033B032B00F2C985DFE813F01A03040068
:1081800004001703804E3468204607F02BF80028BF
:1081900040F075847D4A137843F008031370774CE0
:1081A000D4F80833590538D5794B1A68002A34D0E9
:1081B00000221A601A68734B0892089A1B78022BE7
:1081C00040F08785D4F86055C5F3C705022D8DF8BA
:1081D000505040F285856F4B1B68F3B96B4E337876
:1081E000DA0740F187839F0717D4DFF8BC81D8F8FE
:1081F000003018785B7801309D064FEA401000F19E
:10820000A783A03007F096FC002800F03D84337867
:1082100043F00203337006F0F9FF584BD3F80833EC
:10822000980416D55B4B1A689AB1002018601A683A
:10823000544B0792079A1C78E4B2022C40F01F8539
:10824000FEF7BAF90AF096FC204607F0C3F80AF0E8
:10825000D7FC4A4ED6F80833D9045AD54E4B1A6883
:10826000002A56D000221A601B68464C0693069BD3
:108270002378022B40F01F85444DDFF82C812B78AA
:10828000D8F80070DA0740F120833B465B789E0601
:1082900000F1A3820120FEF78FF97B7803F007033A
:1082A000022B00F06F82D8F80030002283F8802083
:1082B00007F0C4F8C8F8000070B190F880305BB1E6
:1082C0002E4B364AC3F80405C3F80022D3F85035C4
:1082D000DBB2022B00F038830AF04CFC274BD3F8BA
:1082E000480500F07F0001F0D7FA3B783B44044694
:1082F00013F8010C01F0F4FA02B29200FF2A28BF31
:10830000FF22614252B249B2384607F061F80AF0E2
:1083100077FC01F0BFFAA0B1184BD3F808331D0168
:108320000FD51F4B1A6862B100221A601A68154BEC
:108330000592059A1B78DBB2032B40F0BE82FEF754
:1083400055FD0E4BD3F808331C0740F19980154BAF
:108350001A68002A00F0948000221A601B68094CF9
:108360000493049B2378033B032B00F2C784DFE8CC
:1083700013F02C02240224021D0000BF0010004054
:10838000041100403A2D0020442D0020382D0020FB
:108390002811004034110040301100405200080004
:1083A0006C1100400C110040402D0020BB4BBC4E16
:1083B0001B68002B40F0B7823068837803F03003ED
:1083C000202B00F0D1834FF000084746B54BB64D47
:1083D0004022C3F8082580214FF48072C3F80815A5
:1083E000C3F80825D3F80028002022F08002C3F843
:1083F0000028C3F82C092B78ABB1AC4BA74A01F18C
:1084000080414FF00A0C01F57961C3F808C34FF0C1
:10841000010CC3F80002C1F800C0C3F844061060A4
:1084200013681493149B022323702B7813B101203B
:10843000FEF7F2F9B8F1000F00F09C829B4BD3F8E5
:10844000480500F07F0001F027FA3B783B440546E1
:1084500013F8010C01F044FA366800B284000AF007
:1084600089FB304606F0A6FEFF2C28BFFF246A4297
:1084700063B252B23046394606F0AEFF0AF0C0FB96
:108480008A4BD3F80823D0061AD5894A1168B9B1A6
:10849000002111601268874C0E920E9A2278012AF0
:1084A00040F00284804D2A7812B11022C3F80823CC
:1084B0000026267009F07AFD304607F01DF82E7070
:1084C0007A4BD3F8082391033BD57B4A11680029E6
:1084D00037D0002010601268764C0392039A2278FD
:1084E000082A40F0DA836F4A6F4D4021C2F8081520
:1084F0008021C2F808154FF48071C2F80815D2F82F
:10850000001821F08001C2F80018C2F82C092A785E
:1085100052B16A496A4A4FF4C026C3F80863C3F8E7
:10852000000201230B601360022323702B78002BC1
:1085300040F01D810AF01EFB012006F055FF0AF0F5
:108540005FFB5A4ED6F808335A033AD55D4B1A688A
:10855000002A36D000271F601B68564C0293029BEE
:108560002378DBB2042BC0F0AD83052B40F2CE8024
:10857000082B40F0A7834B4B4B4D4022C3F80825F6
:108580008022C3F808254FF48072C3F80825D3F879
:10859000002822F08002C3F80028C3F82C792B7839
:1085A000002B40F07E81022323702B7813B1012031
:1085B000FEF732F90AF0DEFA002006F015FF0AF0A5
:1085C0001FFB3A4ED6F808331B0461D53E4B1A68A0
:1085D000002A5DD000251D601B68364C0193019B6D
:1085E0002378072B40F04483384FD6F868363A7822
:1085F000DFF8E090DBB29342D9F8008038BF134631
:108600003B70B8F1000F67D106F0EEFFA0F10B034D
:10861000DBB20F2B00F22A83224B234D0A38402273
:1086200000EB8000C6F80805C3F808258022C3F8CF
:1086300008254FF48072C3F80825D3F8002822F0EB
:108640008002C3F80028C3F82C892B7853B14FF46B
:1086500000431F491A4AC6F808330123C6F80082AE
:108660000B601360022323702B7813B10120FEF7F7
:10867000D3F8387801F058F900B284000AF07AFA99
:10868000FF2C28BFFF24E0B206F0AAFE0AF0B8FAD9
:108690000AF0ACF91BB0BDE8F08300BF5C110040EC
:1086A000442D002000F00140392D00200010004032
:1086B000101100403A2D00204411004030100040BD
:1086C00010100040481100403C110040302D0020A7
:1086D00028100040342D002007F048FAB0F5C07F84
:1086E000C0F00081C009821E4FEAD8139A429CBF95
:1086F000A8EBC215C31EB24AB248C9F80050C3F372
:1087000014030121C0F864361160C1E7AE4BAF4DD0
:108710004022C3F808258022C3F808254FF40072D0
:10872000C3F808254FF48072C3F80825D3F8002851
:1087300022F08002C3F80028C3F82C792B78002B94
:1087400040F02A81022323702B7813B10120FEF719
:1087500063F80AF00FFA9E4B1C680121204606F0D0
:108760002BFD002840F013810AF04AFA29E7012086
:10877000FEF752F80AF0FEF9012006F035FE0AF085
:108780003FFADEE606F010FF00287FF48CAD8D4B3B
:10879000904AC3F80022D3F85035DBB2022B7FF4A5
:1087A000B8AD8D4B01221A60B3E506F031FDF6E459
:1087B0008A4B186802F0CEF9F1E401F06BF800285A
:1087C0007FF45EAEFEF7F8F85AE601F063F8002891
:1087D0007FF456AEFEF70AFB52E606F0F5FE0028DF
:1087E0003FF458ADD8F800000AF01AFC7B4B186033
:1087F00000283FF44FAD734EDFF80892C6F8040529
:1088000001F048F87649774A6F4BDFF8FCE1DFF872
:10881000F0C1002818BF4FF4A0120020C6F80022B3
:1088200008600A680D924FF4007501200D9AC3F894
:108830005895C3F85C65C3F80455CEF80000DCF821
:108840004CE5DCF8442596450ED300BF00BF00BFC1
:1088500000BF00BF00BFD6F85025D2B2092A03D00E
:108860000A68002A00F0CE81564B03214FF4505283
:108870002170C3F8082301F00DF8002800F0BB8137
:10888000594B5A4A002119601B680C930C9B584B9A
:108890004C49002018601B680A930A9BC1F8042306
:1088A00037E54FF4C0235349534AC6F80833012330
:1088B000C6F800720B60136075E6C0F0E781052B07
:1088C00000F2E481FEF778F83BE506F06DFE002843
:1088D00000F0A0802B78DB0748BFD8F800303FF5C8
:1088E000D5ACD7E4384BC9F800804FF48072C3F898
:1088F0000825CDE6DFF8148143F00403D8F8000022
:10890000337014A907F018FD074620B3092800F0BA
:10891000EB8006F049FE002800F0E68033789C07E3
:108920003FF57BAC63E4274BD3F80034DBB2012B7B
:108930007FF442ADDFF8D480D8F80070002387F8C8
:1089400080304FF0010841E5234B01221A60C3E457
:1089500000F5307056E49DF8503032789D42C2F3F5
:10896000400100F04081DB00C4F8603500297FF44D
:1089700054AC3CE40AF0FEF834680221204606F0CC
:108980001BFC002840F02A810AF03AF978E52046DD
:10899000012106F023FDE7E600F07CFF174BDFF82E
:1089A00070C01449144A002814BF184660460123B9
:1089B000C6F80803C6F800720B601360C2E600BF79
:1089C000241000400010004000F00140392D00202C
:1089D000442D002052000800081000403C2D0020CB
:1089E00054110040020004006C1100400200000815
:1089F0000411004030100040101000400200040834
:108A000000900040449100404C900040402D0020D8
:108A10000A000400C04BC14CC149C24D4022C3F8FA
:108A200008258022C3F808254FF48072C3F8082572
:108A3000D3F8002822F08002C3F800280122C3F8EE
:108A40002C092260D1F8003223F4A063C1F800326F
:108A50002B783BB1B44B4FF45051C6F80813C6F80D
:108A600000021A602B7813B10120FDF7D5FE0AF041
:108A700081F8042006F0AEFC0AF0C2F849E4204672
:108A800002F088F8FFF786BBA34BA44DA449A54C80
:108A90004022C3F808258022C3F808254FF48072CD
:108AA000C3F80825D3F8002822F08002C3F8002874
:108AB0000122C3F82C092A60D1F8003223F4A06304
:108AC000C1F80032237853B1A1F5FF41974B7039BB
:108AD0004FF45054C3F80843C3F800020A6005205D
:108AE00006F078FCFFF799BB8B4B8C4C8C498D4D75
:108AF0004022C3F808258022C3F808254FF480726D
:108B0000C3F80825D3F8002822F08002C3F8002813
:108B100000200122C3F82C092260D1F8003223F48E
:108B2000A063C1F800322B7843B1804B7E494FF4EB
:108B30005054C3F80843C3F800020A602B7813B1FD
:108B40000120FDF769FED8F800305B7803F00703D9
:108B5000022B3FF462AB0AF00DF8384606F03AFCFF
:108B60000AF04EF8FFF759BBDFF8E481D8F800505F
:108B7000AB7803F03003202B7FF425AC6B7803F047
:108B80000703022B7FF41FAC684BD3F80034DBB231
:108B9000012B7FF418AC0EA909F06AFD002800F043
:108BA000A680284614A909F063FD00283FF40BAC09
:108BB000119800283FF407AC159900293FF403AC45
:108BC0009DF84D309DF864209A427FF4FCAB0CF088
:108BD000D5FA00283FF4B0AEFFF7F5BB20460221DE
:108BE00006F0FCFBD0E642F00102327000297FF46F
:108BF00014ABFFF7FCBA4E4B18601B680B930B9B32
:108C00000A2244E6D8F80010444C81F88020402124
:108C1000C3F80855C3F8081580254FF48071C3F8D0
:108C20000855C3F80815D3F800183E4D21F080010F
:108C3000C3F80018C3F82C292060DCF8003223F4B4
:108C4000A063CCF800322B783BB1374B4FF4505136
:108C5000C6F80813C6F8002218602B78002B3FF4E2
:108C60003BAB0120FDF7D8FDFFF736BBFDF796FCC7
:108C7000304B314A314840F6A8210CF00FFA2D4B09
:108C80002D4A2E4840F606210CF008FA294B2A4AB4
:108C90002A4840F633210CF001FA264B264A274891
:108CA00040F67D210CF0FAF9224B234A234840F686
:108CB0006A210CF0F3F91F4B1F4A204840F61A2195
:108CC0000CF0ECF91B4B1C4A1C4840F695210CF0AB
:108CD000E5F9184B184A19484FF41F610CF0DEF9FA
:108CE000174B184A154840F231710CF0D7F9164B62
:108CF000164A124840F656110CF0D0F90D4B0E4AA8
:108D00000E4840F657210CF0C9F90A4B0A4A0B48A5
:108D100040F6DB110CF0C2F900F001401090004069
:108D200000900040392D002010100040001000403D
:108D30000C11004094670300F466030044670300CD
:108D40009C670300C4660300C4670300DC6603007D
:108D5000402D002048DF704749DF70474ADF7047E9
:108D600067DF7047F0B5734B1A6885B0002A00F0D2
:108D7000D980714C2278012A59D0704A70494FF439
:108D800080350020C2F8085318601B680093009BD0
:108D90000B786C4D33B1D2F840352A68A96813447A
:108DA0008B423ED36849EA89D1F84435D1F804159D
:108DB000664F013B5B1A23F07F4343F6095640F2AE
:108DC000FF100021E6FB0301460A931C46EAC15648
:108DD000B34238BFF21A2B8A58495D4E554D28BF11
:108DE0000022283302FB03F3012003F574233860CB
:108DF00003F23F23A6FB0363D1F8446520700020F3
:108E000028602D68534C03953244A2EB93434FF4F2
:108E10008032039DC1F84035C1F80423207005B0AD
:108E2000F0BD4C4B01215A60197005B0F0BD454DA5
:108E30001868EA890232002837D04349D1F844350E
:108E4000D1F80415013B5B1A23F07F4343F6095622
:108E500040F2FF100021E6FB0301430A43EAC1533D
:108E6000934202D99B1A1F2B1FD83B4B00221A702A
:108E70001B78022B03D0324B1B78002B4FD1374B82
:108E80004FF48072C3F88020BFF34F8FBFF36F8F12
:108E90003348284A2F4900230124046013601268D4
:108EA0000192019A0B7005B0F0BD2749D1F8443505
:108EB000D1F80415013B5B1A23F07F4343F60956B2
:108EC00040F2FF100021E6FB0301430A43EAC153CD
:108ED000934222D800212B8A1C4F18481C4A154D5A
:108EE000283301FB03F3012603F574233E6003F2EC
:108EF0003F23A2FB0323D0F84425267000242C60D6
:108F00000A4429680291A2EB93434FF480320299FC
:108F1000C0F84035C0F8042381E7991ADBE706F072
:108F20007FFEACE70F4B104A104840F2E5110CF001
:108F3000B5F800BF408100407C2D0020008000403B
:108F40005C2D0020482D002000B0004044800040EF
:108F500083DE1B43742D0020832D002000E100E000
:108F6000048000409467030050680300DC6903003C
:108F7000F0B59549954A0B78002483B01470002B06
:108F800060D004285BD8DFE800F0B18C919B03002F
:108F90008F480378012B00F07C818E4CD4F8443547
:108FA000D4F80455013B5B1B23F07F43062B40F2B2
:108FB0002F81894B894C8A484FF48075C3F88051C2
:108FC00023880568AB4200F0FB80008A854D28307D
:108FD00003FB00F000F5742000F23F20A5FB0050D9
:108FE000A3EB90439BB28048804ED0F840552B4471
:108FF0004FF48035C0F84035C0F8045330887C4DBC
:1090000020802B889BB26BB1754C2B88A4899C4225
:1090100008D92B88013340089BB20124308050606E
:109020002B801470734B1A78022A08D002221A700F
:109030001B78934203D10B780BB106F099FD63487E
:1090400003B0F0BD03F0FF056B4B6A491B785F4826
:109050000D70A34214BF02232346137003B0F0BD6A
:10906000664B1B68002B00F028815A4A5C48D2F8F6
:109070004435D2F80415C289013B5B1A23F07F43C3
:1090800043F6095440F2FF100021E4FB0301430AB8
:1090900043EAC15302329A4203D29B1A1F2B00F2B9
:1090A0000C81FFF75FFE494803B0F0BD514B1B78C0
:1090B000022B00F0FD80484B0222C3F88020BEE75F
:1090C00043480378012B3BD1454C494BA089198873
:1090D0008842B4D9454C198820880131400889B2AA
:1090E00001252080506019801570A8E7414B1B783E
:1090F000DBB2012B40F0E480354E414D41483A4906
:10910000002434702B600360D1F80805324E344DD2
:1091100040F00300C1F80805C1F840450B604FF46A
:109120008071316028683149314D13702C802B4B90
:109130000C88088085B2254855601C8003B0F0BDBE
:109140002449274CD1F84435D1F80415DFF8BCE0A8
:10915000DFF890C0013B5B1A23F07F4343F60951CF
:1091600040F2FF160027E1FB0367E389710A41EA39
:10917000C75102338B4238BFC91A238A1A4E1F4F78
:1091800028BF0021283301FB03F3012503F57423D5
:10919000CEF8005003F23F23ACFB03C3D6F844C51E
:1091A000057000203860386800906144A1EB93435B
:1091B0004FF480310098C6F84035C6F8041384E7B0
:1091C000114B1B880FE700BF5C2D0020742D002081
:1091D0007C2D002000B0004000E100E0622D002066
:1091E000482D002083DE1B4300800040802D00209E
:1091F0007E2D0020832D0020822D00204081004004
:10920000048000400C8000405E2D0020448000401F
:10921000D4F84435D4F804552D4CDFF8DCE0DFF801
:10922000DCC0013B5B1B23F07F4343F6095540F252
:10923000FF160027E5FB0367E389750A45EAC75572
:109240000233AB4238BFED1A238A224C224F28BF8B
:109250000025283305FB03F3012603F57423CEF81C
:10926000006003F23F23ACFB03C3D4F844C506708F
:1092700000263E6005EB0C003D680195A0EB934392
:109280004FF48030019DC4F84035C4F804031670D3
:10929000C8E6124B0F4D124E124C4FF48070C3F8BB
:1092A0008001D5F8403530880344C5F84035A6E63E
:1092B0000D4B1B78012B3FF4D3AE01F01BFCBEE637
:1092C0000A4B0B4A0B4840F20B210BF0E7FE00BFA4
:1092D000482D0020008000404081004000E100E077
:1092E000802D0020622D00207C2D0020AC69030021
:1092F00064680300DC6903004480004083DE1B4394
:1093000070B52D4C227882B0002A40D12B482C4BCE
:109310002C4D02704FF4C8502A702B492B4A18600C
:1093200041F294152A485D609A604FF4FA7541F64F
:10933000FC02D86027481D820A80FFF70BFD68BB3E
:109340004FF440552B78142B0BD943F21406224AC4
:109350003368934209D8214A934202D9204B012213
:109360001A700123237002B070BD014608226846BE
:109370000BF020FF0123694604208DF80030FFF731
:10938000EFFC90B92B78142BEBD93368E3E7154B3E
:10939000154A164840F2BB210BF080FE144B124ACE
:1093A000124840F2CB210BF079FE114B0E4A0F48C8
:1093B00040F2DA210BF072FE602D00205C2D0020BF
:1093C000482D0020832D00205E2D0020000E270751
:1093D00005007E00718F020068915B0067915B0061
:1093E000822D00200069030074680300DC6903001B
:1093F0001069030008B50D4B1A7842B1FFF7ACFCB9
:1094000060B90B490B4A08701870107008BD0A4B00
:109410000A4A0B4840F2EA210BF040FE094B074A8A
:10942000074840F2EE210BF039FE00BF602D00200E
:109430005C2D0020832D0020286903008468030030
:10944000DC690300106903002DE9F8431F4B1B780A
:1094500073B31F4B1A7892BB01251E4C1D702378E5
:1094600003F0FF070BB1BDE8F883DFF884801A4EE4
:10947000DFF88090194BD8F80020A9F8002030467A
:10948000102239461F800BF095FEB9F80030D8F84D
:109490000420B360304640F20113F260377025704B
:1094A000B380FFF75BFC0028DDD02770BDE8F883B0
:1094B0000B4B0C4A0C4840F2FD210BF0EFFD0B4B1F
:1094C000084A094840F2FE210BF0E8FD602D00201B
:1094D0005C2D0020832D0020642D00207E2D002097
:1094E0002869030094680300DC69030038690300FD
:1094F000482D0020802D002030B51C4B1B7883B0F8
:1095000063B31B4A137813B31A4B1B78DBB2022BDD
:1095100003D00023137003B030BD17494FF480709F
:10952000C1F88000BFF34F8FBFF36F8F1348144C07
:10953000012505600020206024680194019C1070C2
:10954000BFF35F8FC1F800310B6003B030BD0D4B2E
:109550000D4A0E484FF444710BF0A0FD0C4B0A4A23
:109560000A4840F20F310BF099FD00BF602D00203A
:109570005C2D0020832D002000E100E004800040ED
:1095800040810040F0680300B4680300DC69030018
:1095900028690300704700BF38B51F4B1A7802F0E6
:1095A000FF037AB11D4B1A78022A0DD11B78022BCA
:1095B0000DD000231A4A1278012A25D1834294BF84
:1095C00000230123184638BD0023184638BD154B2B
:1095D0001549D3F84425D3F80435C989013AD21A7C
:1095E00022F07F4243F6095340F2FF140025E3FBCB
:1095F0000245630A43EAC5538A1C9A42D9D29B1A90
:10960000B3F5965FDAD2D5E7084B094A09484FF41B
:109610004E710BF043FD00BF5C2D0020832D002018
:109620007C2D002000B00040482D00205069030030
:10963000D4680300DC690300124B1B78022B01D0B5
:109640000020704730B4104A1049D2F84435D2F89F
:109650000425C989013B9B1A23F07F4343F6095235
:1096600040F2FF140025E2FB0345600A40EAC550C2
:109670008B1C834202D3002030BC7047C01A30BC20
:10968000704700BF832D002000B00040482D00200F
:10969000F0B595B0002415460F4608461E4602F068
:1096A000CBFA384623460895082205A91A9D099643
:1096B0000D950A948DF82C400C9402F021FB9DF836
:1096C00014308DF81140DDE9061003F00302012A81
:1096D000CDE9020127D0022A04D0384602F0B0FAC0
:1096E00015B0F0BDBDF81650C3F3C2038DF81030AD
:1096F000AD090826082D2C4628BF082433462246EB
:109700000EA9384602F0FCFA2D1B214608AB02AA2E
:109710000EA8264405F0DAF8002DEBD1384602F009
:109720008FFA15B0F0BDBDF81460059DC6F3831621
:10973000C3F3C204B2000EA9384608238DF81040C6
:10974000C5F3952502F0DCFA08AB324628460EA98F
:10975000009302AB05F044F8384602F071FA15B0F8
:10976000F0BD00BF2DE9F041054684B00F46164616
:1097700072B607F00BFF06F011FF0028FBD1294B52
:10978000294CE41AE40841F2010324049D4244F008
:10979000010423D01AD944F201039D422CD044F293
:1097A00002039D4222D12046338872681F4907F088
:1097B000D7FB1F4B1B68DB0700D500BE324639467E
:1097C000284604B0BDE8F04105F0FEB8012D0DD1EA
:1097D00020463246174907F0E3FAEAE700962046AA
:1097E0003B462A46144907F0A3FCE2E720463A46E6
:1097F000124907F0D5FADCE7D6F80880404608F0B1
:10980000C1FC33680E49CDE90137736800934246C5
:109810000346204607F07AFD20460A4907F0D2F8B1
:10982000C7E700BFF48903002C8A0300946A030091
:10983000F0ED00E0486A0300686A0300EC6A030088
:10984000B06A0300D86A030000B5074B93E8030031
:1098500083B006220090ADF80410044869460BF06E
:109860009BFC03B05DF804FB046B0300842D002017
:1098700010B5064CC378E370FCF768FD002814BFF0
:10988000122302236370204610BD00BF842D0020E8
:10989000704700BF0020704710B5044608F03AFB3F
:1098A00010F11D0F0ADB10F1090F04DB0A2808DC98
:1098B0000134E0B210BD0234E0B210BD0334E0B2B6
:1098C00010BD1E2807DD322807DD4628D4BF023C24
:1098D000033CE0B210BD204610BD013CE0B210BD1B
:1098E00010B5044608F016FB10F11D0F0ADB10F14D
:1098F000090F04DB0A2808DC013CE0B210BD023C81
:10990000E0B210BD033CE0B210BD1E2807DD3228D6
:1099100007DD4628D4BF02340334E0B210BD204630
:1099200010BD0134E0B210BD10B5044608F0F2FAE3
:1099300010F11D0F0ADB10F1090F04DB0A2808DC07
:10994000013CE0B210BD023CE0B210BD033CE0B20D
:1099500010BD1E2807DD322807DD4628D4BF02349B
:109960000334E0B210BD204610BD0134E0B210BD9A
:1099700010B5044608F0CEFA10F11D0F0ADB10F105
:10998000090F04DB0A2808DC013CE0B210BD023CF0
:10999000E0B210BD033CE0B210BD1E2807DD322846
:1099A00007DD4628D4BF02340334E0B210BD2046A0
:1099B00010BD0134E0B210BD2DE9F047002388B09E
:1099C000CDE90233C84A1668012E00F047821E46D0
:1099D000C64B1A68012A00F03382C54B1A68012A67
:1099E00000F02082C34B1A68012A00F00D82C24B9E
:1099F0001A68012A00F0FA81C04B1A68012A00F0A7
:109A0000E781BF4B1A68012A00F0D481BD4B1A6868
:109A1000012A08D0BC4B1A68012A00F02A820EBB2A
:109A200008B0BDE8F087B94AD2F804231706F1D58B
:109A300000221A60196800916033196800980129A2
:109A400046F080060ED11A601B6801934FF0A042C9
:109A5000019BD2F81025AE4B0292D3F81035039338
:109A600046F00046AB4F00240125A30003F18043DC
:109A70002E4203F5C0434FEA45050BD0D3F810053D
:109A800057F82420D3F81015C0F30520C1F3014185
:109A900002B190470134082CE7D1002EC0DA0DF155
:109AA00010089C4C9A4F0023C8F80430049394F992
:109AB00060304FF0FF304FF0FF315D1CCDE9060103
:109AC0004FF0010600F0F5805FFA83FC2CF0C00037
:109AD00008AB4FEAD00903EB090E0CF007031EF8A0
:109AE000082C06FA03F312EA030521D022184FEAE4
:109AF0009C1192F9302054F82220002A00F0348181
:109B0000032900F033811F2800F2E98005464FF059
:109B1000A04C0CEB850C1EF8185CDCF800E71D402F
:109B2000CEF3014E40F0CF80BEF1030F00F0B381C1
:109B300094F96130581C32D0DBB223F0C00008AA7F
:109B40004FEAD00E02EB0E0C03F007011CF8082CB4
:109B500006FA01F912EA090F21D02218990992F99F
:109B6000302054F82220002A00F01081032900F050
:109B700010811F2800F2F48003464FF0A04E0EEB38
:109B800083031CF818ECD3F800C71EEA090FCCF3C6
:109B9000014C40F0D980BCF1030F00F08E8194F9A4
:109BA0006230591C32D0DBB223F0C00008AA4FEA61
:109BB000D00E02EB0E0C03F007011CF8082C06FA7D
:109BC00001F912EA090F21D02218990992F93020DF
:109BD00054F82220002A00F0CF80032900F0CF8023
:109BE0001F2800F2A58003464FF0A04E0EEB830322
:109BF0001CF818ECD3F800C71EEA090FCCF3014C8F
:109C000040F08A80BCF1030F00F06B8194F963305F
:109C10005A1C33D0DBB223F0C00008AA4FEAD00EA2
:109C200002EB0E0C03F007021CF8081C06FA02F205
:109C3000114223D004EB0009990999F9309054F8A6
:109C40002990B9F1000F00F0AB80032900F0AB8040
:109C50001F288BBFBE464FF0A04E03F01F030346E4
:109C60000EEB83031CF818ECD3F800C71EEA020FB2
:109C7000CCF3014C60D1BCF1030F1CD0002D3FF49C
:109C8000CFAE4FF0A042029BD2F81015D7F81005C6
:109C90008B4203D1039B83423FF4C2AEDDE9042330
:109CA000CDE9062394F960305D1CCDE902107FF404
:109CB0000BAF00253CE7032900F02981B9F1000F23
:109CC000DCD0C847DAE7BEF1020FF2D1032900F079
:109CD00039810025002A3FF42BAF904728E70CF08C
:109CE0001F05BC4615E700BF00610040046100404D
:109CF000086100400C6100401061004014610040A8
:109D0000186100401C6100407C6100400060004020
:109D100000030050902D0020BCF1020F7FF476AFBD
:109D2000032900F00C81002A3FF470AF90476DE7E3
:109D300003F01F03BE4659E7BCF1020F9ED1032971
:109D4000BCD14FF4403CE4E0BCF1020F7FF427AFFC
:109D5000032900F0F180002A3FF421AF90471EE76D
:109D600003F01F03BE460AE70329A2D118F80950E1
:109D70001D4308F80950C6E603297FF447AF18F8D9
:109D80000EA04AEA090A08F80EA029E703297FF481
:109D900006AF18F80EA04AEA090A08F80EA0E8E68D
:109DA00003297FF46BAF18F80EA04AEA020A08F8FC
:109DB0000EA04DE7654AD2F8042352067FF526AE81
:109DC00000221A601B680093009B46F040061DE6C7
:109DD0005E4AD2F8042391067FF513AE00221A6082
:109DE0001B680093009B46F020060AE6574AD2F80B
:109DF0000423D0067FF500AE00221A601B68009392
:109E0000009B46F01006F7E5504AD2F804231407E9
:109E10007FF5EDAD00221A601B680093009B46F0B1
:109E20000806E4E5494AD2F8042355077FF5DAAD80
:109E300000221A601B680093009B46F00406D1E5DF
:109E4000424AD2F8042397077FF5C7AD00221A6073
:109E50001B680093009B46F00206BEE53B49D1F823
:109E6000041311F0010150D0136013680093009B9C
:109E7000AEE500221A601B6801934FF0A042019BDF
:109E8000D2F81025324B0292D3F810350393002EEE
:109E90003FF405AEE4E503297FF41CAF4FF4003531
:109EA000DCF8003723F44033CCF80037DCF8003717
:109EB0002B43CCF8003701250CE703297FF44BAF87
:109EC0004FF4003ED3F800C72CF4403CC3F800C761
:109ED000D3F800C701354EEA0C0CEDB2C3F800C749
:109EE00039E703297FF41FAF4FF4003ED3F800C7D2
:109EF0002CF4403CC3F800C7D3F800C701354EEA44
:109F00000C0CEDB2C3F800C70DE70E4660E54FF448
:109F1000003CD3F8002722F44032C3F80027D3F8DE
:109F20000027013542EA0C02EDB2C3F80027B9F16F
:109F3000000F7FF4C6AEA4E64FF4403EC2E74FF4F4
:109F4000403ED3E74FF44035AAE700BF0060004031
:109F50000003005070B52C4A82B0012102E0C2E833
:109F6000431FDBB1D2E84F3FDBB28DF803309DF8E1
:109F70000330002BF3D0BFF32F8F244B1B682BB182
:109F8000234B18680230400802B070BD204B1A689D
:109F9000D207F6D41868400802B070BD1D4C0225E7
:109FA000C4F80853BFF35F8F1848016851B9184BC4
:109FB0001868C4F8045301304008BFF35F8F117074
:109FC00002B070BD12490E6801360E60BFF35F8F9C
:109FD00003600068019001980868C4F804530130D8
:109FE0004008BFF35F8F13700B68DC0704D50B6864
:109FF00001330B6002B070BD074B084A08484FF4AC
:10A0000086710BF04BF800BF042E00200441024083
:10A01000082E002000400240AC6B0300306B0300B0
:10A02000C46B0300F0B51B481B4C1C4A1C490023A1
:10A030000026002783B00360C1E900672370136026
:10A04000FCF754FA2378002BFCD01649164B174C1A
:10A050001748C02281F8242310250022C1F884511A
:10A060004D60C3F8082522602168019102244FF455
:10A070008031019DC3F84443C3F80443C3F8081377
:10A08000C3F84813026002680092009901221A6026
:10A0900003B0F0BD082E0020FC2D0020002E002073
:10A0A000102E002000E100E0004002400441024088
:10A0B0004041024030B4194A194B1A4C1A481B4906
:10A0C0000125156000224FF48035C3F8085384B091
:10A0D000C3F848532260246803940224039DC3F804
:10A0E0000843C3F848430260006802904FF4003010
:10A0F000029CC3F84803C3F808030A600968019189
:10A100000B4B01981021C3F88410C3F8841183F815
:10A11000242304B030BCFCF7EFB900BF0440024078
:10A12000004002404041024004410240444102409C
:10A1300000E100E0054B5B68DB0602D5044B012221
:10A140001A60024B1022C3F88420704700E100E03F
:10A15000002E0020044B1A6822B1044A002010216E
:10A1600018605160704700BF002E002000E100E041
:10A17000F0B583B0FFF7EEFEBFF35F8F374BD3F838
:10A180000465BFF35F8F364A012102E0C2E8441F35
:10A190006CB3D2E84F3FDBB28DF803309DF803304B
:10A1A000002BF3D0BFF32F8F2E4B1B68C3B12E4B68
:10A1B0001B6802335B08984218BF284A2B4818BF17
:10A1C000D2F8046540F2FF1443F609520025E2FB81
:10A1D0000645620A42EAC55203FB002003B0F0BD07
:10A1E000214B1A68D207E3D41B685B08E3E71B4DD9
:10A1F0000227C5F80873BFF35F8F1A4B196849B976
:10A20000194B1B68C5F8047301335B08BFF35F8FFC
:10A210001170D0E71449D1F800C00CF1010CC1F85D
:10A2200000C0BFF35F8F1C601B680193019B0B682C
:10A23000C5F8047301335B08BFF35F8F14700A68BD
:10A24000D40703D50A6801320A60B4E7084B094A0B
:10A2500009484FF486710AF021FF00BF0040024018
:10A26000042E002004410240082E00200080841E9D
:10A27000AC6B0300306B0300C46B03001F207047FE
:10A280002DE9F04F85B006468B46FFF763FE814609
:10A29000BFF35F8FDFF83C82D8F80475BFF35F8FA0
:10A2A000FFF758FE814518BFD8F804758649DFF8D6
:10A2B00024C243F6095340F2FF184FF00009E3FBB4
:10A2C00007894FEA582242EAC9524FEA5923E1FB73
:10A2D000002396424FF48031CCF808131046CCF896
:10A2E000441303D9B11A0029C0F2D1808642C0F0CC
:10A2F000C6809A461BEB06084FF000014FF0000C99
:10A3000041F1000918EB0C0E49EB0A0A6F494FEABC
:10A310005E3848EACA48A8FB01894FEA5A3001FB77
:10A3200000994FEA187141EA09114FEA197848017A
:10A330004FEA4816401A46EAD16666EB08064FEA2D
:10A3400086194FEA801B49EA9069BBEB000069EB74
:10A350000606F6004FEAC00946EA507619EB0100FE
:10A3600046EB0806BEEB00046AEB06054FEA482000
:10A370004FF00009DFF87081A94508BFA04540EA09
:10A38000D1504FEA4121C0F09880DFF86081504EF3
:10A3900040F2314E0EFB04FE08FB05EEA4FB0889DB
:10A3A000F1444FF0FF3E18EB0E0E47F6FF7444EBFE
:10A3B0000905ED0B69184CEB00084D014FEA4814F4
:10A3C000B5EB010C44EAD16464EB080084014FEA68
:10A3D0008C15B5EB0C0544EA9C6464EB0004E400C6
:10A3E000E80044EA557440F2FF1C451844EB0804A9
:10A3F000002015EB0C0540EB04044FEA552A4AEA0D
:10A40000C45A4FEA542BC6E900AB324CC4F840158D
:10A41000D4F80415B9421ED0FFF79CFD0746BFF3E0
:10A420005F8FD4F80455BFF35F8FFFF793FD87422A
:10A4300018BFD4F80455244943F6095440F2FF12DA
:10A440000023E4FB0523520AD6E900AB42EAC352DB
:10A450005B0AE1FB002312F13E0143F1000300918E
:10A460000193DDE900345C4508BF534513D2194B15
:10A470004FF48032C3F8042305B0BDE8F08F801B91
:10A480000028BFF636AF111C43F1010A32E7111C58
:10A4900043F1FF3A2EE7104A0E4B0021116012687B
:10A4A000039203994FF48032C3F84823C3F808237A
:10A4B00005B0BDE8F04F04F033B8084B084A09482E
:10A4C00083210AF0EBFD00BF0080841ED07B63086F
:10A4D000102E00200040024040410240486B030023
:10A4E000146B0300586B0300452C16007B2DE8BD50
:10A4F000074A084B4FF480310020C2F8481382B05D
:10A50000C2F8081318601B680193019B02B07047E2
:10A5100000400240404102402DE9F84F5D4CDFF819
:10A520008CB1DFF88CA1FFF715FD8046BFF35F8F7C
:10A53000D4F80455BFF35F8FFFF70CFD804518BFBB
:10A54000D4F80455544943F6095340F2FF184FF02C
:10A550000009E3FB05894FEA582242EAC9524FEA53
:10A560005923E1FB002312F13E0C43F100004FEAB6
:10A570005C3242EAC042A2FB0B23410B0BFB0133CE
:10A58000110F41EA03111A0F4FEA411E5301BEEBAE
:10A59000010E43EAD16363EB02084FEA88134FEAE6
:10A5A0008E1943EA9E63B9EB0E0E63EB0803DB00E2
:10A5B0004FEACE0843EA5E7318EB010E42EB030349
:10A5C000BCEB0E0660EB0307DFF8E8804FF00009F4
:10A5D000B9454FEA422E4FF4003008BFB0454EEA6D
:10A5E000D15EC4F808034FEA41214FF00002C4F8DD
:10A5F000440348D340F2314303FB06F3A6FB0A8928
:10A600000AFB073399444FF0FF3318EB030347F677
:10A61000FF7349EB0303DB0B591842EB0E0C4B01A4
:10A620004FEA4C12B3EB010E42EAD16262EB0C0826
:10A630004FEA8E134FEA8812B3EB0E0342EA9E6292
:10A6400062EB0802D2004FEAC30EC4F8441542EA96
:10A650005372C4F804031EEB010340F2FF1142EBF6
:10A660000C02D4F804055B1842F100025B0A0B49A6
:10A6700043EAC253A8424FEA5222C1E902327FF4B0
:10A6800052AFBDE8F88F064B064A074883210AF00F
:10A6900005FD00BF004002400080841E102E0020F7
:10A6A000486B0300146B0300586B0300D07B6308F6
:10A6B0007B2DE8BD452C16002DE9F84F064688464F
:10A6C000FFF748FC8246BFF35F8FDFF89891D9F817
:10A6D0000475BFF35F8FFFF73DFC824518BFD9F8C3
:10A6E00004755F4943F6095340F2FF1A4FF0000B1F
:10A6F000E3FB07AB4FEA5A2242EACB524FEA5B2315
:10A70000E1FB0023574F1046194686424FF40033B1
:10A71000C7F808330246C7F8443303D9331A002B6D
:10A72000C0F293809642C0F0888018EB060A4FF082
:10A7300000094FF0000249F1000B1AEB02064BEB47
:10A740000107494B4FEA563848EAC748A8FB038936
:10A75000790B03FB01994FEA187141EA09114FEA9D
:10A76000197C48014FEA4C13B0EB010E43EAD16368
:10A7700063EB0C084FEA8E104FEA8813B0EB0E0023
:10A7800043EA9E6363EB0803DB004FEAC00E43EA33
:10A7900050731EEB010043EB0C03341A67EB030507
:10A7A000324E0027AF424FEA4C2C08BFA6424CEA7B
:10A7B000D15C4FEA41214CD32D4E2E4840F231431B
:10A7C00003FB04F306FB0533A4FB06451D444FF0D1
:10A7D000FF33E31847F6FF7345EB0303DB0B591810
:10A7E00042EB0C0C4B014FEA4C125C1A42EAD1626C
:10A7F00062EB0C05AA01A3011B1B42EA946262EB07
:10A800000502DC00D20042EA5372631840F2FF14E2
:10A8100042EB0C0200251B1945EB02025B0A43EADE
:10A82000C253520A0F4CC0E902324FF40035C4F84B
:10A830004415C4F80453BDE8F88F921B002ABFF6F4
:10A8400074AF003041F101016FE7003041F1FF3199
:10A850006BE7094B094A0A4883210AF01FFC00BF35
:10A860000080841E00400240D07B6308452C160007
:10A870007B2DE8BD102E0020486B0300146B0300F5
:10A88000586B0300074A084B4FF400310020C2F810
:10A89000481382B0C2F8081318601B680193019B2B
:10A8A00002B07047004002404441024000487047F7
:10A8B00044410240014B9868704700BF102E0020B1
:10A8C000014B01221A707047FC2D0020F0B52F4B70
:10A8D0001B6883B08BB92E4CD4F80433D90302D54E
:10A8E0002C4B1A68FAB92A4BD3F80423920302D5E9
:10A8F000294A116841B903B0F0BD254B0222C3F8C3
:10A900000823FFF727FBE6E7002111601268009299
:10A910004FF400320099C3F84823C3F8082307F026
:10A92000CBFB03B0F0BD00221A601B680193019BB2
:10A93000FFF710FB0546BFF35F8FD4F80465BFF344
:10A940005F8FFFF707FB854218BFD4F80465134FEC
:10A95000134943F6095340F2FF140025E3FB064573
:10A96000620A42EAC5526B0AD7E90045E1FB0023BF
:10A97000AB4208BFA242B6D3054B4FF48032C3F8B6
:10A980004823C3F8082303F0CBFDACE704410240A1
:10A99000004002404041024044410240102E00204D
:10A9A0000080841E064A074B10B5002414701C60FA
:10A9B000BFF35F8F0449054801F0DAF8204610BD67
:10A9C000282E00202C2E0020306C0300202E00208A
:10A9D00008B5094B5A78022A01D0012008BD002889
:10A9E000FCD0002205485A7003F0CEFC0A2004F087
:10A9F000F1FC012008BD00BF302E0020342E0020C5
:10AA00000C4B5B78022B00D0704710B50A4C2046E7
:10AA100003F0ACFBB0F5965F00D310BD03F09AFBDA
:10AA20004FF496532060636020460121BDE810403A
:10AA300003F0B6BB302E0020342E002008B5034AA8
:10AA4000034B044840F2BD110AF028FB486C030098
:10AA500048680300646C030038B5044604F0C4FD84
:10AA60000546204604F0C6FDA54200D138BDBDE82C
:10AA7000384001F00DBA00BF04F0CEBD04F0D8BDDF
:10AA800004F0E2BD08B5FBF74FFCFDF75BF8FBF700
:10AA90001FFD07F005FF04F0E5FD04F097FCFFF74C
:10AAA000C1FA04F067FD07F0B1FB01F06BF9FEF7A6
:10AAB000EFFE04F01BFD04F03DFF04F099FC07F0ED
:10AAC00025FA07F029FABDE8084003F023BB00BFD0
:10AAD00008B503F035FB07F043FA07F019FA04F064
:10AAE0004DFFFFF7E7FAFBF7F5FCBDE80840FDF77F
:10AAF0004BB800BFFDF728BB0123002218461146C2
:10AB000001F042B910B5002482B00B460246CDE9EF
:10AB100000442146204601F065F902B010BD00BF97
:10AB200008B590F880301BB901F092F938B108BD32
:10AB3000044B054A054840F2B7110AF0AFFAFFF797
:10AB40007DFF00BFB06C0300486C0300646C030021
:10AB500004F032BD704700BF70B582B0044601A852
:10AB60000D46164607F03EFA50B1019B002B08BF78
:10AB7000012332462946204608F062FD02B070BD2E
:10AB8000034632462946204608F05AFD02B070BD01
:10AB9000704700BF704700BF704700BF704700BFDD
:10ABA000704700BF704700BF0368826818685B6821
:10ABB000934234BF01330023C01AB0FA80F0400939
:10ABC000704700BFF0B5044683B000250DF10700C3
:10ABD0000E468DF8075007F017FE2368A268196823
:10ABE0005868904238BF451CA94213D05F685D6821
:10ABF000AA420CD800225A60E2686068531E072BF4
:10AC000042D8DFE803F03B37413341414118013579
:10AC10005D60F1E7217C00293CD15F685868824281
:10AC20002FD859602268A16813688B4234BF013362
:10AC300000231360E0E7D6E9002300EBC700C0E97A
:10AC400000232268136851688B4282BFA0680130DC
:10AC50000918CB1A91689DF80700994238BF936094
:10AC600007F0F8FD0024204603B0F0BD336840F83B
:10AC70002730E6E7338820F81730E2E73378C3550A
:10AC8000DFE701305860CDE7314607FB02000AF0EC
:10AC900083FAD6E79DF8070007F0DCFD0424204680
:10ACA00003B0F0BD10B44FF080414FF0805200204F
:10ACB000C1F80C015E4BC1F81001C1F83805D2F89B
:10ACC0000414C3F82015D2F80814C3F82415D2F8D8
:10ACD0000C14C3F82815D2F81014C3F82C15D2F8A8
:10ACE0001414C3F83015D2F81814C3F83415D2F878
:10ACF0001C14C3F84015D2F82014C3F84415D2F838
:10AD00002414C3F84815D2F82814C3F84C15D2F807
:10AD10002C14C3F85015D2F83014C3F85415D2F8D7
:10AD20003414C3F86015D2F83814C3F86415D2F897
:10AD30003C04C3F86805D2F840043E49C3F86C05EA
:10AD40000968D2F84424C3F87025082924D04FF0AC
:10AD50008043D3F80024D20744BF6FF00102C3F848
:10AD60000024354AD2F8883043F47003C2F88830A2
:10AD7000BFF34F8FBFF36F8F4FF01023D3F8002234
:10AD8000002A23DBD3F80432002B1FDB2B4B2C4A89
:10AD90001A605DF8044B70472A4B1B68002BD6D114
:10ADA00029482A4A2A4C04602A492B4BFB20C2F826
:10ADB00018050A681B68294822F00F0203F00F03E8
:10ADC00013434FF400720B600260C0E7244A012372
:10ADD000C2F80435D2F80034002BFBD04FF010231A
:10ADE00012211F4AC3F80012D2F80034002BFBD006
:10ADF0004FF0102312211A4AC3F80412D2F800347B
:10AE0000002BFBD000231649C2F80435D1F80034DA
:10AE1000002BFBD0BFF34F8F0749124BCA6802F4D7
:10AE2000E0621343CB60BFF34F8F00BFFDE700BF6D
:10AE300000C000403001001000ED00E0A02B002019
:10AE40000090D003340100108C56004000F0004008
:10AE500048810300E40E0040580200104096024072
:10AE600000E001400400FA0510DF704711DF704771
:10AE700000B583B06846084900F07AFE019B43B1F3
:10AE8000D3E900209047684600F07CFE019B002B30
:10AE9000F6D103B05DF804FB286D030070B53D4D9D
:10AEA0002B7884B0002B66D13B4E3C49012302A88D
:10AEB000337000F05DFE039B2BB90EE002A800F09A
:10AEC00061FE039B4BB1D3E900210020904700288D
:10AED000F4D10446204604B070BD314902A800F008
:10AEE00047FE039B4BB1D3E900210020904702A805
:10AEF00000F048FE039B002BF5D12A4A002312687C
:10AF00008DF8083002A8019207F07EFC264901A8BE
:10AF1000FFF7AAFFB0FA80F304465B099DF808002A
:10AF20002B7007F097FC002CD4D1204B20491C70CB
:10AF3000347091F81623EC2352091341DB071ED518
:10AF40001C4B9A6812B31A6842F480021A601449C2
:10AF500002A800F00DFE039B002BBBD0D3E900211B
:10AF60000120904702A800F00DFE039B002BF5D1B5
:10AF7000204604B070BD0824204604B070BD0E4ABF
:10AF8000A12142F2020001F0FBFCE0E74FF4800354
:10AF90000B60DCE7492E0020482E00201C6D0300CA
:10AFA000346D0300C86C0300659702004A2E002030
:10AFB00000E100E0AC6F0020CC6C0300F0B5324D36
:10AFC0002B7883B0002B55D0304E31490123684691
:10AFD000337000F0CDFD019B2BB90EE0684600F008
:10AFE000D1FD019B4BB1D3E90021012090470028FE
:10AFF000F4D10446204603B0F0BD2649684600F06F
:10B00000B7FD019B4BB1D3E9002102209047684670
:10B0100000F0B8FD019B002BF5D1002768468DF8A4
:10B02000007007F0F1FBFFF721FF04469DF80000D8
:10B030002F7007F00FFC002CDCD1174B34709A688E
:10B04000E2B9164B4FF48002C3F8802011496846DC
:10B0500000F08EFD019B002BCCD0D3E90021032012
:10B060009047684600F08EFD019B002BF5D12046ED
:10B0700003B0F0BD0824204603B0F0BD1A6822F4E6
:10B0800080021A60E2E700BF492E0020482E00200F
:10B090001C6D0300346D0300AC6F002000E100E084
:10B0A000054B1B7833B1054B1B780BB1FFF786BFFF
:10B0B000FFF7F4BE08207047482E0020492E0020DC
:10B0C000014B1878704700BF492E0020002108B5B9
:10B0D0000846064A07F0EAFE00B908BD044A40F2F5
:10B0E0008711BDE8084001F04BBC00BF71AE020003
:10B0F000CC6C0300F0B5374C374D67886268BE00F2
:10B10000F31905EB830383B0596801F58050002AD9
:10B110005CD05388033302EB8302904228D9136832
:10B12000013325D05388033302EB830398421FD3A6
:10B130004FF6FF7EB2F804C0F44517D0B2F800C055
:10B14000BCF1000F12D062605388244D2448AE88B1
:10B150002968033300259BB200959B0001EB860113
:10B160000325257001F00CF903B0F0BD98420DD80D
:10B170003E4405EB8605EB68D3B919480425012246
:10B18000257003B0BDE8F04001F098B91A680132AB
:10B190001A46EDD0B3F802C00CF1030C03EB8C039C
:10B1A0009842C7D23E4405EB8605EB68002BE4D0FD
:10B1B0000A4B0B48196802229A80052500230122B8
:10B1C000257003B0BDE8F04001F078B901F1080244
:10B1D000A3E700BF702E0020882E0020C42E002080
:10B1E000502C0020F0B443681BB1374AD468A34206
:10B1F00046D20023354F0B807A684FF0010C02F5E0
:10B2000080544FF6FF76083294420ED8BCF1020FFC
:10B21000A1F800C007F1140754D07A6802F58054F1
:10B22000083294424FF0020CF0D913680133EDD08C
:10B230005388033302EB83039C42E7D39588B542DE
:10B240000AD0158845B1956803689D4211D053888E
:10B25000033302EB8302D7E79C42D7D91A68013245
:10B260001A46D3D05D88033503EB85039C42E5D2B3
:10B27000CCE7174B42601B8903810120F0BC70476B
:10B2800012699342B5D813F00305B2D1104A04896C
:10B2900012899442ADD104689A689442A9D10B48AE
:10B2A0004268934203D902F58052934207D38269E0
:10B2B000934207D902F58052934203D201250D80B3
:10B2C0000120DBE70020D9E7502C0020882E002049
:10B2D000702E00202DE9F04FAE4E89B004464FF697
:10B2E000FF773568002D00F0C0802A78531E052BAB
:10B2F00000F2F180DFE803F03D4A4A1E1E03002CF5
:10B3000040F0BA80DFF8B0C29CF80C209CF8003006
:10B31000002A00F07081013B8CF80C40062B00F2F3
:10B32000DA80DFE813F0E6030C032002F801D8000E
:10B330001E030F03002C40F09F802B79012B00F09F
:10B340008081002B00F064810DF10C08022B039426
:10B35000C8E90244C8F8104040F0C5802046049077
:10B360002B78023B042B36D8DFE803F06F5B4F2FBE
:10B370007B00002C40F08A802B79032B00F2E680C2
:10B38000DFE813F0FB002001F000C100B5F81490D5
:10B39000A97D002C40F086804FEA8904DFF82082E6
:10B3A00004EB090308EB8303B3F808A05B6803EB25
:10B3B0008A0A062900F2C583DFE811F06A027902E1
:10B3C0004202550201022602E90104238DF80C30E5
:10B3D000EB88ADF81830704C04F1100554F8043BBC
:10B3E000404603B19847A542F8D16C496C48002407
:10B3F000346006F011F901216A4804F063F900286D
:10B400007FF46FAF09B0BDE8F08F03238DF80C30E7
:10B41000EB88ADF818302B89ADF81A30EB6805933E
:10B42000D9E702238DF80C302B89ADF81830AB88A2
:10B43000ADF81A30EB680593AB7DA3F10603B3FAC0
:10B4400083F35B098DF81C30C5E701238DF80C30C0
:10B450002B89ADF81830AB88ADF81A30EB6805933E
:10B46000B9E705238DF80C30B5E74C494C4806F098
:10B47000A3F80546306038E70DF10C080023C8F842
:10B4800008300393C8E90333012068E70DF10C0885
:10B49000454A002353600393C8E90233C8F81030CB
:10B4A00001205CE70229EA881FD8DFF814814FEAFF
:10B4B000890404EB090108EB81010DF10C084B89AB
:10B4C000033B9B1A00224B81C8F808200392C8E96D
:10B4D0000322012043E700230DF10C08C8E90333E0
:10B4E000C8F8083003930F2039E74FEA8904DFF8E2
:10B4F000D08004EB090108EB8101D31C0A891344B5
:10B500000B81EA88D5E7294C294A21682948DFF8C8
:10B51000B0804FF0000985F804900823CDF8009022
:10B5200000F02EFF244B25685B88A18803EB830382
:10B5300008EB830208F823905368236002235560C8
:10B540001181A38000283FF45DAF3568164A0DF1E4
:10B550000C08002353600393C8E90233C8F8103085
:10B560000E20FCE6114A13481168002302242B71B7
:10B570009480012200F0A2FFE4E70C4B0F4A196807
:10B580000C4801232B7100230093082300F0F8FEE0
:10B59000D8E700BF842E0020582E0020802E0020E7
:10B5A000B02E0020C02E0020682E0020C42E0020C7
:10B5B0004C6D0300502C0020702E0020546D0300B1
:10B5C000882E0020DFF8288398F80030022B00F046
:10B5D000A68298F81430022B00F0B182BD4B0DF119
:10B5E0000C08002001221A7003905860C8E902007C
:10B5F000C8F81000B3E6072B00F23082DFE813F042
:10B6000000022E022E029401EC01A201A201C60149
:10B6100002232B71CDE904440DF10C08EB68039370
:10B6200040460DF10A01FFF7DDFD002840F0628180
:10B630000A200023C8E90033C8E90233C8F81030F3
:10B640008DE6A44B1B78002B00F03E82DFF888C209
:10B65000BCF80430012B12D8DFF8948203EB83028C
:10B66000994608EB82021378C3B109F1010399B23C
:10B6700001299946ACF8043002F11402F3D90DF116
:10B680000C0808220021944809F094FD0020C8F815
:10B6900008000390C8E90300356860E65368DCF8E9
:10B6A000001003F5805E03F1080A002900F0F18123
:10B6B0004B88033301EB83018E4540F2E7810B6831
:10B6C000013300F0E3814B88033301EB83039E4594
:10B6D000C0F0DC818888B84200F0D681B1F800B0B3
:10B6E000BBF1000F00F0D081EB88CCF80010834252
:10B6F000DBD100230093794A7948042300F040FE0F
:10B70000002840F0078209EB890308EB8308012336
:10B7100088F8103076E6BCF80230DFF8D48103EB0D
:10B72000830308EB8308D8F80C30002B40F0BF816E
:10B7300004228CF80020D8F804106948012200F097
:10B74000BDFE00283FF45EAE35680DF10C08002305
:10B7500041F61D52C8F808300393C8E903339042FC
:10B7600008BF1846FBE5DCF804205E48538884884F
:10B7700001685B4801EB84010333002400949BB211
:10B7800003249B008CF8004000F0FAFDD9E7EA881A
:10B79000AC4641F61D5004EB090108EB8101D31CB6
:10B7A0000A8913440B81EA8865464C4408EB8408F7
:10B7B000B8F80A30033B9B1AA8F80A30C5E74A4B91
:10B7C000AA694A491A604FF0000B1846C3F804B042
:10B7D000FFF708FD002800F08F810223AB750423DA
:10B7E0005146CDF800B0EA183D4800F0C9FD0028E8
:10B7F0003FF408AEAB7DD6F800C0EA88022B00F219
:10B80000878165460E20D0E7384B374AB3F800A051
:10B8100051683348314A00234FF0060C85F816C0B2
:10B820000093042300F0ACFD0028E3D10AEB8A0A60
:10B8300008EB8A08012388F8103009B0BDE8F08FC2
:10B840002B692748002B14BF032301230022AB756B
:10B850000AF108010092042305F10C0200F090FDAA
:10B860000028C7D1CEE5EB882A691D484FF0010CAE
:10B8700085F816C04FF0000C0AF10C019B00CDF8C2
:10B8800000C000F07DFD0028B4D109B0BDE8F08F04
:10B8900002230022AB75042300925146EA18104897
:10B8A00000F06EFD0028A5D109B0BDE8F08F032A95
:10B8B0000CBF052306230022AB750AF10401009298
:10B8C000042305F10802064800F05AFD002891D132
:10B8D00098E500BF682E0020D02E0020486D0300A0
:10B8E000502C0020C42E00204C2E0020CC2E0020F6
:10B8F000882E00200499954A8B88EB800B882B8139
:10B90000934800940423BDF80A4000F039FD002854
:10B9100040F0FB808F4B04EB840403EB8404012391
:10B92000237409B0BDE8F08F8B4ADCF804109388CB
:10B93000498803330B44022193808CF80010FFF7F1
:10B94000D9FBFEE6844B854A1968814800230093A1
:10B95000CCF8043007238CF80030082300F010FDE9
:10B96000EFE6BCF80220DFF8EC819300134408EB0B
:10B97000830806200023D8F80410794A00938CF835
:10B9800000000823724800F0FBFCDAE601238CF883
:10B9900000309CF80A304BB1DFF8B881D8F80C3091
:10B9A00000228CF80A20002B00F09D809CF80B30C0
:10B9B000002B43D0DFF89C81D8F8203000228CF88F
:10B9C0000B20002B3AD198F82430BBB30123ACF8FC
:10B9D0000230FFF78FFBB4E6BCF80220DFF8748179
:10B9E0005D4C9300991808EB810120684D68B4F80C
:10B9F00004E0486002202560A1F808E0A080B5E7D7
:10BA0000DFF85081BCF8081098F8142098F800303E
:10BA1000B2FA82F252090131B3FA83F35B098CF86E
:10BA20000B20ACF80810002201218CF80A30ACF889
:10BA300002208CF80C208CF80010ACE70DF10C08FB
:10BA40000020C8F808008CF80000ACF80200CCF820
:10BA500004000390C8E90300356880E4013B062B2D
:10BA60003FF639AD01A252F823F000BFF3BA02004D
:10BA70003FB9020067B7020017B70200D7B402004F
:10BA800063B9020045B902009E4504D8CCF80040D5
:10BA9000EBE5514610E6196801311946F6D0588891
:10BAA000033003EB80039E45BFF414AEEEE72A4B50
:10BAB0002748196802229A8005228CF8002000236A
:10BAC000012200F0FBFC3CE60DF10C0808222146A7
:10BAD000244809F06FFB0394C8E90244C8F81040F9
