:020000022000DC
:1060000000000420B5620200DD620200DF620200CF
:10601000E1620200E3620200E562020000000000AB
:10602000000000000000000000000000E762020025
:10603000E962020000000000EB620200ED62020073
:10604000CDC50200EF62020031C60200EF6202001D
:10605000EF620200EF620200F1850200EF620200CF
:10606000EF620200EF620200EF620200EF620200E4
:10607000EF620200EF620200EF620200EF620200D4
:10608000EF62020041FA0200EF620200EF620200DA
:10609000E1FA0200EF620200E59C0200359D030078
:1060A000EF620200EF620200EF620200EF620200A4
:1060B000EF620200EF62020000000000000000003A
:1060C000EF620200EF620200EF620200EF62020084
:1060D00085940200EF620200EF620200EF620200AC
:1060E000EF620200EF620200B5FE03000000000054
:1060F00000000000EF62020000000000EF620200FA
:10610000000000000000000000000000000000008F
:10611000000000000000000000000000000000007F
:10612000000000000000000000000000000000006F
:10613000000000000000000000000000000000005F
:10614000000000000000000000000000000000004F
:10615000000000000000000000000000000000003F
:10616000000000000000000000000000000000002F
:10617000000000000000000000000000000000001F
:10618000000000000000000000000000000000000F
:1061900000000000000000000000000000000000FF
:1061A00000000000000000000000000000000000EF
:1061B00000000000000000000000000000000000DF
:1061C00000000000000000000000000000000000CF
:1061D00000000000000000000000000000000000BF
:1061E00000000000000000000000000000000000AF
:1061F000000000000000000000000000000000009F
:1062000010B5054C237833B9044B13B10448AFF3F0
:1062100000800123237010BDB8350020000000006D
:10622000D4BB040008B5034B1BB103490348AFF3CB
:10623000008008BD00000000BC350020D4BB040075
:10624000154B002B08BF134B9D46A3F5803A002148
:106250008B460F461348144A121A1DF0D7FD0F4BF8
:10626000002B00D098470E4B002B00D09847002001
:10627000002104000D000D48002802D00C48AFF3A7
:1062800000801DF061FD2000290017F0A1F81DF02D
:1062900035FD00BF000008000000042000000000E1
:1062A00000000000B8350020B0860020000000008B
:1062B000000000000649074A074B9B1A03DD043B18
:1062C000C858D050FBDC03F00FFBFFF7B9FF00000C
:1062D00068BD040010320020B8350020FEE7FEE75C
:1062E000FEE7FEE7FEE7FEE7FEE7FEE7FEE7FEE786
:1062F00008B506F06BFE042103480DF0ABFB034B21
:1063000001225A7108BD00BF50BD040010320020A8
:1063100005480649064A10B40023012404700B7096
:1063200013705DF8044B70473C360020D4350020D4
:10633000D53500203B4B1A78002A36D02DE9F041A4
:10634000837803F00C0108292CD00C2927D100F107
:106350000E04417803F0C003490658BF0234802B75
:1063600036D0C02B1BD1304B1E784FFA86FCBCF1C7
:10637000000F2BDB4FEA6C01B142CBB226DAD4F826
:1063800000802A4D002055F831E0C64505EBC101DB
:1063900044D80DD349686768B9423FD808D310463E
:1063A000BDE8F08100F10804D3E7012210467047F0
:1063B000013358B2ACEB000303EBD37300EB630380
:1063C000DBB2844559B201DBB142DCDB0022E6E7F7
:1063D000174B1D7868B20028F8DB4110A942CBB2F8
:1063E000F4DA144E278836F811108F424FF000046B
:1063F00011D3D4D901335CB2031B03EBD37304EB89
:106400006303DBB2A04259B2E0DBA942DEDA36F820
:1064100011108F42EDD2013B58B2EDE7013B4FFA2C
:1064200083FCC7E73C360020D4350020D835002057
:10643000D535002028360020064A13680133012B89
:10644000136006D10449054AC1F800354FF4806352
:10645000536070474036002000A0025000E100E089
:10646000064A1368013B13603BB90549054AC1F868
:1064700000354FF48063C2F8843070474036002006
:1064800000A0025000E100E008B510460EF09EFAB0
:1064900038B1044A044B48F2025188420CBF1046FE
:1064A000184608BD080CF0000F0CF000074B1A78D6
:1064B00002B9704710B504460AF0F2FE204610F00B
:1064C00083FA2046BDE8104008F05ABF5A36002033
:1064D0002DE9F04F87B083464FF6FF708A4691460C
:1064E00001930EF0B1F90421ADF80A1000250DF169
:1064F0000A0304AA03AE06210446CDE90355059616
:106500000EF0ACF8072850D04FF6FF77B8464FF0A2
:10651000FF3668B1052815D120460EF095F90DF12A
:106520000A0304AA062104460EF098F80028F1D1C7
:10653000039BAB4224BFA0461D46B3423CBF1E4650
:106540002746E9E74FF6FF739C421AD1A0452AD0AF
:10655000A7420CBF05200020BBF1000F01D0ABF813
:106560000080BAF1000F01D0CAF80050B9F1000F55
:1065700001D0A9F80070019B03B11E6007B0BDE80F
:10658000F08F10F093FD0B4D0B4B0C49ED1AED08FD
:106590002D040246234645F001000CF087FE03203F
:1065A00007B0BDE8F08F0520D6E7052007B0BDE8AD
:1065B000F08F00BFC4BC040044BC040010540400AD
:1065C0002DE9F043054687B080880BF0DDF82B7885
:1065D0006880083B032B05D8DFE803F07867461492
:1065E00001232370844F3B784BB1844E002456F82E
:1065F000043B284698473B7801349C42F7DB07B0C0
:10660000BDE8F0837E4B1A78002AEBD00024E846E0
:1066100021461822784F1C7040461DF0F7FBAA68EF
:1066200002923B780D224FF0FF318DF800202A7B3B
:10663000CDF802108DF80C20002BE0D06F4EB14643
:1066400059F8043B284698473B7801349C42F7DBD5
:10665000002BD4D0002456F8043B404698473B78A2
:1066600001349C42F7DBCAE7654C2378002B6ED1DE
:10667000644C2378002BB5D06348AA8803889A42DB
:10668000B0D1624B1E78002E46D000231A466049D6
:10669000FFF71EFF0028A3D0A0F10500B0FA80F09C
:1066A00040092070002EAAD09CE76B7A002B99D16C
:1066B00058490A68002A95D0E868824292D1544825
:1066C0000B600268EB60013A02608BE76E7A2EBBCA
:1066D000504A13681BB1E9688B4200F08380494C33
:1066E0002378002B3FF47EAF4748AA8803889A425C
:1066F0007FF478AF2B7A062B7FF474AF434B1E7870
:1067000056B100231A464249FFF7E2FE20B1A0F13C
:106710000506B6FA86F67609267063E7012E7FF441
:1067200061AF384C2378002B3FF45CAF3648AA8821
:1067300003889A427FF456AF2B7A062B7FF452AF30
:10674000324B1B78002BDCD11E4626704AE74FF6F1
:10675000FF700EF079F84FF6FF739842064687D126
:106760000EF074F8B04283D10026E846224F26701E
:106770003146182240461DF049FB3B780C214FF072
:10678000FF328DF80010CDF80220ABB1DFF86C902D
:1067900034464E4656F8043B284698473B78013429
:1067A0009C42F7DB43B1002459F8043B404698472C
:1067B0003B7801349C42F7DB124C2378002B3FF4EA
:1067C0001EAF1148AB8802889A427FF418AF0F4B76
:1067D0001B7873B100231A460D49FFF779FE38B1D3
:1067E000002659E7084BA9881660EE601980F9E683
:1067F0000123237003E700BF5B3600204C360020E6
:10680000483600205C360020583600205A360020DA
:10681000443600206036002078B1F8B5074F3B7849
:1068200053B1074E0546002456F8043B28469847C6
:106830003B7801349C42F7DBF8BD70475B360020A3
:106840004C360020F8B5074F3B7853B1064D06464D
:10685000002455F8043B304698473B7801349C426D
:10686000F7DBF8BD5B3600204C360020F8B5074F4B
:106870003B7853B1064D0646002455F8043B30469C
:1068800098473B7801349C42F7DBF8BD5B3600202B
:106890004C360020F8B5074F3B7853B1064D0646FD
:1068A000002455F8043B304698473B7801349C421D
:1068B000F7DBF8BD5B3600204C36002038B50DF014
:1068C00077FE00BB0EF086FB002834D110F030F8C4
:1068D00050BB0FF027F8002834D108F0EFFC002857
:1068E00037D102F0A5FE0346002839D12049214CBA
:1068F0002148224A0B604FF6FF7501210370258065
:106900001170184638BD10F0D1FB1D4C1D4B1E4AAE
:106910001E49E41AE4082404034644F001000CF084
:10692000C5FC0323184638BD10F0C0FB144C154BB2
:10693000154A1749EDE710F0B9FB114C114B124AFB
:106940001449E6E710F0B2FB0D4C0E4B0E4A12490B
:10695000DFE710F0ABFB0A4C0A4B0B4A0F49D8E7B4
:1069600010F0A4FB064C074B074A0D49D1E700BFC6
:1069700060360020583600205C3600205A36002051
:10698000C4BC040044BC0400B0520400C85204005B
:1069900020530400F45204004C53040078530400C4
:1069A000A45304000A4B1B786BB10A4A1378022BDC
:1069B0000BD810B4591C084C117044F82300002067
:1069C0005DF8044B7047082070470420704700BFF3
:1069D0005A3600205B3600204C360020034B1B78D3
:1069E0000BB110F00FB80820704700BF5A360020D6
:1069F00008B5054B1B782BB110F048F8082808BFE4
:106A0000112008BD082008BD5A360020034B1B7812
:106A10000BB10AF0CFBF0820704700BF5A360020E4
:106A200010B40A4C24786CB130B139B102B12BB139
:106A30005DF8044B0AF0A0BF002AF8D10E205DF8E3
:106A4000044B704708205DF8044B70475A3600200D
:106A5000034B1B780BB10AF003BF0820704700BF3F
:106A60005A36002038B51A4B1B786BB371B3054604
:106A70000C4609F077FD20B3A0F102002378B0FAAC
:106A800080F0400960F30003237028460AF0ACFD53
:106A90004FF6FF73C01A227818BF012060F3C302BB
:106AA0002270284609F078FD237860F341032370B3
:106AB000284609F089FD237860F3820323700020C3
:106AC00038BD43F2020038BD082038BD0E2038BD65
:106AD0005A36002010B5094B1B7853B104462046A6
:106AE0000DF0B2FE04460DF0ADFE0028F7D12046B1
:106AF00010BD4FF6FF74204610BD00BF5A3600206F
:106B0000034B1B780BB10AF081BE0820704700BF11
:106B10005A360020F0B52C4E337889B08BB32B4D0C
:106B200001234FF6FF702B700DF08EFE4FF6FF73B2
:106B30009842044629D0327872B11F4620460AF0A6
:106B400065FE054648B920460DF07EFEB842044673
:106B500014D03378002BF1D10825284610F0A6FA7E
:106B60001B4B1C4A00949C1AE408240403461A4A4E
:106B70001A4944F001000CF081FC0325284609B0B5
:106B8000F0BD0825284609B0F0BD0024144E2C7035
:106B90002146182202A81DF039F933780C214FF054
:106BA000FF328DF80810CDF80A2043B10D4D55F88D
:106BB000043B02A89847337801349C42F7DB002558
:106BC000284609B0F0BD00BF5A36002048360020E4
:106BD000C4BC040044BC0400B8520400585404006F
:106BE0005B3600204C36002010B4054C24781CB1D4
:106BF0005DF8044BFFF76CBC08205DF8044B704750
:106C00005A360020464B1A78002A4DD02DE9F04123
:106C1000444B454D064693E8030088B02B786C46FC
:106C200084E80300002B47D0404F3D68002D36D14B
:106C30003F4BDFF80C811A88D8F80030B24245D0BB
:106C40005A1C34D001332146384AC8F80030304647
:106C50000DF080FD034618B3D8F800200021013A5A
:106C60001128C8F80020396019D0862818D00728C4
:106C700016D010F01BFA2F4C2F4B3049E41AE408C1
:106C800024040246334644F001000CF00FFB0323BA
:106C900006E005280CBF012300232B70C4D011236C
:106CA000184608B0BDE8F081082318467047132342
:106CB000184608B0BDE8F0811A4621491C48FFF784
:106CC00007FC0028E5D101232B70ADE7002BB9D0DC
:106CD0001822294602A81DF099F81A4F08233046B9
:106CE0008DF808300AF050FD9DF818303A78ADF86C
:106CF0000A0065F300030621ADF80C6005958DF8D8
:106D00001830ADF8101042B10F4C54F8043B02A8F3
:106D100098473B7801359D42F7DB0023C0E700BF71
:106D20005A360020A85204005C360020603600204D
:106D300058360020C4BC040044BC0400D0530400F6
:106D4000443600205B3600204C360020F0B595B06C
:106D5000002415460F4608461E4605F0B7F838468B
:106D600023460895082205A91A9D09960D950A94AF
:106D70008DF82C400C9405F00DF99DF814308DF829
:106D80001140DDE9061003F00302012ACDE90201FA
:106D900027D0022A04D0384605F09CF815B0F0BD83
:106DA000BDF81650C3F3C2038DF81030AD090826A4
:106DB000082D2C4628BF0824334622460EA9384603
:106DC00005F0E8F82D1B214608AB02AA0EA82644C0
:106DD00008F088FD002DEBD1384605F07BF815B0A2
:106DE000F0BDBDF81460059DC6F38316C3F3C2045D
:106DF000B2000EA9384608238DF81040C5F395253A
:106E000005F0C8F808AB324628460EA9009302AB3D
:106E100008F0F2FC384605F05DF815B0F0BD00BF93
:106E20009BDF70479DDF70479EDF7047F0B5324CA7
:106E300090F8C6322568C3EB0314C3EB84035C00EF
:106E4000A1B00619EDB12D4BB6789F78B74240D06E
:106E5000012D16D99F79B74241D0022D11D09F7ACA
:106E6000B74242D0032D0CD09F7BB7420BD0042DEC
:106E700007D09F7CB74220D0052D02D09D7DB54222
:106E800021D021B0F0BDB3F80CC0075BBC45EED1FA
:106E90001B4B1E68002EF4D015460C467C220021A8
:106EA00001A81CF0B3FF012301A8ADF8065002941D
:106EB0008DF80430B04721B0F0BDB3F810C0075BC7
:106EC000BC45D9D1E4E79D8A035B9D42E0D021B067
:106ED000F0BD30F804C01F88BC45B9D1D8E7B3F87D
:106EE00004C0075BBC45B8D1D2E7B3F808C0075B64
:106EF000BC45B7D1CCE700BF6C3600207439002008
:106F0000643600202DE9F04F90F8C6C2494FCCEB13
:106F10000C13CCEB83033D685B0083B0C6181DB334
:106F2000454CB67894F80280B0456ED0012D1BD93F
:106F300094F806E0B6456FD0022D15D094F80AE01B
:106F4000B64570D0032D0FD094F80EE0B6450ED0A4
:106F5000042D09D094F812E0B64548D0052D03D091
:106F600094F816E0B64549D003B0BDE8F08FB4F808
:106F70000C8030F803E0F045EAD1304BD3F800A0A4
:106F8000BAF1000FF0D0DFF8BC90D9F80060052E00
:106F9000EAD82B4CF30104EB030B96467622884685
:106FA000ABF802E002FB0C010BF1040001931CF0B2
:106FB00005FF0136B8F1000F019BCBF87CA014BF90
:106FC00000220222AE42C9F80060E254CCD1002572
:106FD000E36F204698473B6801359D4204F18004E9
:106FE000F6D30023C9F8003003B0BDE8F08FB4F841
:106FF000108030F803E0F045B0D1BEE7A48AC35A50
:107000009C42BAD003B0BDE8F08FB4F8008030F8ED
:1070100003E0F0458AD1B0E730F80380B4F804E02B
:10702000F04589D1A9E7B4F8088030F803E0F045CD
:1070300088D1A2E76C360020743900206436002025
:1070400070360020703900202DE9F04390F8C68298
:1070500090F8C532C8EB0815C8EB85084FEA48051B
:1070600000EB050E03EBC3049EF8047005EB44042B
:1070700003F1010C04F10A06BC4583B006443DD07F
:10708000BB4233D200F11C080444A84407F1FF3C82
:1070900035899C4505F1010610D0658CAE4217D0AC
:1070A000013DADF80650ADF8046000230B701046AA
:1070B00001A9FFF7B9FE03B0BDE8F083BEF8086090
:1070C000AE4219D00135ADF80450ADF80660ECE7DA
:1070D00003EBC30608EB46065D1C5FFA85F94F45D6
:1070E0002B4680F8C55204F11204D1D801230020A8
:1070F0000B7003B0BDE8F0830026EDE73389BEF8DE
:1071000008008342F2D00133ADF80430ADF8060038
:10711000CBE700BF68B130B4074C0849084A094DB5
:1071200010600023236001240C702B60184630BCD3
:1071300070470E23184670476C36002068360020D2
:1071400064360020703900200349044A044B0020B3
:1071500008601070186070476C3600206836002098
:1071600070390020002857D02D4B1B782BB370B4FA
:107170002C4C2D4B2268002A50D081789D788D426E
:107180001DD0012A34D99D798D4222D0022A31D0D6
:107190009D7A8D4222D0032A2CD09D7B8D4222D015
:1071A000042A27D09D7C8D422CD0052A22D09D7D9B
:1071B0008D422CD0042070BC7047082070471E8878
:1071C0000588AE42DDD11949096889B1002070BC3B
:1071D00070479E880588AE42D8D1F4E71E8905889D
:1071E000AE42D8D1EFE79E890588AE42D8D1EAE712
:1071F000052ADFD8511C006843F8220021600020D6
:1072000070BC70471E8A0588AE42CED1DBE79D8AEE
:1072100001888D42CED1D6E70E2070470121EAE7E2
:10722000683600206C360020743900206436002057
:10723000B0B31C4B1B7843B31B4B1B682BB370B50F
:1072400090F8C752044615BB0E464FF433722946D8
:107250001CF0DCFD154A164B10682060A4F8CA62C9
:1072600084F8C95284F8C65284F8C5522246304682
:1072700001211D60FFF7D4FD11280AD020B9012398
:1072800084F8C80284F8C73270BD08207047112006
:1072900070BD012384F8C73284F8C832284670BD17
:1072A0000E207047683600206C36002074390020AC
:1072B0007039002090B389B36E4B1B7873B32DE9FE
:1072C000F04F0388113BA3B004460D46222B00F279
:1072D0009580DFE813F0F201930093009300930090
:1072E0009300930093009300930093009300930006
:1072F00093009300930093009300930093009300F6
:1073000093009300930093009300930093009300E5
:107310009300930024009300D700A3007047868851
:10732000B1F8CA329E4240F0D881C388002B40F0A9
:10733000418291F8C6120369C1EB0112C1EB8202CE
:1073400005EB4202C2F8063095F8C5328088002B62
:1073500000F05B82013BDBB2762603EBC30306FB46
:1073600001F101EB43032B445B8A01339BB2128989
:10737000ADF80E2003A9ADF80C30FFF753FD06461B
:1073800000283BD095F8C6323B49C3EB0312C3EB50
:1073900082030968002285F8C7225A00A818A78826
:1073A00041B3364B807893F802C0844500F0F783F0
:1073B00001291FD993F806C0844500F00D840229E5
:1073C00018D093F80AC0844500F01E84032911D018
:1073D00093F80EC0844500F01F8404290AD093F866
:1073E00012C0844500F02884052903D0997D81428C
:1073F00000F02A84224B03225F801A7095F8C8326D
:107400004BB12388303B1F2B05D8A688B5F8CA326C
:107410009E4200F0AA8123B0BDE8F08F8288B1F8C7
:10742000CA329A42EAD1C18895F8C6C295F8C562B7
:10743000002940F069814389002B00F065817620A6
:1074400000FB0CF006EBC60300EB43002844224689
:10745000D389A3F52453082B00F28581DFE813F0CC
:1074600081017D017A01830183018301830183010D
:10747000430100BF683600206C36002074390020BC
:10748000703600208688B1F8CA329E4240F02581CD
:10749000C388002B40F0E78091F8C692877AC9EB49
:1074A0000916C9EB8606760001EB060898F804A0D9
:1074B0005744062F00F3D681FFB288F80470CDF848
:1074C0000490BA45514680F02783A646CA0076202C
:1074D00000FB09F002EB0A0C5EF80C3F98F8047010
:1074E000DEF8049000EB4C0CAC440AF10108CCF837
:1074F0000A30CCF80E90BEF808E0ACF812E0002399
:10750000B845ACF81430ACF81630ACF81830ACF81C
:107510001A3080F09A80A6464FEAC80202EB080CA7
:107520005EF816BF00EB4C0CAC44DEF804A0CCF8BF
:107530000EA0CCF80AB001F10209BEF808E0ACF8E0
:1075400012E04F45ACF81430ACF81630ACF81830F7
:10755000ACF81A3040F27582A6464FEAC90202EB37
:10756000090C5EF820BF00EB4C0CAC44DEF804A024
:10757000CCF80EA0CCF80AB001F10308BEF808E080
:10758000ACF812E04745ACF81430ACF81630ACF863
:107590001830ACF81A3040F25682A6464FEAC802BC
:1075A00002EB080C5EF82ABF00EB4C0CAC44DEF892
:1075B00004A0CCF80EA0CCF80AB001F10409BEF882
:1075C00008E0ACF812E04F45ACF81430ACF81630D7
:1075D000ACF81830ACF81A3040F23382A6464FEAC5
:1075E000C90202EB090C5EF834BF00EB4C0CAC4452
:1075F000DEF804A0CCF80EA0CCF80AB00531BEF835
:1076000008E0ACF812E08F42ACF81430ACF8163059
:10761000ACF81830ACF81A3040F21582A446CA0013
:1076200002EB010E5CF83E9F00EB4E002844DCF8B4
:107630000480C0F80E80C0F80A90BCF808C0A0F81A
:1076400012C08382C38203834383019B0A44762151
:1076500005EB420201FB03F116446B18728A1E8986
:10766000B242C0F0D480002785F8C572A2880DF11F
:107670000B012846FFF7E8FC0646002840F00B8186
:107680009DF80B30002B3FF4B9AEA28801212846AB
:10769000FFF738FC95F8C932AB4AA7881268013366
:1076A000DBB2934285F8C932C0F04082A74B85F81F
:1076B000C76203225F801A70A0E68288B1F8CA32DE
:1076C0009A427FF4A8AE00234FF6FF7281F8C732CA
:1076D00081F8C832A1F8CA229DE695F8C822002A8E
:1076E0007FF496AE97E69789838A47832BB1C38A46
:1076F0001BB1038B0BB1438B33B9638901319942C1
:1077000002F10602FFF4A4AE762303FB0C5301360C
:107710001B7900279E428DF80B7064D101238DF8F0
:107720000B30A28801212846FFF7ECFB95F8C932FF
:10773000854AA68812680133DBB2934285F8C932C4
:10774000C0F0C281814B032100225E80197085F850
:10775000C72253E693898382C8E793890383838A88
:10776000C4E79389C382838AC0E74FF43372002150
:1077700028461CF04BFB764B764C1868286000239B
:10778000A5F8CA6285F8C932304685F8C63285F850
:10779000C5322A4601212360FFF742FB112800F081
:1077A000BF8100287FF437AE012385F8C80285F831
:1077B000C73230E6324600212846FFF7A3FB95F892
:1077C000C932614AA78816680133DBB2B34285F833
:1077D000C932C0F0CB805D4B032100225F8019705D
:1077E00085F8C7220AE685F8C562A2880DF10B016B
:1077F0002846FFF729FC0646002840F026819DF820
:107800000B30002B3FF4FAAD8BE7D388AFE5062FA2
:107810003FF429AF85F8C572A088002F00F0B5812C
:107820007B1EDBB203EBC30301EB43032B445B8AF8
:1078300001339BB203A9ADF80C30ADF80E60FFF731
:10784000F1FA00283FF4DAAD002385F8C73201468B
:10785000A2882846FFF7EAFA3C4BA2885A80032206
:107860001A70CBE53C4B3D4F3D49FF1AFF080623FC
:107870003F0488F8043047F002073846AA5B0BF053
:1078800035FC384637490BF043FA95F8C63298F87C
:107890000470019315E695F8C6322B4A85F8C77235
:1078A000C3EB0311C3EB81031068A7885A00A91822
:1078B00000283FF49FAD264B897893F802C08C4591
:1078C00000F05B8101287FF695AD93F806C08C45EA
:1078D00000F05D8102283FF48DAD93F80AC08C451D
:1078E00000F0828103283FF485AD93F80EC08C45EB
:1078F00000F0828104283FF47DAD93F812C08C45DE
:1079000000F0928105283FF475AD987D88427FF4A0
:1079100071AD998AAB5A99427FF46CAD124BD3F892
:107920000080B8F1000F3FF465AD7C22002103A870
:107930001CF06CFA0123ADF80E7003A804968DF8C4
:107940000C30C047A78855E56C3600207036002003
:10795000743900207039002044BC04007CBC040051
:10796000B0540400F85404006436002095F8C62290
:10797000D74B0132D2B2C2EB0211C2EB81014900F6
:1079800005EB010C53F8220085F8C6224FF00008E1
:1079900085F8C582624668508CF80480012138461B
:1079A000FFF73EFA814600283FF428AD95F8C6223D
:1079B00085F8C782C2EB0211C2EB81025200A918FE
:1079C00098788978884200F07481012E3FF412ADD6
:1079D0009879884200F06681022E3FF40BAD987AC8
:1079E000884200F08481032E3FF404AD987B8842E6
:1079F00000F07681042E3FF4FDAC987C884200F0C4
:107A00005F81052E3FF4F6AC987D88427FF4F2AC9E
:107A1000998AAB5A99427FF4EDACAE4B1E68002EAA
:107A20003FF4E8AC03A87C2200211CF0EFF901230D
:107A300003A8ADF80E70CDF810908DF80C30B0475B
:107A4000D8E4414601E64946FFE595F8C632A24A28
:107A500085F8C772C3EB0311C3EB81031168A788D4
:107A60005A00A81800293FF4C5AC994B807893F8C8
:107A700002C0844500F0EE8001297FF6BBAC93F88C
:107A800006C0844500F0EE8002293FF4B3AC93F8C1
:107A90000AC0844500F0EE8003293FF4ABAC93F8B4
:107AA0000EC0844500F0EE8004293FF4A3AC93F8A7
:107AB00012C0844500F0EE8005293FF49BAC997D0F
:107AC00081427FF497AC24E795F8C63280480133B1
:107AD000DBB2C3EB0312C3EB82025200A91850F8C9
:107AE000230085F8C632002385F8C532A8500A461F
:107AF0000B7130460121FFF793F900283FF47EAC6B
:107B000085F8C732014632462846FFF78FF9734B96
:107B100003225E801A7071E40AF1FF31CA0094E515
:107B2000012385F8C73285F8C83274E495F8C63267
:107B3000674885F8C5620133DBB2C3EB0312C3EBC0
:107B400082025200A91850F8230085F8C632A850C6
:107B50000A460E7138460121FFF762F900283FF40A
:107B60004DAC01463A4685F8C7622846FFF75EF9F4
:107B70005A4B03225F801A7040E435F802E0B3F8F4
:107B800000C0E6457FF49EAEC8E6DB8852E6B3F857
:107B900004E035F802C0E6457FF49CAEBEE635F859
:107BA00002E0B3F800C0E6457FF402AC494BD3F8DD
:107BB0000080B8F1000F3FF41DAC7C22002103A827
:107BC0001CF024F90123ADF80E70049603A88DF87B
:107BD0000C30C047A7880DE435F802E0B3F804C0C4
:107BE000E6457FF4ECABE1E735F802E0B3F808C016
:107BF000E6457FF477AE91E6B3F80CE035F802C0C5
:107C0000E6457FF477AE89E635F802E0B3F808C0C0
:107C1000E6457FF4DBABC9E735F802E0B3F80CC00A
:107C2000E6457FF4DAABC1E7B3F810E035F802C0FF
:107C3000E6457FF467AE71E635F802E0B3F810C0B0
:107C4000E6457FF4D1ABB1E7998AAB5A99427FF40C
:107C5000D1ABABE7B3F800E035F802C0E6457FF4FE
:107C60000BAF5BE6B3F804E035F802C0E6457FF4FD
:107C70000BAF53E6B3F808E035F802C0E6457FF4F1
:107C80000BAF4BE6B3F80CE035F802C0E6457FF4E5
:107C90000BAF43E6B3F810E035F802C0E6457FF4D9
:107CA0000BAF3BE635F802C0988884457FF494AE6C
:107CB000B3E635F802C0188884457FF486AEACE69A
:107CC00035F802C0188A84457FF49BAEA5E600BF54
:107CD00074390020643600206C3600207036002095
:107CE00035F802C0988984457FF484AE95E635F86E
:107CF00002C0188984457FF476AE8EE600B5074B46
:107D000093E8030083B006220090ADF80410044805
:107D100069461CF053F803B05DF804FB605504009D
:107D20008C39002010B5064CC378E370FEF702FBD7
:107D3000002814BF122302236370204610BD00BF29
:107D40008C390020704700BF0020704710B50446F2
:107D50000CF072FE10F11D0F0ADB10F1090F04DBAD
:107D60000A2808DC0134E0B210BD0234E0B210BDD4
:107D70000334E0B210BD1E2807DD322807DD462897
:107D8000D4BF023C033CE0B210BD204610BD013C14
:107D9000E0B210BD10B504460CF04EFE10F11D0F00
:107DA0000ADB10F1090F04DB0A2808DC013CE0B211
:107DB00010BD023CE0B210BD033CE0B210BD1E2875
:107DC00007DD322807DD4628D4BF02340334E0B291
:107DD00010BD204610BD0134E0B210BD10B5044600
:107DE0000CF02AFE10F11D0F0ADB10F1090F04DB65
:107DF0000A2808DC013CE0B210BD023CE0B210BD34
:107E0000033CE0B210BD1E2807DD322807DD4628FE
:107E1000D4BF02340334E0B210BD204610BD01349B
:107E2000E0B210BD10B504460CF006FE10F11D0FB7
:107E30000ADB10F1090F04DB0A2808DC013CE0B280
:107E400010BD023CE0B210BD033CE0B210BD1E28E4
:107E500007DD322807DD4628D4BF02340334E0B200
:107E600010BD204610BD0134E0B210BD81DF704767
:107E700084DF704770B5234B82B093F8812340258F
:107E80000195002A39D193F80507002835D11E4CF9
:107E90001E4E207030701E4B1E4A1F491F480CF0AA
:107EA000CBF9044608BB01AA1D4919480CF02AFA6F
:107EB000044660B91A4A18482B4611460CF04CFA91
:107EC0000446B0B901232046337002B070BD154896
:107ED000154B1649C01AC008000440F001002246A4
:107EE0000BF004F9204602B070BD0E480E4B10494D
:107EF000F0E70C480C4B0F49ECE71124204602B088
:107F000070BD00BF00410020B84000209440002018
:107F1000404B00200848002088700400483D0020A5
:107F2000C0400020A4BC040044BC0400C8550400A8
:107F3000905504000056040010B54FF4E162002192
:107F40000D481BF063FF09F0F9FD044638B90B4AF0
:107F50000B4B10701870BDE81040FFF78BBF094B3A
:107F600009480A49C01AC008000440F0010022462E
:107F70000BF0BCF8204610BD0041002092390020D3
:107F80009440002044BC0400A4BC040068550400D4
:107F900010B5084B1C780CB1074810BD074B0848BA
:107FA0000849C01AC008000440F001000AF0B0FE01
:107FB000204610BD94400020C040002044BC040076
:107FC000A4BC0400A8560400514B1B78002B68D1B8
:107FD0002DE9F0414F4B5048504DC01AC00895F85C
:107FE0008033000484B040F0020640F0030433B94B
:107FF00095F804374BBB002004B0BDE8F081484B36
:108000001B7820270397002B62D095F88133002B33
:1080100049D1444930460AF07BFE202142480CF009
:10802000A1FC002871D10022404920460BF05EF8E7
:108030003D490020FFF71AFF0023A5F880330028F0
:10804000DAD195F80437002BD5D0354B1B78202793
:108050000397002B3BD095F805374BB103AB00934A
:10806000334A314B3349344806F0DAFA00283AD023
:1080700030462C490AF04CFE20212B480CF072FCB3
:10808000002838D12046012228490BF02FF8264934
:108090000120FFF7EBFE0023A5F804370028AAD043
:1080A000AAE70320704703AB009322491E4B2248E6
:1080B0002A4606F0B5FA80460028AAD11A4A1F4877
:1080C0003B4611460CF048F90028ACD015E00123DE
:1080D0004FF4617202FB035303200022A3F88023B4
:1080E00004B0BDE8F081104A14483B4611460CF03C
:1080F00033F90028C6D04FF001084FF4617303FB39
:1081000008580023A8F8803376E74FF00008F4E71A
:108110009239002044BC0400A4BC040000410020AB
:1081200094400020EC5604009840002020570400A2
:108130008444002008480020BC39002088700400D6
:10814000F0B503888588112B91B027D0182B23D147
:10815000037BDB0704462BD4A16835486A464023DD
:108160000CF0FAF80646002851D1324F30484FF44F
:10817000617404FB05746A46214640230CF098F8AC
:10818000002836D1012384F881334FF4617303FB57
:108190000575012385F8803311B0F0BD254A4FF4F1
:1081A000617303FB05250023A5F8803311B0F0BDF2
:1081B000214B224A1B781268214E002B08BF002653
:1081C00012B128469047024631462846FFF750FE36
:1081D0000028C1D01B4A1C4B1C499B1ADB081B04FE
:1081E000024643F001000AF081FF194B01221A7088
:1081F000B2E7144A144B17499B1ADB081B040246CA
:1082000043F001000AF072FF84F88163BDE70D4B73
:108210000D481149C01AC0080004324640F0010060
:108220000AF064FF0A4B01221A7011B0F0BD00BFC2
:108230008870040000410020B8400020BC400020AD
:108240009439002044BC0400A4BC04003856040047
:10825000923900206C56040000560400F0B5224C00
:1082600094F86A5083B0002D3AD14FF0FF334FF0AD
:10827000FF364FF0FF372946062204F16400C4E9B7
:108280000033C4E90233C4E90433C4E90633C4E962
:108290000833C4E90A332366C4E90C67C4E90E67EE
:1082A000C4E91067C4E91267C4E91467C4E9166732
:1082B0001BF0ACFD0D4A0E4B0E491D60C02082F82C
:1082C0000603402010601B68019301984FF00043A3
:1082D0000122284684F86A20C1F8043303B0F0BDB7
:1082E000082003B0F0BD00BFC04E002000E100E058
:1082F0007C61004000600040034B93F86A0000304E
:1083000018BF0120704700BFC04E0020F0B5704B71
:108310001C1894F93050002D63DA8E78C6F34006AD
:108320009646002E57D01D68013500F0C380012409
:10833000082553F82470013756D004F1010C53F886
:108340002C7001374FD0A71CAF4242D253F82720E0
:10835000013200F0AD8004F1030CAC4539D253F882
:108360002C7001373FD004F1040CAC4531D253F8E6
:108370002C70013737D004F1050CAC4529D253F8E5
:108380002C7001372FD004F1060CAC4521D253F8E4
:108390002C70013727D004F1070CAC4519D253F8E3
:1083A0002C7001371FD004F1080CAC4511D253F8E2
:1083B0002C70013717D004F1090CAC4509D253F8E1
:1083C0002C7001370FD00A34AC4202D2DC6A01347F
:1083D0006CD00420F0BD1D6A013571D009240C2534
:1083E000A7E70820F0BD64461F1865B243F824E0F3
:1083F00087F8305016B91C4484F858008A7854071E
:108400001AD4D60741D41F284C7887BF314E00F0CC
:108410001F0202464FF0A04602F5E072A40046F8A3
:1084200022402D4EC40800F0070C375D012202FAED
:108430000CF23A4332558A78097812F002021AD0C7
:10844000AB0003F1804303F5C0430202D3F81005EB
:1084500020F44F3020F44070C3F810050904D3F81D
:10846000100501F4403102F47C520A430243C3F880
:1084700010250020F0BD083D2B44104693F86020E5
:1084800042EA811183F86010F0BD1F2887BF114AAE
:1084900000F01F0404464FF0A04202EB8402D2F821
:1084A000004724F00204C2F80047BAE70B249BE718
:1084B0003C4699E70025C3F800E084F830509DE77A
:1084C000082684F830601A623546344693E700BFC8
:1084D000C04E002000030050244F002070B4394CDF
:1084E000251883B095F93030072B10DD234493F81D
:1084F00058309B09032B34D0012B0CBF4FF40031B3
:108500004FF440311F284CD84FF0A04339E0DAB285
:10851000072A23D8980000F1804000F5C04003F1FD
:1085200040029200D0F8106592B202F1804202F54A
:10853000C04246F00106C0F81065002010601268C5
:108540000192019A51B195F9302054F822202AB1B4
:1085500001221D4902FA03F3C1F8043303B070BCD1
:1085600070471F2820D9194BD3F8103500F01F0091
:10857000C34013F0010F14BF4FF440314FF40031EA
:10858000124B03EB8000D0F8002722F44032C0F8F1
:108590000027D0F800370B43C0F8003703B070BC99
:1085A000704700F01F00EBE74FF0A0421346D2F8EF
:1085B0001025C24012F0010F0CBF4FF400314FF4F0
:1085C0004031DEE7C04E0020006000400003005054
:1085D0001F288ABF054B4FF0A04300F01F00D3F8BF
:1085E000103523FA00F000F001007047000300503E
:1085F0002DE9F047002388B0CDE90233C84A166858
:10860000012E00F047821E46C64B1A68012A00F070
:108610003382C54B1A68012A00F02082C34B1A68C6
:10862000012A00F00D82C24B1A68012A00F0FA817B
:10863000C04B1A68012A00F0E781BF4B1A68012A73
:1086400000F0D481BD4B1A68012A08D0BC4B1A68CF
:10865000012A00F02A820EBB08B0BDE8F087B94AB3
:10866000D2F804231706F1D500221A601968009188
:10867000603319680098012946F080060ED11A600F
:108680001B6801934FF0A042019BD2F81025AE4B1E
:108690000292D3F81035039346F00046AB4F002406
:1086A0000125A30003F180432E4203F5C0434FEAA6
:1086B00045050BD0D3F8100557F82420D3F8101532
:1086C000C0F30520C1F3014102B190470134082CE9
:1086D000E7D1002EC0DA0DF110089C4C9A4F002310
:1086E000C8F80430049394F960304FF0FF304FF035
:1086F000FF315D1CCDE906014FF0010600F0F58069
:108700005FFA83FC2CF0C00008AB4FEAD00903EB02
:10871000090E0CF007031EF8082C06FA03F312EA00
:10872000030521D022184FEA9C1192F9302054F809
:108730002220002A00F03481032900F033811F2811
:1087400000F2E98005464FF0A04C0CEB850C1EF8BA
:10875000185CDCF800E71D40CEF3014E40F0CF80FE
:10876000BEF1030F00F0B38194F96130581C32D090
:10877000DBB223F0C00008AA4FEAD00E02EB0E0CC9
:1087800003F007011CF8082C06FA01F912EA090F98
:1087900021D02218990992F9302054F82220002A79
:1087A00000F01081032900F010811F2800F2F480EE
:1087B00003464FF0A04E0EEB83031CF818ECD3F8E1
:1087C00000C71EEA090FCCF3014C40F0D980BCF180
:1087D000030F00F08E8194F96230591C32D0DBB265
:1087E00023F0C00008AA4FEAD00E02EB0E0C03F0F3
:1087F00007011CF8082C06FA01F912EA090F21D02A
:108800002218990992F9302054F82220002A00F009
:10881000CF80032900F0CF801F2800F2A5800346F7
:108820004FF0A04E0EEB83031CF818ECD3F800C7F2
:108830001EEA090FCCF3014C40F08A80BCF1030F13
:1088400000F06B8194F963305A1C33D0DBB223F013
:10885000C00008AA4FEAD00E02EB0E0C03F007028C
:108860001CF8081C06FA02F2114223D004EB00099E
:10887000990999F9309054F82990B9F1000F00F056
:10888000AB80032900F0AB801F288BBFBE464FF0A2
:10889000A04E03F01F0303460EEB83031CF818ECF5
:1088A000D3F800C71EEA020FCCF3014C60D1BCF133
:1088B000030F1CD0002D3FF4CFAE4FF0A042029B1F
:1088C000D2F81015D7F810058B4203D1039B8342D1
:1088D0003FF4C2AEDDE90423CDE9062394F960300C
:1088E0005D1CCDE902107FF40BAF00253CE70329A6
:1088F00000F02981B9F1000FDCD0C847DAE7BEF1FA
:10890000020FF2D1032900F039810025002A3FF43B
:108910002BAF904728E70CF01F05BC4615E700BFBA
:108920000061004004610040086100400C610040AB
:108930001061004014610040186100401C6100405B
:108940007C6100400060004000030050C04E0020E9
:10895000BCF1020F7FF476AF032900F00C81002AEE
:108960003FF470AF90476DE703F01F03BE4659E731
:10897000BCF1020F9ED10329BCD14FF4403CE4E08E
:10898000BCF1020F7FF427AF032900F0F180002A29
:108990003FF421AF90471EE703F01F03BE460AE7EE
:1089A0000329A2D118F809501D4308F80950C6E65A
:1089B00003297FF447AF18F80EA04AEA090A08F81D
:1089C0000EA029E703297FF406AF18F80EA04AEAA3
:1089D000090A08F80EA0E8E603297FF46BAF18F83F
:1089E0000EA04AEA020A08F80EA04DE7654AD2F83E
:1089F000042352067FF526AE00221A601B680093FE
:108A0000009B46F040061DE65E4AD2F8042391061C
:108A10007FF513AE00221A601B680093009B46F09E
:108A200020060AE6574AD2F80423D0067FF500AEA6
:108A300000221A601B680093009B46F01006F7E5C1
:108A4000504AD2F8042314077FF5EDAD00221A60D6
:108A50001B680093009B46F00806E4E5494AD2F8FB
:108A6000042355077FF5DAAD00221A601B680093D6
:108A7000009B46F00406D1E5424AD2F8042397074A
:108A80007FF5C7AD00221A601B680093009B46F07B
:108A90000206BEE53B49D1F8041311F0010150D0A4
:108AA000136013680093009BAEE500221A601B68F8
:108AB00001934FF0A042019BD2F81025324B029255
:108AC000D3F810350393002E3FF405AEE4E50329F7
:108AD0007FF41CAF4FF40035DCF8003723F440334B
:108AE000CCF80037DCF800372B43CCF800370125F1
:108AF0000CE703297FF44BAF4FF4003ED3F800C7D7
:108B00002CF4403CC3F800C7D3F800C701354EEA47
:108B10000C0CEDB2C3F800C739E703297FF41FAF8F
:108B20004FF4003ED3F800C72CF4403CC3F800C714
:108B3000D3F800C701354EEA0C0CEDB2C3F800C7FC
:108B40000DE70E4660E54FF4003CD3F8002722F411
:108B50004032C3F80027D3F80027013542EA0C025F
:108B6000EDB2C3F80027B9F1000F7FF4C6AEA4E65A
:108B70004FF4403EC2E74FF4403ED3E74FF4403558
:108B8000AAE700BF006000400003005070B52C4A07
:108B900082B0012102E0C2E8431FDBB1D2E84F3FBF
:108BA000DBB28DF803309DF80330002BF3D0BFF318
:108BB0002F8F244B1B682BB1234B186802304008C1
:108BC00002B070BD204B1A68D207F6D4186840086E
:108BD00002B070BD1D4C0225C4F80853BFF35F8F6F
:108BE0001848016851B9184B1868C4F8045301308B
:108BF0004008BFF35F8F117002B070BD12490E685C
:108C000001360E60BFF35F8F03600068019001982A
:108C10000868C4F8045301304008BFF35F8F137035
:108C20000B68DC0704D50B6801330B6002B070BD24
:108C3000074B084A08484FF486711BF041F800BF03
:108C4000344F002004410240384F002000400240D1
:108C5000085804008C57040020580400F0B51B4845
:108C60001B4C1C4A1C4900230026002783B00360CC
:108C7000C1E900672370136007F09EFA2378002B88
:108C8000FCD01649164B174C1748C02281F82423F4
:108C900010250022C1F884514D60C3F808252260D8
:108CA0002168019102244FF48031019DC3F84443AF
:108CB000C3F80443C3F80813C3F8481302600268FA
:108CC0000092009901221A6003B0F0BD384F0020D5
:108CD0002C4F0020304F0020404F002000E100E0EA
:108CE000004002400441024040410240054B5B68A5
:108CF000DB0602D5044B01221A60024B1022C3F896
:108D00008420704700E100E0304F0020044B1A68D7
:108D100022B1044A0020102118605160704700BF42
:108D2000304F002000E100E0F0B583B0FFF72EFFE8
:108D3000BFF35F8F374BD3F80465BFF35F8F364ABD
:108D4000012102E0C2E8441F6CB3D2E84F3FDBB21E
:108D50008DF803309DF80330002BF3D0BFF32F8F35
:108D60002E4B1B68C3B12E4B1B6802335B08984225
:108D700018BF284A2B4818BFD2F8046540F2FF14E8
:108D800043F609520025E2FB0645620A42EAC55253
:108D900003FB002003B0F0BD214B1A68D207E3D4D7
:108DA0001B685B08E3E71B4D0227C5F80873BFF398
:108DB0005F8F1A4B196849B9194B1B68C5F80473C2
:108DC00001335B08BFF35F8F1170D0E71449D1F80E
:108DD00000C00CF1010CC1F800C0BFF35F8F1C6034
:108DE0001B680193019B0B68C5F8047301335B0892
:108DF000BFF35F8F14700A68D40703D50A68013285
:108E00000A60B4E7084B094A09484FF486711AF022
:108E100057FF00BF00400240344F00200441024091
:108E2000384F00200080841E085804008C5704002E
:108E3000205804001F2070472DE9F04F85B00646EA
:108E40008B46FFF7A3FE8146BFF35F8FDFF83C82BE
:108E5000D8F80475BFF35F8FFFF798FE814518BF00
:108E6000D8F804758649DFF824C243F6095340F266
:108E7000FF184FF00009E3FB07894FEA582242EA46
:108E8000C9524FEA5923E1FB002396424FF4803147
:108E9000CCF808131046CCF8441303D9B11A0029B2
:108EA000C0F2D1808642C0F0C6809A461BEB06080D
:108EB0004FF000014FF0000C41F1000918EB0C0ECF
:108EC00049EB0A0A6F494FEA5E3848EACA48A8FBEC
:108ED00001894FEA5A3001FB00994FEA187141EAC3
:108EE00009114FEA197848014FEA4816401A46EA34
:108EF000D16666EB08064FEA86194FEA801B49EAFD
:108F00009069BBEB000069EB0606F6004FEAC0096A
:108F100046EA507619EB010046EB0806BEEB00046A
:108F20006AEB06054FEA48204FF00009DFF8708130
:108F3000A94508BFA04540EAD1504FEA4121C0F001
:108F40009880DFF86081504E40F2314E0EFB04FEF7
:108F500008FB05EEA4FB0889F1444FF0FF3E18EB37
:108F60000E0E47F6FF7444EB0905ED0B69184CEB48
:108F700000084D014FEA4814B5EB010C44EAD164F6
:108F800064EB080084014FEA8C15B5EB0C0544EA4C
:108F90009C6464EB0004E400E80044EA557440F289
:108FA000FF1C451844EB0804002015EB0C0540EBB2
:108FB00004044FEA552A4AEAC45A4FEA542BC6E938
:108FC00000AB324CC4F84015D4F80415B9421ED099
:108FD000FFF7DCFD0746BFF35F8FD4F80455BFF3FE
:108FE0005F8FFFF7D3FD874218BFD4F8045524499B
:108FF00043F6095440F2FF120023E4FB0523520A12
:10900000D6E900AB42EAC3525B0AE1FB002312F14E
:109010003E0143F1000300910193DDE900345C451A
:1090200008BF534513D2194B4FF48032C3F80423C1
:1090300005B0BDE8F08F801B0028BFF636AF111CCD
:1090400043F1010A32E7111C43F1FF3A2EE7104ABF
:109050000E4B002111601268039203994FF4803285
:10906000C3F84823C3F8082305B0BDE8F04F05F066
:1090700097BD084B084A094883211AF021FE00BF1A
:109080000080841ED07B6308404F002000400240D7
:1090900040410240A457040070570400B457040034
:1090A000452C16007B2DE8BD074A084B4FF4803154
:1090B0000020C2F8481382B0C2F8081318601B6879
:1090C0000193019B02B070470040024040410240C2
:1090D0002DE9F84F5D4CDFF88CB1DFF88CA1FFF77C
:1090E00055FD8046BFF35F8FD4F80455BFF35F8F03
:1090F000FFF74CFD804518BFD4F80455544943F69A
:10910000095340F2FF184FF00009E3FB05894FEACD
:10911000582242EAC9524FEA5923E1FB002312F1D7
:109120003E0C43F100004FEA5C3242EAC042A2FB2F
:109130000B23410B0BFB0133110F41EA03111A0FF3
:109140004FEA411E5301BEEB010E43EAD16363EBCC
:1091500002084FEA88134FEA8E1943EA9E63B9EB7F
:109160000E0E63EB0803DB004FEACE0843EA5E73A2
:1091700018EB010E42EB0303BCEB0E0660EB03079A
:10918000DFF8E8804FF00009B9454FEA422E4FF46E
:10919000003008BFB0454EEAD15EC4F808034FEA7C
:1091A00041214FF00002C4F8440348D340F2314358
:1091B00003FB06F3A6FB0A890AFB073399444FF029
:1091C000FF3318EB030347F6FF7349EB0303DB0B95
:1091D000591842EB0E0C4B014FEA4C12B3EB010E47
:1091E00042EAD16262EB0C084FEA8E134FEA881212
:1091F000B3EB0E0342EA9E6262EB0802D2004FEA32
:10920000C30EC4F8441542EA5372C4F804031EEBBB
:10921000010340F2FF1142EB0C02D4F804055B1885
:1092200042F100025B0A0B4943EAC253A8424FEAEB
:109230005222C1E902327FF452AFBDE8F88F064BEB
:10924000064A074883211AF03BFD00BF0040024058
:109250000080841E404F0020A45704007057040073
:10926000B4570400D07B63087B2DE8BD452C160065
:109270002DE9F84F06468846FFF788FC8246BFF383
:109280005F8FDFF89891D9F80475BFF35F8FFFF710
:109290007DFC824518BFD9F804755F4943F6095330
:1092A00040F2FF1A4FF0000BE3FB07AB4FEA5A22E4
:1092B00042EACB524FEA5B23E1FB0023574F1046B3
:1092C000194686424FF40033C7F808330246C7F800
:1092D000443303D9331A002BC0F293809642C0F076
:1092E000888018EB060A4FF000094FF0000249F1A0
:1092F000000B1AEB02064BEB0107494B4FEA5638BD
:1093000048EAC748A8FB0389790B03FB01994FEA98
:10931000187141EA09114FEA197C48014FEA4C13D0
:10932000B0EB010E43EAD16363EB0C084FEA8E10F9
:109330004FEA8813B0EB0E0043EA9E6363EB080329
:10934000DB004FEAC00E43EA50731EEB010043EB13
:109350000C03341A67EB0305324E0027AF424FEA85
:109360004C2C08BFA6424CEAD15C4FEA41214CD3B9
:109370002D4E2E4840F2314303FB04F306FB053328
:10938000A4FB06451D444FF0FF33E31847F6FF7377
:1093900045EB0303DB0B591842EB0C0C4B014FEA76
:1093A0004C125C1A42EAD16262EB0C05AA01A301DD
:1093B0001B1B42EA946262EB0502DC00D20042EA27
:1093C0005372631840F2FF1442EB0C0200251B1984
:1093D00045EB02025B0A43EAC253520A0F4CC0E952
:1093E00002324FF40035C4F84415C4F80453BDE804
:1093F000F88F921B002ABFF674AF003041F10101D3
:109400006FE7003041F1FF316BE7094B094A0A4829
:1094100083211AF055FC00BF0080841E00400240EA
:10942000D07B6308452C16007B2DE8BD404F002003
:10943000A457040070570400B4570400074A084BAF
:109440004FF400310020C2F8481382B0C2F808136C
:1094500018601B680193019B02B0704700400240F6
:10946000444102400048704744410240014B986823
:10947000704700BF404F0020014B01221A70704717
:109480002C4F0020F0B52F4B1B6883B08BB92E4CAE
:10949000D4F80433D90302D52C4B1A68FAB92A4BF5
:1094A000D3F80423920302D5294A116841B903B0C5
:1094B000F0BD254B0222C3F80823FFF767FBE6E760
:1094C00000211160126800924FF400320099C3F835
:1094D0004823C3F808230DF00FFC03B0F0BD0022B1
:1094E0001A601B680193019BFFF750FB0546BFF311
:1094F0005F8FD4F80465BFF35F8FFFF747FB8542AA
:1095000018BFD4F80465134F134943F6095340F2CA
:10951000FF140025E3FB0645620A42EAC5526B0AC6
:10952000D7E90045E1FB0023AB4208BFA242B6D316
:10953000054B4FF48032C3F84823C3F8082305F0E5
:109540002FFBACE704410240004002404041024092
:1095500044410240404F00200080841EAFDF70472E
:10956000B1DF7047B2DF7047B3DF7047F0B5254B0E
:10957000254C93E80300238889B04FF6FF756E46AB
:10958000AB4286E8030007D137E020880BF05CF996
:10959000A8420346208030D01846002231460BF006
:1095A000D9F807460028F0D0002322881128CDE9F9
:1095B0000233CDE90433CDE90633ADF80C201CD0DD
:1095C00086281CD00DF072FD104D114A23881149D8
:1095D000541BE4082404024644F0010009F066FE2E
:1095E000BDF80C00049707238DF8083008F0CCF87C
:1095F000ADF80A0002A8FDF739F909B0F0BD104630
:109600000623F1E78C580400504F002044BC0400AE
:10961000D4BC0400E8590400044B1A884FF6FF73C9
:109620009A4200D17047FFF7A1BF00BF504F002002
:10963000024B4FF6FF721A8000207047504F0020F7
:109640002DE9F04782B0074607F0CEFF4FF6FF73D3
:1096500098425AD0304A314BDFF8C4A0A3EB02093C
:109660004FEAD9094FEA0949064649F001090122A2
:109670004FF003086B4608213046541C0BF0DAFD0E
:10968000A4B20546032378BB019A3846911D42F8DF
:10969000048BFFF767FF0821034668B30C2B3046A5
:1096A00004D10BF0B9FEA8B92246E3E70821052B47
:1096B00018BF1D460BF0B0FE40B10DF0F7FC32466E
:1096C00003461749484609F0F1FD0325284602B034
:1096D000BDE8F0870DF0EAFC3246034651464846A5
:1096E00009F0E4FD2246C5E7072814BF05460C250E
:1096F000284602B0BDE8F087324630460BF0F0FE57
:109700000546284602B0BDE8F08743F20205284628
:1097100002B0BDE8F08700BF44BC0400D4BC040024
:10972000145904002DE9F04383B0804607F05CFF34
:109730004FF6FF7398422DD100273E4603254FF088
:1097400001092B463A4631464046FFF709FF0428F7
:1097500004460BD008280BD00B280BD0B9F1000F12
:1097600008BF0B24204603B0BDE8F0831124F5E7C1
:109770000024F3E715F0020504D13EB12F462E4632
:10978000032500E001254FF00009DAE76FB1374605
:109790000325F8E76A4608210BF048FD0028CBD1E5
:1097A000019EB78835680636C9E7064B0648074963
:1097B000C01AC0080004424640F0010009F096FCBF
:1097C000D0E700BF44BC0400D4BC04009C58040093
:1097D00000B585B00DF10703039307F005FF02AA5A
:1097E00001210BF023FD20B9039B187805B05DF82B
:1097F00004FB002005B05DF804FB00BF38B5124D36
:1098000003462846FFF7B0FE78B9298843F20304DF
:109810004FF6FF721846FFF7A1FEA04200D038BDF8
:109820002988013189B22980F2E70DF03FFC074A0F
:10983000074B08499B1ADB081B04024643F0010052
:1098400009F054FC032038BD524F002044BC0400F2
:10985000D4BC04009459040010B5074B044693E8A7
:10986000030082B06B4683E80300002219462046BD
:109870000AF070FF02B010BD9458040008B5094BFF
:109880005A78022A01D0012008BD0028FCD000220D
:1098900005485A7005F0B8F80A2006F041FF01208B
:1098A00008BD00BF544F0020584F00200C4B5B7880
:1098B000022B00D0704710B50A4C204604F096FFEA
:1098C000B0F5965F00D310BD04F084FF4FF49653BB
:1098D0002060636020460121BDE8104004F0A0BF75
:1098E000544F0020584F002010B44FF080414FF0EB
:1098F00080520020C1F80C015E4BC1F81001C1F884
:109900003805D2F80414C3F82015D2F80814C3F8A7
:109910002415D2F80C14C3F82815D2F81014C3F883
:109920002C15D2F81414C3F83015D2F81814C3F853
:109930003415D2F81C14C3F84015D2F82014C3F81B
:109940004415D2F82414C3F84815D2F82814C3F8E3
:109950004C15D2F82C14C3F85015D2F83014C3F8B3
:109960005415D2F83414C3F86015D2F83814C3F87B
:109970006415D2F83C04C3F86805D2F840043E49A7
:10998000C3F86C050968D2F84424C3F87025082987
:1099900024D04FF08043D3F80024D20744BF6FF0A7
:1099A0000102C3F80024354AD2F8883043F470032A
:1099B000C2F88830BFF34F8FBFF36F8F4FF0102383
:1099C000D3F80022002A23DBD3F80432002B1FDB5C
:1099D0002B4B2C4A1A605DF8044B70472A4B1B68CE
:1099E000002BD6D129482A4A2A4C04602A492B4BFD
:1099F000FB20C2F818050A681B68294822F00F02EC
:109A000003F00F0313434FF400720B600260C0E7D2
:109A1000244A0123C2F80435D2F80034002BFBD0CD
:109A20004FF0102312211F4AC3F80012D2F800345D
:109A3000002BFBD04FF0102312211A4AC3F8041256
:109A4000D2F80034002BFBD000231649C2F80435AD
:109A5000D1F80034002BFBD0BFF34F8F0749124BD6
:109A6000CA6802F4E0621343CB60BFF34F8F00BFBC
:109A7000FDE700BF00C000403001001000ED00E035
:109A8000183200200090D003340100108C560040A2
:109A900000F0004048810300E40E0040580200102E
:109AA0004096024000E001400400FA0510DF7047D4
:109AB00011DF704770B53D4D2B7884B0002B66D117
:109AC0003B4E3C49012302A8337001F059FE039B31
:109AD0002BB90EE002A801F05DFE039B4BB1D3E968
:109AE0000021002090470028F4D10446204604B00D
:109AF00070BD314902A801F043FE039B4BB1D3E98D
:109B000000210020904702A801F044FE039B002B97
:109B1000F5D12A4A002312688DF8083002A8019274
:109B20000DF004FE264901A8FFF7C0FFB0FA80F34C
:109B300004465B099DF808002B700DF01DFE002CFB
:109B4000D4D1204B20491C70347091F81623EC239B
:109B500052091341DB071ED51C4B9A6812B31A68D1
:109B600042F480021A60144902A801F009FE039B26
:109B7000002BBBD0D3E900210120904702A801F0BF
:109B800009FE039B002BF5D1204604B070BD0824CC
:109B9000204604B070BD0E4AA12142F2020013F02B
:109BA00051F8E0E74FF480030B60DCE76D4F0020D5
:109BB0006C4F0020A85A0400C05A0400545A0400F4
:109BC000E1CA03006E4F002000E100E0C0850020E4
:109BD000585A0400F0B5324D2B7883B0002B55D085
:109BE000304E314901236846337001F0C9FD019BB5
:109BF0002BB90EE0684601F0CDFD019B4BB1D3E9D6
:109C00000021012090470028F4D10446204603B0EB
:109C1000F0BD2649684601F0B3FD019B4BB1D3E985
:109C2000002102209047684601F0B4FD019B002B03
:109C3000F5D1002768468DF800700DF077FDFFF72D
:109C400037FF04469DF800002F700DF095FD002CA5
:109C5000DCD1174B34709A68E2B9164B4FF480028E
:109C6000C3F880201149684601F08AFD019B002B52
:109C7000CCD0D3E9002103209047684601F08AFD4B
:109C8000019B002BF5D1204603B0F0BD08242046EF
:109C900003B0F0BD1A6822F480021A60E2E700BF48
:109CA0006D4F00206C4F0020A85A0400C05A0400D9
:109CB000C085002000E100E0054B1B7833B1054B67
:109CC0001B780BB1FFF786BFFFF7F4BE0820704783
:109CD0006C4F00206D4F0020014B1878704700BF7B
:109CE0006D4F002000B583B06846084901F048FD7B
:109CF000019B43B1D3E900209047684601F04AFD3B
:109D0000019B002BF6D103B05DF804FBB45A0400AC
:109D10002DE9F04102230B80846801342DD000F539
:109D2000805508305AB3304F9E464FF6FF764FF0BD
:109D3000010C4388DC1C00EB8404A54247D38488D3
:109D4000B4424BD00488002C48D08468D7F80080F7
:109D5000444503D93C60B1F800E0438873440333C1
:109D60001FFA83FEA1F800E04488033400EB84006E
:109D7000854202D904680134DBD1BDE8F0811A4C78
:109D80009E464FF6FF764388DA1C00EB820295422E
:109D90001FD38288B24209D002883AB1826827680C
:109DA000974203D22260B1F800E043887344033342
:109DB0001FFA83FEA1F800E04288033200EB820024
:109DC0008542DAD903680133DDD1BDE8F081012392
:109DD00013704FF480630B80BDE8F08182F800C0FF
:109DE000B1F800E04388B9E7A84F0020F0B5374C40
:109DF000374D67886268BE00F31905EB830383B0B3
:109E0000596801F58050002A5CD05388033302EB77
:109E10008302904228D91368013325D05388033335
:109E200002EB830398421FD34FF6FF7EB2F804C0C3
:109E3000F44517D0B2F800C0BCF1000F12D0626038
:109E40005388244D2448AE882968033300259BB2EB
:109E500000959B0001EB86010325257002F05EFC56
:109E600003B0F0BD98420DD83E4405EB8605EB6883
:109E7000D3B9194804250122257003B0BDE8F0408C
:109E800002F0EABC1A6801321A46EDD0B3F802C0FB
:109E90000CF1030C03EB8C039842C7D23E4405EB54
:109EA0008605EB68002BE4D00A4B0B4819680222A8
:109EB0009A80052500230122257003B0BDE8F040FB
:109EC00002F0CABC01F10802A3E700BF944F0020D2
:109ED000B04F002078500020A4350020F0B4436833
:109EE0001BB1374AD468A34246D20023354F0B80BA
:109EF0007A684FF0010C02F580544FF6FF76083275
:109F000094420ED8BCF1020FA1F800C007F114076B
:109F100054D07A6802F58054083294424FF0020C13
:109F2000F0D913680133EDD05388033302EB830378
:109F30009C42E7D39588B5420AD0158845B195680B
:109F400003689D4211D05388033302EB8302D7E7A5
:109F50009C42D7D91A6801321A46D3D05D8803359E
:109F600003EB85039C42E5D2CCE7174B42601B898B
:109F700003810120F0BC704712699342B5D813F0F9
:109F80000305B2D1104A048912899442ADD1046804
:109F90009A689442A9D10B484268934203D902F5CA
:109FA0008052934207D38269934207D902F58052C7
:109FB000934203D201250D800120DBE70020D9E781
:109FC000A4350020B04F0020944F00202DE9F04F21
:109FD000AE4E89B004464FF6FF773568002D00F08D
:109FE000C0802A78531E052B00F2F180DFE803F0D1
:109FF0003D4A4A1E1E03002C40F0BA80DFF8B0C272
:10A000009CF80C209CF80030002A00F07081013B85
:10A010008CF80C40062B00F2DA80DFE813F0E60340
:10A020000C032002F801D8001E030F03002C40F09F
:10A030009F802B79012B00F08081002B00F0648140
:10A040000DF10C08022B0394C8E90244C8F8104033
:10A0500040F0C580204604902B78023B042B36D874
:10A06000DFE803F06F5B4F2F7B00002C40F08A800D
:10A070002B79032B00F2E680DFE813F0FB002001D0
:10A08000F000C100B5F81490A97D002C40F0868046
:10A090004FEA8904DFF8208204EB090308EB83030D
:10A0A000B3F808A05B6803EB8A0A062900F2C583AF
:10A0B000DFE811F06A02790242025502010226022B
:10A0C000E90104238DF80C30EB88ADF81830704CA2
:10A0D00004F1100554F8043B404603B19847A542EB
:10A0E000F8D16C496C480024346009F0ABFD0121C3
:10A0F0006A4807F0F3FC00287FF46FAF09B0BDE8B1
:10A10000F08F03238DF80C30EB88ADF818302B89D5
:10A11000ADF81A30EB680593D9E702238DF80C30BF
:10A120002B89ADF81830AB88ADF81A30EB68059381
:10A13000AB7DA3F10603B3FA83F35B098DF81C3002
:10A14000C5E701238DF80C302B89ADF81830AB88AA
:10A15000ADF81A30EB680593B9E705238DF80C309C
:10A16000B5E74C494C4809F03DFD0546306038E7FD
:10A170000DF10C080023C8F808300393C8E9033335
:10A18000012068E70DF10C08454A00235360039352
:10A19000C8E90233C8F8103001205CE70229EA88D8
:10A1A0001FD8DFF814814FEA890404EB090108EB9A
:10A1B00081010DF10C084B89033B9B1A00224B8156
:10A1C000C8F808200392C8E90322012043E70023CE
:10A1D0000DF10C08C8E90333C8F8083003930F20C9
:10A1E00039E74FEA8904DFF8D08004EB090108EB76
:10A1F0008101D31C0A8913440B81EA88D5E7294CD5
:10A20000294A21682948DFF8B0804FF0000985F815
:10A2100004900823CDF8009002F080FA244B2568C2
:10A220005B88A18803EB830308EB830208F8239083
:10A2300053682360022355601181A38000283FF4F6
:10A240005DAF3568164A0DF10C0800235360039387
:10A25000C8E90233C8F810300E20FCE6114A134852
:10A260001168002302242B719480012202F0F4FA79
:10A27000E4E70C4B0F4A19680C4801232B710023AB
:10A280000093082302F04AFAD8E700BFAC4F002041
:10A290007C4F0020A44F0020645000207450002008
:10A2A0008C4F002078500020D85A0400A43500209C
:10A2B000944F0020E05A0400B04F0020DFF82883BC
:10A2C00098F80030022B00F0A68298F81430022B88
:10A2D00000F0B182BD4B0DF10C08002001221A7074
:10A2E00003905860C8E90200C8F81000B3E6072BD5
:10A2F00000F23082DFE813F000022E022E029401F9
:10A30000EC01A201A201C60102232B71CDE9044494
:10A310000DF10C08EB68039340460DF10A01FFF7BD
:10A32000DDFD002840F062810A200023C8E90033E7
:10A33000C8E90233C8F810308DE6A44B1B78002B17
:10A3400000F03E82DFF888C2BCF80430012B12D83E
:10A35000DFF8948203EB8302994608EB82021378BC
:10A36000C3B109F1010399B201299946ACF804304F
:10A3700002F11402F3D90DF10C08082200219448CF
:10A3800019F044FD0020C8F808000390C8E9030054
:10A39000356860E65368DCF8001003F5805E03F171
:10A3A000080A002900F0F1814B88033301EB830197
:10A3B0008E4540F2E7810B68013300F0E3814B8862
:10A3C000033301EB83039E45C0F0DC818888B842EB
:10A3D00000F0D681B1F800B0BBF1000F00F0D081E1
:10A3E000EB88CCF800108342DBD100230093794A3C
:10A3F0007948042302F092F9002840F0078209EB23
:10A40000890308EB8308012388F8103076E6BCF84E
:10A410000230DFF8D48103EB830308EB8308D8F81C
:10A420000C30002B40F0BF8104228CF80020D8F8BB
:10A4300004106948012202F00FFA00283FF45EAED2
:10A4400035680DF10C08002341F61D52C8F808309C
:10A450000393C8E90333904208BF1846FBE5DCF8D4
:10A4600004205E485388848801685B4801EB8401BE
:10A470000333002400949BB203249B008CF800401B
:10A4800002F04CF9D9E7EA88AC4641F61D5004EBDE
:10A49000090108EB8101D31C0A8913440B81EA8866
:10A4A00065464C4408EB8408B8F80A30033B9B1A15
:10A4B000A8F80A30C5E74A4BAA694A491A604FF022
:10A4C000000B1846C3F804B0FFF708FD002800F0A1
:10A4D0008F810223AB7504235146CDF800B0EA18F2
:10A4E0003D4802F01BF900283FF408AEAB7DD6F8DA
:10A4F00000C0EA88022B00F2878165460E20D0E773
:10A50000384B374AB3F800A051683348314A00232A
:10A510004FF0060C85F816C00093042302F0FEF8F5
:10A520000028E3D10AEB8A0A08EB8A08012388F89D
:10A53000103009B0BDE8F08F2B692748002B14BFFD
:10A54000032301230022AB750AF1080100920423C2
:10A5500005F10C0202F0E2F80028C7D1CEE5EB8845
:10A560002A691D484FF0010C85F816C04FF0000C09
:10A570000AF10C019B00CDF800C002F0CFF80028D2
:10A58000B4D109B0BDE8F08F02230022AB750423DB
:10A5900000925146EA18104802F0C0F80028A5D1F0
:10A5A00009B0BDE8F08F032A0CBF05230623002263
:10A5B000AB750AF104010092042305F10802064874
:10A5C00002F0ACF8002891D198E500BF8C4F002034
:10A5D00088500020D45A0400A43500207850002070
:10A5E000704F002084500020B04F00200499954AFD
:10A5F0008B88EB800B882B81934800940423BDF853
:10A600000A4002F08BF8002840F0FB808F4B04EBEF
:10A61000840403EB84040123237409B0BDE8F08FA4
:10A620008B4ADCF804109388498803330B440221D9
:10A6300093808CF80010FFF7D9FBFEE6844B854A27
:10A640001968814800230093CCF8043007238CF864
:10A650000030082302F062F8EFE6BCF80220DFF8D1
:10A66000EC819300134408EB830806200023D8F8FC
:10A670000410794A00938CF800000823724802F015
:10A680004DF8DAE601238CF800309CF80A304BB123
:10A69000DFF8B881D8F80C3000228CF80A20002BA3
:10A6A00000F09D809CF80B30002B43D0DFF89C819C
:10A6B000D8F8203000228CF80B20002B3AD198F8E3
:10A6C0002430BBB30123ACF80230FFF78FFBB4E6B4
:10A6D000BCF80220DFF874815D4C9300991808EBF8
:10A6E000810120684D68B4F804E0486002202560CC
:10A6F000A1F808E0A080B5E7DFF85081BCF80810A9
:10A7000098F8142098F80030B2FA82F25209013118
:10A71000B3FA83F35B098CF80B20ACF80810002225
:10A7200001218CF80A30ACF802208CF80C208CF84F
:10A730000010ACE70DF10C080020C8F808008CF8F8
:10A740000000ACF80200CCF804000390C8E9030054
:10A75000356880E4013B062B3FF639AD01A252F883
:10A7600023F000BFEBA7020037A602005FA402009F
:10A770000FA40200CFA102005BA602003DA60200CA
:10A780009E4504D8CCF80040EBE5514610E6196828
:10A7900001311946F6D05888033003EB80039E45FB
:10A7A000BFF414AEEEE72A4B2748196802229A80BC
:10A7B00005228CF800200023012202F04DF83CE62F
:10A7C0000DF10C0808222146244819F01FFB0394C0
:10A7D000C8E90244C8F81040356802203BE498F804
:10A7E0001020002A3FF45EAF6DE79CF80A304EE778
:10A7F0000DF10C080390C8E90200C8F810000A2007
:10A8000029E435680E2090E50E2040E635680E20DC
:10A810000DF10C0889E500239A001A4408EB820325
:10A82000002059680090082308F822000A4A0648C8
:10A8300001F074FF02E50123EEE7EA88AC460F2041
:10A8400025E600BFD45A0400A4350020B04F0020F4
:10A8500078500020E05A0400D85A040088500020A4
:10A860004068FFF7B3BB00BF38B5084B1A68042A2D
:10A870000AD01D68064C02460121184644F82520DE
:10A8800007F020F9002038BD0C2038BD8050002092
:10A890007C4F00202DE9F04F994D89B02A78002394
:10A8A000CDE90333CDE90533079372B1954C04F13B
:10A8B000100554F8043B03A803B19847A542F8D10A
:10A8C0000024204609B0BDE8F08F281D02F0FF0AE1
:10A8D00007F010F906460028F2D140F6F8731B681D
:10A8E0005C1C49D04FF0805211695269DFF84092E8
:10A8F0008549C9F810304846A3F540530022C9F8ED
:10A900000C3001F0DDFE04460028DAD11C238C2235
:10A910007E497F48DFF81CB209F0ECF80323274694
:10A920000093A046D9F80C3007EB030CFA586346A5
:10A93000BCF1000F2BD077498A4228D1DCF80420E3
:10A9400075498A4200F08E8001318A421FD1BAF1E6
:10A95000000F40F0A080714B7149C3F800C0604601
:10A9600000220193FFF7D4F9019B9B88022B0CBFB7
:10A97000042308231E4325E06A4B4FF080521B68D6
:10A9800011695269581C08BF02FB01F3AEE70CF5D0
:10A99000805101E099424DD01A68013203F104035D
:10A9A000F8D0009908EB8803481E0BEB83020321C3
:10A9B00008F1010880B20BF8231000901FFA88F804
:10A9C000C2F804C007F58057B7F5405FAAD1009BD5
:10A9D000012B40F28B80F6B2022E00F08780062E0B
:10A9E0000ED1484C012200232A7004F110066B603E
:10A9F00054F8043B03A803B19847A642F8D15FE797
:10AA0000002E73D002A9424809F0AEF81C22054678
:10AA1000002119F0FBF9002D66D00123013E2B70B7
:10AA20000A2E4AD8DFE806F05A495A495D495D497D
:10AA300057475700394B1A68002A59D008EB88034A
:10AA40000BEB830102223848C1F804C00A810BF8DD
:10AA5000232008F10101A0F802801FFA81F846F0D6
:10AA60000106AFE708EB8803990000220BF82320CA
:10AA70000BEB010301F1100208315A445944C3F8A9
:10AA800004C0604608F10108FFF742F946F00206EB
:10AA90001FFA88F896E708EB880E204B0BEB8E0226
:10AAA000022108F1010818680BF82E101FFA88F827
:10AAB0005060118150E702232B7102A9144809F05C
:10AAC00081F80121194806F0F1FF00287FF4F8AE63
:10AAD000FFF77CFAF5E603232B71EEE700232B71D9
:10AAE000EBE701232B71E8E70824EAE60B24E8E60C
:10AAF0000222C3F800C09A804FF0010AAFE700BFFE
:10AB00008C4F00207C4F0020585B0400D84F002061
:10AB100064500020DEC0ADDEFE011EF17850002042
:10AB20007C50002014100010944F0020745000201E
:10AB3000A4350020B04F002008B301B370B582B037
:10AB40000C460DF106010546FFF7C8F910B90A20B9
:10AB500002B070BDBDF806000A4B6E6800EB8000C5
:10AB600003EB800001210C3006F0ACFF26606B681F
:10AB700001220C3300206360AA7202B070BD052070
:10AB8000704700BFB04F002000B310B582B00DF188
:10AB900006010446FFF7A2F9A8B1BDF806300C4A39
:10ABA00003EB830302EB8303DA684AB1A27A3AB17A
:10ABB000DA680021013A0846DA60A17202B010BDDD
:10ABC000062002B010BD0A2002B010BD052070475B
:10ABD000B04F0020474B1B7853B3002938D00A8868
:10ABE0004FF6FF739A4221D04B88FBB14B689B070D
:10ABF0002CD12DE9F043B1F8089009F103039BB281
:10AC000040F2FD32934283B024D83B4A16783EB9D5
:10AC1000558914892C441C44A4B2B4F5806F1BD30D
:10AC2000147D3CB1072003B0BDE8F08304207047D9
:10AC300002207047D58B948B2C441C44A4B2B4F5ED
:10AC4000806FEFD24FF00108C44607E00320704741
:10AC5000052070470920E6E7B046B4464FEA8C0766
:10AC6000674402EB87072B440C46064601A923489C
:10AC70007B8108F079FF1C220546002119F0C6F8F7
:10AC8000002D2DD002230027A5F814802B70AF755E
:10AC900063682B6101211A4806F014FFE8602388DD
:10ACA0002B816388AB8001A96F81A5F806901348BA
:10ACB00008F088FF36B17760EA68124B32601B8972
:10ACC000B77233810121104806F0F0FE044618B136
:10ACD000002003B0BDE8F083FFF778F92046A2E733
:10ACE0007B89C9F57F4909F1FD099944A7F80A90C4
:10ACF000082098E78C4F0020B04F002064500020BF
:10AD0000A84F0020944F00207450002058B3494BA6
:10AD10001B78002B37D031B30A884FF6FF739A4265
:10AD20002FD04B886BB34B689B072ED12DE9F04396
:10AD3000B1F8089009F103039BB240F2FD3293424F
:10AD400083B024D83C4A15783DB9568914893444D7
:10AD50001C44A4B2B4F5806F1BD3147D2CB1072022
:10AD600003B0BDE8F08305207047D68B948B344444
:10AD70001C44A4B2B4F5806FF1D24FF00108C44670
:10AD800009E0042070470220704703207047092023
:10AD9000E6E7A846AC464FEA8C05654402EB85051C
:10ADA000334407460C4625486B8101A908F0DCFEB8
:10ADB0001C220646002119F029F8002E30D000256B
:10ADC0000323A6F814803370B575636833610121DD
:10ADD0001B4806F077FEF060238833816388B380D8
:10ADE0000423A6F80690B3753B68B36101A9758189
:10ADF000124808F0E7FE7D60F268124B3A601B894A
:10AE0000BD723B810121104806F050FE044618B186
:10AE1000284603B0BDE8F083FFF7D8F820469FE747
:10AE20006B89C9F57F4909F1FD099944A5F80A9094
:10AE3000082095E78C4F0020B04F00206450002080
:10AE4000A84F0020944F002074500020184B1B780E
:10AE500013B34FF6FF73984223D070B582B001A9A7
:10AE60000446144808F080FE1C220546002118F014
:10AE7000CDFF9DB105230126EC8001A92B702E7119
:10AE80000C4808F09FFE31460B4806F00FFE0446C2
:10AE900048B1002002B070BD02207047082002B007
:10AEA00070BD04207047FFF791F8204602B070BDD6
:10AEB0008C4F00206450002074500020164B1B78EB
:10AEC000FBB110B582B001A9144808F04DFE1C2258
:10AED0000446002118F09AFFD4B10623237001A97B
:10AEE0000E4808F06FFE0E4B1A780AB101221A7351
:10AEF00001210C4806F0DAFD044620B1002002B022
:10AF000010BD02207047FFF761F8204602B010BD67
:10AF1000082002B010BD00BF8C4F002064500020FC
:10AF2000944F0020745000202DE9F043374C2478D2
:10AF3000002C64D0002A65D0002B63D0B3F804C085
:10AF4000BCF1010F15D8324E0CEB8C0406EB8406D5
:10AF50004FF6FF7E4FF00008347864B10CF1010C1D
:10AF60001FFA8CF4022C9C8006F114064FF0010CA1
:10AF7000F2D10A202FE01C68756805F58057002C77
:10AF80003AD06588033504EB8504A74202D8C3F89C
:10AF90000080E3E725680135F9D06588033504EBC7
:10AFA0008505AF42F3D3B4F80490F14515D0B4F859
:10AFB0000090B9F1000F10D01C60A5888542DBD14C
:10AFC00025888D42D8D1A16811601968114B516054
:10AFD0001B8913810020BDE8F083BD42D7D22C68C5
:10AFE00001342C46D3D0B5F8029009F1030905EBE2
:10AFF0008905AF42D7D2CAE705F10804C5E70220A8
:10B00000BDE8F0830520BDE8F08300BF8C4F002031
:10B01000B04F0020944F0020354B1B78002B62D09E
:10B02000002962D0002A60D02DE9F041B2F804E096
:10B03000BEF1010F14D82F4D0EEB8E0305EB8305E7
:10B040004FF6FF774FF0000C2B785BB10EF1010348
:10B050009BB2022B938005F114054FF0010EF3D142
:10B060000A202CE013686C6804F58056002B37D05A
:10B070005C88033403EB84039E4202D8C2F800C00C
:10B08000E4E71C680134F9D05C88033403EB8404E2
:10B09000A642F3D3B3F80480B84512D0B3F80080C9
:10B0A000B8F1000F0DD013601C888442DBD19B687F
:10B0B0000B601268104B4A601B890B810020BDE8B1
:10B0C000F081B442DAD2236801332346D6D0B4F8F3
:10B0D000028008F1030804EB8804A642DAD2CDE727
:10B0E00004F10803C8E7022070470520704700BF3D
:10B0F0008C4F0020B04F0020944F0020354B1B7820
:10B10000002B62D0002962D0002A60D02DE9F041E6
:10B11000B2F804E0BEF1010F14D82F4D0EEB8E03F0
:10B1200005EB83054FF6FF774FF0000C2B785BB1F2
:10B130000EF101039BB2022B938005F114054FF031
:10B14000010EF3D10A202CE013686C6804F58056D8
:10B15000002B37D05C88033403EB84039E4202D873
:10B16000C2F800C0E4E71C680134F9D05C880334FD
:10B1700003EB8404A642F3D3B3F80480B84512D09D
:10B18000B3F80080B8F1000F0DD013609C888442A2
:10B19000DBD19B680B601268104B4A601B890B81E6
:10B1A0000020BDE8F081B442DAD22368013323469F
:10B1B000D6D0B4F8028008F1030804EB8804A64254
:10B1C000DAD2CDE704F10803C8E702207047052072
:10B1D000704700BF8C4F0020B04F0020944F0020DC
:10B1E00020B119B103680B6000207047052070473B
:10B1F000022007F035B900BF2DE9F0470D4606469D
:10B2000007F05CF903281ED8012D04461DD075B146
:10B21000022D18D11C4B00EB40041C44657895B1FD
:10B220001A4B1B687BB12846BDE8F0471847184801
:10B2300004F004FF144B174A04EB44010B44125D65
:10B240009D78AA42EBD0BDE8F0870F4F4FEA400847
:10B2500008EB0003FA18FD5C53783BB9A04447445F
:10B260000C4BBA781A55002DEDD0D9E7DFF82890AD
:10B2700007484A464FF4004104F08AFE0028EDD109
:10B2800089F80060EAE700BFF45000200851002070
:10B29000B4500020105100209050002010B50078CC
:10B2A00007F00CF903280BD8064B00EB40001844BC
:10B2B000407828B1044B1B6813B1BDE81040184713
:10B2C00010BD00BFF45000200851002038B5C14D1A
:10B2D0002B78044663B1C04B1B780020287023B341
:10B2E00007F080F8012007F07DF8032007F07AF8D6
:10B2F000172C00F26C81DFE814F0E600FB00FB0085
:10B30000A000B300C600D8004E001B0028001B00A0
:10B3100028005D00640064006400640064008D0027
:10B320001101260135005700570007F06DF8DFE7DF
:10B33000012318462B7007F093F8002240F6CD4108
:10B34000A648BDE8384004F023BE012318462B7000
:10B3500007F086F800224FF48041A048BDE838404D
:10B3600004F016BE9C4B1B78002B00F027810020B8
:10B3700007F038F8012007F035F8032007F032F81D
:10B38000002007F01DF8012007F01AF8944B152251
:10B390001A70002506E0002007F012F8904B0722F3
:10B3A0001A700025284638BD07F044F88C4B00255C
:10B3B0001C70F7E707F03EF8894B0C221A70002545
:10B3C000F0E7884804F03AFED4F11104054600F095
:10B3D000E880002840F0E580012C14D0C82303FB4E
:10B3E00004F44FF4FA704FF400430021C3FB04014E
:10B3F0004FF47A72002319F0BFFD2A4601467948BE
:10B4000004F0C6FD0546022006F0DAFF724B012269
:10B410001A70C7E7704B1B78002B00F0D280002019
:10B4200006F0E0FF012006F0DDFF032006F0DAFF62
:10B430006B4B12221A700025B4E7002006F0ACFF17
:10B44000002840F0A88006F0BBFF41F69A11644B3B
:10B45000624803241C700022BDE8384004F098BD07
:10B46000002006F099FF002840F08F8006F0A8FF2A
:10B4700043F233315A4B594804241C700022BDE872
:10B48000384004F085BD002006F086FF002878D102
:10B4900006F096FF524B514805241C70002241F6DD
:10B4A0009A11BDE8384004F073BD002006F0D8FFC3
:10B4B0004B4B4A4806241C70002240F6CD41BDE8A3
:10B4C000384004F065BD444B1B78002B73D000203E
:10B4D00006F088FF012006F085FF032006F082FFBA
:10B4E0003E4804F0ABFD3E4B002205461A7059E77A
:10B4F000002006F051FF002839D106F061FF41F627
:10B500009A1143F23333022C18BF1946344B334897
:10B510001C700022BDE8384004F03ABD2E4B1B7869
:10B52000002B45D0002006F05DFF012006F05AFFF9
:10B53000032006F057FF002006F042FF284B13229D
:10B540001A7000252EE7244B1B78EBB3002006F081
:10B5500049FF012006F046FF032006F043FF0120CB
:10B5600006F02EFF1E4B14221A7000251AE7002049
:10B5700006F038FF022C4EF2666118BF4FF400311E
:10B58000C4E7002006F02EFF84E7002006F02AFF23
:10B590004FF400316EE7002006F024FF46F26661AA
:10B5A00055E7022006F01EFF0B4B00221A70F9E649
:10B5B00006F02AFFBFE706F027FF91E706F024FF19
:10B5C000DEE606F021FF33E706F01EFFC7E70025A1
:10B5D000E8E600BF0451002091500020D450002024
:10B5E0000C51002094500020044B1B68DB0700D452
:10B5F0007047034B1878FFF769BE00BF0051002069
:10B600000C510020032801D90020704706F042BFEA
:10B61000044B1B6813F0010301D118467047FFF774
:10B6200055BE00BF0051002038B5254B254A196092
:10B630008307106000F0010503D44DBB2C46204663
:10B6400038BD214B21480E240F2210211C701124DB
:10B65000DA7099715C7240F26662042109F0CCFAEA
:10B66000044610B135BB204638BD09F01DFB044629
:10B670000028F7D10146164A164804F077FC044624
:10B68000002DF0D0012006F031FF002CEBD102E0BC
:10B69000012006F02BFF104A1048002104F066FC40
:10B6A00004460028DFD10E4A0E480121BDE838408B
:10B6B00004F05CBC012006F019FF204638BD00BF35
:10B6C0000851002000510020F4500020E85A0400E6
:10B6D0009DB202000C5B0400E9B50200105B04009F
:10B6E000F1B10200085B0400032807D8012A07D043
:10B6F00001291DD04BB28BB1022908D00720704719
:10B70000012912D001294FF00002F3D110E00B4BB8
:10B7100000EB4000034400205A707047074900EBDB
:10B720004000014418468A70704700F10E02D2B200
:10B7300000EB400301490020CA547047F450002038
:10B74000032801D90620704708B506F0C9FE1F2856
:10B7500086BF0A4B00F01F004FF0A04303EB8003AD
:10B760000020D3F8002722F44032C3F80027D3F892
:10B77000002742F44032C3F8002708BD0003005000
:10B7800001600B6843604A68934204BF0023436032
:10B79000704700BF436843B1026891680B4443603F
:10B7A0005268934204BF0023436070478ADF7047AA
:10B7B0008BDF70478CDF704750B14AB1022970B5FA
:10B7C0000446154619D0032966D019B1072070BD6B
:10B7D0000E207047104618F0F3FE0138C0B21F2843
:10B7E0007AD894F82060002E63D12946204618F0BC
:10B7F000DDFE00285FD1002070BD90F82960002E8A
:10B8000057D106222946233018F0CAFA04F1220340
:10B810000028DCD06A793249920943F2022031F8DB
:10B82000121081425AD094F82920C2EBC20230464D
:10B830009E5C61F347069E5494F829202978C2EB58
:10B84000C2021A44517094F829206978C2EBC202EE
:10B850001A44917094F82920A978C2EBC2021A44C4
:10B86000D17094F82920E978C2EBC2021A44117110
:10B8700094F829202979C2EBC2021A44517194F834
:10B8800029206979C2EBC2021344997194F82930D6
:10B89000013384F8293070BD90F8300048B9A28D8A
:10B8A0002B889A42A7D0012384F830302B68E362BA
:10B8B00070BD042070BD94F82000431C84F8203033
:10B8C00004EB4014284618F07BFE29460246204629
:10B8D00018F074FA304670BD0C2070BD084670BD7B
:10B8E000145B0400D8B1CB061BD0002380F82130B4
:10B8F00080F82A3080F831308B0744BF012380F86C
:10B900002A30CB0744BF012380F821304B0744BFC6
:10B91000012380F8313080F83220002070470E205B
:10B9200070470720704700BFFFF742BF002851D083
:10B9300070B50D46026500213422044618F066FAFF
:10B94000FDB12B7984F834302B7B84F83E302E689F
:10B950005EB3B2683068716804F1400307C3B2890E
:10B960001A80AB6873B31A685B68C4F83A30C4F8DD
:10B97000362004F154021F236267A4F878300020B7
:10B9800070BD236C84F8345003F0E30343F42003C8
:10B9900043F482735025062018214FF4C872C4E97D
:10B9A0001035E086A163A287E3E7236C03F0E3038D
:10B9B00043F4200343F482735022C4E91032AB688D
:10B9C000002BD0D1044BC4F836304FF0C873C4F804
:10B9D0003A30CEE70E2070470600180010B310B5BD
:10B9E000044686B01422002101A818F00FFAFFF7D0
:10B9F000DFFE94F840301B070BD404F1740104F10E
:10BA00004000FFF7D3FE044630F008000CD106B02A
:10BA100010BD236D002BF0D0012201A88DF8042069
:10BA20009847EAE70E207047064B07480749C01AB7
:10BA3000C008000440F00100224607F057FB2046F2
:10BA400006B010BD44BC04008CBC04001C5B0400A8
:10BA5000D0B110B503460C46FFF7AAFE41B1086805
:10BA6000A2684968403307C3A2891A80002010BD2C
:10BA70001A6C02F0E30242F4200242F48272502176
:10BA8000C3E91021204610BD0E2070472DE9F04F6C
:10BA9000064693B036F8083B103B05460C46102B83
:10BAA0006CD8DFE813F0FE006B006B006B006B00DE
:10BAB0006B006B006B006B006B006B00E7006B00B2
:10BAC00086006B006B006E0094F83080B5F824900F
:10BAD00094F83230B8F1000F00F0A581002B40F04F
